:0400000508000000EF
:020000040800F2
:10000000900800204D0B0008510B0008530B00080E
:10001000550B0008570B0008590B000800000000A2
:100020000000000000000000000000005B0B000862
:100030005D0B0008000000005F0B0008610B00086A
:10004000630B0008630B0008630B0008630B0008D8
:10005000630B0008630B0008630B0008630B0008C8
:10006000630B0008630B0008630B0008630B0008B8
:10007000630B0008630B0008630B0008630B0008A8
:10008000630B0008630B0008630B0008630B000898
:10009000630B0008630B0008630B0008630B000888
:1000A000630B0008630B0008630B0008630B000878
:1000B000630B0008630B0008630B0008630B000868
:1000C000630B0008630B0008630B0008630B000858
:1000D000630B0008630B0008630B0008630B000848
:1000E000630B0008630B0008630B000800F002F8C4
:1000F00001F0DCFC0AA090E8000C82448344AAF1E1
:100100000107DA4501D101F0D1FCAFF2090EBAE8DE
:100110000F0013F0010F18BFFB1A43F0010318473B
:100120009C210000BC210000103A24BF78C878C18F
:10013000FAD8520724BF30C830C144BF04680C60ED
:10014000704700000023002400250026103A28BF35
:1001500078C1FBD8520728BF30C148BF0B60704739
:1001600001F0E6BD70B504460D4600264FF48070E0
:10017000FF49086005F01F0040EA0406304600F021
:10018000B5FAFF2000F0B2FA064615F0800F03D052
:10019000FF2000F0ABFA06464FF48070F449091FC7
:1001A0000860304670BD2DE9F04104460D46164604
:1001B00000274FF48070EE49086005F01F0040EA08
:1001C0000407384600F092FA3746384600F08EFAB7
:1001D0004FF48070E749C1F81008BDE8F08170B5B0
:1001E00005460C464FF48070E14908603A2000F063
:1001F0007DFA05E06D1E002000F078FA2070641C86
:10020000002DF7D1002020704FF48070D849091FCD
:10021000086070BD70B505460C464FF48070D44937
:1002200008607A2000F062FA04E06D1E207800F089
:100230005DFA641C002DF8D14FF48070CC49091F81
:10024000086070BD10B5044604F06000CA49097822
:1002500088420ED003221F21A020FFF7A4FFC4F381
:1002600041121F218020FFF79EFF04F06000C24969
:10027000087010BD10B504462046FFF7E3FF214685
:100280000020FFF76FFF10BD70B504460D462046F5
:10029000FFF7D8FF2A4621464020FFF784FF70BDB4
:1002A00070B504460D462146D420FFF7EDFFE9B2B4
:1002B000D620FFF7E9FFC5F30721D720FFF7E4FFBA
:1002C00000BFEA20FFF7D6FF10F0010FF9D170BD93
:1002D00010B5044604F007017520FFF7D5FF10BDE7
:1002E00070B504464FF48070A149091F0860FF22D1
:1002F00000211046FFF757FF00209F49091D0860A5
:1003000000210820FFF7C0FF00210920FFF7BCFFF4
:1003100000210C20FFF7B8FF00210D20FFF7B4FFEC
:10032000FE210A20FFF7B0FF19210B20FFF7ACFFD9
:10033000FF210420FFF7A8FF19210520FFF7A4FFE4
:10034000FF210620FFF7A0FF1F210720FFF79CFFDA
:10035000B0213820FFF798FF3F212820FFF794FFB6
:1003600030212920FFF790FFF9213020FFF78CFF83
:10037000F7213120FFF788FF0D21C020FFF784FF10
:100380000021C120FFF780FF3322C2218020FFF728
:100390000AFF1221C620FFF777FF0C21C720FFF7C5
:1003A00073FF1221C420FFF76FFFDC21CA20FFF783
:1003B0006BFF0521CB20FFF767FF2178E420FFF7D3
:1003C00063FF6178E520FFF75FFFA178E220FFF788
:1003D0005BFFE178E320FFF757FF2179E020FFF78B
:1003E00053FF6179E120FFF74FFFE420FFF742FF61
:1003F0000546014661A001F0C1FAE520FFF73AFF8A
:100400000546014661A001F0B9FAE220FFF732FF8C
:100410000546014661A001F0B1FAE320FFF72AFF8B
:100420000546014661A001F0A9FAE020FFF722FF8E
:100430000546014661A001F0A1FAE120FFF71AFF8D
:100440000546014661A001F099FA4FF48071002041
:10045000FFF726FF4FF480711020FFF721FF1F20C8
:10046000FFF7F0FEC0221B218020FFF79CFE042234
:100470001F218020FFF797FE70BD10B57220FFF797
:10048000F9FE10BD70B504460D46FF210220FFF7AE
:10049000FBFE19210320FFF7F7FEFF202044C1B225
:1004A0000620FFF7F1FE41F6FF102044C0F30721BC
:1004B0000720FFF7E9FE002211467A20FFF773FEBE
:1004C00029462046FFF7A6FE08221F218020FFF7BD
:1004D0006AFE1C20FFF7CEFE10F0020F04D00822A7
:1004E0001F21A020FFF75FFE70BD2DE9F0410446FB
:1004F0000D463920FFF7BEFE10B90020BDE8F0819F
:100500001D48001D0068C1B20020FFF7BDFE1A485B
:10051000001D0068C0F307210120FFF7B5FE002190
:100520003A20FFF71FFE1449091D086000213A20F8
:10053000FFF718FE1049091D096841EA00200E491D
:10054000091D086000213A20FFF70CFE0746002134
:100550003A20FFF707FE47EA00273F1F00213A2015
:10056000FFF700FE064600213A20FFF7FBFD35E0CD
:100570001408014000000140000000204D414144AA
:100580005235203D20307825780D0A004D414144F8
:100590005234203D20307825780D0A004D414144E9
:1005A0005233203D20307825780D0A004D414144DA
:1005B0005232203D20307825780D0A004D414144CB
:1005C0005231203D20307825780D0A004D414144BC
:1005D0005230203D20307825780D0A0046EA00266A
:1005E000601EB84200D2671E16F0800F01D10027AE
:1005F00003E029463846FFF7F2FD0A480068C1B219
:100600000C20FFF741FE07480068C0F307210D20CA
:10061000FFF73AFE40221E218020FFF7C4FD384636
:100620006CE700000400002070B504460D4620462B
:1006300000F04BFA70BD70B5054600F052FA044662
:1006400000F043FA70BD10B50446204600F03DFAB4
:1006500010BD01464FF0FF30704700BFFEE70000BD
:1006600000B587B00121080301F0BAFBE020ADF826
:10067000040001208DF8060018208DF8070001A95C
:10068000274801F05DFB4FF48070ADF804000120B5
:100690008DF8060010208DF8070001A9204801F010
:1006A0004FFB0020ADF808004FF48270ADF80A004F
:1006B0000020ADF80C00ADF80E00ADF810004FF4BE
:1006C0000070ADF812000820ADF814000020ADF85D
:1006D00016000720ADF8180002A9124801F0A1FB8E
:1006E0000121104801F088FB07B000BD10B5044699
:1006F00000BF02210B4801F089FB0028F9D02146F8
:10070000084801F08CFB00BF0121064801F07EFB88
:100710000028F9D0034801F080FBC0B210BD0000F2
:1007200000080140003001401220CE4908607047A7
:10073000CD48CE494860CE48086000BF00BFCB48D6
:10074000006810F4003FFAD000BFC848006810F0FD
:10075000007FFAD000BFC548406800F00C000828B0
:10076000F9D1704745F25550C249086002204860EF
:1007700040F69F7088604AF6AA2008604CF6CC408C
:1007800008607047BC484FF0E021486106200861CE
:10079000002088610846006940F001000861704748
:1007A000B248C06940F08050B049C861B3480068A1
:1007B00040F48070B1490860AC48006A40F0010024
:1007C000AA49086200BFA948006A10F0020FFAD0D7
:1007D000A648006A40F40140A4490862A84800887D
:1007E00040F01000A749A1F804080020A449091D01
:1007F000088047F6FF70091D08800020A0491431C9
:100800000880091D0880091D08803C20091D0880FA
:1008100001209C49A1F800084FF0E020D0F8000129
:1008200040F008004FF0E021C1F800019548B0F811
:10083000040820F010009249088000BF904800880A
:1008400010F0200FFAD08D48006820F480708B499A
:100850000860704700BF8548C06940F001008349C7
:10086000C86100208904088540F65F108885002053
:10087000088088800885482088851E20888641F267
:10088000883008870520888700207F4908804FF43A
:10089000C0400906088360208883881508840420E6
:1008A00008800020888000BF4FF08040008840F022
:1008B00001004FF08041088000BF00BF70476B48C7
:1008C000806940F004006949886170487049086097
:1008D0004FF44C706F49C1F804086448806940F0D7
:1008E0000800624988614FF440106B4908606B480A
:1008F0006849C1F8040C5D48806940F010005B490C
:1009000088610020664908604FF4800048605748BD
:10091000806940F02000554988614FF04C70614972
:10092000086030205E49C1F8040400BF704700BF72
:100930004E48806940F004004C4988615448001DCD
:10094000006820F47F605349C1F804080846D0F8D5
:10095000040840F0B000C1F804080846D0F80408C4
:1009600040F48060C1F804084048806940F4804049
:100970003E49886140F6C4104B49088000204B492D
:10098000A1F80C08A1F810080846B0F80C08464970
:10099000091D088000204549A1F814080846B0F850
:1009A0000C0840F00C00A1F80C0800BF3E48001DE8
:1009B000008840F400503D49A1F80C0800BF00BF7A
:1009C000704700BF00BF00BF00BF00BF00BF00BF37
:1009D00000BF00BF00BF00BF00BF00BF00BF00BF1F
:1009E00000BF70472148C06940F000601F49C861DE
:1009F0000846C06940F08050C8612048006840F453
:100A000080701E4908600020294908802949A1F802
:100A1000340C0846B0F8340C40F00300A1F8340C54
:100A20001648006820F48070144908602048001DB2
:100A3000008810F0040F07D01F48006840F0040041
:100A40004FF0E021C1F80001704700B5FFF76CFEE0
:100A5000FFF76EFEFFF733FFFFF769FF00BD174892
:100A60007047000000200240028411000010024084
:100A70008200010100300040FF3D4900007000404D
:100A8000042800400020004040000040040B3333A5
:100A90000008014000000140000C014000404444B7
:100AA00000100140001401400838014000300140AE
:100AB000306C00400060004000E100E0001BB70027
:100AC00000E0401E0028FCD1704700BF1349098890
:100AD00011F0800FFAD0C0F30801104A121D1180E6
:100AE000704700BF0D48008810F0200FFAD00B4867
:100AF000001D0088C0F30800704710B50024FFF700
:100B0000A4FF07A000F03AFFFFF7AAFD0AA000F03B
:100B100035FF00F0C3F8204610BD0000003801404A
:100B2000535049315F496E697420737461727469FE
:100B30006E672E2E2E0D0A00656E6332386A3630CF
:100B400020696E69742E2E2E0D0A00000848004799
:100B5000FEE7FEE7FEE7FEE7FEE7FEE7FEE7FEE76D
:100B6000FEE7FEE703480449024A044B70470000D1
:100B7000ED0000089006002090080020900600205C
:100B800010B5044605222146E54800F036FF08B9B5
:100B9000012010BD0020FCE770B50446002520466A
:100BA000FFF7EEFF08B9FF2070BD07E020782F287F
:100BB00001D1641C0CE0681CC5B2641C207838B1FB
:100BC0000A2D05DA20782C2802DD20787B28EDDB41
:100BD00000BF20783A2806DA20782F2803DD207815
:100BE0003038C0B2E0E7FE20DEE770B504460D46BF
:100BF000CCA20021204600F06BFC0646D9A231466B
:100C0000204600F065FC064635B1DCA231462046A0
:100C100000F05EFC064605E0E1A23146204600F009
:100C200057FC0646DFA23146204600F051FC06463E
:100C3000BB4A203A3146204600F057FC0646B84AE7
:100C40003146204600F051FC0646DBA231462046E4
:100C500000F03EFC0646B24A203A3146204600F0FB
:100C600044FC0646AE4A3146204600F03EFC0646AD
:100C700035B1DBA23146204600F02AFC064605E0ED
:100C8000DCA23146204600F023FC0646DE4A31460F
:100C9000204600F01DFC0646304670BD2DE9F04FA1
:100CA00089B000260027B146D848FFF719FB9C48B9
:100CB00008380068C2B2D649D44800F039FA40F288
:100CC000A4711420FFF7ECFA0220FFF701FB25E1E5
:100CD000D04940F2DC50FFF708FC044604B91DE19E
:100CE0002146CC4800F03CFA18B1CA4800F00EFB8F
:100CF00014E12146C74800F053FA00B90EE1C54897
:100D0000C07D012809D1C34890F82200082804D1E9
:100D10002146C04800F02AFB00E1BE48C07D0628FD
:100D20006FD1BC4890F824000028F9D1B94890F858
:100D300025007B4908390968884279D1B54890F87F
:100D40002F0010F0020F03D0B24800F070FBE5E076
:100D5000B04890F82F0010F0100F69D0AD4800F0A7
:100D600097FB00F08AFB05464DB9AA4890F82F0082
:100D700010F0010F02D0A74800F0C5FBCEE0A54857
:100D800041190422A4A000F038FE30B1A4A2002131
:100D9000A04800F09DFB044642E09E4A281D111821
:100DA0000222AEA000F029FE002819D1ACA2002139
:100DB000984800F08DFB0446B5A22146954800F006
:100DC00087FB0446564A203A2146924800F08DFBA4
:100DD0000446B2A221468F4800F07AFB04461FE089
:100DE0008C4A691D5018FFF7D7FE804618F10100A4
:100DF00008D1854A4C320021864800F069FB044640
:100E00000EE015E0B8F1010F00D10126B8F1000F96
:100E100000D1002631467F48FFF7E7FE044600BFB9
:100E20007C4800F070FB21467A4800F0A0FB75E09A
:100E30007848C07D112870D1764890F824000428A5
:100E40006BD1744890F82500B02866D1714890F8AD
:100E50002700083800F0FF096E482A30FFF790FE9F
:100E6000002848D000270AE0781CC7B207F12A0002
:100E70006849085C2C2802D1781CC7B201E04F45B4
:100E8000F2DB00BF022F09DBA9F10300B84205DB4A
:100E900007F12B005F49085C3D2804D083A101A81D
:100EA00000F086FD2CE007F12A005A49085C7428FE
:100EB0001CD107F12C00574911F800A0BAF1310FED
:100EC00004D17DA101A800F073FD19E0BAF1300F43
:100ED00004D17AA101A800F06BFD11E0BAF13F0F37
:100EE00004D176A101A800F063FD09E074A101A876
:100EF00000F05EFD04E076A101A800F059FD00BFFE
:100F000001A800F09EFD00F0FF0B0548001F5A46A7
:100F100001A903683F4800F048FA00BFD8E6000086
:100F200030000020485454502F312E3020323030C1
:100F3000204F4B0D0A436F6E74656E742D5479709B
:100F4000653A20746578742F68746D6C0D0A507260
:100F500061676D613A206E6F2D63616368650D0A8C
:100F60000D0A00003C63656E7465723E3C703E4C39
:100F70004544CAE4B3F63A20000000003C666F6EB8
:100F80007420636F6C6F723D2223303046463030E0
:100F9000223E20C1C13C2F666F6E743E00000000EF
:100FA000C3F00000203C736D616C6C3E3C612068B6
:100FB0007265663D22000000223E5BCBA2D0C25D7E
:100FC0003C2F613E3C2F736D616C6C3E3C2F703E3C
:100FD0000A3C703E3C6120687265663D220000005C
:100FE0002F30223EB9D8B1D54C45443C2F613E3C10
:100FF000703E00002F31223EBFAAC6F44C45443C4F
:101000002F613E3C703E0000EC210008681E000885
:101010006E1E0008500000204745542000000000CC
:10102000485454502F312E3020323030204F4B0D49
:101030000A436F6E74656E742D547970653A20742E
:101040006578742F68746D6C0D0A0D0A3C68313E2A
:10105000323030204F4B3C2F68313E002F200000B3
:10106000485454502F312E3020323030204F4B0D09
:101070000A436F6E74656E742D547970653A2074EE
:101080006578742F68746D6C0D0A0D0A00000000FD
:101090003C703E55736167653A2000007061737360
:1010A000776F72643C2F703E00000000653D6E6FEC
:1010B0005F636D6400000000743D3100743D3000DA
:1010C000653D6E6F5F737563685F636D64000000FC
:1010D000653D696E76616C69645F70770000000041
:1010E00030B503460024012A03D11134A1F10800D0
:1010F0000444022A03D1A41DA1F10800044406E01F
:1011000058781D7840EA052004449B1C891E01295B
:10111000F6D811B1187804EB002402E0A0B200EB7D
:101120001444200CFAD14FF6FF7584EA050030BD57
:1011300030B50023FD4C227005E0CC5CFB4D13352F
:10114000EC545C1CE3B2042BF7DB002305E0C45C29
:10115000F64D0D35EC545C1CE3B2062BF7DB30BDCD
:1011600010B503460022292901D2002010BD187BAA
:10117000082802D1587B062801D00020F6E70BE0B2
:1011800002F12600185CE94C1334A45CA04201D0A3
:101190000020EBE7501CC2B2042AF1DB0120E5E796
:1011A00010B5034600222A2901D2002010BD187B69
:1011B000082801D1587B08B10020F7E7987B452823
:1011C00001D00020F2E70BE002F11E00185CD74CC2
:1011D0001334A45CA04201D00020E7E7501CC2B247
:1011E000042AF1DB0120E1E700210AE08A1D835C8B
:1011F0000A468354CD4A0D32535C8A1D83544A1CDF
:10120000D1B20629F2DB704730B5044600202076C3
:10121000607640202075002060754020A075002277
:10122000142104F10E00FFF75BFF0546280A207623
:10123000657630BD30B5054600240CE004F11A0097
:10124000295C001D2954B9481330015D04F11A00CE
:101250002954601CC4B2042CF0DB2846FFF7D4FFED
:1012600030BDF0B5002409E004F12206875DB61C0C
:1012700087550027B61E8755661CF4B2022CF3DB97
:10128000AA4E367880F82360042413E004F1250682
:10129000865D314404F12906855D81551BB104F159
:1012A0002506855503E0002704F125068755090A20
:1012B000661EF4B2002CE9DC8BB9002600F8266F1C
:1012C00046709A4E0C36367886700026C6702638E0
:1012D000964E0C363678B61C944F0C373E7000266E
:1012E00080F8326080F8336062B102262E300672D8
:1012F00004264672052686728026C672602600F88D
:101300002E6902E0502680F82E60F0BD70B50546CB
:1013100000242846FFF768FF002028750220687522
:101320000CE004F11600295C0A3029547F480D3086
:10133000015D04F116002954601CC4B2062CF0DBD8
:1013400000240CE004F11C00295C0A302954774881
:101350001330015D04F11C002954601CC4B2042C3C
:10136000F0DB29462A20FFF78DF870BD70B50446E2
:101370000D462046FFF738FF2046FFF75BFF0020B1
:1013800084F8220094F82400F72804DD94F825005E
:10139000401C84F8250094F82400083084F82400C8
:1013A00021462846FFF76EF870BD2DE9F047044648
:1013B0000D4691461E4600272046FFF715FFB9F15E
:1013C000DC0F01DD4FF0DC090020207409F11C0066
:1013D00060742046FFF72EFF300A04F8240F667071
:1013E0000020A07009F10800E070002020716071F9
:1013F000243C05E0E95D07F12A002154781CC7B2BE
:101400004F45F7DB09F11001012204F11A00FFF743
:1014100067FE80464FEA182084F8280084F8298067
:1014200009F12A002146FFF72DF8BDE8F08770B5D5
:1014300004462046FFF7D8FE002020742C2060745C
:101440002046FFF7F7FE122084F82F000023012228
:1014500011462046FFF705FF0222202104F11A0061
:10146000FFF73EFE0546280A84F8320084F8335020
:1014700021463A20FFF706F870BD2C480830006876
:1014800020B12A48001D0068223070470020FCE788
:10149000027C417C62F31F21244A0832116011460C
:1014A00009681439116090F82E1009118900121F73
:1014B0001160111D09681268891A1C4A08321160EE
:1014C0001146096819B90021184A0832116070479D
:1014D00010B5034603E001F136001C54491C12F814
:1014E000014B002CF7D1084610BD10B5034605E0AE
:1014F000147801F136001C54491C521C1078002845
:10150000F6D1084610BD70B505462846FFF76CFEBB
:10151000102085F82F0005480830006840B90123E5
:10152000002219462846FFF79CFE08E038000020FC
:1015300001230022214801682846FFF792FE282453
:10154000200A28746C742846FFF774FE02221C21BE
:1015500005F11A00FFF7C4FD0446200A85F83200A1
:1015600085F8334029463620FEF78CFF70BD70B5F4
:1015700004460D46192084F82F0005F12806300A8C
:10158000207466742046FFF73FFE002084F8320086
:1015900084F8330005F11C01022204F11A00FFF760
:1015A0009FFD0646300A84F8320084F8336005F166
:1015B00036002146FEF766FF70BD000040000020A7
:1015C000704700002DE9FF5F4FF0000904460D460B
:1015D0004FF0010A4FF0800BC0F83C90E06A0768BA
:1015E000B84604E0E06AE16B0768491CE163A16A60
:1015F0008847060001D0252EF4D1B84504D03A46DC
:1016000041462046236A9847002E70D0A64F0026F8
:101610007F44D4E90A108847202807DB312805D207
:10162000391811F8201C09B10E43F2E7C4F83890BC
:101630000027C4F834902A280ED101CD04EB87018D
:101640004863D4E90A108847012F26D1A16B0029ED
:101650002DDA26F020062AE0A0F130010A291AD25C
:10166000BAF1000F17D004EB8708C8F8341008E06F
:10167000D8F8341001EB810100EB41003038C8F894
:101680003400D4E90A108847A0F130010A2902D2B7
:10169000BAF1000FECD1012F09D02E2807D1D4E9DF
:1016A0000A1088477F1C022F46F02006C3DB616BBF
:1016B000002903DA494246F001066163F10701D0CF
:1016C00026F01006B10701D526F004066C2801D0DB
:1016D000682813D10746D4E90A108847B84207D1D1
:1016E00058466C2F01D04FF48060064316E08CE022
:1016F00040216C2F00D089000E4312E04C2805D009
:101700006A2803D0742801D07A280AD149464C2887
:1017100003D059466A2800D000210E43D4E90A10AC
:1017200088476528A6616FD014DC4728FBD008DC09
:1017300000286AD0412869D04528F4D04628F2D044
:101740001CE0582857D06128F5D063281DD06428A4
:1017500074D013E06F2861D008DC6628E3D06728D6
:101760007FD069286AD06E2839D007E0702842D02F
:1017700073281BD0752861D078283CD0E269616A53
:101780009047E06B401CE06328E70122700606D515
:10179000ADF8069001CD01A9ADF804000BE08DF87D
:1017A0000190694601CD8DF800000EE002CD4FF0AA
:1017B000FF32700609D5206B0028204602D0AFF317
:1017C00000800BE7AFF3008008E7206B002820467D
:1017D00002D0AFF3008001E7AFF30080FEE67005B2
:1017E00004D4F00502D4300600D47006204602CDA1
:1017F000AFF30080F2E6310609D5ED1D25F00705AF
:10180000D5E90023083504E02BE046E037E004CDBD
:101810004B460146204600F049F8DFE6300606D583
:10182000ED1D25F00705D5E90023083501E004CDBD
:101830004B462046AFF30080D0E6FFE731060AD5DD
:1018400001462046ED1D25F00705D5E900230835A2
:10185000AFF30080C2E604CD01462046AFF300801E
:10186000BCE6ED1D25F00705D5E900120835CDE9E8
:1018700002120146204602AAAFF30080AEE6ED1D3B
:1018800025F00705D5E900120835CDE90212014619
:10189000204602AAAFF30080A0E6E06B04B0BDE8EA
:1018A000F09F704770477047740C00002DE9F04FAF
:1018B00007460D46104689B0DFF8AC80F844582939
:1018C00001D0A8F11108B969090602D504461E46DF
:1018D00004E03946AFF30080002604460FF28C097D
:1018E000B8694FF0000A010716D5702D04D10FF228
:1018F00080094FF0010A11E0002386EA030184EA1F
:10190000030008430FD00FF26C09782D01D00FF2BD
:1019100068094FF0020A06E0702D04D140F0200063
:10192000B8610820B86300250DF1040B0AE004F04B
:101930000F00240918F8000044EA06740BF80500AB
:101940006D1C3609002386EA030184EA030008437C
:10195000EDD14B462A46384601A9CDF800A000F04B
:10196000EFF809B0BDE8F08FEA09000000000000C0
:101970004000000030780000305800000FB40A4AE0
:101980000A4910B503AB7944029800F02BF90446DC
:101990000548FEF75EFE20B14FF0FF3010BC5DF849
:1019A00014FB2046FAE70000080000209FECFFFF30
:1019B00040EA0103024630B59B0710D14FF00134D5
:1019C00000E008C208C91D1B9D4315EAC41FF8D0DA
:1019D00013F0FF0102F8011B0ED01B0AF8E711F803
:1019E000014B02F8014B002C134605D011F8014BB6
:1019F0005A1C002C1C70F2D130BD40EA010330B5F6
:101A00009B0710D14FF0013402E0001D091D121F89
:101A1000042A08D303680D68AB4204D11D1B9D4303
:101A200015EAC41FF1D00AB9002030BD10F8013BFF
:101A300011F8014B1BB1A34201D1521EF6D1181B64
:101A400030BD10B5441C04E010F8011B09B9001B9F
:101A500010BD8107F8D14FF0013202C88B1A8B43B9
:101A600013EAC21FF9D0001B11F0FF0F01D1C01EF5
:101A700010BD11F47F4F01D1801E10BD11F47F0FF6
:101A8000FBD1401E10BD7047744600F02EF8A646EC
:101A90000DB500F04FF80400BDE80D40110070478F
:101AA000020010B50020AFF3008010BDAFF300803E
:101AB000FFF7EAFF03B400F02BF903BC00F0C8F80D
:101AC0000FB400F02AF90FBCFFF717F800F0BAF8CE
:101AD00001B5AFF3008000F012F9BDE8014000F05D
:101AE00002F86FF00000FEF7B8FD754600F094F8BC
:101AF000AE4605006946534620F00700854618B0FB
:101B000020B5FFF72FF8BDE820404FF000064FF05A
:101B100000074FF000084FF0000B21F00701AC4622
:101B2000ACE8C009ACE8C009ACE8C009ACE8C00941
:101B30008D467047014870477047000040060020FE
:101B40002DE9F0478946044615469A468169DDF835
:101B50002080880604D5A06B21F01001A16100E06F
:101B600001200027A84200DD471B606B7919414422
:101B7000401A6063A069C00602D42046AFF300801B
:101B8000002608E0E2691AF80600616A9047E06BF7
:101B9000401C761CE0634645F4DBA069C0060AD50C
:101BA0002046AFF3008006E0E269616A302090478A
:101BB000E06B401CE063381EA7F10107F4DC07E08E
:101BC000E26919F80500616A9047E06B401CE06328
:101BD000281EA5F10105F3DC2046AFF30080BDE827
:101BE000F08700000FB50846194691B007900848E5
:101BF00009927844089000200C90064878440A9096
:101C000011A80B906846FFF7DDFC15B000BD000081
:101C10002B0000003B000000004870473006002009
:101C200070B505460C46164604E0EB6914F8010B46
:101C3000696A9847B442F8D370BD01684A1C0260D3
:101C4000087870470446AFF300802046FFF740FF56
:101C50002DE9FE4304460D4600F0FFF80020CDE9D3
:101C60000045AFF3008002906846FEF779FA04461B
:101C70000D46DDE9000117461E46AFF30080AFF3C5
:101C80000080AFF3008000210846AFF3008080465B
:101C900000F048F800218146C0F800800846AFF304
:101CA0000080411CC9F8041000210846AFF30080F1
:101CB0000021C9F808000846AFF300800021C9F8E8
:101CC0000C000846AFF30080C9F81000AFF30080A5
:101CD000AFF30080AFF30080AFF30080AFF300807C
:101CE000AFF30080AFF30080AFF30080AFF300806C
:101CF00003B0204629463A463346BDE8F08310B586
:101D00000020AFF30080AFF30080AFF3008010BD80
:101D10006FF000006FF00201704710B5AFF3008064
:101D200010BD0000014870477047000050060020B9
:101D300070470000014870477047000034060020DB
:101D4000F0B5CB780022DC0603F00F0301D58C78C8
:101D500023430C880F2714F0FF0F4FF0010C1CD009
:101D6000D0F800500E880CFA02F42640A64210D19A
:101D7000960007FA06FE25EA0E0E03FA06F5CE785F
:101D800045EA0E05282E00D14461CE78482E00D1B8
:101D90000461521C082AE5D305600A88FF2A1ED96F
:101DA0004568002202F108060CFA06F40E88264067
:101DB000A64210D1960007FA06FE25EA0E0E03FA97
:101DC00006F5CE7845EA0E05282E00D14461CE787E
:101DD000482E00D10461521C082AE3D34560F0BDAF
:101DE000044A0029916901D0014300E081439161D7
:101DF00070470000001002400029018802D041F025
:101E0000400101E021F04001018070470246128943
:101E100000200A4200D001207047808970478181EC
:101E2000704770B502880B884E888C88CD88334304
:101E30002C430E8923434C8933438D892343CC891A
:101E40002B4302F44152234313430380828B22F439
:101E500000628283098A018270BD10B5FFF76AFFB4
:101E60004FF00001016010BD545558100024C0A867
:101E700002193C703E3C623E3C7370616E206C61A6
:101E80006E673D454E2D55533E412F44203C2F73E8
:101E900070616E3ECEC2B6C8BCE0CAD33C737061FE
:101EA0006E206C616E673D454E2D55533E3A283C81
:101EB0002F7370616E3EB7B6CEA73C7370616E0D26
:101EC0000A6C616E673D454E2D55533E307E3C7326
:101ED00074313A63686D6574636E7620556E69740B
:101EE0004E616D653D22A1E3432220536F757263FD
:101EF0006556616C75653D2235302220486173530B
:101F0000706163653D2246616C7365220D0A4E6502
:101F10006761746976653D2246616C736522204E67
:101F2000756D626572547970653D2231222054438B
:101F300053433D22302220773A73743D226F6E2244
:101F40003E3530A1E3433C2F7374313A63686D65CD
:101F500074636E763E293C2F7370616E3E3C2F6237
:101F60003E3C2F703E0D0A0D0A3C7461626C652088
:101F7000636C6173733D4D736F4E6F726D616C5422
:101F800061626C6520626F726465723D31206365C9
:101F90006C6C73706163696E673D302063656C6C57
:101FA00070616464696E673D302077696474683D70
:101FB0003534300D0A207374796C653D2777696478
:101FC00074683A3430352E3070743B6D736F2D6306
:101FD000656C6C73706163696E673A30636D3B6208
:101FE00061636B67726F756E643A7265643B626FB2
:101FF000726465723A6F757473657420342E35702F
:10200000743B0D0A206D736F2D70616464696E6797
:102010002D616C743A30636D2030636D2030636DD8
:102020002030636D273E0D0A203C74722073747952
:102030006C653D276D736F2D796674692D69726FBC
:10204000773A303B6D736F2D796674692D666972CE
:102050007374726F773A7965733B6D736F2D796620
:1020600074692D6C617374726F773A796573273E6A
:102070000D0A20203C7464207374796C653D2770D0
:10208000616464696E673A30636D2030636D20303F
:10209000636D2030636D273E0D0A20203C74616221
:1020A0006C6520636C6173733D4D736F4E6F726D21
:1020B000616C5461626C6520626F726465723D3060
:1020C0002063656C6C73706163696E673D3020637B
:1020D000656C6C70616464696E673D300D0A202028
:1020E000207374796C653D276D736F2D63656C6C1F
:1020F00073706163696E673A30636D3B6D736F2D0A
:1021000070616464696E672D616C743A30636D2030
:1021100030636D2030636D2030636D273E0D0A20E3
:1021200020203C7472207374796C653D276D736F49
:102130002D796674692D69726F773A303B6D736FD4
:102140002D796674692D6669727374726F773A7946
:1021500065733B6D736F2D796674692D6C61737453
:10216000726F773A796573273E0D0A202020203C54
:102170007464207374796C653D276261636B677268
:102180006F756E643A6C696D653B70616464696E0D
:10219000673A30636D2030636D2030636D203063AB
:1021A0006D273E0D0A202020203C7020636C617357
:1021B000733D4D736F4E6F726D616C3E3C73706119
:1021C0006E206C616E673D454E2D55533E266E6206
:1021D00073703B3C2F7370616E3E3C2F703E0D0A56
:1021E000202020203C2F74643E0D0A003C2F6365A4
:1021F0006E7465723E3C68723E3C62723E53544D52
:102200003332463130335642543620BBF9D3DA5597
:10221000434F532D49492056322E383520574542D9
:1022200020CDF8D2B3CAD4D1E92D2D2D2DD1F4D69D
:10223000BED3C20A00000000485454502F312E3043
:102240002034303120556E617574686F72697A651B
:10225000640D0A436F6E74656E742D547970653A1F
:1022600020746578742F68746D6C0D0A0D0A3C68D3
:10227000313E34303120556E617574686F72697A01
:1022800065643C2F68313E00040000080000000037
:1022900000000002000100001030313233343536C6
:1022A0003738396162636465660030313233343502
:1022B000363738394142434445460000DC220008A5
:1022C0000000002050000000280100082C23000816
:1022D00050000020400800004401000800000000F9
:1022E000000000000000000000000000687474702E
:1022F0003A2F2F3139322E3136382E322E32352FB9
:102300000000000050000000B004000031323334FF
:102310003536000050000000000000000000000002
:0C2320000A0000000000000000000000A7
:00000001FF
