:1004A500030B090D0C0E060707060E0C0D090B03B1
:0A04B500C0F9A4B0999282F880907B
:0404E5000213006F8F
:10000300C297E4F50BF50C20A00D30A0FD750C0193
:100013009004B6E493F58020A10D30A1FD750C0288
:100023009004B7E493F580120383E50C24FE600883
:100033000470081204BF80031204D2E51370C8E5EC
:100043001412045B012F0701350A013B0D01411016
:10005300014713014D15015317015919015F1B0185
:10006300651D016B1F017121017723017D2501832B
:1000730027018929018F2B01952D019B2F01A13187
:1000830001A73301AD3501B33701B93901BF3B01D5
:10009300C53D01CB3F01D14101D74301DD4501E31B
:1000A3004701E94901EF4B01F54D01FB4F020151B6
:1000B300020753020D55021357021959021F5B021F
:1000C300255D022B5F023161023763023D65024306
:1000D30067024969024F6B02556D025B6F026171E2
:1000E300026773026D75027377027979027F7B026F
:1000F300857D028B7F029181029783029D8502A3F6
:100103008702A98902AF8B02B58D02BB8F02C19111
:1001130002C79302CD9502D39702D99902DF9B02BE
:10012300E59D02EB9F02F1A00000000A750864023E
:10013300000A75086302000A75086202000A75085E
:100143006102000A75086002000A75085F02000A6E
:1001530075085E02000A75085D02000A75085C02F4
:10016300000A75085B02000A75085A02000A75083E
:100173005902000A75085802000A75085702000A56
:1001830075085602000A75085502000A75085402DC
:10019300000A75085302000A75085202000A75081E
:1001A3005102000A75085002000A75084F02000A3E
:1001B30075084E02000A75084D02000A75084C02C4
:1001C300000A75084B02000A75084A02000A7508FE
:1001D3004902000A75084802000A75084702000A26
:1001E30075084602000A75084502000A75084402AC
:1001F300000A75084302000A75084202000A7508DE
:100203004102000A75084002000A75083F02000A0D
:1002130075083E02000A75083D02000A75083C0293
:10022300000A75083B02000A75083A02000A7508BD
:100233003902000A75083802000A75083702000AF5
:1002430075083602000A75083502000A750834027B
:10025300000A75083302000A75083202000A75089D
:100263003102000A75083002000A75082F02000ADD
:1002730075082E02000A75082D02000A75082C0263
:10028300000A75082B02000A75082A02000A75087D
:100293002902000A75082802000A75082702000AC5
:1002A30075082602000A75082502000A750824024B
:1002B300000A75082302000A75082202000A75085D
:1002C3002102000A75082002000A75081F02000AAD
:1002D30075081E02000A75081D02000A75081C0233
:1002E300000A75081B02000A75081A02000A75083D
:0402F3001902000AE2
:09043100E51593F590AF14AE132C
:10043A00E4F50EC3E50E9FEE6480F8748098500EC2
:10044A00E4F5100510E510B40AF9050E80E502037B
:01045A00DCC5
:0504810093F5B07F08B7
:10048600E4F50EC3E50E9FEE6480F8748098500480
:0F049600050E80EFE4F5100510E510B4FFF92214
:1004BF00E4F5159004AD1204310515E515C3940844
:0304CF0040F122D7
:1004D200E4F5159004A51204310515E515C3940839
:0304E20040F122C4
:10038300C29720A2297FFF7E00120486E51415146C
:1003930070021513D3E5149407E513648094805019
:1003A300067513007514079004B8E493F58020A331
:1003B300277FFF7E001204869004B9E493F580053D
:1003C30014E51470020513C394A0E51364809480AC
:0903D30040067513007514A02208
:1003DC00E50875F06484F509E50875F06484E5F0CA
:1003EC0075F00A84F50FE50875F00A8485F00A5358
:1003FC00A07F9004B5E493F5B07F087E00120486CC
:10040C0043A0F053A0BFE50912048143A0F053A010
:10041C00DFE50F12048143A0F053A0EFE50A1204AC
:05042C008143A0F02255
:030000000202F702
:0C02F700787FE4F6D8FD75811502033E07
:10030300020003E493A3F8E493A34003F68001F20D
:1003130008DFF48029E493A3F85407240CC8C333FB
:10032300C4540F4420C8834004F456800146F6DFCA
:10033300E4800B01020408102040809004E5E47E71
:10034300019360BCA3FF543F30E509541FFEE493BF
:10035300A360010ECF54C025E060A840B8E493A386
:10036300FAE493A3F8E493A3C8C582C8CAC583CAB1
:10037300F0A3C8C582C8CAC583CADFE9DEE780BE69
:0104E9000012
:10045B00D083D082F8E4937012740193700DA3A330
:10046B0093F8740193F5828883E473740293686044
:06047B00EFA3A3A380DF44
:00000001FF
