:020000040000fa
:080000000002040000000000f2
:020000040000fa
:10040000ef462100007f220000018800000000006c
:100410000a00070011000700000020000000e000b3
:10042000020032000000020000000000f02b020079
:10043000000000000040da000000fe004440a90077
:10044000201520000000e000030032000000200022
:10045000a00188004440a8000000060000f8220027
:10046000010020001500370062004000e0804800d5
:10047000910188009001ba0062004000e0804800cd
:10048000910188009002ba0062004000e0804800bc
:100490000002eb006028e10004003a000059eb0084
:1004a0008301e900fdff3e00040037006128e10000
:1004b000010032000082eb00050007009101880076
:1004c0001001ba000200e000e7ff3a00000005005a
:1004d000910188008002780062004000e0804800be
:1004e0003559ba008301e900080032002559ba00e5
:1004f0008301e900050032000400e000f4ff32004f
:1005000015d9ba008301e900f1ff3a0000000600a6
:10051000fe050400000000000000040000000000d0
:100520008001eb000200370061f079008301e800f0
:10053000828f5100fcff3a000000060061c12000dc
:10054000120007000000e0000600350061c1200035
:10055000a0002000530007008000eb000000e00036
:1005600001003d008080eb000100780000000600e3
:100570008001eb0002003700817178008301e80000
:10058000828f5100fcff3a0000000600889fbe00e9
:100590008a9fbe0000057800810478002d00370096
:1005a000c900900069009000808f5000040039005d
:1005b00009007800610007000000e0003500350008
:1005c000004020001900600009003200a100200056
:1005d0000a0078009c000700800578000000e00019
:1005e000040032000a0050000004e8000400370054
:1005f000800578000a0078009e000700000478005b
:10060000c90190006900900003005000880f50005d
:1006100002003100000478008005eb00080178003a
:100620008a00780003007800bdff07000805450038
:100630004900900000004400c00498000b00e00056
:100640000400320009007800910007000000e0007b
:1006500010003a001a04e000d1ff3a0000802000a8
:1006600019006000040032000900780088000700cb
:100670000000e00007003a0000c020001900600000
:100680000500320049009000e00498000000eb00f3
:10069000010037000080eb004f05be004f04be0094
:1006a00000000600889fbe008a1f78008004780042
:1006b0000104780000457800c100900068009000b7
:1006c000808f500004003900080078001b000700ec
:1006d0000000e0001500350048009000095878003f
:1006e000400498001800780000b8a30004003a0005
:1006f00000a8a30006003200ea4f550004003a00ab
:1007000008007800620007000000e00007003a00df
:1007100000c0200018006000020032004800900075
:10072000600498000a80fb00010037000080eb00a5
:100730004f0578004f04be0000000600889fbe00f1
:1007400000047800c0019000600090008000eb0081
:10075000808f5100390039001801780020002900ed
:1007600000006100e20f500007003200002020006e
:100770000200e0000100350000202400000c7100a0
:100780008080eb002d003700010026000100610091
:10079000810f500008003a0038009000808f51000f
:1007a0000500390008007800390007008080eb0060
:1007b0000000e00021003a0000c0200018006000a6
:1007c00017003a00a80490006002200008004000d2
:1007d000808f540012003a000020200069000700ba
:1007e00080007800200498000000e00005003a0036
:1007f00029049800490498000900e8003004980092
:10080000060037001860a000400498000020b000e7
:1008100030049800410c9800510c9800ab00070080
:100820002800900050049800380090006004980060
:1008300000002600180c70008000eb00010078001a
:100840004f04be00000006008001eb00104178005c
:10085000814f510001003a00800178000204e0005d
:10086000020032000000e800f8ff370003007800c3
:100870000000060080007800010037000000e8005a
:100880001004e000fdff3a000100500000000600e7
:10089000889fbe00000478000000e0000e003a00cf
:1008a00080047800e8bd2000180078000000e00017
:1008b00004003200f6ff07000000e00001003d00e8
:1008c0008084eb000884e800e0be2000800f540024
:1008d00029003200f4ff37000000220018006000f9
:1008e00024003200a80490000800370009015000dd
:1008f000384090000000fb008900780013010700d9
:100900000000e000130034008084440048009000a0
:10091000808f5400f5ff39002800900040049800b3
:100920001801780000c020000000610002003200c1
:10093000a800900001003700b800900000002400db
:10094000000061000a003200610498008004eb009e
:1009500009003700280090004004980060049800c7
:10096000500c98001890a0008084eb000200370023
:10097000510c980080047800090078004f04be00f4
:1009800000000600889fbe00e30440000900a100ab
:10099000808f54004a003600e38f540001003e006f
:1009a00049002000426380000200e00002003200a3
:1009b000820078000c003700a1c620000300370039
:1009c000908f5400230036008080e80011007800ea
:1009d0000000e000faff3a000f003700908f54004b
:1009e0001c0036008080e800110078000000e00064
:1009f000faff3a0012017800a1c620000300370078
:100a0000908f5400130036008080e80011007800b9
:100a1000820f5000faff3a0038638000890f5400bb
:100a20000100310009047800080078007f00070009
:100a30000000e00004003a00890f5400200032005a
:100a40000804d100f5ff3700081878007e00070081
:100a5000d4ff3700110178009201780064805100c2
:100a6000890f5000030031001200900080087800c8
:100a700007003700090041008008780092019000cb
:100a800013009800110078001288140009097800fa
:100a9000910078000100e000050032001100900094
:100aa0000000e000020032000180e8000100370091
:100ab0000000eb00406388000280e800010037007e
:100ac0000000eb004f04be0000000600881f780005
:100ad000c8c620001804e00004003a00e05f2000cf
:100ae0008d00070020c0b300004c78004f04780050
:100af00000000600889fbe000004780064ff070025
:100b00008004780000042000180060000200320019
:100b1000280090004c0007000000eb002004980023
:100b2000384090000004e000050035000000fb00a4
:100b3000ba0007000000e000010032008084eb00f2
:100b4000181090000000e00008003200bc00070010
:100b50000000e000010032008084eb0018109000db
:100b6000390007000000eb00101498000008200076
:100b700018006000100032000000eb00e1bd200012
:100b8000910f1400070032000000e8008180e800a7
:100b9000e80f5000faff3a00080078002a0007002a
:100ba0001300370000004000e1bd200001004000bc
:100bb0000008eb00f8ff3700000c780000c0eb00e5
:100bc0003044980060022000080040002004980093
:100bd0004004980050049800400c9800600498006d
:100be000500c98007004980076004400000c9800a7
:100bf000090078004f04be0000000600881f78003e
:100c0000c8be2000180078000000e000010032009b
:100c1000b8ff07000884e900c0bd2000800f540021
:100c2000f8ff3a004f047800000006000000e000e2
:100c3000030034008b000700e10f400001003a0080
:100c40000000eb00000006000000e0003100320070
:100c50008080e90091027800e38f52002d00360079
:100c60000508a3002b003a00526380000200e00058
:100c700002003200828f5000040031000208780028
:100c8000516388001600370003017800920190003c
:100c90000300e00002003200818f5100faff3900aa
:100ca0001202780004004100808f500019003900c2
:100cb000810f500003003a000509420082007800cd
:100cc000070037000300e000030032000580400009
:100cd000808f51000f003900930098001101980097
:100ce000110190000200e0000a0032001180400073
:100cf000820f500007003a0080c620000008eb0079
:100d0000110090001101780090084100100090003f
:100d1000900098000000060000017800000020000c
:100d20000000e00008003200000080000000e00049
:100d3000050032000000e9000000880000004000cb
:100d40000100800002b07800000006000a00fa00ee
:100d500080017800e20f500025003e00d05e800048
:100d6000e10f500008003200802320000000e00066
:100d70000500320004232000252320004623200004
:100d80008001780004003700042220002522200082
:100d90004622200083222000144090000004e0003e
:100da000030035008009eb0000002800140a7000e1
:100db000154090000028a30001003a0015a0a000f3
:100dc0008001eb0007003700154090000008a300e9
:100dd000fdff320063c078000000fb00000b7800cc
:100de0008301e800828f5100f7ff3a0008003700c6
:100df00030002000b0bf9f00c3bf9f00d1bf9f0045
:100e0000e2bf9f006a80570000c0da006fb9970008
:100e1000020078000080fa00000006000a00fa00d4
:100e200011002000b1bf9f00c0bf9f006a80570023
:100e300000c0da004fb897000080fa0000000600fa
:100e40000a00fa0051002000b1bf9f00c0bf9f0000
:100e50006a80570000c0da005fb897000080fa008f
:100e600000000600889fbe0080047800dc0be200d2
:100e700004003a000000eb00100007000000e00052
:100e80000a003500e05e80000900e00002003a0040
:100e900000047800060037000004780009004000d4
:100ea000060007000000e00001003d000084eb00a8
:100eb000080078004f04be000000060080007800a3
:100ec0000000e00004003a00e0c62000e05e880078
:100ed00001017800060037000081eb00e0462100a8
:100ee000808f500002003e00e15e88000001eb00b0
:080ef00002007800000006007a
:020000040000fa
:10000800e6310000e6310000e6310000e63100008c
:10001800e6310000e6310000e6310000e63100007c
:10002800e6310000e6310000e6310000383100001a
:10003800e6310000e6310000e6310000e63100005c
:10004800e6310000e6310000ae310000e631000084
:10005800e6310000e6310000e6310000e63100003c
:10006800e6310000e6310000e6310000e63100002c
:10007800e6310000e6310000e6310000e63100001c
:10008800e6310000e6310000e6310000e63100000c
:10009800e6310000e6310000e6310000e6310000fc
:1000a800e6310000e6310000e6310000e6310000ec
:1000b800e6310000e6310000e6310000e6310000dc
:1000c800e6310000e6310000e6310000e6310000cc
:1000d800e6310000e6310000e6310000e6310000bc
:1000e800e6310000e6310000e6310000e6310000ac
:1000f800e6310000e6310000e6310000e63100009c
:10010800e6310000e6310000e6310000e63100008b
:10011800e6310000e6310000e6310000e63100007b
:10012800e6310000e6310000e6310000e63100006b
:10013800e6310000e6310000e6310000e63100005b
:10014800e6310000e6310000e6310000e63100004b
:10015800e6310000e6310000e6310000e63100003b
:10016800e6310000e6310000e6310000e63100002b
:10017800e6310000e6310000e6310000e63100001b
:10018800e6310000e6310000e6310000e63100000b
:10019800e6310000e6310000e6310000e6310000fb
:1001a800e6310000e6310000e6310000e6310000eb
:1001b800e6310000e6310000e6310000e6310000db
:1001c800e6310000e6310000e6310000e6310000cb
:1001d800e6310000e6310000e6310000e6310000bb
:1001e800e6310000e6310000e6310000e6310000ab
:0801f800e6310000e6310000d1
:020000040000fa
:10020800e6310000e6310000e6310000e63100008a
:10021800e6310000e6310000e6310000e63100007a
:10022800e6310000e6310000e63100003831000018
:10023800e6310000e6310000e6310000e63100005a
:10024800e6310000e6310000ae310000e631000082
:10025800e6310000e6310000e6310000e63100003a
:10026800e6310000e6310000e6310000e63100002a
:10027800e6310000e6310000e6310000e63100001a
:10028800e6310000e6310000e6310000e63100000a
:10029800e6310000e6310000e6310000e6310000fa
:1002a800e6310000e6310000e6310000e6310000ea
:1002b800e6310000e6310000e6310000e6310000da
:1002c800e6310000e6310000e6310000e6310000ca
:1002d800e6310000e6310000e6310000e6310000ba
:1002e800e6310000e6310000e6310000e6310000aa
:1002f800e6310000e6310000e6310000e63100009a
:10030800e6310000e6310000e6310000e631000089
:10031800e6310000e6310000e6310000e631000079
:10032800e6310000e6310000e6310000e631000069
:10033800e6310000e6310000e6310000e631000059
:10034800e6310000e6310000e6310000e631000049
:10035800e6310000e6310000e6310000e631000039
:10036800e6310000e6310000e6310000e631000029
:10037800e6310000e6310000e6310000e631000019
:10038800e6310000e6310000e6310000e631000009
:10039800e6310000e6310000e6310000e6310000f9
:1003a800e6310000e6310000e6310000e6310000e9
:1003b800e6310000e6310000e6310000e6310000d9
:1003c800e6310000e6310000e6310000e6310000c9
:1003d800e6310000e6310000e6310000e6310000b9
:1003e800e6310000e6310000e6310000e6310000a9
:0803f800e6310000e6310000cf
:020000040000fa
:100ef800ffff0000ffff00000000000000000000ee
:100f080050490000434e000045540000697000003d
:100f18003a200000696e0000766100006c690000ec
:100f2800642000007665000072730000696f00009d
:100f38006e2000006f7200002068000065610000ec
:100f480064650000722000006c6500006e67000098
:100f5800746800002e000000697000003a2000004c
:100f680070610000636b000065740000207300006e
:100f7800686f000072740000657200002074000041
:100f8800686100006e20000072650000706f00004c
:100f98007274000065640000206900006e20000083
:100fa8004950000020680000656100006465000089
:100fb800722e000000690000703a000020660000f0
:100fc80072610000676d0000656e0000742000000b
:100fd800647200006f70000070650000642e0000ed
:100fe80000690000703a000020620000616400009f
:100ff8002063000068650000636b000073750000e3
:101008006d2e000000690000703a0000206e00009c
:1010180065690000746800006572000020740000b3
:1010280063700000206e00006f72000020690000ed
:10103800636d0000702e000000690000636d000001
:10104800703a0000206e00006f74000020690000f4
:10105800636d00007020000065630000686f000089
:101068002e00000074630000703a00002062000047
:10107800616400002063000068650000636b000085
:10108800737500006d2e000000740000637000008e
:101098003a200000666f0000756e000064200000b2
:1010a8006e6f0000207500006e750000736500000b
:1010b80064200000636f00006e6e0000656300002e
:1010c800746900006f6e0000732e00000074000049
:1010d800637000003a200000676f00007420000071
:1010e8007265000073650000742c00002061000028
:1010f800626f000072740000696e000067200000d3
:10110800636f00006e6e0000656300007469000084
:101118006f6e00002e00000049200000636100008f
:101128006e200000666c0000792100000a000000b3
:10113800576500006c6300006f6d000065210000ba
:101148000a0000006f6b00000a00000057610000f1
:101158006974000065640000206600006f7200007a
:10116800206e000065770000646100007461000073
:1011780000000000ffff0000ffff0000ffff00006d
:10118800ffff0000ffff000050490000434e000031
:0411980045540000ba
:020000040000fa
:10119c000200fa00000f78001e0078000040880062
:1011ac000080fa00000006000400fa00000f78002e
:1011bc00110798009e0078006380400090407800f2
:1011cc001e00900000c04000e7eab7001e80e80057
:1011dc00904078001e0090004800de0000c04000e7
:1011ec00e6eab7001e00e80010407800e5eab70018
:1011fc001e00780010407800e4eab700e6cabf0091
:10120c008080fb001e0090004800de00808f5000a4
:10121c0009003100e5cabf000040e800e5eab7006c
:10122c00e5cabf000004e00003003a00e4cabf00b6
:10123c000040e800e4eab700e7cabf000081fb0009
:10124c009e009000f00f200000806000800f510085
:10125c000f003100e6cabf000040e800e6eab70024
:10126c00e6cabf000004e00009003a00e5cabf006e
:10127c000040e800e5eab700e5cabf000004e00062
:10128c0003003a00e4cabf000040e800e4eab700fb
:10129c000080fa00000006000c00fa0030079800ed
:1012ac0041079800520798004e00900010079800d4
:1012bc005e009000ce00900001004000000fe9009d
:1012cc00180037001e009000104078000080fb00d2
:1012dc00c800dd001e0090000000e80010407800ff
:1012ec000080fb000080400020079800be009000aa
:1012fc002e0090000080400030079800be00900047
:10130c002e009000808f5000030031003e009000b2
:10131c000000e800300798001e0090000080e800f4
:10132c00100798001e0090009e0f5000e5ff39003a
:10133c001e0090009e0f500010003a001e009000fe
:10134c00104078000080fb004800dd00200798006a
:10135c00be0090002e0090000080400030079800e6
:10136c00be0090002e009000808f500003003100d2
:10137c003e0090000000e800300798003e0090000e
:10138c000080fa00000006000400fa00000f78004c
:10139c00110798009e0078001e0190000000eb00e1
:1013ac00bdff0700410807000080fa00000006009e
:1013bc000400fa00a1812000420120000000eb0093
:1013cc00b5ff0700000f78001e00e000040032009b
:1013dc001e0078003508070010079800020037003f
:1013ec000080eb00100798001e0090000080fa00af
:1013fc00000006000800fa0040479800a081200079
:10140c00204090000080fb00c800dd00a08120007f
:10141c00304090000080fb000080400074005000c1
:10142c00100798004e4090008080fb001e0090003a
:10143c00008f4000c08020007a00400080007800bf
:10144c00820020001e00780093ff0700000f780038
:10145c00e18220001e0190001e0078008eff070024
:10146c00000f78001e00e000040032001e0078001f
:10147c000e08070030079800020037000080eb00d0
:10148c00300798003e0090000080fa000000060033
:10149c000000fa0060c0b300d6ff07000080fa001d
:1014ac00000006000000fa0010c1b300d1ff0700d5
:1014bc000080fa00000006000000fa000040eb007b
:1014cc0008e8b7000a00370008c8bf000080fb001e
:1014dc008000400060b22000808040000000eb00e3
:1014ec008008780008c8bf000040e80008e8b70092
:1014fc0008c8bf00e44f5000f3ff36000040eb007b
:10150c0008e8b7000b00370008c8bf000080fb00dc
:10151c007e00b90080007800009d20008080400093
:10152c000040eb009040980008c8bf000040e80065
:10153c0008e8b70008c8bf00e94f5000f2ff3600ba
:10154c0000402000304088000080fa0000000600b7
:10155c000a00fa00881f7800000f78001107980025
:10156c00304080000000e8003040880031408000ae
:10157c00f0cf2700808f50000200360000002100c1
:10158c00304088000040eb0008e8b700140037003a
:10159c0008c8bf000080fb007e00b9008000780006
:1015ac00809b20008080400031079800be00900096
:1015bc00115890000004e000060032003e0190003b
:1015cc002204900030408000b8070700800f5400c0
:1015dc00e3ff320008c8bf000040e80008e8b7008d
:1015ec0008c8bf00e94f5000e9ff36000000eb00cf
:1015fc00300798000040eb0008e8b70020003700e7
:10160c0008c8bf000080fb007e00b9008000780095
:10161c00809b20008080400021079800ae00900045
:10162c00115890000004e00003003a002e019000d5
:10163c003207980015003700ae009000115890004a
:10164c00e74f50000b003a003e0190000200e00012
:10165c00060032002e009000a05890003e01900031
:10166c002258900080cf5000020036002e009000cf
:10167c003007980008c8bf000040e80008e8b70031
:10168c0008c8bf00e94f5000ddff3600be009000d7
:10169c000100e00003003a000001eb004207980053
:1016ac003b00370020c0b300be009000905898005b
:1016bc0002c8bf003e0190004049980003c8bf001b
:1016cc00be009000d048980004c8bf003e019000b6
:1016dc006049980005c8bf00be009000f048980013
:1016ec00e01620003e01900010099800be0090000a
:1016fc00110890003e019000200998001000200075
:10170c00be009000800898000040eb003e01900065
:10171c003059980010c0b300be009000a05898003b
:10172c0030c0b3003e019000005998000040eb001f
:10173c00be009000e050980000c1b3003e01900044
:10174c00705198003040800058070700be00900090
:10175c00a00098001e0090003e01900030019800ff
:10176c001e00780010007800be0090008008780001
:10177c003e0090008080e8001e0078000080e800a9
:10178c0010007800800878003e0190004207980015
:10179c004e0090004f0478000080fa000000060014
:1017ac000200fa00000f78000040eb0008e8b700d8
:1017bc001300370008c8bf000080fb008000400009
:1017cc0060b2200000804000100078009e0f500096
:1017dc0008003a0008c8bf000080fb0080004000f1
:1017ec0060b22000808040000000eb008008780090
:1017fc000600370008c8bf000040e80008e8b70042
:10180c0008c8bf00e44f5000eaff36000080fa0021
:10181c00000006000200fa00000f78000040eb0008
:10182c0008e8b7001200370008c8bf000080fb00b2
:10183c008000400060b22000008040001000780062
:10184c000000e00007003a0008c8bf000080fb0061
:10185c008000400060b22000008040001e0878002c
:10186c000600370008c8bf000040e80008e8b700d1
:10187c0008c8bf00e44f5000ebff36000080fa00b0
:10188c00000006000200fa00000f7800b04d800046
:10189c00680040009e00780043fe0700b14d8000b8
:1018ac00e4cabf0080489800b14d8000e5cabf0073
:1018bc0090489800b14d8000e6cabf00a04898003f
:1018cc00b14d8000e7cabf00b04898000080fa0014
:1018dc00000006001000fa00881f780020479800ce
:1018ec00b04d80002007980020842000904d880087
:1018fc00904d8000105988002e409000e34f50000e
:10190c000e003a00ae009000115890000080fb00d1
:10191c006f006000e30f5000dd063a002e019000ce
:10192c00020890000000e000d9063a0080c0b30025
:10193c0014ebb700950f0700500537002e409000b0
:10194c00e24f5000a2003a0005c8bf000040e8007a
:10195c0005e8b70005c8bf000004e0000f003a001e
:10196c0004c8bf000040e80004e8b70004c8bf008a
:10197c000004e00009003a0003c8bf000040e80082
:10198c0003e8b70003c8bf000004e00003003a00fe
:10199c0002c8bf000040e80002e8b7000000eb00fe
:1019ac00a04d88000000eb0020598800ae0090008c
:1019bc0011589000e74f5000040032002e019000a7
:1019cc0012589000e54f50000e003a00ae00900007
:1019dc00215890000040e8002e01900020599800fa
:1019ec002e009000a058900080c7b30080cf50000c
:1019fc00a7063a000040eb00ae009000905898000b
:101a0c00a30637002e019000125890000004e0004d
:101a1c009f063200ae009000010890000000e0002c
:101a2c00610032002e019000225890000040e90025
:101a3c00ae009000a05898002e0190002258900003
:101a4c00e14f400092063a00ae00900031589000f1
:101a5c00e84f50000c0032002e01900012589000fc
:101a6c00e24f500004003200ae009000115890007c
:101a7c00e14f50000f003a002e01900032589000b8
:101a8c00e54f50000b003a000040eb00ae00900018
:101a9c009058980000c8b30014ebb7003b0f070038
:101aac00a08120008000780040c1b30090609800b5
:101abc00c20537002e01900032589000e44f5000c0
:101acc0007003e00ae009000315890008080fb0073
:101adc00300020000100dd00604f9800020037004c
:101aec0002c3b300624f9800ee4890002e009000a5
:101afc00215898002e019000325890000040e800c8
:101b0c00ae009000b0589800705880000000e800bb
:101b1c00705888002e019000125890000080fb0035
:101b2c006f006000600798006e009000e30f50009b
:101b3c0019003200ee009000e38f500007003c00cb
:101b4c006e019000e10f5100a50232006e00900072
:101b5c00e20f50000b0032004d063700ee009000f3
:101b6c00e68f5000740432006e019000e80f5100b3
:101b7c00710432006e009000e40f50006e043200cd
:101b8c0043063700a0812000800078000040eb0065
:101b9c00906098009602370040c0b30014ebb70079
:101bac00fa0e0700fc043700ae00900011589000ac
:101bbc000080fb006f006000e30f500034063a0019
:101bcc0080c0b30014ebb700f00e0700ab04370075
:101bdc00505780000000e80050578800a08120007a
:101bec009040780050c4b30080cf50000900320000
:101bfc00405780000000e800405788007057800074
:101c0c000000e80070578800a0782800650f0700d6
:101c1c001f063700a0812000204090000080fb00b0
:101c2c00c800dd00a0812000304090000080fb0047
:101c3c000080400080007800a04d8000808f500014
:101c4c0011003e00a0812000204090000080fb008d
:101c5c00c800dd00a0812000304090000080fb0017
:101c6c0000804000a04d8800a081200060409000c2
:101c7c008080fb00f0032000008060000000e0008a
:101c8c0008003a0003003700007b2800450f0700ce
:101c9c00ff053700a0812000704090000004e00098
:101cac0009003200405780000000e80040578800cf
:101cbc00a05780000000e800a0578800f07d2800a5
:101ccc00380f0700f2053700b1588000003c840043
:101cdc00808f500007003a0080b1200090007800ff
:101cec002078280010007800808f500001003a0006
:101cfc0011003700c08020007e004000900078006a
:101d0c00b0588000808f500007003a00c08020003f
:101d1c000002b0009000780080b120001000780024
:101d2c00808f500004003200405780000000e80013
:101d3c0040578800d60537009dfd0700e10f400095
:101d4c0009003200405780000000e800405788002e
:101d5c00b05780000000e800b0578800507f280082
:101d6c00100f0700ca053700a08120001048900012
:101d7c00e64f50004c003200a0812000104890002b
:101d8c00e14f500009003200405780000000e8008d
:101d9c0040578800c05780000000e800c0578800fa
:101dac0070802800ff0e0700b9053700e05780004f
:101dbc000000e800e0578800a0812000405090000f
:101dcc00e84f500009003200d05780000000e800b6
:101ddc00d0578800005880000000e80000588800a8
:101dec0010822800ef0e0700a9053700a081200003
:101dfc00800078000040eb00c0509800a0812000cb
:101e0c0030089000ea0f400007003600a081200047
:101e1c0080007800a081200030089000690040000c
:101e2c00b008980006003700a081200080007800e0
:101e3c00a08120003008900068004000b008980095
:101e4c00c0802000fe004000c08020007a004000ce
:101e5c001000780080087800c0802000010220006b
:101e6c0080804000c08020007c0040001000780082
:101e7c0080087800c0802000fa004000b058800034
:101e8c0080087800c0802000fc00400080b1200059
:101e9c001000780080087800f05780000000e800ff
:101eac00f057880074053700205880000000e800c7
:101ebc002058880076fd0700e10f40000900320031
:101ecc00105880000000e80010588800405880002e
:101edc000000e8004058880060832800b10e07001d
:101eec006b053700829b20002207980022003700e8
:101efc00ae009000115890000004e0001b0032006e
:101f0c00a0812000b00890002e01900022009000cb
:101f1c00808f500015003a00a0812000a00890008e
:101f2c002e01900032009000808f50000f003a007c
:101f3c00c08020007a004000900078002e019000b4
:101f4c0012007800808f500008003a00c0802000fa
:101f5c007c004000900078002e0090000080e8008b
:101f6c0010007800808f5000be0132002e009000cf
:101f7c007e0040002007980060ac2000ae0090006e
:101f8c00808f5000daff3600a08120001060900096
:101f9c008080fb00f003200000806000e20f500006
:101fac0018003a00a08120003008900050408800b2
:101fbc000040eb0008e8b7000c00370008c8bf0071
:101fcc000080fb008000400060b2200000804000d8
:101fdc009000780050408000808f50008a003200c2
:101fec0008c8bf000040e80008e8b70008c8bf00f8
:101ffc00e44f5000f1ff3600905880000000e800dc
:10200c0090588800a0812000106090000080fb0098
:10201c004200de00610060000004e0001c053a0094
:10202c00605880000000e80060588800a081200003
:10203c008000780040c1b3009060980080022000be
:10204c00a04d8800a08120008000780000c5b3005e
:10205c0080609800a08120003058900008e8b700fc
:10206c00a081200080007800a08120007058900092
:10207c00b0589800a08120008000780008c8bf00ec
:10208c00f0589800a08120002058900008e8b70074
:10209c00a081200080007800a08120006058900072
:1020ac00a0589800a08120008000780008c8bf00cc
:1020bc00e0589800a08120001058900008e8b70064
:1020cc00a081200080007800a08120005058900052
:1020dc0090589800a08120008000780008c8bf00ac
:1020ec00d0589800a08120000058900008e8b70054
:1020fc00a081200080007800a08120004058900032
:10210c0080589800a08120008000780008c8bf008b
:10211c00c0589800a0812000f05890008140e80041
:10212c0071589800705890000004e00013003a00b9
:10213c00a0812000e05890008140e8006158980090
:10214c00605890000004e0000c003a00a0812000d0
:10215c00d05890008140e800515898005058900099
:10216c000004e00005003a00a08120008000780007
:10217c00415890000040e800c0589800a081200011
:10218c002008900050408800a0812000800078003a
:10219c00a081200030089000a0089800a0812000a9
:1021ac008000780050408000b0089800c08020006b
:1021bc00fe004000c08020007a0040001000780033
:1021cc0080087800c0802000010220008080400040
:1021dc00c08020007c00400010007800800878004f
:1021ec00c0802000fa004000b058800080087800c1
:1021fc00c0802000fc00400080b12000100078005e
:10220c0080087800560437000001eb002207980084
:10221c000040eb0008e8b7003200370008c8bf00e8
:10222c000080fb007e00b900f8004000809b20007d
:10223c0000804000104090000004e00008003a00cc
:10224c0008c8bf000080fb007e00b9008000780049
:10225c00809b2000808040002107980024003700dc
:10226c0008c8bf000080fb007e00b900f8004000e9
:10227c00809b20000080400010409000e74f5000f1
:10228c0015003a002e0090000000e0000b00320018
:10229c0008c8bf000080fb007e00b900fa004000b7
:1022ac00809b200000804000904078002e01900020
:1022bc002258900080cf50000700360008c8bf009d
:1022cc000080fb007e00b90080007800809b20001d
:1022dc00808040002107980008c8bf000040e8003b
:1022ec0008e8b70008c8bf00e94f5000cbff360024
:1022fc002e0090000000e00006003a00805880009c
:10230c000000e8008058880090842800a50d070084
:10231c005f043700ae009000b14d880030c0b300b0
:10232c002e01900020599800ae009000215890008a
:10233c002e019000005998000040eb00ae00900078
:10234c00e050980040c0b3002e01900070519800ee
:10235c000040eb00ae009000b0589800a081200027
:10236c00300890002e01900020019800a0812000e0
:10237c0020089000ae009000b0009800c0802000b3
:10238c007a004000100078002e01900000097800bf
:10239c002e0090008080e800c08020007c0040006f
:1023ac00100078008008780010c0b300ae009000d8
:1023bc009058980002c8bf002e0190004049980028
:1023cc0003c8bf00ae009000d048980004c8bf00fe
:1023dc002e0190006049980005c8bf00ae00900027
:1023ec00f0489800100020002e0190000009980081
:1023fc00a081200030589000ae009000b0489800aa
:10240c00a0812000205890002e01900020499800b7
:10241c00a081200010589000ae00900090489800c9
:10242c00a0812000005890002e01900000499800d7
:10243c001000200013fd0700a08120000060900018
:10244c008080fb00000f20008080600000052000d1
:10245c00808f5000620034000040eb0008e8b700a9
:10246c005400370008c8bf000080fb006103200047
:10247c0080804000c0802000008040001040780028
:10248c0009e8b70009c8bf000004e000540032009e
:10249c0009c8bf00e14f500004003a0008c8bf0053
:1024ac000040e80008e8b7004200370009c8bf0048
:1024bc00e24f50002c003a0008c8bf000080fb001f
:1024cc007103200080804000c0802000008040000c
:1024dc0010407800e44f500023003a0008c8bf00b9
:1024ec000080fb008103200080804000c080200021
:1024fc0000804000104078000080fb004801dd00a7
:10250c0008c8bf000080fb009103200080804000c1
:10251c00c080200000804000104078000080fb004c
:10252c000000710050408800504080005007980017
:10253c00e0162000de009000808f50000200360074
:10254c00e216200052079800de0090002e0090004a
:10255c00110898002e01900012089000ae00900017
:10256c00a00898001e00370008c8bf000080fb00c0
:10257c007103200080804000c0802000008040005b
:10258c00104078000004e0001500320008c8bf00bd
:10259c000080fb007103200080804000c080200080
:1025ac00008040009040780008c8bf0000c0400088
:1025bc0008e8b70008c8bf008080fb00a08120009d
:1025cc00006090000080fb004400de000080fb00f7
:1025dc00650050004200dd00808f5000a1ff3500e7
:1025ec00a08120008000780000c1b30090609800aa
:1025fc00a081200080007800a08120001060900055
:10260c000014a00090609800a08120008000780049
:10261c0020c0b30080689800a08120008000780062
:10262c0040c0b30090689800a08120008000780022
:10263c0010c0b300a0689800a08120008000780032
:10264c00e0c6b300b0689800c0022000a04d88001e
:10265c00a08120008000780000c6b3008060980044
:10266c00dc0237002e019000b24d88000040eb00d8
:10267c0014ebb700a0812000106090000080fb00dc
:10268c004200de00610060000004e000090032003e
:10269c000040eb00ae00900090589800b0862800e7
:1026ac00c00c070000c2b30014ebb700370c0700d6
:1026bc0077033700a0812000006090000080fb00b1
:1026cc004400de004200dd0008e8b700a14d8000a8
:1026dc0008c8bf000080fb00008050007400500050
:1026ec00a04d88002e019000125890000080fb0035
:1026fc006f006000e20f500007003a00a08120003c
:10270c00106090008080fb00f003200000806000cf
:10271c00f20f500021003200a04d80000000e000bc
:10272c0006003a00a0812000106090000080fb00a1
:10273c00630060000000e00018003200a08120005f
:10274c00805890002e0190000248900080cf5000dd
:10275c0096023a00a0812000905890002e01900023
:10276c001248900080cf500090023a00a0812000c7
:10277c00a05890002e0190002248900080cf50006d
:10278c008a023a00a0812000b05890002e019000df
:10279c003248900080cf500084023a00a081200083
:1027ac00106090000080fb004400de0061006000bf
:1027bc000004e00061003200ae00900001089000bf
:1027cc000000e0005d0032002e01900082089000b5
:1027dc002e0190006c00410073fa0700a0812000cc
:1027ec00c0589000e4cabf0080cf500053003a009c
:1027fc00a0812000d0589000e5cabf0080cf5000c7
:10280c004e003a00a0812000e0589000e6cabf00bc
:10281c0080cf500049003a00a0812000f058900071
:10282c00e7cabf0080cf500044003a00e4cabf00a2
:10283c00ae009000c0489800e5cabf002e01900081
:10284c0050499800e6cabf00ae009000e0489800de
:10285c00e7cabf002e01900070499800ae009000ae
:10286c00315890000004e0002b003a002e0190003b
:10287c00825890002e0190002258900000c0500009
:10288c00004f7800ae009000615090000080fb007b
:10289c004300de00804078001e407800014f50005d
:1028ac002e019000625090001e404000ae0090003f
:1028bc00e05098001e04e00001003d001e4fea00ad
:1028cc002e019000725090000080fb004200de0050
:1028dc00804078001e407800014f5000ae00900000
:1028ec00715090001e4040002e01900070519800d5
:1028fc00ae009000615090000080fb004300de00b1
:10290c00804078002e0190007250900000c0400072
:10291c00ae0090008058980010c0b30014ebb700c4
:10292c002e01900002589000ae009000a058980024
:10293c000000eb002e01900000099800ae00900002
:10294c00115890000080fb006f0060004007980059
:10295c004e019000e40f5100ba0132004e0090007d
:10296c00e40f50000a003c00ce009000e28f5000b3
:10297c002d0032004e019000e20f5100c7003c00c8
:10298c004e009000e10f50000e003200c0023700e4
:10299c00ce009000e68f5000f80132004e019000fe
:1029ac00e60f5100da0135004e009000e70f5000a1
:1029bc00fe013200ce009000e88f500095013200ed
:1029cc00b302370014cbbf000080fb006100600035
:1029dc000004e000ae02320030c0b3002e019000c3
:1029ec001059980000c4b30014ebb7000000eb00c2
:1029fc00ae00900080089800a04d80000000e00020
:102a0c000500320014cbbf000014a00014ebb7007b
:102a1c00a04d80009bfb07000000eb0020598800b4
:102a2c005a0b07001501370014cbbf000080fb00c8
:102a3c00610060000004e00091003200a0812000e1
:102a4c00106090008080fb00f0032000008060008c
:102a5c00f20f50008a003a00a08120000060900024
:102a6c008080fb00000f20008080600000052000ab
:102a7c00808f5000620034000040eb0008e8b70083
:102a8c005400370008c8bf000080fb006103200021
:102a9c0080804000c0802000008040001040780002
:102aac0009e8b70009c8bf000004e0005400320078
:102abc0009c8bf00e14f500004003a0008c8bf002d
:102acc000040e80008e8b7004200370009c8bf0022
:102adc00e24f50002c003a0008c8bf000080fb00f9
:102aec007103200080804000c080200000804000e6
:102afc0010407800e44f500023003a0008c8bf0093
:102b0c000080fb008103200080804000c0802000fa
:102b1c0000804000104078000080fb004801dd0080
:102b2c0008c8bf000080fb0091032000808040009b
:102b3c00c080200000804000104078000080fb0026
:102b4c000000710050408800504080003007980011
:102b5c00e01620003e019000800f5100020036006c
:102b6c00e0162000300798003e019000ae00900067
:102b7c0092089800ae009000110890002e01900071
:102b8c00200998001e00370008c8bf000080fb0019
:102b9c007103200080804000c08020000080400035
:102bac00104078000004e0001500320008c8bf0097
:102bbc000080fb007103200080804000c08020005a
:102bcc00008040009040780008c8bf0000c0400062
:102bdc0008e8b70008c8bf008080fb00a081200077
:102bec00006090000080fb004400de000080fb00d1
:102bfc00650050004200dd00808f5000a1ff3500c1
:102c0c0030c0b300ae00900090589800a081200016
:102c1c00005890002e01900000499800a0812000df
:102c2c0010589000ae00900090489800a0812000b1
:102c3c00205890002e01900020499800a08120007f
:102c4c0030589000ae009000b04898001000200062
:102c5c000cfb070020c4b30014ebb7000000eb0022
:102c6c002e019000000998000000eb00a04d880098
:102c7c000000eb0020598800c40a07007f003700d1
:102c8c0000c2b30014ebb700c00a0700b14d8000be
:102c9c000040eb0090589800dafc3700a08120002f
:102cac00106090000080fb00610060000004e000f8
:102cbc0026003200ae009000115890000080fb00fe
:102ccc004400de00610060000000e0001f003a00dc
:102cdc002e019000020890000000e000ec013a0088
:102cec00a04d80000000e800e6fa070014cbbf00fe
:102cfc000044a00014ebb700a04d80000000e000e1
:102d0c000300320014cbbf000014a00014ebb7007a
:102d1c009e0a070010002000ae009000800898006a
:102d2c0080c0b3002e019000105998000040eb00b9
:102d3c00ae009000b0589800a08120008000780070
:102d4c0010c1b300906098001c013700a0812000d6
:102d5c00106090000080fb004500de006100600008
:102d6c000004e00017003200a08120006060900099
:102d7c000080fb00c800dd00a08120007060900086
:102d8c000080fb000080700080007800904d800077
:102d9c0000804000904d8800a24d8000a081200052
:102dac00606090000080fb00c800dd00a081200066
:102dbc00706090000080fb000080700000005100eb
:102dcc00a04d8800a04d80000000e0000c003200f7
:102ddc002e019000125890000080fb004400de0091
:102dec00610060000000e00005003a0014cbbf0059
:102dfc000014a00014ebb700a04d8000a1fa07004e
:102e0c00a0812000206090000080fb00c800dd0045
:102e1c00a0812000306090000080fb00008040000a
:102e2c00504088002e009000a00890005040800078
:102e3c00808f500003003900504080000000e000fb
:102e4c0003003a00ae00900021089000504088002a
:102e5c00504080002e0190001009980014cbbf0048
:102e6c000080fb00630060000000e000880132007d
:102e7c000000eb0020598800440a070014cbbf0067
:102e8c000080fb004500de00610060000004e000f3
:102e9c000a0032000000eb00205988000040eb00d3
:102eac00ae00900090589800a0812000800078001f
:102ebc0040c1b30090609800c000370014cbbf0035
:102ecc000080fb004400de00610060000004e000b4
:102edc00100032000000eb00205988001000200088
:102eec002e0190000009980040c0b300ae00900085
:102efc00905898000040eb002e019000305998003b
:102f0c00a08120008000780010c1b3009060980070
:102f1c00aa003700205980000000e0001b0032009e
:102f2c0014cbbf000080fb00610060000004e000d7
:102f3c00030032000000eb00ae0090008008980007
:102f4c002e019000020890000000e0000c003a00f6
:102f5c002e0090009008900020598000808f500027
:102f6c0003003100ae009000110890002059880039
:102f7c00205980002e0190000009980003003700b2
:102f8c00ae00900001089000205988000040eb0032
:102f9c002e0190003059980010598000904d8800f7
:102fac00205980000000e0000d003200ae009000bf
:102fbc00010890000000e000090032002e01900092
:102fcc00020890008002b000a04d8800a081200073
:102fdc008000780080c1b3009060980079003700c1
:102fec0014cbbf000080fb000000d100610060002a
:102ffc000004e0002601320080022000a04d880071
:10300c00a08120008000780000c1b300906098007f
:10301c006c00370014cbbf000080fb006100600027
:10302c000004e0001a0132000040eb00ae009000fa
:10303c009058980000c1b30014ebb700d3090700f7
:10304c0013013700a04d80000000e00002003200a8
:10305c00a04d80000bfa0700a081200010609000aa
:10306c000080fb00610060000004e00018003200ea
:10307c0014cbbf000080fb00610060000004e00086
:10308c000a00320070c0b3002e0190001059980055
:10309c000040eb00ae009000a05898000000eb0040
:1030ac002e019000000998000300370060c0b300a7
:1030bc00ae0090009058980010002000f1f9070025
:1030cc0000c1b30014ebb700b0090700370037009c
:1030dc0014cbbf000080fb00610060000004e00026
:1030ec000700320050c0b3002e0190001059980018
:1030fc000000eb00ae00900080089800e400370060
:10310c00a04d80000000e00028003a00e0003700ed
:10311c00a04d80000000e00002003200a04d8000b5
:10312c00d8f90700a0812000106090000080fb00ff
:10313c00610060000004e0000c00320070c0b300bd
:10314c002e019000105998000040eb00ae0090004a
:10315c00a058980010002000caf9070000c1b30065
:10316c0014ebb7008909070010003700a04d800050
:10317c000000e0000d003a00c500370014cbbf0082
:10318c000080fb00610060000004e000c000320021
:10319c0070c0b3002e019000105998000040eb0055
:1031ac00ae009000a0589800b9003700a081200014
:1031bc008000780000c1b30090609800800220006d
:1031cc00a04d8800a08120008000780000c5b300cd
:1031dc0080609800a0812000800078002e01900073
:1031ec0002489000c0589800a08120008000780010
:1031fc002e01900012489000d0589800a081200019
:10320c00800078002e01900022489000e058980031
:10321c00a0812000800078002e01900032489000a0
:10322c00f0589800a0812000800078002e019000ba
:10323c004248900080589800a081200080007800bf
:10324c002e0190005248900090589800a0812000c8
:10325c00800078002e01900062489000a0589800e1
:10326c00a0812000800078002e0190007248900010
:10327c00b0589800a08120008000780060c0b30096
:10328c0090489800a0812000800078002e019000ca
:10329c0022009000a0089800a081200080007800f7
:1032ac002e01900032009000b0089800c0802000e1
:1032bc00fa004000b058800080087800c0802000e0
:1032cc00fc00400080b120001000780080087800dd
:1032dc00c0802000fe0040002e01900012007800fb
:1032ec0080087800c080200001022000808040000f
:1032fc002e0090000080e800100078008008780014
:10330c00ae009000115890000080fb004400de00dd
:10331c00610060000004e00009003200a081200080
:10332c0000017800a0812000800078000040eb00b4
:10333c00b060980031609000206198000800370060
:10334c00a08120008000780010c0b300a06098001d
:10335c00a081200080007800e0c6b300b060980027
:10336c00a081200080007800f0c6b300804898004f
:10337c00a081200080007800a04d80004800de0075
:10338c00a0409800a081200080007800a04d800013
:10339c00b0409800a081200000017800a08120009e
:1033ac00800078000040eb00f060980071609000a5
:1033bc0060619800a0812000800078000000eb0084
:1033cc00a0109800a08120000004780030f80700bd
:1033dc000080ea0020149800a08120008000780072
:1033ec0050c4b30080487800a08120008000780091
:1033fc000040eb0090409800a08120000001780074
:10340c00a0812000800078000040eb00f040980084
:10341c007140900060419800004080000000e8007e
:10342c0000408800a08120008000780000408000cf
:10343c004800de00c0409800a08120008000780089
:10344c0000408000d0409800a081200080007800cf
:10345c000000eb00d0009800a08120000004780050
:10346c00d3f707000080ea00500498003058800021
:10347c000000e80030588800605780000000e80029
:10348c00605788000040eb0014ebb70004003700d5
:10349c000000eb00a04d88000040eb0014ebb700df
:1034ac004f0478000080fa00000006000200fa00c9
:1034bc00000f78001e007800c800de004800dd0018
:1034cc00010070000080fa00000006000400fa0001
:1034dc00000f7800110798001e0090000000e0001b
:1034ec00090034001e0090002059880010598000fb
:1034fc009e0f1000040032002259800010598000e9
:10350c009e00780003f407000080fa00000006001b
:10351c000600fa00000f78001107980022079800a7
:10352c001e0078009e009000010878001e007800b4
:10353c00ae009000110098000080fa000000060018
:10354c000a00fa00000f7800110798002207980073
:10355c00330798003e009000900078001e00780021
:10356c0010009000808f5000220031003e0090002f
:10357c00100178002e009000900078001e0078005a
:10358c0010007800e3f307001e007800900078002c
:10359c003e00900010007800808040001e007800f3
:1035ac00010878001e007800900090003e0090000a
:1035bc0010007800808050001e00780011009800e8
:1035cc002e009000900078003e00900010007800d3
:1035dc00808040002e00900001087800be00900012
:1035ec000000eb00800878000000eb00400798001a
:1035fc00450037003e009000900078001e007800d7
:10360c0010009000808f50001e003a003e00900089
:10361c00100178002e009000900078001e007800b9
:10362c0010007800bbf307001e00780090007800b3
:10363c003e00900010007800808040001e00780052
:10364c00010878009e0078000000eb0090009800c4
:10365c002e009000900078003e0090001000780042
:10366c00808040002e00900001087800be00900081
:10367c000000eb0080087800100020004007980044
:10368c00210037001e007800100190002e009000e1
:10369c00900078001e007800100078009df3070061
:1036ac001e007800900078001e007800100090003a
:1036bc00808040001e007800010878003e009000d9
:1036cc00900078001e007800100090008080500060
:1036dc003e009000010878002e00900090007800c9
:1036ec001e00780010009000808040002e0090009a
:1036fc00010878009e0078000000eb009000980014
:10370c0010002000400798004e0090000080fa0046
:10371c00000006000c00fa003007980021479800c2
:10372c004207980053079800210037003e00900094
:10373c00900078004e019000120078001040780044
:10374c0080487800114f7800ce009000110078006e
:10375c000000e8004e01900000097800be009000c7
:10376c00110078000000e8003e019000000978008c
:10377c00de009000110078000000e9005e0190006e
:10378c0000097800be009000110090000000e900d4
:10379c003e019000100198002e4090009e4f1000aa
:1037ac0003003a0020002000200798002800370072
:1037bc00be009000110090000000e00004003200f8
:1037cc005e019000120078000000e000d7ff3a0084
:1037dc00de009000110078000000e00016003a00b6
:1037ec000001eb002207980019003700ce00900072
:1037fc0011007800104f78005e01900012007800e4
:10380c000000e900de009000800878004e01900076
:10381c00120078000000e800ce00900080087800cc
:10382c002e4090009e4f100003003a003200200002
:10383c002207980006003700de0090001100780087
:10384c000000e000e9ff3a00120020002207980077
:10385c002e0090000080fa00000006000400fa0020
:10386c00100798009e00900041509000e64f5000c9
:10387c0006003a0014cbbf000080fb004200de00c3
:10388c00610060000004e000190032001e0190008d
:10389c0052009000b14d800091089000810f5000b3
:1038ac0007003600b04d80001008900080007800b2
:1038bc001e0190002200900004ff07000600370054
:1038cc009e00900051009000800078001e01900036
:1038dc0022009000fdfe070060c0b3009e00900027
:1038ec00c050980012002000020f78000200370030
:1038fc000000eb00000f78001e0078000080fa003a
:10390c00000006000400fa00100798009e009000ca
:10391c0041509000e64f50002a003a0014cbbf00f3
:10392c000080fb00610060000004e0002500320014
:10393c001e01900052009000b14d80009108900043
:10394c00810f50000f0036001e009000d000900038
:10395c00b04d800010089000008050009e00900038
:10396c00d00098001e019000a2009000b04d800085
:10397c0010089000008040009e009000a00098006d
:10398c000a0037001e019000a20090001e0190005a
:10399c0052009000008040009e009000a000980013
:1039ac000000eb001e0190005001980010c0b30005
:1039bc009e009000c050980012002000020f78006a
:1039cc00020037000000eb00000f78001e007800aa
:1039dc000080fa00000006000c00fa00881f780036
:1039ec0050079800110798002207980010c0b300e8
:1039fc00004f78005e009000100090004007980087
:103a0c00ce0090000100e00005003200f00c200018
:103a1c00ce009000808f5000170032002800370035
:103a2c002e0090000000e00006003a000000eb00c1
:103a3c00de009000900098001000200030079800e5
:103a4c00260037001e009000de009000a0009800b9
:103a5c00ae0090005e009000510098000040eb001a
:103a6c00de009000c05098000e003700f00c2000d3
:103a7c00de009000900098005e009000a1ff07000f
:103a8c00004478005e00900074ff07000040640062
:103a9c000004e00003003a000000eb00300798003f
:103aac000e003700de009000510090000000e00096
:103abc00eeff3a000040eb00de009000c050980092
:103acc000040eb00004f78000000eb00de0090009f
:103adc009000980020002000300798003e009000d5
:103aec004f0478000080fa00000006000c00fa0079
:103afc00881f78005007980011079800220798003b
:103b0c0010c0b300004f78005e00900010009000d1
:103b1c0040079800ce0090000100e0000500320044
:103b2c00e00e2000ce009000808f5000210032006b
:103b3c00320037001e0090000000e00006003a0042
:103b4c000000eb00de0090009000980010002000b8
:103b5c0030079800300037009e0090002e00900037
:103b6c0001000100de009000d0009800904d800014
:103b7c00de009000a00098000040eb00de009000fa
:103b8c00c050980014cbbf000080fb004200de0048
:103b9c00610060000004e000030032009e00900011
:103bac002e00900001000100e00e2000de009000cd
:103bbc00900098005e00900052ff070000447800cf
:103bcc005e00900025ff0700004064000004e00048
:103bdc0003003a000000eb00300798000e0037009d
:103bec00de009000510090000000e000e5ff3a007c
:103bfc000040eb00de009000c05098000040eb004d
:103c0c00004f78000000eb00de0090009000980060
:103c1c0020002000300798003e0090004f047800f0
:103c2c000080fa00000006000200fa00000f780085
:103c3c001e007800900890001e007800000890008c
:103c4c00008050000080fa00000006000400fa001a
:103c5c00000f78001e007800600090000000e0006b
:103c6c0003003200100020001007980015003700e8
:103c7c001e00780040509000e24f500006003a00c1
:103c8c009e00780030c0b300c05098000000eb00dc
:103c9c00100798000b00370014cbbf000080fb000e
:103cac000000d100610060000004e000030032005d
:103cbc001000200010079800020037000000eb00f5
:103ccc00100798001e0090000080fa00000006000b
:103cdc000a00fa00400798002147980010c0b30072
:103cec00004f78004e0090001000900030079800b4
:103cfc00be0090000100e00005003200b011200071
:103d0c00be019000808f5100100032003c00370043
:103d1c004e00900010099000ce00900041009000e1
:103d2c0080007800ce0190006e804100f8fd070005
:103d3c00ce009000610090000000e00013003a00fb
:103d4c00b0112000ce019000900198004e00900020
:103d5c00beff07000004e00003003a000000eb0087
:103d6c00200798002d00370020c0b300ce00900033
:103d7c00c0509800904d8000ce019000b00198008a
:103d8c00a04d8000ce009000e0009800ce01900085
:103d9c006c804100ce00900066814000ce01900006
:103dac006e82410080017800ae40900004007800e3
:103dbc0058fe07000080fb000000d1000000a200ac
:103dcc00610060000004e000d9ff3a004e00900052
:103ddc0095ff07000000e00009003a000040eb00ee
:103dec00ce009000c05098000000eb00ce01900077
:103dfc00900198000000eb002007980007003700a6
:103e0c000040eb00004f78000000eb00ce0090006b
:103e1c009000980023002000230798002e009000ab
:103e2c000080fa00000006000800fa003007980035
:103e3c0010c0b300004f78003e00900010009000be
:103e4c0020079800ae0090000100e0000500320051
:103e5c0060132000ae019000808f510010003200e2
:103e6c003b0037003e00900010099000be0090000f
:103e7c004100900080007800be0190006e804100ef
:103e8c00a3fd0700be009000610090000000e00060
:103e9c0015003a0060132000be01900090019800bc
:103eac003e00900069ff07000004e00003003a00a8
:103ebc000000eb00100798002c003700a08a2800a7
:103ecc009bf1070020c0b300be009000c0509800ca
:103edc00904d8000be019000b0019800a04d800074
:103eec00be009000e0009800be0190006c80410084
:103efc00be00900066814000be01900093089000c7
:103f0c00be0190006e8241008001780004007800b0
:103f1c008bfd0700e14f5000daff3a003e009000a5
:103f2c0041ff07000000e00009003a000040eb00f0
:103f3c00be009000c05098000000eb00be01900045
:103f4c00900198000000eb00100798000700370064
:103f5c000040eb00004f78000000eb00be0090002a
:103f6c009000980023002000130798001e0090007a
:103f7c000080fa00000006000400fa00881f780098
:103f8c0000047800010f7800120798000040eb0045
:103f9c00405498000000eb00600498001e0078006c
:103fac00400498001e009000100c98009e007800b1
:103fbc006e0044001e01900055fd07000000eb0050
:103fcc00000c78000000eb00100498004f047800ff
:103fdc000080fa00000006000400fa002047980058
:103fec00314798000040eb00004f7800cca2a900ac
:103ffc003e409000ff4060002e40900000c07000da
:10400c00004f78001e407800bc08070000c0eb0091
:10401c00ba080700004f78003e4090000004e00012
:10402c0003003d0000c0eb00b4080700004f78000f
:10403c00cca2a8001e80fb000080fa000000060045
:10404c000600fa0020479800314798004247980034
:10405c000040eb00004f7800cca2a9003e4090003d
:10406c00ff4060002e40900000c07000004f7800b0
:10407c001e407800a10807004e409000004f7800c9
:10408c001e4078009d080700cca2a8000080fa0012
:10409c00000006000200fa00004f78009e80fb0032
:1040ac000006200080806000d0cbbf000080fb00a9
:1040bc00808f50000f00320032c0b300f1c1b3004a
:1040cc0000cab300deff07009e80fb000006200044
:1040dc00008060004580de0000417800f1c1b30033
:1040ec0000c8b300d6ff070001c6b3001ec06000b5
:1040fc00d0ebb7000080fa00000006000200fa00c6
:10410c00004f78001e407800e2ff07009e407800c8
:10411c000040eb00b0ff07000080fb000080fa00bd
:10412c00000006000200fa00004f780011479800ca
:10413c001e407800d7ff07001e4190009e4078007b
:10414c0000c4b300beff07000080fa0000000600a8
:10415c000400fa0020479800ae40900040cdb30018
:10416c00f0ff070011c0b30020cdb300edff070036
:10417c00a0ceb300e1ff07000080fb0061006000ef
:10418c000004e000faff3a0011c0b30020cdb300e8
:10419c00e4ff070080cdb300d8ff07000080fb00d0
:1041ac00000f780090cdb300d4ff07000080fb0017
:1041bc001e0f70001e0078000080fa000000060040
:1041cc000600fa002047980021079800ae409000a6
:1041dc0040cdb300d3ff0700ce40900060cdb300bc
:1041ec00d0ff0700de40900070cdb300cdff07007c
:1041fc00070037000000eb00000f780001003700cb
:10420c001e0fe800703e20009e0f1000fcff3400d3
:10421c00a0ceb300b9ff07000080fb006100600076
:10422c000004e000f3ff3a000080fa0000000600f2
:10423c000800fa0030079800217420006204200066
:10424c0073052000824878008348780042c7a90093
:10425c00816a20009140780000ceb30000c060005d
:10426c005041b300a8e6b700416d200091407800a2
:10427c0000ceb30000c060007040b300d4e6b700bd
:10428c00316d20009140780000ceb30000c060007a
:10429c000034a000d3e6b700217420006204200093
:1042ac0073052000824878008348780042c7a80034
:1042bc00c8a2a900c8c2a9001c080700ccc2a9004a
:1042cc000000eb00000f7800010037001e0fe80023
:1042dc00f07022009e0f1000fcff3600ccc2a8002c
:1042ec0000c1eb008040eb0000c0eb0054ff070066
:1042fc00d0c1b30081ff07000080fb0061006000ab
:10430c000000e000faff32000000eb00905e880035
:10431c008040eb0080c0b30082ff07008040eb00c0
:10432c0090c0b3007fff07008040eb00c0c0b3001b
:10433c007cff07008040eb00d0c0b30079ff070082
:10434c0031c2b300a0c0b30076ff0700a1c1b30017
:10435c00b0c0b30073ff070041c2b30040c0b3004c
:10436c0070ff0700a1c1b30050c0b3006dff070080
:10437c008040eb0060c0b3006aff070001c2b300cd
:10438c0070c0b30067ff0700d1c0b30000ccb3000e
:10439c0064ff070021c3b30020ccb30061ff07000a
:1043ac0001c4b30030ccb3005eff0700f1c3b3000f
:1043bc0090ccb3005bff070021c1b30060ccb3000d
:1043cc0058ff0700c1c0b30070ccb30055ff070005
:1043dc0041cab300a0ccb30052ff070011c0b30018
:1043ec00b0ccb3004fff07003e0090009040780027
:1043fc0040ceb3004bff07003e0090000000e800e9
:10440c009040780050ceb30046ff07003e0090006d
:10441c000080e8009040780020ceb30041ff0700f8
:10442c003e009000630040009040780030ceb30016
:10443c003cff07003e009000640040009040780074
:10444c0000ceb30037ff07003e009000650040002f
:10445c009040780010ceb30032ff0700001020000f
:10446c0020079800ae00900000c1b30054ff070075
:10447c0020472000100798009e00900040c1b30018
:10448c004fff070001cbb30080c3b30025ff07002b
:10449c00f1c3b30080c2b30022ff070001c3b30015
:1044ac0090c2b3001fff070091cfb30000c3b3004d
:1044bc001cff070071cfb30010c3b30019ff070036
:1044cc0021c1b30040ccb30016ff0700f0c1b3000c
:1044dc00f0fe070002ccb300b1c1b30000c8b300ba
:1044ec00d7fe070042c0b300f1c1b30000c8b3004f
:1044fc00d3fe07000080fa00000006000000fa005e
:10450c0020c7b300fdfe07000080fb000080fa000e
:10451c00000006000400fa00000f78001107980054
:10452c0041c2b30020c0b300fefe0700a1c1b3001e
:10453c0030c0b300fbfe07001e00900042c2b30067
:10454c008240400060c0b300f6fe07009e00900061
:10455c0040a22100008040004800de00804078002e
:10456c0070c0b300effe07000041eb008040eb0091
:10457c00a0c7b300b2fe0700cca2a900a0c7b3002d
:10458c005e070700070037001e0090000000e900de
:10459c00100798001e007800104078001e0fe800ed
:1045ac00560707001e0090000000e000f6ff3a00de
:1045bc00cca2a80082c0b300f1c1b30000c8b30004
:1045cc009ffe0700c0c1b300ccfe07000080fb00bb
:1045dc000000d100610060000004e0000400320023
:1045ec0082c0b300f1c1b30000cab30094fe07004f
:1045fc000080fa00000006000a00fa00200798006c
:10460c003107980090c3b300bcfe07000004e00023
:10461c0003003a000000eb004007980057003700f9
:10462c0021bd2000914078000040eb00bdfe07004a
:10463c0031bd20009140780010c0b300b9fe0700d6
:10464c008040eb00a0c3b30063fe0700d2ebb700c1
:10465c008040eb00a0c3b3005ffe0700d3ebb700b4
:10466c008040eb00a0c3b3005bfe0700204798001e
:10467c008040eb00a0c3b30057fe07003047980002
:10468c001e00900064005000100798008040eb0062
:10469c00a0c3b30050fe0700004f78008040eb0031
:1046ac00a0c3b3004cfe0700104798009e0090007a
:1046bc003e0090000000e900808f5000030036009f
:1046cc003e0090000000e900100798001e007800e2
:1046dc004700de000000a200610060000004e00062
:1046ec00030032000000eb001007980015003700a3
:1046fc001e009000000f7800cca2a900a0c3b3004c
:10470c00fe0607000b0037001e0078000000e900d1
:10471c00000f78000040eb00f8060700804078009e
:10472c002e009000014878002e0090000000e80058
:10473c00200798001e0078000000e000f2ff3a000d
:10474c00cca2a80021bd200091407800c0c0b300cd
:10475c0074fe070031bd200091407800d0c0b3003a
:10476c0070fe070002c4b300e1c1b30000c8b3007f
:10477c0033fe07001e009000400798004e0090008a
:10478c000080fa00000006000000fa000040eb0078
:10479c00acebb7000b003700accbbf000080fb00cc
:1047ac006c00b9008000780000b920000081400046
:1047bc006000b8000089be00accbbf000040e80030
:1047cc00acebb700accbbf00e14f5000f2ff3600b2
:1047dc000080fa00000006000200fa00aecbbf0019
:1047ec000040e800aeebb7000040eb00acebb700cc
:1047fc001c003700accbbf000080fb006c00b90084
:10480c008000780000b92000008f40001e00780066
:10481c00900078001e00780010009000008070005e
:10482c000000e0000c003200aecbbf008080fb002b
:10483c001e007800204890000080fb008080500013
:10484c0070072000808f5000030034001e01780098
:10485c006000b8000089be00accbbf000040e8008f
:10486c00acebb700accbbf00e14f5000e1ff360022
:10487c000080fa00000006000600fa00000f780025
:10488c00110798000040eb00acebb7002900370093
:10489c00accbbf000080fb006c00b900800078003e
:1048ac0000b920008080400021079800ae009000e5
:1048bc00110078000000e0001b0032002e01900077
:1048cc00120090000000e000170032001e0078007b
:1048dc0090007800ae01900013007800808f50009b
:1048ec0011003a001e80e800900078002e01900024
:1048fc0012009000808f50000b003a001e009000b8
:10490c00ae019000e480410005000900b058780029
:10491c006100b1006000b100aecbbf00ae009000f2
:10492c00a04898005e003700accbbf000040e80008
:10493c00acebb700accbbf00e14f5000d4ff36005e
:10494c000040eb00acebb70012003700accbbf0063
:10495c000080fb006c00b9008000780000b92000da
:10496c0080804000210798002e01900012007800f2
:10497c000000e00004003a00ae019000130090002b
:10498c000000e00006003200accbbf000040e800a5
:10499c00acebb700accbbf00e14f5000ebff3600e7
:1049ac00accbbf00e24f50002f003a000040eb00b0
:1049bc00afebb7000040eb00adebb7000040eb00f5
:1049cc00acebb7001c003700accbbf000080fb0089
:1049dc006c00b9008000780000b920008080400095
:1049ec0021079800aecbbf008080fb002e01900009
:1049fc00224890000080fb0080805000afcbbf00ad
:104a0c000080fb00808f500008003400e1ba2000c9
:104a1c0091407800ae0190002348900000c05000f7
:104a2c00afebb700accbbf00adebb700accbbf006e
:104a3c000040e800acebb700accbbf00e14f50003e
:104a4c00e1ff3600adcbbf00acebb700accbbf0089
:104a5c000080fb006c00b9008000780000b92000d9
:104a6c008080400021079800ae0090001e00780066
:104a7c001001be008288be009e009000ae01900026
:104a8c006480410005000900315878006000b100d5
:104a9c006100b100aecbbf00ae009000a048980002
:104aac000080fa00000006000200fa00a14d800010
:104abc0090022000808f500003003e000000eb00ad
:104acc00a04d8800640037000000eb00a04d88006a
:104adc00c080200020089000000f780000102000fb
:104aec009e007800808f50000500320000202000ce
:104afc009e007800808f5000450032005600370031
:104b0c00c08020006002b00090007800b058800097
:104b1c00808f500050003a00c08020008002b0000e
:104b2c009000780080b1200010007800808f500039
:104b3c0049003a00c0802000f6004000c0802000f0
:104b4c007c0040004cff0700c180200000202000aa
:104b5c00a0089800c08020007600400080007800fb
:104b6c00c08020000002b000050009003158780018
:104b7c006000b1006100b100c080200076004000f0
:104b8c004178280005000900315878006000b10018
:104b9c00c080200066004000417828000500090014
:104bac00315878006000b100c08020000002b000d5
:104bbc00c180200005000900b05878006000b100e9
:104bcc00c1802000c080200060089000b0109800c8
:104bdc00c1802000c080200070089000c010980098
:104bec00c1802000b0588000e0089800c1802000ef
:104bfc00c0588000f0089800c18020008060200020
:104c0c00e0009800a0022000a04d880012003700a0
:104c1c00c08020006002b00090007800b058800086
:104c2c00808f50000c003a00c08020008002b00041
:104c3c009000780080b1200010007800808f500028
:104c4c0005003a00c0802000f6004000c080200023
:104c5c007c00400008ff07000080fa0000000600fe
:104c6c000200fa00c08020007e0040009000780016
:104c7c0020468400808f50000d003a00c080200038
:104c8c000002b00090007800608c280010007800c2
:104c9c00808f500006003a00e08b2800c180200075
:104cac0005000900b05878006000b1008b00370097
:104cbc00c08020007e00400090007800d05880001a
:104ccc0000816000b1588000d058800000806000e6
:104cdc00800f51000d003a00c08020000002b0008f
:104cec0090007800c0b120001000780000816000b6
:104cfc0080b1200090007800c0b120001000780036
:104d0c0000806000800f510007003200f0588000d6
:104d1c00405d8800a1ba200000b22000100078008d
:104d2c008008780009003700c08020007e00400019
:104d3c0010007800405d8800a1ba2000c0802000df
:104d4c000002b00010007800800878000040eb00f2
:104d5c00acebb70015003700accbbf000080fb00fc
:104d6c006c00b9008000780000b92000008f400072
:104d7c00415d80001e00780010007800808f50008c
:104d8c0007003a00a0ba2000900078001e007800be
:104d9c000080e80010007800808f50000600320080
:104dac00accbbf000040e800acebb700accbbf0015
:104dbc00e14f5000e8ff3600accbbf00e24f500093
:104dcc0040003a0062002000f10f2000c08020005b
:104ddc00e4ed0700c08020000002b000620020005b
:104dec008000eb00dfed0700c08020006600400073
:104dfc004178280005000900315878006000b100a6
:104e0c00c080200076004000417828000500090091
:104e1c00315878006000b100c08020006102200091
:104e2c0080804000405d800080087800c0802000b9
:104e3c008102200080804000a0ba20001000780081
:104e4c0080087800c0802000fc004000b058800032
:104e5c0080087800c0802000fe00400080b1200057
:104e6c001000780080087800c1802000001020001d
:104e7c00a0089800c180200000102000f0009800cd
:104e8c00c18020008000200080089800c180200094
:104e9c0060c0b300a0509800c180200040c0b30097
:104eac00b0509800c180200080602000e000980085
:104ebc0020842000904d8800a0022000a04d880086
:104ecc00120037009e00780064804000c1802000f2
:104edc0005000900b05878006000b100c0802000c7
:104eec006600400041782800050009003158780020
:104efc006000b100c180200080002000e00098001c
:104f0c00a04d80006e004000a04d88000080fa008b
:104f1c00000006000200fa000000eb00905d880023
:104f2c0008003700805d8000000f7800805d8000f5
:104f3c0010007800805d88009e0078000000eb0077
:104f4c0080087800805d80000000e000f5ff3a00ea
:104f5c000080fa00000006000800fa00000f78003c
:104f6c0011079800220798001e0078009000780026
:104f7c002e00900010007800008160001e00900050
:104f8c00900078002e0090001000780000806000e7
:104f9c00800f510012003a001e80e800900078004b
:104fac002e0090000080e800100078000081600066
:104fbc001e0090000080e800900078002e00900009
:104fcc000080e8001000780000806000800f510025
:104fdc0003003a0010002000300798000200370050
:104fec000000eb00300798006e4090000080fb0042
:104ffc000080fa00000006000200fa00881f78000a
:10500c00a081200010489000e14f500003003a00ae
:10501c000000eb00a04d880063003700a081200049
:10502c0080007800608320001b0009003158780054
:10503c00c001b100c101b100a08120008000780046
:10504c00b0c0b300c0509800a08120008000780050
:10505c000040eb00d0509800a08120008000780028
:10506c000000eb00b0089800a0812000000478003c
:10507c00e082200041022000c3f007000080ea001b
:10508c00300c9800a081200080089000010f78005f
:10509c00a081200080007800a0812000600090009a
:1050ac0080089800a08120009e0078006100980084
:1050bc00a081200090089000010f7800a0812000b2
:1050cc0080007800a081200070009000900898006b
:1050dc00a08120009e00780071009800a081200023
:1050ec0080007800b0588000e0009800a08120007b
:1050fc0080007800c0588000f000980080032000e9
:10510c00a04d8800a0812000800078000040eb00ba
:10511c00a0409800a081200080007800a04d800065
:10512c00b0409800a08120008000780050c4b300eb
:10513c0080487800a0812000800078000040eb00bf
:10514c0090409800a081200000017800a0812000f0
:10515c00800078000040eb00f04098007140900017
:10516c0060419800a081200080007800f0c6b30058
:10517c0080489800a08120008000780010c0b30007
:10518c0090489800a0812000800078000000eb007f
:10519c00d0009800a08120000004780084f0070063
:1051ac000080ea00500498004f0478000080fa0058
:1051bc00000006000600fa0040012000000f7800f5
:1051cc000000eb00200798000000eb00100798008f
:1051dc00280037001e0090006e00b9008000780097
:1051ec0040bb200000804000100078000000e00070
:1051fc0007003a001e0090006e00b9008000780095
:10520c0040bb200000804000200798001c003700a5
:10521c001e0090006e00b9008000780040bb20009a
:10522c0000804000900078001e007800808f5000b5
:10523c000d003e001e0090006e00b900800078004a
:10524c0040bb200000804000200798001e0090000a
:10525c006e00b9008000780040bb20000080400048
:10526c0010007800000f78001e0090000000e8008d
:10527c00100798001e009000e10f5000d5ff34007d
:10528c00ae0090004001200080087800a081200032
:10529c00a00090002e00900051009800a0812000ea
:1052ac00e00090002e00900011009800a0812000da
:1052bc00f00090002e00900021009800a0812000aa
:1052cc00800890002e00900031009800a0812000f2
:1052dc00900890002e00900041009800a0812000c2
:1052ec00904890002e009000414898000080fa00f1
:1052fc00000006000400fa00805d8000000f7800ba
:10530c000d0037001e007800660140009e80e8000a
:10531c00c08020007e0040000fff07000004e0006a
:10532c00030032001e0078001007980006003700ba
:10533c001e007800100f78001e00e000f1ff3a000c
:10534c00905d8000100798001e0090000080fa000d
:10535c00000006000400fa00a04d80000000e000f0
:10536c0003003a0020002000100798000d003700c1
:10537c0090ff0700dfff0700000f78001e00e00021
:10538c0003003a0040002000100798000500370089
:10539c001e00780050009000000001000080fb000f
:1053ac00100798001e0090000080fa000000060014
:1053bc000400fa00a081200080089000b058800002
:1053cc00808f500008003a00a081200090089000c7
:1053dc00c0588000808f500003003a000000eb00a2
:1053ec00100798006200370040bb2000000f7800c7
:1053fc002d0037001e007800100078000000e0003f
:10540c00270032001e007800d0009000a081200000
:10541c0020009000808f500021003a001e00780080
:10542c0090009000a081200060009000808f5000c0
:10543c001b003a001e007800a0009000a081200004
:10544c0070009000808f500015003a001e0078000c
:10545c00b0009000a081200000089000808f5000c8
:10546c000f003a001e007800c0009000a0812000c0
:10547c0010089000808f500009003a001e00780040
:10548c00c0489000a08120001048900080cf5000b0
:10549c0003003a0010002000100798003400370079
:1054ac001e0078006e0f400000bd20009e0f100003
:1054bc00d0ff3900a081200000489000e14f50003f
:1054cc000c003e00a081200000089000e10f40007d
:1054dc0007003a00a081200010089000e10f400066
:1054ec0003003a000000eb00100798002000370082
:1054fc00c1fe0700a081200080007800a081200060
:10550c00004890000040e90080489800a0812000ed
:10551c0050009000e30f400007003600a0812000ef
:10552c0080007800a0812000500090000080e800ee
:10553c00d000980006003700a08120008000780081
:10554c00a0812000500090000000e800d0009800de
:10555c00a04d80000000e0000300320020842000f9
:10556c00904d88007bff070010002000100798006a
:10557c001e0090000080fa00000006000200fa00f5
:10558c00000f7800815d80001e0078000108780013
:10559c001e007800805d88000080fa000000060084
:1055ac000200fa00000f78001e007800905d880061
:1055bc000080fa00000006000200fa0040bb200048
:1055cc00000f78000b0037001e00780010007800e8
:1055dc000000e000050032001e007800100078008a
:1055ec008000e9001e007800010878001e00780099
:1055fc006e0f400000bd20009e0f1000f2ff39001e
:10560c000080fa00000006000000fa0040202d0087
:10561c0080f007000080fa00000006000000fa008d
:10562c0014cbbf000080fb000000d10061006000c3
:10563c000004e00006003a0014cbbf000080fb0021
:10564c004200de00610060000004e0000300320054
:10565c00b1002000008928009cf707000080fa00a8
:10566c00000006000000fa009090220069f007008c
:10567c000080fa00000006000400fa00b04d800023
:10568c00405890000080fb00000f780014cbbf0046
:10569c000080fb004600de00610060000004e000ba
:1056ac00070032009e00780010002000800878006f
:1056bc0091002000c089280084f707002c003700d7
:1056cc0014cbbf000080fb00610060000004e00010
:1056dc00070032001e00780010007800e10f500027
:1056ec0003003a009e00780020002000800878001b
:1056fc0014cbbf000080fb000000d10061006000f3
:10570c000004e0000300320031002000608a280011
:10571c006ef7070014cbbf000080fb004200de00d8
:10572c00610060000004e000110032001e007800ef
:10573c0010007800100798001e009000e10f500038
:10574c00040032001e009000e20f500005003200f1
:10575c000700370091002000c08928005bf7070084
:10576c000300370031002000608a280057f707003b
:10577c000080fa00000006000000fa00a2ff0700fb
:10578c00b8ff07000080fa00000006000200fa00d3
:10579c00b04d800020009000000f78009090220007
:1057ac009e007800808f50000700320040202d00b2
:1057bc009e007800808f50000100320003003700fb
:1057cc0096ff070001003700abff07000080fa00ce
:1057dc00000006000e00fa00881f780066004700e3
:1057ec00210320006a0207006a004700813e200066
:1057fc0067020700da0207002fef0700008c2a006f
:10580c00100798000e80e8008080e800000025005a
:10581c00800878001e009000b058880081b12000ec
:10582c000e80e8000080e800100078008008780006
:10583c00008c2a00100798000e80e8008080e80099
:10584c0000102000800878001e009000f05888009e
:10585c0001b220000e80e8000080e8001000780003
:10586c00800878000080eb00100798000e80e8009c
:10587c008080e800f00f2000800878001e00900067
:10588c00d0588800c1b120000e80e8000080e800ec
:10589c001000780080087800b7ff07000000370080
:1058ac00bb020700a04d8800a04d80000000e00066
:1058bc001a003200c080200060049000008020009c
:1058cc00faf60700800f540008003a0010c0b3002d
:1058dc0000f00700a04d80000000e000f0ff320057
:1058ec00dffc0700b0020700edff3700c08020008e
:1058fc006004900060802000ecf60700800f5400dc
:10590c00e7ff3a0068fc0700a04d80000000e000b3
:10591c00e3ff3200a4020700e1ff370066004700f6
:10592c003a0207000000e000ddff3200660047008d
:10593c00230207000000eb00000f78000e00370078
:10594c001e0078007e00b90080007800809b20004b
:10595c0000804000b04d880020c0b300ddef070090
:10596c00a04d80000000e00002003200bcfc0700eb
:10597c008d0207001e0fe800900020009e0f100003
:10598c00efff34006a004700200207000000e0002f
:10599c00c3ff32006a004700090207008efb0700b4
:1059ac00bfff37000200fa00000f78000080fa00f9
:1059bc00000006000200fa000000eb00000f780067
:1059cc00080037001e0078006c00b90080007800d9
:1059dc00a0b320008080400000c8b300804878004d
:1059ec001e0fe800700020009e0f1000f5ff340021
:1059fc000080fa00000006000200fa000000eb0034
:105a0c00000f7800150037001e0078006c00b900fc
:105a1c00ea00400000b320000080400010407800f5
:105a2c000004e0000c0035009e0178006c18b900f1
:105a3c00ea00400000b320000080400010407800d5
:105a4c000041e8006c18b90080007800a0b3200079
:105a5c0000804000024878001e0fe8007000200013
:105a6c009e0f1000e8ff34000080fa0000000600d2
:105a7c000a00fa0030079800410798000040eb003c
:105a8c00004f78000000eb00100798000000eb00be
:105a9c0020079800380037002e0090006c00b900e9
:105aac00ea00400000b320000080400090407800e5
