:03000000020003F8
:0C000300787FE4F6D8FD75812002004AE9
:100189000B0C004C0C440303CCCCCCCC580108001C
:050199000309FEFCFB60
:10015700AE071FEE6013E4FCFDC3ED9450EC940072
:0901670050EE0DBD00010C80F00A
:01017000226C
:0200CF00A9077F
:1000D100E4FFFEE9FDC3EF9DEE94005023E4FDFC37
:1000E100E4FBFA0BBB00010AEB64C84A70F50DBDD5
:1000F10000010CED64054C70E70FBF00010E80D3C9
:0101010022DB
:10019F00E4FDFCEFFBC3ED9BEC940050070DBD009D
:0401AF00010C80EFD0
:0101B3002229
:100120008F20E4FF300704D2938002C293D291E57E
:0B0130002025E0F520C2910FBF08E978
:01013B0022A1
:10010200E4FFE52025E0F520D2913092054320015D
:0D01120080035320FEC2910FBF08E7AF200D
:01011F0022BD
:0901EC00C297D2967F010201576F
:1001DB00D290C291D294C2B7C2B6D295C296C297F0
:0101EB0022F1
:1001B400C290E4FE740C2EF8E6FF1201200EBE0B72
:0301C400F3D290E3
:0101C7002215
:10008F007F011201577F64120157C296C2907F0100
:10009F001201577F24120120E4FE12010274082E70
:1000AF00F8A6070EBE01F3D2907F641201577F644A
:0F00BF001201577F0A1201577FE81200CFD29625
:0100CE00220F
:0901F5003094037F01227F0022F7
:10013C001201EC1201F5EF60FA7F64120157120004
:0B014C008F7FE81200CF7FE80200CF99
:1001C800E4FE74082EF8E6F5807FE812019F0EBE63
:0201D80003F032
:0101DA002202
:100171007F641200CF1201DB1201B412013C7F64D3
:080181001200CF1201C880F347
:10000F00020171E493A3F8E493A34003F68001F295
:10001F0008DFF48029E493A3F85407240CC8C333F2
:10002F00C4540F4420C8834004F456800146F6DFC1
:10003F00E4800B0102040810204080900189E47EC7
:10004F00019360BCA3FF543F30E509541FFEE493B6
:10005F00A360010ECF54C025E060A840B8E493A37D
:10006F00FAE493A3F8E493A3C8C582C8CAC583CAA8
:10007F00F0A3C8C582C8CAC583CADFE9DEE780BE60
:01019E000060
:00000001FF
