:03000000020157A3
:0C015700787FE4F6D8FD75812102019E3E
:1002C3000B09BFC0F9A4B0999282F88090061B7FF6
:0502D300BFDFEFF7FBA7
:0402EE00F8E6F580B9
:0E02F200E4FEEEC39F50077DE8DDFE0E80F4B3
:0103000022DA
:10030100EFD39400400B7E147DF8DDFEDEFA1F80F2
:01031100EFFC
:0103120022C8
:10025700851BA074092515F8E6F5807F011202F2C7
:10026700851CA0740925161202EE851DA0740925A8
:10027700171202EE851EA0740925181202EE851FBB
:10028700A0740925191202EE8520A07409251AF811
:06029700E6F5800202F210
:1002D900E590640F600EE590540FFF7590F0E5907E
:0402E90054F04FFF7F
:0102ED0022EE
:10000300EF12029D00837700F07B01497D0067B703
:1000130000D7BB013BBD004BD700BBDB0122DD009A
:100023002FE7009FEB0109ED00000156E514C3948F
:1000330006400302015674152514F876010514E4ED
:10004300F5993099FDC29922E514C3940640030241
:10005300015674152514F876020514759901309923
:10006300FDC29922E514C394064003020156741598
:100073002514F8760305147599023099FDC2992267
:10008300E514C39406400302015674152514F8764B
:100093000405147599033099FDC29922E514C3949C
:1000A30006400302015674152514F87605051475E8
:1000B30099043099FDC29922E514C39406400302C2
:1000C300015674152514F8760605147599053099AB
:1000D300FDC29922E514C39406507874152514F8CB
:1000E300760705147599063099FDC29922E514C364
:1000F3009406505F74152514F8760805147599074E
:100103003099FDC29922E514C3940650467415250F
:1001130014F8760905147599083099FDC29922E5FA
:1001230014C39406502D74152514F8760A05147516
:1001330099093099FDC29922E514B406167599758B
:100143003099FDC29922E514D394065006E4F514C0
:040153007508012208
:0A032200758901758CDC758A3222A2
:0F031300438920759850758DFD758BFDD28E2214
:1001E300120322120313E4F51475900FE590640FC4
:1001F30060121202D9120003C2B77F14120301D294
:10020300B775900F12025730B602C2B520B602D2AC
:10021300B5E508B401D674152514F8E4F60514748D
:10022300152514F8E4F6051474152514F8E4F605F9
:100233001474152514F8E4F6051474152514F8E45C
:10024300F6051474152514F8E4F6120257E4F508BC
:04025300F514809886
:100163000201E3E493A3F8E493A34003F68001F2CE
:1001730008DFF48029E493A3F85407240CC8C3339D
:10018300C4540F4420C8834004F456800146F6DF6C
:10019300E4800B01020408102040809002C3E47E37
:1001A300019360BCA3FF543F30E509541FFEE49361
:1001B300A360010ECF54C025E060A840B8E493A328
:1001C300FAE493A3F8E493A3C8C582C8CAC583CA53
:1001D300F0A3C8C582C8CAC583CADFE9DEE780BE0B
:0102D8000025
:10029D00D083D082F8E4937012740193700DA3A3F0
:1002AD0093F8740193F5828883E473740293686004
:0602BD00EFA3A3A380DF04
:00000001FF
