:03000000020003F8
:0C000300787FE4F6D8FD75812B02004ADE
:1000FE000B21004C0C440303CCCCCCCC580A0F0182
:10010E00374222342808330020030C010101040871
:04011E00CCCCCCCCAD
:10013F00AE071FEE6013E4FCFDC3ED9450EC94008A
:09014F0050EE0DBD00010C80F022
:010158002284
:0200CB00A90783
:1000CD00E4FFFEE9FDC3EF9DEE94005023E4FDFC3B
:1000DD00E4FBFA0BBB00010AEB64C84A70F50DBDD9
:1000ED0000010CED64054C70E70FBF00010E80D3CD
:0100FD0022E0
:100123008F20E4FF300704D2938002C293D291E57B
:0B0133002025E0F520C2910FBF08E975
:01013E00229E
:10018000D290C291C294C2B7C2B6D295C296C2975B
:01019000224C
:10015900C290E4FE74212EF8E6FF1201230EBE0BB5
:03016900F3D2903E
:01016C002270
:10008F00C2907F20120123E4FEAF0D1201230EBE9A
:10009F0003F7D2907F0112013FC2907F22120123FA
:1000AF00E4FEAF091201230EBE04F7D2907F0112B6
:0B00BF00013FD2967F0112013FC29664
:0100CA002213
:0901A100C296D2977F0102013FD2
:100191001201A17F0A1200CB12008F7F640200CBF3
:10016D0012018012015920A3FD1201917F6412002A
:03017D00CB80F341
:10000F0002016DE493A3F8E493A34003F68001F299
:10001F0008DFF48029E493A3F85407240CC8C333F2
:10002F00C4540F4420C8834004F456800146F6DFC1
:10003F00E4800B01020408102040809000FEE47E53
:10004F00019360BCA3FF543F30E509541FFEE493B6
:10005F00A360010ECF54C025E060A840B8E493A37D
:10006F00FAE493A3F8E493A3C8C582C8CAC583CAA8
:10007F00F0A3C8C582C8CAC583CADFE9DEE780BE60
:0101220000DC
:00000001FF
