:100000000C945B030C94C81A0C94C81A0C94C81A6C
:100010000C94C81A0C9478030C9478030C9478030D
:100020000C9478030C9478030C9478030C94831A42
:100030000C9478030C9478030C9478030C94461A6F
:100040000C9478030C9478030C9478030C94780344
:100050000C9478030C9478030C9478030C94780334
:100060000C9478030C9478030C9478030C94780324
:100070000C9478030C9478030C9478030C94780314
:100080000C9478030C9478030C9478031A003707C7
:100090000800310707002B07090025070B001D0783
:1000A0000C0017071800FD061900F6069800EF0669
:1000B0009900E8061E004B079E003D07000003075D
:1000C0008C000307E30BE90F6F0BB50B9A0B440B86
:1000D000FE0119FD010CFB010BF70109EF0118DF0F
:1000E0000107BF01087F011AFF001EEF8198FE8102
:1000F00099FF809E00000000001769171775200BFC
:1001000069200B692B1769340B75340B0000000054
:1001100001004C3D4C054C3D4C024C3D4C014C3DCE
:1001200005004C4302004C4301004C434C054C433A
:100130004C024C434C014C434B054C434B024C434B
:100140004B014C4305001D4302001D4301001D43AC
:10015000054C1D43024C1D43014C1D434B051D43E3
:100160004B021D434B011D4305002543020025435F
:1001700001002543054C254300006A1876216A21B9
:100180006A2C6A3576351125241F1125241F1E1F60
:10019000221D23191E17000060EA3075E02E70172B
:1001A0008813D007E803F401C8006400320014008B
:1001B0000A000500409C204E1027A00FD007E8033E
:1001C0009001C800C800C800C800C80001010101B2
:1001D00001010101010102040A14286464646464D9
:1001E00064646464C8C8C8FFFEFCF8F0E0C0800125
:1001F00003070F1F3F7FFF07020207081C3E1C1C5E
:100200001C3E1C080000143E7F3E140000000050FD
:10021000487F09110000000005097F4844000000E4
:1002200000387C7C7C3800000000000000000000EA
:10023000003E5149453E00427F40006251494946D7
:100240002141494D331814127F1027454545393C4B
:100250004A49493101710905033649494936464938
:1002600049291E00363600000040340000081422E0
:1002700041001414141414004122140802015905F9
:10028000023E415D594E7C1211127C7F494949362C
:100290003E414141227F4141413E7F494949417FA1
:1002A000090909013E414151717F0808087F004159
:1002B0007F4100204040403F7F081422417F404062
:1002C00040407F020C027F7F0408107F3E41414185
:1002D0003E7F090909063E4151215E7F09192946E1
:1002E000264949493201017F01013F4040403F1FFB
:1002F0002040201F7F2018207F631409146303040B
:1003000078040361514945437F7F4141410204081C
:1003100010204141417F7F100804081040404040B8
:1003200040000102040020545454787F444444386F
:100330003844444444384444447F3854545458085E
:100340007E090902004C9292FC7F04040478004468
:100350007D40402040443D007F1010284400417FF4
:1003600040007C0438047C7C040404783844444411
:10037000387C14141408081414147C7C0804040435
:100380004854545424043F4444203C4040207C1CA6
:100390002040201C7C4030407C44281028440C50D5
:1003A00050503C4464544C44000060600000000025
:1003B0000000008000800040022002100208022499
:1003C000824342C432080E100220006000C0004088
:1003D000000060401F48204840487FFF424842409C
:1003E0004FF844084A08447F4388450948EA1E48B4
:1003F0000000000000000FF80448044804480448C6
:100400003FFF44484448444844484FF84000700087
:10041000000001000100010201020102410281020B
:100420007FE20112010A01060102010001800100C0
:100430000000000000503F4F014A0148FFFF2148E3
:1004400061483F4800000FFC400080007FFF000033
:100450000000008000400020FFF800070022001884
:10046000000CFFFB044804480448046806480408DC
:100470000000000000000000FFF844484448444CDD
:10048000444B444A444844484448FFF800000000B4
:1004900000000208018800687FFF00282048221021
:1004A0002C4821442E433044284827502210201045
:1004B00000000000000007FC020802080208020811
:1004C000FFFF020802080208020807FC00080000FB
:1004D000000000400042004C7FC420001022FFAA10
:1004E0000AAA0AAA0ABF4AAA8AAA7FAA0022002048
:1004F00000000800061201920072FFFF0051008107
:10050000FFF2049C0490049F449084987FF40002BE
:10051000000000400020FFF800078212431022F282
:1005200012520A5207D21A52225E6250C250421030
:10053000000000000000580038000000000000002B
:1005400000000000000000000000000000000000AB
:10055000000000000000000000000000000000009B
:10056000000000000000000000000000000000008B
:10057000000007F80FFC1C0E18061C0E0FFC07F8F5
:100580000000020006001FFE1FFE00000000060E15
:100590000E1E183E106618C60F86070604080C0CBF
:1005A00018C618C619E60F3C0738007000F0033073
:1005B0000C301FFE1FFE00301F981FCC19861986B5
:1005C000198618FC187807F80FFC19861986198601
:1005D0000CFC0478180E181E187819C01F001E0095
:1005E0001C0006380F7C19C6108219C60F7C06380D
:1005F00007880FCC18E6186618C60FFC07F800002D
:1006000000060006000000000000000000000000DE
:10061000000000000000000000001FFE1FFE0E0092
:10062000070001FE01FE07000E001FFE1FFE1FFE59
:100630001FFE00C001C003E007F00E381C1C180E9E
:1006400010061FFE1FFE1FFE00C000C000C000C03D
:100650001FFE1FFE1FFE0306030E031E0336036666
:1006600003C60386030600000000FFFEFFFEFFFE38
:10067000C300C300C300C300C300C000C000C0006B
:10068000C000E000F000FFFFFFFFF000E000C0004E
:10069000C0000660066006600660066006600660D0
:1006A000066006600660008844CC22AA66EE1199B6
:1006B00055DD33BB77FF11241FBECFEFD0E1DEBF86
:1006C000CDBF11E0A0E0B1E0E6E5F7E302C00590A0
:1006D0000D92AC32B107D9F718E0ACE2B1E001C03D
:1006E0001D92A739B107E1F70E947A030C94A91B68
:1006F0000C9400000E94CC030E94B9030E94500495
:100700000E9447040E944A040E94E60360E080E0E1
:1007100091E00E94160478940E942A060E945915BE
:100720000E94970C0E94E8140E94260D0E941B0C48
:1007300010926904809169048823A1F480910A01D0
:100740008F3098F00E94FF0E0E94A5048091300126
:1007500090913101892B71F30E94650680916904A3
:10076000882361F30E948017E5CF0E94B10DECCF82
:10077000089580E485BF8EE080936D0087E08093CC
:100780006C0088E080BD8AEA80936A001ABE8FE020
:1007900089BF8FEF88BF08951BBA1ABA87E088BB5C
:1007A00081E987BB15BA8FEF84BB8FE082BB11BA9A
:1007B00013B888E382B91092620080EE80936100E2
:1007C000109265008FE18093640008951BB888E162
:1007D0008AB986E080939500109290008FE189B9E4
:1007E000089510929B0088E180939A0086E08093A0
:1007F0009D00109298008FE18093990008955D9B71
:10080000FECF8CB90895982F80919B0085FFFCCF77
:1008100090939C0008955F9BFECF8CB108958091CA
:100820009B0087FFFCCF80919C000895FC0166230C
:1008300071F090819923B1F080919B0085FFFCCFEE
:1008400090939C00319690819923B1F7089580810F
:100850008823E1F35D9BFECF8CB93196808188239C
:10086000C9F7089508958BB1881F8827881F0895B8
:1008700080919B00881F8827881F089580919B0086
:1008800087FD02C080E0089580919C00089580E17A
:1008900088B9089584E087B916B810928E0008953B
:1008A0008DE183BF12BE8BE981BF1FBC89E18EBD84
:1008B00010927A001DBC1CBC1BBC1ABC19BC18BC15
:1008C000109279001092780017BC16BC99E095BD83
:1008D00014BC88EC83BD89EA80938B0090938A00D6
:1008E00010928C001092890010928800109287005C
:1008F00080E680938600109285001092840010920A
:10090000830010928200109281001092800082E099
:1009100087BF10927D008FEF86BF8FE380937C00AE
:10092000089508959C01E199FECF3FBB2EBB6DBB9E
:10093000F894E29AE19A789408959C01E199FECFA7
:100940003FBB2EBBE09A8DB3089580912D01882383
:1009500009F4BCC010922D0180B38F708F30E1F488
:100960008091340181508093340180913201882339
:1009700051F080912E0190912F019093310180933D
:1009800030011092320110922C011092330110921A
:1009900036011092350108958EE18093340180EC88
:1009A000809362000E94CB180E94CB180E94CB1843
:1009B0000E94CB180E94CB1820912E0130912F015C
:1009C00080B390E08F709070207F3170822B932BDA
:1009D00090932F0180932E0180912E0190912F01F1
:1009E00082959295907F9827807F982790932F01EA
:1009F00080932E0180EA809362000E94CB180E94AF
:100A0000CB180E94CB180E94CB180E94CB182091C3
:100A10002E0130912F0180B390E08F709070207F75
:100A20003170822B932B90932F0180932E01809114
:100A30002E0190912F0182959295907F9827807F2B
:100A4000982790932F0180932E0180E68093620077
:100A50000E94CB180E94CB180E94CB180E94CB1882
:100A60000E94CB1820912E0130912F0180B390E08D
:100A70008F709070207F3170822B932B90932F0179
:100A800080932E011092620080917404853519F0D4
:100A900086E08093410120912E0130912F018091B9
:100AA0003501909136012817390789F480912C017E
:100AB0008F5F80932C0180912C018B30B8F4809152
:100AC0002C018A3019F481E08093320108958091DD
:100AD0002E0190912F019093360180933501109251
:100AE0002C011092330110923201089580912C0153
:100AF0008F3F61F78AE080932C01809133018F5FF3
:100B00008093330180913301843001F780912E016D
:100B100090912F019068909331018093300183E090
:100B200080933301109232010895882389F58091D2
:100B30006500877F80936500C098442389F1809188
:100B40006500826080936500809165008E7F809350
:100B500065008091650080618093650065BB81E0E0
:100B600090E00E941109809165008F7E809365005E
:100B7000809165008E7F80936500809165008D7FF8
:100B80008093650081E090E00E9411098FEF089545
:100B9000C09880916500886080936500442379F651
:100BA00080916500816080936500809165008D7FF4
:100BB00080936500CECF1F93982F6623C9F580914F
:100BC0006500816080936500809165008D7F8093D2
:100BD00065009923C9F18091650088608093650064
:100BE000C09A8091650080618093650014BA81E0AD
:100BF00090E00E94110913B381E090E00E94110976
:100C00008FEF84BB809165008E7F8093650080911B
:100C100065008D7F80936500809165008F7E809355
:100C2000650081E090E00E941109812F1F910895D5
:100C300080916500826080936500809165008E7F61
:100C400080936500992339F680916500877F8093B2
:100C50006500C6CF809165008B7F8093650088EE2C
:100C600093E00E9411098091650084608093650083
:100C700084E690E00E94110940E06FE380E00E946A
:100C800095058823C9F341E06FE380E00E94950554
:100C90008823C9F30895AB01FB01259134912115F7
:100CA000310549F410C04D5F5F4FFA012591349131
:100CB0002115310541F028173907A9F74E5F5F4F1D
:100CC000FA018491089580E0089580913001909117
:100CD0003101892B09F443C0409130015091310119
:100CE00020ED30E0F90185919491009749F43BC0E3
:100CF0002D5F3F4FF90185919491009709F433C01E
:100D000048175907A9F72E5F3F4FF9019491909327
:100D1000380180913B01E82FF0E0EE0FFF1FE05417
:100D2000FF4F25913491F9018491882329F418C04B
:100D3000349684918823A1F09817D1F73196849145
:100D400080933B01CF010196FC0125913491F9017B
:100D500009951092380110923101109230010895D6
:100D600023E037E0F4CF90E0D2CFFB01DA01949199
:100D7000992329F40EC034969491992351F0981731
:100D8000D1F7319684918C93319625913491C90194
:100D9000089523E037E0C901089510923B011092B5
:100DA00038011092390181E080933A0180933C012F
:100DB000089590913A01292F30E0220F331F2E53CE
:100DC0003F4FF9014591549190E0FA01099508953A
:100DD00085E08093370180E00E94D906089585E080
:100DE0008093370181E00E94D906089581E08093C5
:100DF000370180E00E94D906089581E08093370191
:100E00000E94D9060895089580913C010E943314F0
:100E100080913A010E94331480913A0180933C0101
:100E200027E247E167E189E60E947F14089586E0A2
:100E300080933A010E940407089585E080933A0167
:100E40000E9404070E94FD06089584E080933A0101
:100E50000E940407089581E080933A010E940407EC
:100E6000089582E080933A010E940407089583E088
:100E700080933A010E9404070895809169048111CA
:100E8000089581E0809369040E942C090E941B0C44
:100E90000E945E18089580913F0198E08927809311
:100EA0003F010E949D0A809141010E94FF038091B1
:100EB00009010E94FF030895861708F4682F862F02
:100EC0000895681708F4682F862F0895FB01982F5E
:100ED00092959F7090639A3308F0995F90838F701A
:100EE00080638A3308F0895F81831282CF0108957D
:100EF000282FFB0164E60E94671B482F80638083D4
:100F00008CE99FEF489F402D1124420F842F6AE007
:100F10000E94671B982F90639183282F30E0C901AE
:100F2000880F991F880F991F880F991F220F331F51
:100F3000820F931F481B406342831382CF010895A1
:100F4000EF92FF920F931F93FC017B0160E177E228
:100F50000E94731BD7016C9370E080EF98ED689F3F
:100F60009001699F300D789F300D11242E0F3F1F87
:100F7000C90168EE73E00E94731BF701618370E0A2
:100F800088E19CEF689FF001699FF00D789FF00D5C
:100F90001124E20FF31FCF0164E670E00E94731B7F
:100FA000D70112966C9370E08CE99FEF689F8001E7
:100FB000699F100D789F100D11240E0F1F1FC8017F
:100FC0006AE070E00E94731BF7016383862F90E054
:100FD0009C01220F331F220F331F220F331F880F54
:100FE000991F280F391F021B130B04831582C70199
:100FF0001F910F91FF90EF9008954F925F926F9223
:101000007F928F929F92AF92BF92CF92DF92EF9298
:10101000FF920F931F935B016C012A0120E03AECD1
:101020004AE95BE30E94871BF201208330E040E045
:1010300050E0CA01B90120E036E345E654EC0E94D5
:10104000481B7B018C01EA0CFB1C0C1D1D1DC801FB
:10105000B70120E031EE45EF55E00E94871BF20119
:10106000218330E040E050E0CA01B90120E03FE1D7
:101070004AE05AEF0E94481B5B016C01AE0CBF1C9A
:10108000C01ED11EC601B50120E836E948E950E08E
:101090000E94871BF201228330E040E050E0CA0149
:1010A000B90120E839E647E65FEF0E94481B7B0163
:1010B0008C01EA0CFB1C0C1D1D1DC801B70120E4AE
:1010C00032E44FE050E00E94871BF201238330E0BE
:1010D00040E050E0CA01B90120EC3DEB40EF5FEF8A
:1010E0000E94481B5B016C01AE0CBF1CC01ED11ED0
:1010F000C601B50120EA36E841E050E00E94871BB6
:10110000F201248330E040E050E0CA01B90120E65A
:1011100039E74EEF5FEF0E94481B7B018C01EA0C20
:10112000FB1C0C1D1D1DC801B70120E137E240E08A
:1011300050E00E94871BF201258330E040E050E040
:10114000CA01B90120EF38ED4FEF5FEF0E94481B55
:101150005B016C01AE0CBF1CC01ED11EC601B501E7
:1011600028EE33E040E050E00E94871BF201268326
:1011700030E040E050E0CA01B90128E13CEF4FEF18
:101180005FEF0E94481B3B014C016A0C7B1C8C1CCE
:101190009D1CC401B30124E630E040E050E00E9411
:1011A000871BF201278330E040E050E0CA01B9011B
:1011B0002CE93FEF4FEF5FEF0E94481B7B018C0152
:1011C000E60CF71C081D191DC801B7012AE030E024
:1011D00040E050E00E94871BF201208730E040E0B1
:1011E00050E0CA01B90126EF3FEF4FEF5FEF0E94D9
:1011F000481BE60EF71E081F191FF201E186128632
:101200001386C2011F910F91FF90EF90DF90CF9056
:10121000BF90AF909F908F907F906F905F904F9016
:101220000895DF93CF9300D0CDB7DEB79A8389833B
:1012300089819A81892B59F00E94CB1889819A81E2
:1012400001979A83898389819A81892BA9F70F90C5
:101250000F90CF91DF910895E2E4F1E0119284E0E4
:10126000E236F807D9F70895CF93DF93582F442338
:10127000B9F1E62FF0E0CF018F73907095958795C7
:10128000959587959595879524E630E0829FD001C6
:10129000839FB00D929FB00D1124A50FB11DAE5BC1
:1012A000BE4F6150460F6F5F403408F05AC0242F84
:1012B000269526952695669566956695261B99F43E
:1012C000E770F070E951FE4F8491E42FF0E0E77091
:1012D000F070E151FE4FE491E8238C918E2B8C93BA
:1012E000DF91CF910895213009F43DC0E770F0708F
:1012F000E951FE4F94918C91892B8C93ED01CC593F
:10130000DF4F223008F1FE01922F92505FEF84E60A
:10131000989F9001112428533F4F2A0F3B1F508361
:10132000EC59FF4FE217F307D1F7892F90E00196B0
:1013300024E630E0BC01629FC001639F900D729F64
:10134000900D1124C80FD91FE42FF0E0E770F07062
:10135000E151FE4FE49188818E2B8883DF91CF91FC
:1013600008954FE3A4CFE770F070E951FE4F9491D8
:101370008C91892B8C93AC59BF4FE42FF0E0E77030
:10138000F070E151FE4FE4918C918E2B8C93DF91A4
:10139000CF91089590910F01892F880F890F86951D
:1013A000805E1092830080938200089590910C01DA
:1013B000892F880F890F8695805E10928500809313
:1013C0008400089588B18C7F88B980910E018823AC
:1013D00011F0419A089588B1836088B90895FF9209
:1013E0000F931F93CF93DF93E0910D01F0E0EE0F89
:1013F000FF1FEE0FFF1FC6E8D1E0EC0FFD1F849129
:1014000001E811E0F801F49001501040F801049156
:10141000482F6F2D802F0E940612E0910D01F0E001
:10142000EE0FFF1FEE0FFF1F3196EC0FFD1FE49133
:101430004E2F6F2D802F8B5F0E940612E0910D01C1
:10144000F0E0EE0FFF1FEE0FFF1F3296EC0FFD1FB7
:10145000E4914E2F6F2D802F865F0E94061280919F
:101460000D0190E0880F991F880F991F0396C80FF0
:10147000D91FFE0144916F2D802F815F0E940612BB
:10148000DF91CF911F910F91FF900895FF920F93DD
:101490001F93CF93DF93E0910A01F0E0EE0FFF1F5F
:1014A000EE0FFF1FCCE0D1E0EC0FFD1F84910BE7A6
:1014B00011E0F801F49001501040F8010491482F18
:1014C0006F2D802F0E940612E0910A01F0E0EE0FCE
:1014D000FF1FEE0FFF1F3196EC0FFD1FE4914E2F03
:1014E0006F2D802F8B5F0E940612E0910A01F0E0C1
:1014F000EE0FFF1FEE0FFF1F3296EC0FFD1FE49162
:101500004E2F6F2D802F855F0E94061280910A0159
:1015100090E0880F991F880F991F0396C80FD91F55
:10152000FE0144916F2D802F805F0E940612DF9193
:10153000CF911F910F91FF90089580913F0183FDFE
:101540001BC04CE462E08AE60E9406124CE462E0B2
:101550008FE60E9406124CE462E084E70E940612C5
:101560004CE462E089E70E94061228E044E162E070
:101570008AE60E947F14089548E162E08AE60E94AC
:1015800006124FE162E08FE60E9406124CE162E033
:1015900084E70E94061244E162E089E70E94061295
:1015A00028E044E162E08AE60E947F140895809179
:1015B000400165E00E94671B44E16EE3865E0E9485
:1015C000F81080910B0165E00E94671B44E16EE317
:1015D000865E0E94D91080910B018093400108958E
:1015E0001F931EE380917604612F681B41E081E028
:1015F0000E94B51180910F01181B40E0612F81E01E
:101600000E94B51190910F0190937604892F880F55
:10161000890F8695805E10928300809382001F91CF
:1016200008951F931EE380917104612F681B41E0B0
:1016300080E00E94B51180910C01181B40E0612FE1
:1016400080E00E94B51190910C0190937104892F54
:10165000880F890F8695805E1092850080938400A4
:101660001F91089580910E01882359F446E152E0BC
:10167000E3E8F1E064913197E4918E2F0E94F91232
:1016800008954DE052E0F4CF8130E1F080910F01F8
:1016900090913701891790F0891B80930F01609119
:1016A0000F0185E090E00E9492040E94F00A2DE371
:1016B00042E060E087E60E947F14089581E0809315
:1016C0000F01EDCF8091370190910F01890F809329
:1016D0000F018F3320F38EE380930F01E0CF813031
:1016E000E1F080910C0190913701981790F4891BDB
:1016F00080930C0160910C0182E090E00E949204C2
:101700000E94110B2DE342E060E080E00E947F1414
:10171000089582E080930C01EDCF80913701909184
:101720000C01890F80930C018F3320F38EE380939B
:101730000C01E0CF60910E0181E0682760930E01FB
:1017400084E090E00E94920480913A010E94331458
:101750000E94320B80913A010E94331429E04BE041
:1017600064E389E60E947F140895982F813009F17F
:1017700080910D01815080930D01882319F483E03D
:1017800080930D0160910D0183E090E00E9492042E
:1017900080913A010E9433140E94EF0980913A012E
:1017A0000E94331429E047E16BE289E60E947F142E
:1017B000089580910D018F5F80930D01843010F3A7
:1017C00090930D01DFCF813059F180910A01815052
:1017D00080930A01882301F160910A0180E090E082
:1017E0000E94920480913A010E9433140E94460A9A
:1017F00080913A010E94331487B78F7D87BF809113
:101800003F0183FD02C010923F0129E047E167E1FB
:1018100089E60E947F14089581E080930A01DCCF5D
:1018200080910A018F5F80930A018B31A8F28AE1CF
:1018300080930A01D1CF9F92AF92BF92CF92DF9255
:10184000EF92FF920F931F93CF93DF9340E068EBEB
:1018500080E00E94950540E062E480E00E949505EA
:1018600041E068EB80E00E94950541E060E480E0A3
:101870000E94950599E7C92E94E0D92E82E4A82EFE
:1018800081E0B82E99247601E50110E06991F70115
:1018900081917F01682B40E081E00E9495051F5FE8
:1018A0001E33A1F70EE3E02EF12CEA0CFB1CE6013F
:1018B000EE9686010C591F4FF70161917F018991C6
:1018C000682B41E081E00E949505C017D107A1F780
:1018D00084E690E0A80EB91E9394192D186B40E091
:1018E000612F80E00E94950541E0612F80E00E9419
:1018F000950540E062E480E00E94950541E060E4E7
:1019000080E00E94950598E0991629F0E0E8F0E063
:10191000CE0EDF1EB8CFDF91CF911F910F91FF90B8
:10192000EF90DF90CF90BF90AF909F900895CF93AE
:10193000DF930E941811CFE7D1E0FE016491219757
:10194000FE01849144E052E00E94F9122197FE01C9
:1019500064912197FE0184914BEF51E00E94F912AE
:101960002996FE0164912197FE01849144E052E0A2
:101970000E94F91243E06DE38AE10E94491043E0BE
:101980006DE38DE40E944910E2E4F1E0119284E0FD
:10199000E236F807D9F720E03AE0F90180E88193D0
:1019A0009AE0EF3FF907D9F730936E0420936D0466
:1019B00010923B01109238011092390180E090E0C2
:1019C0000E949D0480930A0181E090E00E949D04A2
:1019D00080930B0182E090E00E949D0480930C01B3
:1019E00083E090E00E949D0480930D0184E090E0EC
:1019F0000E949D0480930E0185E090E00E949D046A
:101A000080930F0110923F0191E090933A019093DF
:101A10003C0190910C019093710480937604809125
:101A20000B01809340010E94EF090E94460A0E9428
:101A3000320B0E94110B0E94F00A0E94D70A80917B
:101A40003A010E943314DF91CF910895CF92DF9233
:101A5000FF920F931F93DF93CF930F92CDB7DEB713
:101A600080913F0183FD0FC08091000A8093000B9D
:101A7000A1E0BAE0FD01E050FF4F8D9180832BE0A3
:101A8000A030B207B9F780913F0180FD5DC0A09101
:101A90006D04B0916E04A050BF4FB0936E04A0933C
:101AA0006D04E2E4F1E0119284E0E236F807D9F740
:101AB00010E03EE3F32E20E0C22E2BE0D22E32C007
:101AC0000EE3112311F40093670460916704802FE3
:101AD0000E945C07898360916704802F0E946107E0
:101AE00000936704482F4F5F9981491B6F2D681B36
:101AF000812F0E94340980916D0490916E040196AB
:101B000090936E0480936D0480509C4020F0D0929E
:101B10006E04C0926D041F5F143669F0A0916D04CD
:101B2000B0916E040C91069506950F3348F602307D
:101B300040F602E0C6CF0F90CF91DF911F910F9139
:101B4000FF90DF90CF90089580913F01886080934F
:101B50003F0180913F018E7F80933F010E949D0A4B
:101B600096CF80913F0183FD91C080913F0181FD1F
:101B70008EC080913F01826080933F0180913F0140
:101B8000846080933F0180E88093620480E09AE063
:101B9000909366048093650480910A01E82FF0E039
:101BA000EE0FFF1FEA56FE4F8591949190936C04BF
:101BB00080936B0481E080936A0487B78F7D87BF31
:101BC00088B18C7F88B980910E01882309F4A6C062
:101BD000419A449A089580916A04815080936A04DE
:101BE00080916A04882309F051C024533E4FF901C3
:101BF000849180936A0440916504509166048091B9
:101C00000B012CE93FEF281B3109240F351F3093BE
:101C1000700420936F04FAE020303F0730F4205026
:101C20003F4F3093700420936F0480916F04909124
:101C300070042BE08030920739F030F080509140F2
:101C40009093700480936F04CA01845690409093DF
:101C50006E0480936D0480509A4030F444565F4F78
:101C600050936E0440936D0480916D0490916E04C6
:101C7000FBE080309F0730F08050914090936E04DD
:101C800080936D040E94260D0E941B0C0895809184
:101C90006B0490916C04892BC9F780916804E091E2
:101CA0006504F091660480838091650490916604D8
:101CB0000196909366048093650480509B4030F0B9
:101CC00080E09AE0909366048093650480910A0115
:101CD000282F30E0F901EE0FFF1FEA56FE4F8591E5
:101CE000949190936C0480936B0480910D018130EA
:101CF00009F471CF80913F0182FF15C08091620489
:101D000081508093620480916204882309F0BECFE1
:101D100080913F018B7F80933F015BCF88B18360CF
:101D200088B9449A089580913F0185FF55C08091FC
:101D3000620481508093620480916204882309F0D8
:101D4000A5CF2091630430916404C901805890406C
:101D50009093700480936F0480509A4030F4205820
:101D60003F4F3093700420936F04209163043091AF
:101D700064042058304080910B01280F311D3093AE
:101D80006E0420936D048AE02030380730F4205030
:101D90003F4F30936E0420936D0480916D049091B9
:101DA0006E04EBE080309E0730F0805091409093BD
:101DB0006E0480936D040E94260D0E941B0C1092ED
:101DC0003F0180910D01833009F060CF80913F0188
:101DD000816080933F010895449B58CF80916504B2
:101DE00090916604909364048093630480913F0112
:101DF000806280933F0180E880936204089580911F
:101E00003F0187FD76C080913F0186FF57C08091DA
:101E10003F0185FF54C080913F018F7D80933F013A
:101E20002091630430916404C901805890409093DC
:101E3000700480936F0480509A4030F420583F4FD4
:101E40003093700420936F042091630430916404F4
:101E50002058304080910B01280F311D30936E04C3
:101E600020936D044AE02030340730F420503F4F77
:101E700030936E0420936D0480916D0490916E04F4
:101E8000EBE080309E0730F08050914090936E04DC
:101E900080936D0480910D01833009F47FC00E940E
:101EA000260D0E941B0C86B7826086BF87B78260B2
:101EB00087BF80913F018F7B80933F01089580E031
:101EC0009AE09093700480936F0480910B0190E0EE
:101ED0008050964F90936E0480936D04FAE08030AA
:101EE0009F07E8F680509F4F90936E0480936D0497
:101EF000D6CF80913F0186FD86CF80913F0183FD43
:101F000082CF80913F018F7680933F0188B18C7F93
:101F100088B980910E01882309F446C0419A87B799
:101F20008D7F87BF86B7826086BFE0910A01E83166
:101F300009F449C0E93108F03BC0E73109F440C079
:101F400080E09AE0909366048093650410926204A6
:101F500080913F01846080933F018E2F90E0880F35
:101F6000991FFC01E956FE4FE491E7BD8A569E4F4A
:101F7000FC01849186BD86B7806286BF87B7806288
:101F800087BF80913F0186FFFCCF87B78F7D87BFDA
:101F900080913F01806480933F0135CF80913F0164
:101FA000816080933F017BCF88B1836088B9B7CFD0
:101FB000E93161F0EA3109F0C3CF0E94E018E8CFBF
:101FC0000E94EF19E5CF0E949219E2CF0E943119C9
:101FD000DFCF813009F447C080910B019091370128
:101FE0009817F0F5891B80930B0160910B0181E03C
:101FF00090E00E9492040E94D70A23E044E36DE33C
:1020000088E10E947F1480913F0183FF28C0809166
:102010000B0120916F0430917004280F311D309313
:102020006E0420936D048AE02030380730F420508D
:102030003F4F30936E0420936D0480916D04909116
:102040006E042BE08030920730F0805091409093E6
:102050006E0480936D040E94260D0E941B0C08954F
:1020600010920B01C2CF8091370190910B01890F23
:1020700080930B018C3908F4B8CF8CE980930B0165
:10208000B4CFE7E7F4E0119288E0E737F807D9F733
:102090000895CF93DF934423A1F1E62FF0E0DF0111
:1020A000A295B295B07FBA27A07FBA27A078B37067
:1020B000A80FB11DA958BB4F6150460F6F5F403448
:1020C00018F580917404853519F085E080934101FD
:1020D000242F269526952695669566956695261B4A
:1020E000C9F4E770F070E951FE4F8491E42FF0E0FD
:1020F000E770F070E151FE4FE491E8238C918E2B54
:102100008C93DF91CF9108954FE3809174048535CE
:10211000E1F6DECF2130B1F1E770F070E951FE4F0A
:1021200094918C91892B8C93ED01C058DF4F223014
:10213000E0F0FE0122505FEF30E0C9010296969573
:10214000982F8827979587958A0F9B1F5083E05873
:10215000FF4FE817F907D1F72F5F3F4F3695322F22
:10216000222737952795C20FD31FE42FF0E0E770A1
:10217000F070E151FE4FE49188818E2B8883DF91CE
:10218000CF910895E770F070E951FE4F94918C91D2
:10219000892B8C93A058BF4FE42FF0E0E770F070CC
:1021A000E151FE4FE4918C918E2B8C93DF91CF9176
:1021B00008954423E1F0E62FF0E0E295F295F07FF8
:1021C000FE27E07FFE27E078F370E80FF11DE95865
:1021D000FB4F677081E090E0282F01C0220F6A95C5
:1021E000EAF7622F8081862B81934150D9F70895B9
:1021F0004423E9F0E62FF0E0E295F295F07FFE2728
:10220000E07FFE27E078F370E80FF11DE958FB4FFF
:10221000677081E090E0282F01C0220F6A95EAF7ED
:10222000622F60958081862381934150D9F708956C
:10223000CF92DF92EF92FF920F931F93CF93DF9392
:10224000A9EFB4E049E755E029EF35E0C9EFD6E062
:1022500069E777E08C9184608C931296FA01808113
:10226000806180834E5F5F4FF9018081806480834D
:102270002E5F3F4F8881816088832296FB01808199
:10228000846080836E5F7F4FF5E0AF35BF0711F745
:10229000C3E8D4E093E0E92E95E0F92E8D010C5DC2
:1022A0001F4F63E076E043E856E023E037E0A3E821
:1022B000B7E083E0C82E88E0D82E888185658883C2
:1022C0002A96F7018081856580838AE090E0E80E98
:1022D000F91EF801808185658083065F1F4FFB0131
:1022E000808185658083665F7F4FFA018081856587
:1022F0008083465F5F4FF901808185658083265F1B
:102300003F4F8C9185658C931A96F601808185618B
:1023100080838AE090E0C80ED91E94E0CD3DD907B5
:1023200061F6E9E7F4E0808181608193CE17DF07F1
:10233000D1F7E9EFF7E080818061819388E0ED35A6
:10234000F807C9F74DE360E082E00E9449104DE3D1
:1023500060E086E60E944910DF91CF911F910F91B6
:10236000FF90EF90DF90CF900895CF93DF93982F59
:102370008823F9F420E030E0862F869586958695AF
:10238000C82FD0E0D695DC2FCC27D795C795C20FA4
:10239000D31FC958DB4F442379F0A0E0B0E020E020
:1023A00030E0462F4770C9F4A8832983DF91CF918D
:1023B000089527E630E0E0CF992329F527EF31E0B3
:1023C000F9018491A82FB0E02F5F3F4FF90184916C
:1023D000282F30E0462F477039F3CD01042E02C07C
:1023E000880F991F0A94E2F702C0220F331F4A9503
:1023F000E2F788832983FE01E058FF4F9083318301
:10240000DF91CF91089529EF31E0DACF0F931F9339
:10241000CF93DF93962F969596959695A92FB0E03A
:10242000B695BA2FAA27B795A795A80FB11DA95899
:10243000BB4F85E0489F800111240F5C1D4F6770E2
:1024400069F18FEF90E0982F062E01C0990F0A9442
:10245000EAF7792F7095ED01C058DF4F40E050E06A
:10246000F801E40FF51FE4912E2F30E0062E02C094
:10247000220F331F0A94E2F78C918723822B8D93CE
:1024800088818923832B89934F5F5F4F45305105A6
:1024900039F7DF91CF911F910F91089520E030E03F
:1024A000F801E20FF31FE4918C918078E82BED9313
:1024B0002F5F3F4F2530310599F7DF91CF911F9165
:1024C0000F9108958F929F92BF92CF92DF92EF92D9
:1024D000FF920F931F93CF93DF93962F9695969528
:1024E0009695A92FB0E0B695BA2FAA27B795A795CC
:1024F000A80FB11DA958BB4F242F30E0220F331F66
:1025000022953295307F3227207F32272E543C4F40
:1025100047E0D42ED62209F452C0E1EEFFEFE49159
:10252000E09374048FEF90E0C82E0D2C01C0CC0C0A
:102530000A94EAF7BC2CB0948D0100581F4F812CEF
:1025400091E0992E8A0E9B1EF90180E2E82EF12C73
:10255000E20EF31E31968491319790E04491742FEE
:1025600060E0862B972B0D2C02C0880F991F0A94D0
:10257000E2F72C912B21282B2D93E8012881292B80
:1025800029938E0150E0E40188818C210D2C02C03A
:10259000440F551F0A94E2F7852B89934E0132961A
:1025A000EE15FF05B9F6DF91CF911F910F91FF90C6
:1025B000EF90DF90CF90BF909F908F900895E1EEC5
:1025C000FFEFE491E0937404F90110E2E12EF12CA5
:1025D000E20EF31E3196849131978C938491A0582A
:1025E000BF4F8C93AF57B0403296EE15FF0591F771
:1025F000DACF0F931F93CF93DF938A01962F96958F
:1026000096959695A92FB0E0B695BA2FAA27B795BB
:10261000A795A80FB11DA958BB4F677069F18FEF3F
:1026200090E0982F062E01C0990F0A94EAF7792FAF
:102630007095ED01C058DF4F40E050E0F801E40F25
:10264000F51FE4912E2F30E0062E02C0220F331F1B
:102650000A94E2F78C918723822B8D9388818923BA
:10266000832B89934F5F5F4F4930510539F7DF91D5
:10267000CF911F910F91089520E030E0F801E20F13
:10268000F31FE4918C918078E82BED932F5F3F4FFF
:102690002930310599F7DF91CF911F910F9108955E
:1026A0008F929F92AF92BF92CF92DF92EF92FF9262
:1026B0000F931F93CF93DF93362FC42E962F9695AB
:1026C00096959695E92EFF24F694FE2CEE24F79429
:1026D000E794E80EF11C87E794E0E80EF91E97E016
:1026E000491709F4B9C084E1289FB0011124665E3E
:1026F000794FA7E0DA2ED32209F046C0CC2009F4A6
:1027000036C0D701FB012491822F8F7090E08A554B
:10271000994FFC01849122952F70E22FF0E0EA5549
:10272000F94FE491807FEF708E2B8C936F5F7F4F1A
:10273000FB012491822F8F7090E08A55994FFC0104
:10274000849122952F70E22FF0E0EA55F94FE49141
:10275000A058BF4F807FEF708E2B8C93AF57B04047
:102760006F5F7F4F8A2F8E198C1508F4CBCFDF91C6
:10277000CF911F910F91FF90EF90DF90CF90BF907E
:10278000AF909F908F900895CC2089F38FEF90E0C9
:10279000B82E0D2C01C0BB0C0A94EAF7AB2CA09408
:1027A000870100581F4F812CF1E09F2E8E0C9F1C3B
:1027B000D701FB012491822F8F7090E08A55994FA9
:1027C000FC01849122952F70E22FF0E0EA55F94F39
:1027D000E491807FEF708E2B482F50E06F5F7F4F2A
:1027E000FB018491282F2F7030E02A55394FF901D1
:1027F000249182958F70E82FF0E0EA55F94FE4912B
:10280000207FEF702E2BF22FE0E04E2B5F2B0D2C54
:1028100002C0440F551F0A94E2F78C918A21842B41
:102820008D93E8018881852B89938E01822F90E01A
:10283000E40128812B210D2C02C0880F991F0A94D6
:10284000E2F7292B29934E016F5F7F4F8A2F8E1954
:102850008C1508F4AECF8BCF8EE0289FB0011124E9
:102860006E587A4F46CF93E0899FA0011124CA0188
:1028700089509F4FFC013491CA0188509F4FFC0141
:10288000249147505F4FFA014491442321F1822F54
:10289000869586958695A82FB0E0B695BA2FAA277B
:1028A000B795A795A30FB11DA958BB4F27708FEF00
:1028B00091E002C0880F991F2A95E2F7382FFD0199
:1028C000E058FF4F242F8C9183278D938081892797
:1028D00081932150C1F70895982F9F7046EA56E0E2
:1028E0009A01290F311DF901249182958F70480FAB
:1028F000511DFA018491207F8F70822B08957F9261
:102900008F929F92AF92BF92CF92DF92EF92FF92FF
:102910000F931F93CF93DF93A82E762E7A94720E87
:10292000769476947694B62EB694B694B694AA9489
:10293000EA2CE40EA3947B14E8F1C62FD0E0C295F4
:10294000D295D07FDC27C07FDC27C078D370CA0D3A
:10295000D11DC958DB4F30E8832E912C841A910881
:1029600020ECC22E2FEFD22EEA14F0F098EBF92EC5
:10297000FB280A2D10E0003408F011E0412F6F2DE4
:1029800080E00E9495051C9D602D1124600F6064FD
:10299000412F80E00E949505412F699181E00E94BE
:1029A00095050F5FE01630F7B3947B1418F0C80D4F
:1029B000D91DDACFDF91CF911F910F91FF90EF904A
:1029C000DF90CF90BF90AF909F908F907F900895B1
:1029D000DF92EF92FF920F931F93CF93DF9340E02C
:1029E00060EC80E00E9495058823C9F341E060EC2B
:1029F00080E00E9495058823C9F340E068EB80E001
:102A00000E9495058823C9F340E060E480E00E94BD
:102A100095058823C9F341E068EB80E00E949505A5
:102A20008823C9F341E060E480E00E949505882393
:102A3000C9F367E7E62E64E0F62EDD24E70110E037
:102A400040E0688181E00E9495058823C9F32196C2
:102A50001F5F1034A9F7E701C05CDF4F8701005802
:102A60001F4F41E0688181E00E9495058823C9F3EA
:102A70002196C017D107A9F77E01D3941D2D186B9D
:102A800040E0612F80E00E9495058823C9F341E072
:102A9000612F80E00E9495058823C9F388E0D8164D
:102AA00069F6DF91CF911F910F91FF90EF90DF902A
:102AB00008951F93E7E7F4E0119288E0E737F807FD
:102AC000D9F71092410140E068E080E10E94621273
:102AD00041E068E080E20E94621242E068E080E348
:102AE0000E94621243E068E080E40E94621244E0C7
:102AF00068E080E50E94621245E068E080E60E949E
:102B0000621247E26CE183E10E94061247E26CE147
:102B100089E10E94061247E26CE18FE10E940612F1
:102B20004BE46CE185E20E9406124AE16CE18BE223
:102B30000E94061249E26CE181E30E94061245E11F
:102B40006CE187E30E94061244E26CE18DE30E948F
:102B5000061245E16CE183E40E94061243E16CE158
:102B600089E40E94061248E16CE18FE40E9406129B
:102B70004BE46CE185E50E94061243E16CE18BE5D4
:102B80000E9406124FE16CE181E60E9406124DE1BF
:102B90006CE187E60E94061280EF9FEFFC018491B2
:102BA00080937204E1EFFFEF949190937304823469
:102BB00019F49C3409F499C042E165E38AE00E946B
:102BC00006124CE165E380E10E9406124AE065E3EB
:102BD00086E10E94061248E265E38CE10E9406123B
:102BE00048E265E382E20E94061248E265E388E279
:102BF0000E94061248E265E38EE20E94061248E255
:102C000065E384E30E9406124BE465E38AE30E94D5
:102C1000061248E265E380E40E94061248E265E39A
:102C200086E40E94061248E265E38CE40E940612E4
:102C300046E16DE28AE00E94061247E26DE280E121
:102C40000E9406124AE06DE286E10E94061240E010
:102C50006DE28CE10E94061246E06DE282E20E9483
:102C6000061242E06DE288E20E94061240E06DE248
:102C70008EE20E94061241E06DE284E30E94061299
:102C80004BE46DE28AE30E94061240E06DE280E4CC
:102C90000E94061244E06DE286E40E94061240E0C3
:102CA0006DE28CE40E940612E0ECFFEFE491E09309
:102CB0007204E03F19F083E080934101E0EEFFEF02
:102CC000E491E09373040E94E8141EE180E69AEE1A
:102CD0000E9411091150D1F7E7E7F4E0119288E062
:102CE000E737F807D9F71F91089542E165E38AE0D5
:102CF0000E9406124CE165E380E10E9406124AE060
:102D000065E386E10E940612E3EFFFEFE491EF70C6
:102D10004E2F65E38CE10E940612E4EFFFEFE49191
:102D2000EF704E2F65E382E20E940612E5EFFFEF9F
:102D3000E491EF704E2F65E388E20E940612E6EF01
:102D4000FFEFE491EF704E2F65E38EE20E940612D2
:102D5000E7EFFFEFE491EF704E2F65E384E30E940D
:102D600006124BE465E38AE30E940612E9EFFFEFE7
:102D7000E491EF704E2F65E380E40E940612EAEFC3
:102D8000FFEFE491EF704E2F65E386E40E94061298
:102D9000EBEFFFEFE491EF704E2F65E38CE40E94C0
:102DA000061246CF209110014AE068E08AE00E94B6
:102DB0005013209111014AE068E085E10E94501310
:102DC0002091120147E068E081E20E9450132091B7
:102DD000130147E068E08CE20E9450132091140137
:102DE00047E068E085E30E9450132091150147E019
:102DF00068E08EE30E9450132091160147E068E0DE
:102E000089E40E9450132091170147E068E082E5B1
:102E10000E9450132091180147E068E08BE50E9462
:102E20005013209119014AE068E086E60E94501391
:102E300020911A014AE068E081E70E945013409116
:102E40001B016CE18AE00E94061240911C016CE1BA
:102E500082E10E94061240911D016CE18AE10E940C
:102E6000061240911E016CE180E20E940612409120
:102E70001F016CE188E20E940612409120016CE182
:102E80008EE20E940612409121016CE184E30E94CF
:102E90000612409122016CE18CE30E9406124091DF
:102EA00023016CE182E40E940612409124016CE14E
:102EB00088E40E940612409125016CE180E50E94A1
:102EC0000612409126016CE186E50E9406124091AF
:102ED00027016CE18CE50E940612409128016CE10B
:102EE00082E60E940612409129016CE188E60E9468
:102EF00006122CE14EE668E08AE00E947F140895F5
:102F00000F931F93CF93DF934FE152E060E080E790
:102F10000E94F91228E049E060E080E70E947F14F7
:102F200010927B0810927C0810927D0810927E0807
:102F30000E94D71A48E252E060E080E70E94F9124E
:102F400028E049E060E080E70E947F1460917B0800
:102F500070917C0880917D0890917E0845E858E04A
:102F60000E94FD07C8E8D8E0E2E1F1E090E02BE044
:102F700007C091E02196319688E0CF38D80769F0F4
:102F8000888180839923B1F7882399F7208321963C
:102F9000319688E0CF38D80799F740917F08509153
:102FA00080086091810870918208809177089091E3
:102FB0007808A0917908B0917A08481B590B6A0BE0
:102FC0007B0B4093930850939408609395087093FB
:102FD0009608411551056105710571F50E94D216DB
:102FE00080EC8093620084E690E00E941109809951
:102FF00012C080912C018F5F80932C0180912C0155
:10300000823079F080E69AEE0E941109DF91CF912B
:103010001F910F91089510922C0180912C01823004
:1030200089F7109269040E9450040E9441100E9486
:10303000970C0E94E814E6CF8A019B01000F111F34
:10304000221F331F000F111F221F331F040F151FD4
:10305000261F371F00939308109394082093950818
:1030600030939608AE014A505040B801C9010E9401
:10307000FD07FE013A97ADE1B1E090E02CE407C016
:1030800091E03196119688E0EC38F80769F080817C
:103090008C939923B1F7882399F72C933196119645
:1030A00088E0EC38F80799F78081809324018181CA
:1030B0008093260182818093270190CF0E94411046
:1030C0000E94D21643E764E385E00E94D91048E1EC
:1030D00067E385E00E9406124FE167E38BE00E9400
:1030E00006124CE167E381E10E94061244E167E3C6
:1030F00087E10E9406124BE267E380E20E9406121B
:103100004FE167E386E20E9406124BE167E38CE23F
:103110000E9406124DE267E382E30E9406124DE030
:1031200067E38BE30E9406124EE067E381E40E94AE
:10313000061243E267E38AE40E94061243E167E372
:1031400080E50E9406124FE167E386E50E940612C1
:1031500040E267E38CE50E94061245E167E382E600
:103160000E9406120E94E8141FBC86E08EBD8CE00F
:1031700085BD14BC8CE783BD10928B0081E08093E9
:103180008A0017BE10927D008FEF86BF8FE3809379
:103190007C00089508950000000000000000000079
:1031A000000000000000000000000000000000001F
:1031B0000000000000000000000000000000089572
:1031C000AF93BF938F939F93CF93DF93EF93FF932F
:1031D000C8B7C068D8B7DF77FFEFE2EC8491853AD3
:1031E00019F081E0809341019FE7A0E0BAE0C8BBFD
:1031F00089B38C93D8BB00000000A395C1F7449A13
:10320000C8BB89B38C93A395D8BB44990AC0C1F7B6
:1032100080910D018130B9F080913F0184FFF0CFA2
:1032200012C0EA2FC8BB89B38C93D8BBA39500000A
:103230009A95C1F7E0936304B093640480913F01D1
:10324000806280933F0180913F01806480933F01C1
:10325000FF91EF91DF91CF919F918F91BF91AF91AE
:103260000895AF93BF938F939F93EF93FF939FE73F
:10327000A0E0BAE0C79A000000000000000089B397
:103280008C93C798000000000000000000000000C0
:10329000A39581F7449AC79A00000000000000003F
:1032A00089B38C93A395C79800000000000000002C
:1032B00044990AC081F780910D018130F9F0809125
:1032C0003F0184FFE8CF1AC0EA2FC79A0000000030
:1032D0000000000089B38C93C79800000000000034
:1032E00000000000A3959A9581F7E0936304B093E2
:1032F000640480913F01806280933F0180913F018F
:10330000806480933F01E3EEFFEF9491933C19F0CA
:1033100092E090934101FF91EF919F918F91BF9126
:10332000AF910895AF93BF938F939F93EF93FF93C4
:103330009FE7A0E0BAE0C79A3AD089B38C93C798C8
:1033400036D00000A395B9F7449AC79A30D089B314
:103350008C93A395C7983CD044990AC0B1F780914B
:103360000D018130C1F080913F0184FFEECF13C089
:10337000EA2FC79A1CD089B38C93C79821D0A39504
:103380009A95B9F7E0936304B093640480913F0188
:10339000806280933F0180913F01806480933F0170
:1033A000FF91EF919F918F91BF91AF910895000090
:1033B0000000000000000000000000000000089570
:1033C0000000000000000000000000000000089560
:1033D0000000000000000000000000000895AF930E
:1033E000BF938F939F93EF93FF939FE7A0E0BAE083
:1033F000C798DDDFDCDFDBDF89B38C93C79AD7DFCB
:10340000D6DFD5DFA395A1F7449AC798D0DFCFDFE9
:10341000CEDF89B38C93A395C79AC9DFC8DFD8DF05
:1034200044990AC091F780910D018130E1F08091BB
:103430003F0184FFEACF17C0EA2FC798B8DFB7DF94
:10344000B6DF89B38C93C79AB2DFB1DFB9DFA3953A
:103450009A9599F7E0936304B093640480913F01D7
:10346000806280933F0180917304853F19F084E06E
:103470008093410180913F01806480933F01FF91DF
:10348000EF919F918F91BF91AF9108950F938F937B
:103490009F93AF93BF930FB780910A018F3090F441
:1034A00080916B0490916C04DC01AB2B29F00197A7
:1034B00080936B0490936C04C79A89B380936804DB
:1034C000C79813C080912A018A9569F480912B01D5
:1034D0008A9531F480913F01806880933F0182E0BA
:1034E00080932B018AEF80932A0180913401882BED
:1034F00019F081E080932D010FBFBF91AF919F9193
:103500008F910F9118950F93AF93BF938F939F93C4
:103510000FB7C7984CDF89B3A0916504B0916604DA
:103520008C93A395A0936504B0936604C79A809189
:1035300062048A958093620490913F0192FF06C0D5
:10354000A9F49B7F90933F01449A10C095FD0AC057
:10355000449913C059F480910D01813021F094FFFA
:1035600005C001C019F4906490933F010FBF9F9173
:103570008F91BF91AF910F911895A0936304B09371
:103580006404906290933F0180E880936204EECFE0
:103590000F930FB78F9380913F01806180933F011C
:1035A0008EE1809334018F910FBF0F9118958F9307
:1035B0009F9382E08093920881E78093910880E056
:1035C00084BD80E886BF88278DBD8CBD84E086BF22
:1035D00086B782FD1AC086B787FD1FC080917C0028
:1035E00085FD29C080917C0082FFF2CF84E080932A
:1035F0007C008091830883958093830849F78091AC
:103600008408839580938408E3CF84E086BF80910B
:103610007D08839580937D08DECF80E886BF80910A
:103620009108909192080197809391089093920845
:10363000892BA1F624C080E280937C0080917F08D2
:103640008093770880918008809378088091810822
:10365000809379088091820880937A088091800015
:1036600080937F08809181008093800880918308F7
:10367000809381088091840880938208B3CF8CB5B1
:1036800080937B088DB580937C089F918F910895DE
:10369000629FD001739FF001829FE00DF11D649F36
:1036A000E00DF11D929FF00D839FF00D749FF00DC2
:1036B000659FF00D9927729FB00DE11DF91F639F63
:1036C000B00DE11DF91FBD01CF0111240895991B13
:1036D00079E004C0991F961708F0961B881F7A9509
:1036E000C9F780950895AA1BBB1B51E107C0AA1F0B
:1036F000BB1FA617B70710F0A61BB70B881F991F93
:103700005A95A9F780959095BC01CD010895A1E245
:103710001A2EAA1BBB1BFD010DC0AA1FBB1FEE1F4B
:10372000FF1FA217B307E407F50720F0A21BB30B96
:10373000E40BF50B661F771F881F991F1A9469F712
:1037400060957095809590959B01AC01BD01CF016E
:063750000895F894FFCF7C
:10375600434F4D30204F4B00011E104E2D01001ED1
:103766000406000102030405060203240D000102FB
:0C37760003040506074B08094523FA046C
:00000001FF
