:03000000020925CD
:0C092500787FE4F6D8FD75810702000021
:02000000802E50
:03000B0002089256
:1000300075815F79027A017F0078007E007D00750E
:100040002008752106752208752300752400752582
:100050000275340075350075360175370075380046
:10006000753900754901754A00754B00754C00D211
:1000700095758901758C3C758AB0D2AFD2A97590FF
:10008000FFD28C881289138A148D15AD15AA14A974
:1000900013A812EE75F00A8490090893FBE5F0931B
:1000A000FC900908E893F8ED93FDE993F9EA93FAD7
:1000B0008D198A18891788168E468CA07580701243
:1000C00008EE8BA07580601208EE88A07580401243
:1000D00008EE8DA07580301208EE89A07580101290
:1000E00008EE8AA07580001208EE75805075A03F5A
:1000F0001208EE75802075A03F1208EE3091303066
:10010000903C30921B75B0FF31A531C131DD209597
:100110000231472096023176018B75B0960202B308
:100120001208FB3092F402008B75B0BE02058412F7
:1001300008FB3091F402008B75B0E60204981208B7
:10014000FB3090F402008BE546B40029E536B51289
:1001500024E537B5151FE538B5131AE539B514157B
:10016000E53604F54D752A14C297120912D297127A
:100170000912D52AF322E546B40029E549B512242F
:10018000E54AB5151FE54BB5131AE54CB51415E551
:02019000490420
:10019200F54E752B14C297120912D297120912D575
:1001A2002BF322E546B40016E54DB51211E537B53D
:1001B200150CE538B51307E539B51402D29722E5D7
:1001C20046B40016E54EB51211E54AB5150CE54BDD
:1001D200B51307E54CB51402D29722E546B4009355
:1001E200E512B4008EE515B40089E51475F00AA491
:1001F2002513B4010575B00041B2B4020575B00A09
:1002020041B2B4030575B01441B2B4040575B01E11
:1002120041B2B4050575B02841B2B4060575B032D5
:1002220041B2B4070575B03C41B2B4080575B04699
:10023200807EB4090575B0508076B40A0575B05A4F
:10024200806EB40B0575B0648066B40C0575B06E33
:10025200805EB40D0575B0788056B40E0575B08217
:10026200804EB40F0575B08C8046B4100575B096FB
:10027200803EB4110575B0A08036B4120575B0AADF
:10028200802EB4130575B0B48026B4140575B0BEC3
:10029200801EB4150575B0C88016B4160575B0D2A7
:1002A200800EB4170575B0DC8006B4180375B0E68D
:1002B20022900908E53493F545E53593F544E53692
:1002C20093F543E53793F542E53893F541E53993E4
:1002D200F5408545A07580701208EE8544A07580B2
:1002E200601208EE8543A07580401208EE8542A098
:1002F2007580301208EE8541A07580101208EE85D7
:0503020040A075800021
:100307001208EE75805075A03F1208EE75802075B3
:10031700A03F1208EE30921330912430905730935B
:100327001375B0FF808675B0AA80741208FB3092EF
:10033700F50202B31208FB1208FBB2950202B312D0
:1003470008FB1208FBAD37AA39A938A83608B80A3E
:100357001978000DBD06137D0009B90A0379000A53
:10036700BA0207B904047A007900883689388A39CD
:100377008D370202B31208FB1208FBAD37AA39A961
:1003870038A83609B90A0379000ABA0207B904047A
:100397007A007900883689388A398D370202B39016
:1003A7000908E53493F545E53593F544E54993F5B3
:1003B70043E54A93F542E54B93F541E54C93F54008
:1003C7008545A07580701208EE8544A0758060127F
:1003D70008EE8543A07580401208EE8542A075801F
:1003E700301208EE8541A07580101208EE8540A0F6
:1003F7007580001208EE75805075A03F1208EE75E3
:10040700802075A03F1208EE309213309123309070
:100417005630931375B0FF808675B0F0018B1208C4
:10042700FB3092F50203A61208FB1208FBB2966195
:10043700A61208FB1208FBAD4AAA4CA94BA849080B
:10044700B80A1978000DBD06137D0009B90A0379AA
:10045700000ABA0207B904047A0079008849894B6F
:0A0467008A4C8D4A0203A61208FB1E
:100471001208FBAD4AAA4CA94BA84909B90A03794C
:10048100000ABA0207B904047A0079008849894B45
:100491008A4C8D4A0203A6AD15AA14A913A812907D
:1004A1000908E893F8ED93FDE993F9EA93FA8CA032
:1004B1007580701208EE8BA07580601208EE88A01E
:1004C1007580401208EE8DA07580301208EE89A06B
:1004D1007580101208EE8AA07580001208EE7580F2
:1004E1005075A03F1208EE75802075A03F1208EEEE
:1004F1001208EE1208EE1208EE1208EE30901430D7
:10050100912130925430931375B0FF02049875B065
:10051100F0018B1208FB3090F5819875B0DE12085E
:10052100FB81981208FB1208FBAD15AA14A913A8A8
:100531001208B80A1978000DBD06137D0009B90A21
:100541000379000ABA0207B904047A007900881213
:1005510089138A148D150204981208FB1208FBAD49
:1005610015AA14A913A81209B90A0379000ABA0233
:1005710007B904047A007900881289138A148D1549
:10058100020498E52075F00A8490090893F526E5A0
:10059100F093F527E52175F00A8493F528E5F093AA
:1005A100F529E52293F530E52393F531E52493F51B
:0605B10032E52593F5334D
:1005B70030915530925B75B0FF8527A0758070121A
:1005C70008EE8526A07580601208EE8528A0758044
:1005D700401208EE8530A07580301208EE8532A0F3
:1005E7007580101208EE8533A07580001208EE752D
:1005F70080508529A01208EE7580208531A0120849
:10060700EEA18475B0C8800E1208FB3091F5020583
:10061700841208FB018BE52075F00A849009089382
:10062700F526E5F093F527E52175F00A8493F5287B
:10063700E5F093F529E52293F530E52393F531E5C8
:100647002493F532E52593F53330917D3090503082
:10065700926075B0FF8527A07580701208EE852619
:10066700A07580601208EE8528A07580401208EEFC
:100677008530A07580301208EE8532A07580101283
:1006870008EE8533A07580001208EE758050852925
:10069700A01208EE7580208531A01208EEC11D1248
:1006A70008FB1208FB0520E520B420037520000293
:1006B700061D1208FB1208FB1520E520B4FFF07594
:1006C700201F80EB75B0D2800C1208FB75B0E630A6
:1006D70091F202061DE52075F00A8490090893F54A
:1006E70026E5F093F527E52175F00A8493F528E5CB
:1006F700F093F529E52293F530E52393F531E524C9
:1007070093F532E52593F53330917D309050309253
:100717006075B0FF8527A07580701208EE8526A04A
:100727007580601208EE8528A07580401208EE8556
:1007370030A07580301208EE8532A075801012083F
:10074700EE8533A07580001208EE7580508529A0CC
:100757001208EE7580208531A01208EEC1DC120860
:10076700FB1208FB0521E521B40D037521010206E3
:10077700DC1208FB1208FB1521E521B400F07521F6
:100787000C80EB75B0DC80091208FB3091F502078D
:100797001BE52075F00A8490090893F526E5F09388
:1007A700F527E52175F00A8493F528E5F093F529F7
:1007B700E52293F530E52393F531E52493F532E50A
:1007C7002593F5338527A07580701208EE8526A03E
:1007D7007580601208EE8528A07580401208EE85A6
:1007E70030A07580301208EE8532A075801012088F
:1007F700EE8533A07580001208EE7580508529A01C
:100807001208EE7580208531A01208EE3091733002
:10081700900930923785FFB00207981208FB12083B
:10082700FB0522E522B40A217522000523E523B43E
:100837000A177523000524E524B40A0D752400055D
:1008470025E525B40A037525000207981208FB124F
:1008570008FB1522E522B4FFF07522001523E523D6
:10086700B4FFE67523001524E524B4FFDC752400E6
:100877001525E525B4FFD275250080CD75B0F002AA
:10088700008B1208FB3091F4020798AD15AA14A942
:0C08970013A8120FEFB414400EBE3C3A40
:1008A3007E0008B80A3478000DBD062E7D0009B914
:1008B3000A0379000ABA0222B9041F7A00790005F3
:1008C3002075B0DE11FBE520B4200F752001052152
:1008D300E521B40D0575210105227F00758C3C755A
:1008E3008AB0881289138A148D1532751004751114
:1008F30005D511FDD510F7227510BF7511FFD51160
:10090300FDD510F722C0F9A4B0999282F800907532
:100913005A32755B14755CF8D55CFDD55BF7D55A17
:02092300F122BF
:00000001FF
