:020000040800F2
:1000000030790120690200087702000879020008AF
:100010007B0200087D0200087F020008000000004B
:100020000000000000000000000000008102000845
:100030008302000800000000958800089559000818
:10004000890200088902000889020008AD2500081D
:100050008902000889020008890200088902000854
:100060008902000889020008890200088902000844
:100070008902000889020008890200088902000834
:100080008902000889020008890200088902000824
:100090008902000889020008890200088902000814
:1000A00089020008890200088902000897140008E4
:1000B0008902000889020008113900088902000835
:1000C00089020008890200088902000889020008E4
:1000D00089020008E93B000889020008890200083B
:1000E00089020008890200088902000889020008C4
:1000F00089020008890200088902000889020008B4
:1001000089020008890200088902000889020008A3
:100110008902000889020008890200088902000893
:100120008902000889020008890200088902000883
:100130008902000889020008890200088902000873
:100140008902000889020008890200088902000863
:100150008902000889020008890200088902000853
:100160008902000889020008890200088902000843
:100170008902000889020008890200088902000833
:10018000890200088902000800F002F800F05CF81B
:100190000AA090E8000C82448344AAF10107DA45E2
:1001A00001D100F051F8AFF2090EBAE80F0013F0D8
:1001B000010F18BFFB1A43F00103184768CE050072
:1001C00088CE05000A444FF0000C10F8013B13F0F4
:1001D000070408BF10F8014B1D1108BF10F8015BA0
:1001E000641E05D010F8016B641E01F8016BF9D193
:1001F00013F0080F1EBF10F8014BAD1C0C1B09D1EA
:100200006D1E58BF01F801CBFAD505E014F8016B5B
:1002100001F8016B6D1EF9D59142D6D370470000ED
:100220000023002400250026103A28BF78C1FBD8FF
:10023000520728BF30C148BF0B6070471FB51AF086
:10024000F8FC1FBD10B510BD0DF0E4F81146FFF726
:10025000F5FF00F06FFE0DF002F903B4FFF7F2FFB7
:1002600003BC0DF003F900000B48016841F4700174
:1002700001600A480047FEE7FEE7FEE7FEE7FEE70B
:10028000FEE7FEE7FEE7FEE7FEE70000044805495B
:10029000034A054B7047000088ED00E08901000823
:1002A0004069012030790120406901201EE101F000
:1002B000D3FE01F05BFEFE48407801282DD1FD48B9
:1002C000007B50B3FB48807C00F06000E8B1002068
:1002D000F84988830846807C40F008008874002034
:1002E00008730846C08940F00200C8810846C089EA
:1002F00020F00400C8810846C08920F00800C881A9
:100300000846407E40F020004876EA48807C40F075
:100310008000E849887400208883E548C07800F0B0
:10032000E00000286ED0E348807C00F0E000002868
:1003300068D1DF48C07800F08000E8B1DC4800797F
:10034000DD49097888420CD1D9484079DA494978A1
:10035000884206D1D748C07C40F08000D549C87497
:100360000AE0D448C07C20F04000D249C874084656
:10037000C07C20F08000C874CD48C07800F04000F8
:10038000E8B1CB488079CC49097888420CD1C8487B
:10039000C079C9494978884206D1C648007D40F0F5
:1003A0008000C44908750AE0C248007D20F0400082
:1003B000C04908750846007D20F080000875BC48DB
:1003C000C07800F0200088B1B948007ABA490978AD
:1003D00088420CD1B648407AB7494978884206D15C
:1003E000B448407D40F08000B24948750AE0B14809
:1003F000407D20F04000AF4948750846407D20F020
:1004000080004875AB484089B0F5167F49DDA848A3
:100410000078012819D1A748807C00F08000A0B99D
:10042000A448807C00F0200078B9A448007A6428B1
:1004300003DCA248007A322807DA9E48807C40F02C
:1004400040009C498874002088839948807801285E
:1004500024D19848807C00F08000F8B99548807CD1
:1004600000F04000D0B9954890ED030ADFED940A02
:10047000B4EEE00AF1EE10FA08DC90ED030ADFEDCD
:10048000910AB4EEE00AF1EE10FA07D28948807CB6
:1004900040F0200087498874002088830020854927
:1004A00048818448007C012816D18248C08920F008
:1004B00020008049C8810846407A20F080004872B8
:1004C0004FF4FA708049086000207A4908740846A1
:1004D000407E40F0800048767648407E00F0800004
:1004E00008B104F0CDFD0A2005F0B3FADFE68CE098
:1004F00070484078052801DD04F048FF6D48808889
:10050000C0F30B00B0F5967F01DD04F039FE6948B9
:10051000C088C0F30B00B0F5967F01DD04F0A2FEA9
:100520006448407A00F07F000A2813DD6148407A71
:1005300000F0800070B902F0EFFA044604EB84008A
:100540004000614908605B48407A00F080005949EA
:1005500048720BE05748407A00F07F000F2805DD15
:100560005448407A00F08000524948725148807CDB
:1005700000F0E00000283CD04E48808BB0F5967F1C
:1005800037DD4C48807EC0B900204A490873887422
:100590000846C08940F00200C8810846C08920F0A2
:1005A0000400C8810846C08920F00800C8810846B8
:1005B000407E40F0200048761BE03E48807C40F0C2
:1005C00008003C498874002008730846C08940F040
:1005D0000200C8810846C08920F00400C88108468E
:1005E000C08920F00800C8810846407E40F0200005
:1005F00048763048808B47F23051884202DD002037
:100600002C4988830A2005F024FA71E7E4E02948A0
:10061000007E00F0800030B32648007E40F00800E5
:100620002449087603F0BFFF40B1002021498876B5
:100630000846007E40F0400008760CE003F05FFDC5
:10064000C82005F006FA05F010F91A48007E40F0BF
:100650002000184908761748007E20F080001549D0
:10066000087603F0B0FB1948008800F4804058B1C8
:1006700004F02EFF30B17822114615A00EF068FB71
:100680000EF0C4FC03F09FFB0A48807D012836D1A0
:100690000A4B5A7C197C187AD3ED030AB0EE600A33
:1006A000002305F026F80D4803F028FF00B317E0FB
:1006B000041A0020D019002023000020F019002087
:1006C00000001642000010423C0400402C000020B4
:1006D00073657276657220657272000045000020B5
:1006E00078223C21AFF218000EF032FB0EF08EFCA7
:1006F0000020F8498875F849088003F064FBF54844
:10070000407C00F0800030B104F051FE08B103F0ED
:10071000F6FC03F058FBEF48807C00F0080000284E
:1007200057D0EC48807C00F0F00010283BD0202807
:1007300027D0402813D0802847D10020E54988746D
:10074000E64B5A7C197C187AD3ED030AB0EE600AA6
:10075000012304F0CEFFE24803F0D0FE36E0002093
:10076000DC498874DD4B5A7C197C187AD3ED030A76
:10077000B0EE600A022304F0BCFFD94803F0BEFECD
:1007800024E00020D3498874D44B5A7C197C187A11
:10079000D3ED030AB0EE600A032304F0AAFFD048A9
:1007A00003F0ACFE12E00020CA498874CB4B5A7C9F
:1007B000197C187AD3ED030AB0EE600A042304F022
:1007C00098FFC74803F09AFE00E000BF00BF03F0A7
:1007D000FAFA322005F03DF919E708B59CE0BD486A
:1007E000C08900F0200000286ED1BA48807C00F05B
:1007F000F00090B1B748C08900F0010068B900204E
:10080000B44948760846407E40F0C0004876002053
:100810008883684604F0C6F959E0AE48C07C00F011
:10082000800020B1AB48C07C00F0400098B1A948DE
:10083000007D00F0800020B1A648007D00F040005F
:1008400048B1A448407D00F08000A8B1A148407D97
:1008500000F0400080B99F48C08900F0010020BB33
:1008600000209C4948760846407E40F0C00048760B
:10087000684604F0D2F92AE09648C08900F00200E8
:1008800030B1002093490876684604F011F81EE064
:100890009048C08900F0040040B18E48C08900F043
:1008A000800018B1684604F038F810E08948C08923
:1008B00000F0080058B18748C08900F0800030B1CE
:1008C000684604F050F902E0684604F0FBF98148FC
:1008D000C08900F0080040B17E48C08900F0800067
:1008E00018B9684604F0B2FA11E07A48C08900F0FD
:1008F000040060B17748C08900F0800038B97548BD
:10090000007E00F0080010B1684604F023FB0EF0F2
:100910007DFB0A2005F09DF861E72DED068B90B078
:1009200089E0002617E0002506E06E48008806A949
:1009300021F81500681CC5B2142DF6DB142106A899
:1009400000F0DCFB01A921F816004FF47A7005F0E5
:1009500080F8701CC6B2062EE5DB062101A800F067
:10096000CDFB044600EE104AB8EE400A10EE100A25
:100970001AF0EEF841EC1A0B9FED5B0B53EC102BC9
:1009800019F026FE41EC190B19F020FB08EE100AB5
:100990009FED570A38EE400AB0EE408AB0EE000AEA
:1009A00028EE000AB0EE408A9FED520AB4EEC08AEB
:1009B000F1EE10FA10DD4748C07D20F040004549B7
:1009C000C8750846C07D20F02000C8750846C07D67
:1009D00040F08000C8752EE09FED460AB4EEC08A54
:1009E000F1EE10FA17D29FED440AB4EEC08AF1EE90
:1009F00010FA10DD3748C07D20F080003549C875F9
:100A00000846C07D20F02000C8750846C07D40F033
:100A10004000C8750FE02F48C07D20F080002D49B0
:100A2000C8750846C07D20F04000C8750846C07DE6
:100A300040F02000C87574E726E10FF0B7FC2F489E
:100A400090F88700C0F380102C4991F8871000EAD5
:100A5000D110002874D01F48807C002871D11D4817
:100A6000C07C00F080000028F8D102F058F9012184
:100A700001FA00F0214991F8871008431F4981F8D5
:100A80008700084690F8870000F00F00012806D084
:100A9000022857D0042879D0082876D1AFE00D4835
:100AA000C08900F0200058BB0A48C08900F002004D
:100AB00038B30848C08920F002000649C8810846BA
:100AC000C08940F00400C8810846C08940F0800019
:100AD000C8812CE0D01900202C000020F019002043
:100AE00045000020000000206666666666664A3F94
:100AF000CDCC4C3D9A997940CDCC6C40321A002037
:100B000015E0FFE7F748C08900F0080078B1F54824
:100B1000C08920F00800F349C8810846C08940F028
:100B20000200C8810846C08940F08000C881EE48B4
:100B300090F8870020F00100EB4981F8870080E001
:100B40009FE08FE0E748C08900F0200098B1E548B9
:100B5000407E40F08000E34948760846C08920F096
:100B60002000C8810846407A20F0800048724FF487
:100B7000FA70DE490860DC4890F8870020F0020037
:100B8000D94981F887005CE000E059E0D548C08988
:100B900000F0200050BBD348C08900F0020080B1B3
:100BA000D048C08920F00200CE49C8810846C089DB
:100BB00040F00800C8810846C08940F08000C88124
:100BC00014E0C848C08900F0040078B1C548C08965
:100BD00020F00400C349C8810846C08940F00200E3
:100BE000C8810846C08940F08000C881BE4890F89E
:100BF000870020F00400BC4981F8870021E0B94853
:100C0000C08900F0200090B9B648407E40F08000D6
:100C1000B44948760846C08940F02000C88108469B
:100C2000407A40F0800048720020B0490860AE4829
:100C300090F8870020F00800AB4981F8870000E0B9
:100C400000BF00BFA84890F8870020F08000A649A8
:100C500081F88700084690F8870020F0400081F86E
:100C600087000EE0A04890F8870020F080009E49A1
:100C700081F88700084690F8870020F0400081F84E
:100C80008700052004F0E5FED7E670B50446002590
:100C900000BF07F013FB07F0D5FD05460923944A72
:100CA0000021AFF2C94006F083FC0723914A0021DE
:100CB000AFF2A76006F07CFC04238F4A0021AFF25C
:100CC000872006F075FC08238C4A0021AFF2E17002
:100CD00006F06EFC0A238A4A0021AFF2C13006F00A
:100CE00067FC0523874A0021AFF63F2006F060FC31
:100CF000032006F0DDFE284607F0A8FD70BD10B504
:100D000001228149814801F0EFFD01227E49C91C81
:100D10007E48001D01F0E8FD01227B49891C7B48CB
:100D2000083001F0E1FD02227749C91C7748001D17
:100D300001F0DAFD02227449891C7448083001F080
:100D4000D3FD03227049C91C7048001D01F0CCFD81
:100D500003226D49891C6D48083001F0C5FD012250
:100D60006949491E6948103001F0BEFD01226649FB
:100D7000891E6648143001F0B7FD01226249491C02
:100D80006248183001F0B0FD002010BD08B50723FF
:100D9000022208214FF4A87005F06EF8A82004F094
:100DA00005FE00F0FDFB41F2883004F052FE584889
:100DB000006840F40050564908600846006840F05A
:100DC000020008604FF4FA7004F043FE50480068D7
:100DD00020F002004E49086001204249087004F0EA
:100DE00098FF4FF4E131542002F06EFE42F2CF0141
:100DF00040F2E73002F03AFE53214FF4FA7001F06E
:100E0000ABFD4FF4FA703949086044F29F114FF678
:100E1000FF7000F0F7FA01203E4B3F4A002100909E
:100E20003E4800F0A5F901F0F4FA3D48006840F4AE
:100E300080503B4908600EF079FA0FF099FB02F000
:100E4000D7FA01F0BEFE00200FF03CF90DF05AFD7C
:100E50001422002133480DF0B9FF0EF0D7F80DF041
:100E60009DFA02200DF04CFB00F080FC00F074FDB8
:100E700000F0BEF84FF47A7004F0EBFD00F034FFA0
:100E800030B17822114628A00DF062FF0EF0C8F8AC
:100E9000C82004F0DEFD0BF0CEFE032000F014FFAE
:100EA00001F024FE44F62061042000F063FB05F00D
:100EB0002BF804F030FF0B48C08940F002000949CC
:100EC000C88103F093FAFFF71AFF00231A461E2188
:100ED0000C2001F0FCF94FF4967002498880C8801C
:100EE000002008BDD0190020321A00203C04004028
:100EF000D012002028080020241500207817002098
:100F00007C0A0020CC190020061A002000FF0F08E0
:100F100014040240000000204C20014010640240F4
:100F200030380240346B05086D707536303530202E
:100F30006572720010B5FFF729FF07F082F80323EE
:100F4000284A0021AFF2BD2006F032FB07F09EF9DF
:100F5000002010BD10B501222349244801F073FC84
:100F600001222149C91C2148001D01F06CFC01220D
:100F70001D49891C1D48083001F065FC01221A49F1
:100F8000491D1A48001D01F05EFC01221649091D89
:100F90001648083001F057FC01221349C91D1348B7
:100FA000001D01F050FC01220F49891D0F48083037
:100FB00001F049FC01220C49491E0C48103001F097
:100FC00042FC01220849891E0848143001F03BFC0C
:100FD00001220549491C0548183001F034FC002065
:100FE00010BD0000D4050020061A002000FF0F08E5
:100FF0001CB55B48006840F4807059490860584847
:101000001438006840F00400554914390860012084
:1010100000210B460322CDE900100146514804F09F
:1010200007FE4F482038006840F480704C49203952
:1010300008600846006820F4807008604FF4403073
:10104000494908600020494948608860084640686E
:1010500048600846406848600846806840F48070F0
:1010600088600846806840F40070886008468068A0
:1010700040F0020088600846806820F400608860C4
:101080000846806888600846C06820F00700C8608D
:101090000846C06840F00700C8600846806840F015
:1010A000010088600846406B20F01F004863084636
:1010B000406B40F00A0048630846806840F080407A
:1010C00088601CBD01462948406B20F01F00274A5C
:1010D00050631046406B40F00A0050631046806831
:1010E00040F08040906000BF2048006800F002009F
:1010F0000028F9D01D48C06C80B2704770B5024618
:101100000C46002318E0002111E032F811604D1C5C
:1011100032F81550AE4208DD4D1C32F8150032F899
:10112000116022F8156022F811004D1CE9B2E51A91
:101130008D42EADC5D1CEBB2651E9D42E3DC0020C3
:10114000012305E032F813500544A8B25D1CEBB250
:10115000651E9D42F6DCA51E90FBF5F5A8B270BD9C
:1011600044380240000802400423014000200140AE
:101170002DE9F04104460D461646069F504884422C
:1011800009D901464F48006840F48000DFF834C1B7
:10119000CCF8000008E04C494A48006840F40010D0
:1011A000DFF820C1CCF8000000BF206800F001008B
:1011B0000028FAD1601A10384FF0180CB0FBFCF080
:1011C000C2B2062A10DBC868A2F1060C0CEB4C0C6C
:1011D0004FEA4C0C0CF1100C4FF03D0808FA0CF8DB
:1011E00040EA0800C8602FE0042A0EDBC868A2F1BC
:1011F000040C0CEB4C0C4FEA4C084FF03D0C0CFA75
:1012000008FC40EA0C00C8601EE0022A10DB886877
:10121000A2F1020C0CEB4C0C4FEA4C0C0CF1100C34
:101220004FF03D0808FA0CF840EA080088600BE02F
:10123000886802EB420C4FEA4C084FF03D0C0CFA68
:1012400008FC40EA0C008860A660E360676000204C
:10125000206020682060206840F480702060206852
:10126000206020682060206840F4006020602068D2
:1012700040F400502060206840F4803020602068F6
:10128000206020682060206840EA45602060206877
:1012900040F0010020600020BDE8F08102461068A7
:1012A00020F00100106000BF106800F0010000286D
:1012B000FAD15160106840F00100106000207047C2
:1012C0000064024030380240006002402DE9F041E5
:1012D000DDE90656089C012707EB410C07FA0CF7DD
:1012E000FF434FEA41084FF0010C0CFA08FC27EAD3
:1012F0000C07D0F800C007EA0C07076007684FEA40
:10130000410C02FA0CFC47EA0C070760012707EBC7
:10131000410C07FA0CF7FF434FEA41084FF0010C6C
:101320000CFA08FC27EA0C07D0F808C007EA0C07FB
:10133000876087684FEA410C03FA0CFC47EA0C0708
:101340008760012A24D145B1D0F804C001278F401D
:101350004CEA070CC0F804C007E0D0F804C001272D
:101360008F402CEA070CC0F804C044B1D0F814C078
:1013700001278F404CEA070CC0F814C01AE0D0F8DF
:1013800014C001278F402CEA070CC0F814C011E0EC
:1013900044B107694FF0010C0CFA01FC47EA0C0755
:1013A000076107E007694FF0010C0CFA01FC27EA1E
:1013B0000C070761012707EB410C07FA0CF7FF4305
:1013C0004FEA41084FF0010C0CFA08FC27EA0C0721
:1013D000D0F80CC007EA0C07C760C7684FEA410C99
:1013E00006FA0CFC47EA0C07C760BDE8F081044927
:1013F0000968012282401143014A116070470000D0
:10140000303802407CB504460D460020FFF7EFFF60
:101410000120032100230222CDE9001001024D48E2
:1014200004F006FC012208214A4804F0E1FB4A4886
:10143000006840F001004849086048480585C462DA
:10144000008B40F00100454908830846008B20F0DE
:101450000C0008830846008B08830846008C20F0A7
:10146000020008840846008C20F008000884084622
:10147000008C40F0010008840120888208468089A1
:1014800040F002008881002008820846008840F071
:10149000010008807CBD3149496B88B200212F4A88
:1014A00051622F49097801F00101A9B941F2F811FF
:1014B00088420EDD42F6E06188420ADA29492A4A6A
:1014C000127821F8120028490978491C264A11701F
:1014D00002E00021244A117023490978032908D128
:1014E0001F49097841F001011D4A117000211E4A6F
:1014F00011700021194A11827047002118480078A4
:1015000000F00100F0B1002205E0164830F81200AA
:101510000144501CC2B2032AF7DB0320B1FBF0F1F7
:101520001248B0FBF1F1124B19800D48007820F001
:1015300001000B4B18701846007840F0020018703C
:10154000C8B270470648007820F00200044B1870BB
:101550000020F6E70000024044380240000001404D
:1015600003000020261A002002000020C0270900E6
:101570000400002045F25552084B1A601A4650608C
:1015800091604AF6AA221A604CF6CC421A60704763
:101590004AF6AA2001490860704700000030004068
:1015A0000EB50120FFF723FF00200321CDE9000144
:1015B000022301220D2102900748FFF787FE002039
:1015C0000221CDE900010B4602460C21029002489F
:1015D000FFF77CFE0EBD00000004024010B5DA48A3
:1015E000406940F48050D8494861052004F007FA6A
:1015F000D548406940F40060D3494861052004F0B3
:10160000FEF9D148406920F48050CF494861052057
:1016100004F0F5F9CC48406920F40060CA494861FB
:10162000052004F0ECF910BD10B5C748406920F45E
:101630000060C5494861052004F0E1F9C2484069ED
:1016400020F48050C0494861052004F0D8F9BE4814
:10165000406940F40060BC494861052004F0CFF9BE
:10166000B948406940F48050B749486110BD10B591
:10167000B548406940F48050B3494861022004F005
:10168000BEF9B148406940F40060AF4948610520A7
:1016900004F0B5F9AC48006900F4805008B10124A9
:1016A00000E00024A848406920F40060A649486191
:1016B000032004F0A4F9204610BD10B5044634B947
:1016C000A148406920F480509F49486105E09E4848
:1016D000406940F480509C494861022004F08FF931
:1016E0009948406940F4006097494861062004F039
:1016F00086F99548406920F40060934948610320C9
:1017000004F07DF910BD2DE9F041044608250CE0F8
:1017100004F0800008B1012600E000263046FFF703
:10172000CCFF6006040E681EC5B2002DF0D1FFF795
:101730009EFF07463846BDE8F08170B5064608258D
:101740000DE0FFF794FF20B16006040E44F00104A1
:1017500003E06006040E04F0FE04681EC5B2002D0E
:10176000EFD13046FFF7A9FF204670BD0EB500202F
:10177000FFF73DFE012000900190034602460B2139
:1017800002907148FFF7A2FD0120009001900346EE
:1017900002460C2102906C48FFF798FD6A484069A8
:1017A00040F40060684948610846406940F4805050
:1017B00048610EBDFCB502462F2300BF00208DF806
:1017C00005008DF804008DF803008DF8020001205B
:1017D0008DF8010007208DF800002F23002505213A
:1017E000002409E0581EC3B2072C02DA601CC4B200
:1017F00002E00024481EC1B2505C802727413840D7
:1018000008B90029EEDCA3F10800C5B21EE00521ED
:1018100018E0481E1DF8000000F0800018B10029F3
:1018200001DD012600E000261DF801004006000E43
:101830000DF801001DF801003044C0B20DF80100A0
:10184000481EC1B2FF29E4DB681EC5B2002DDED1FF
:10185000002106E0505C1DF8017078405054481C8F
:10186000C1B20529F6DD082BA8DC1078FCBD2DE9F6
:10187000FC5F04460D464FF00009CA46CB4600BF48
:1018800000BFFFF7D1FEABF1010000F0FF0BBBF191
:10189000000F00D136E0FFF7A1FE2046FFF733FF2F
:1018A00000B1EEE72846FFF72EFF00B1E9E7FFF7AA
:1018B00095FE611CC8B2FFF726FF00B1E1E70020EA
:1018C000FFF73BFF81460020FFF737FF82460120EC
:1018D000FFF733FF8046FFF7A7FE8DF805408DF830
:1018E0000450601CC0B28DF803008DF802908DF892
:1018F00001A000208DF800006846FFF75BFF064658
:101900004645BDD100BF49EA0A273846BDE8FC9FDD
:1019100010B52DED028B27210020FFF7A8FF00EE68
:10192000100AF8EE400A9FED091A9FED090A10EE21
:10193000810ADFED080A80EE201AB0EE418AB0EE8F
:10194000480ABDEC028B10BD000002400AD7A33C40
:10195000339388430AD7633F0EB50120FFF747FD55
:1019600000200321CDE9000102230122114602904B
:101970000148FFF7ABFC0EBD000402400EB502208B
:10198000FFF735FD01200022CDE900201346024675
:10199000042102908D48FFF799FC01200022CDE937
:1019A000002013460246052102908848FFF78EFC6E
:1019B0000EBD0EB501200022CDE9002013460246DF
:1019C000042102908148FFF781FC012080490860D2
:1019D000022004F014F801207E49C1F89002022090
:1019E00004F00DF800207A49091F0860022004F075
:1019F00006F800207749C1F894020EBD0EB501200B
:101A00000022CDE9002013460246042102906F48CF
:101A1000FFF75CFC00206E49091F08606D49C1F8A2
:101A20009402022003F0EBFF01206949086003F0F3
:101A3000E6FF01206749C1F890020EBD3EB50024C3
:101A40000120002100910B460A46CDE90110042136
:101A50005E48FFF73BFC01205D49091F086002203A
:101A600003F0CDFF01205B49C1F89402022003F08E
:101A7000C6FF07E0601CC4B2FA2C03DDFFF7BEFF0F
:101A800001203EBD5248843800680028F2D15049F8
:101A9000086000BFF5E70EB500204D490860012041
:101AA0000022CDE900201346024604210290474857
:101AB000FFF70CFC00204749C1F89002022003F018
:101AC0009EFF012042490860022003F098FF002099
:101AD0004049C1F894020EBD0EB500203C49086093
:101AE00001200022CDE90020134602460421029085
:101AF0003648FFF7EBFB01203649C1F8900202207F
:101B000003F07DFF012032490860022003F077FFD7
:101B100000203049C1F894020EBD3EB504460120B4
:101B20000022CDE9002013460246042102902748F6
:101B3000FFF7CCFB002513E0002025490860E009F1
:101B40002449C1F890026006040E022003F057FFFA
:101B500001201F490860022003F051FF681CC5B234
:101B6000082DE9DB00201A4908603EBDFEB5054698
:101B70000120002100910B460A46CDE90110042105
:101B80001248FFF7A3FB002616E00020104908606A
:101B9000022003F034FF01200E49C1F894026006D0
:101BA000040E0B488438006808B1601CC4B20220DF
:101BB00003F025FF701CC6B2082EE6DB15B1FFF757
:101BC0006AFF01E0FFF788FF2046FEBD00080240E3
:101BD000940241420000414270B50446FFF7E9FE1D
:101BE000D020FFF79AFFFFF729FF2046FFF795FF68
:101BF000FFF724FFFFF7DDFED120FFF78EFFFFF791
:101C00001DFF0020FFF7B2FF0546FFF7F7FE28464D
:101C100070BD70B505460C46FFF7CBFED020FFF730
:101C20007CFFFFF70BFF18B1FFF7E8FE012070BD46
:101C30002846FFF772FFFFF701FF18B1FFF7DEFE3E
:101C40000220F4E72046FFF768FFFFF7F7FEFFF7F3
:101C5000D5FE0020EBE770B504460025BC2C01DB67
:101C6000012510E0622C01DB02250CE02A2C01DBAF
:101C7000032508E0142C01DB042504E00A2C01DB19
:101C8000052500E0062529461A20FFF7C2FF70BD92
:101C900070B50446B4F57A7F01DD4FF47A74042CF4
:101CA00000DA04244FF47A7090FBF4F0401E85B201
:101CB000E9B21920FFF7ADFF264604EBD671C1F358
:101CC0004700FFF7C8FF70BD10B50446E006010EDF
:101CD0001C20FFF79EFF10BD10B50446E006010E64
:101CE0001B20FFF796FF10BD10B50024FFF746FE3E
:101CF0004FF47A7003F0ADFE80216B20FFF789FF6F
:101D0000044680216B20FFF784FF04466B20FFF719
:101D100063FF044641F2883003F09BFE01216B20F3
:101D2000FFF777FF04466B20FFF756FF04464FF49A
:101D30007A7003F08EFE0320FFF7CEFF0320FFF73B
:101D4000C3FF3220FFF7A4FF00213820FFF761FF17
:101D500000216A20FFF75DFF00212320FFF759FFD4
:101D600080213720FFF755FF7520FFF735FF044628
:101D7000682C0CD101216B20FFF74BFF044600219A
:101D80006C20FFF746FF3220FFF782FF01E00120C1
:101D900010BD6B20FFF720FF04460020F8E72DE977
:101DA000F04105460E4617469846FFF702FE6906C3
:101DB000080EFFF7B2FEFFF741FE20B1FFF71EFE4F
:101DC0000120BDE8F0813046FFF7A7FEFFF736FEA1
:101DD00000240CE018F80400FFF79FFEFFF72EFE2A
:101DE00018B1FFF70BFEFF20EBE7601CC4B2BC424A
:101DF000F0DBFFF703FE0020E3E72DE9F0410546A5
:101E00000F4690461E46FFF7D4FD6906080EFFF701
:101E100084FEFFF713FE3846FFF77FFEFFF70EFE46
:101E2000FFF7C7FD012101EB4501C8B2FFF775FEC1
:101E3000FFF704FE002405E00120FFF797FE305570
:101E4000601CC4B2A8F10100A042F5DC0020FFF73D
:101E50008DFE3055FFF7D2FD0020BDE8F08110B5B2
:101E60002DED088B82B001AB022241216820FFF7E3
:101E7000C4FF9DF805009DF8041040EA012004B25B
:101E8000204618F03EFB41EC1B0B9FEDC80B53ECBA
:101E9000102B18F081F941EC1A0B9FEDC60B53EC97
:101EA000102B18F0C5F841EC190B18F08FF808EE5C
:101EB000100A9FEDC20A28EE000ABDEEC00A10EE1D
:101EC000100A00B202B0BDEC088B10BD2DE9FC4138
:101ED00004460D4616466B4606223B216820FFF756
:101EE0008CFF0746BFB99DF801009DF8001040EA3D
:101EF000012000B220809DF803009DF8021040EA06
:101F0000012000B228809DF805009DF8041040EAE9
:101F1000012000B230803846BDE8FC812DE9FC414B
:101F200004460D4616466B46062243216820FFF7FD
:101F300064FF0746BFB99DF801009DF8001040EA14
:101F4000012000B220809DF803009DF8021040EAB5
:101F5000012000B228809DF805009DF8041040EA99
:101F6000012000B230803846BDE8FC8110B50AF08F
:101F7000A0FE00286FD1924890ED000ABDEEC00A85
:101F800010EE104A8F48007800F0010020B914F1DB
:101F90000A0F60DD0A2C5EDA8A48007840F0010002
:101FA000884908700846007800F0020038BB86486F
:101FB0000068844211DA0020844908708248046075
:101FC00014F1460F47DA7F48007840F002007D495F
:101FD000087000207D4908703DE07B48006884421D
:101FE00039D17A480078401C784908700846007852
:101FF000322830D100200870724908702BE014F1AB
:10200000460F0DDC71480078401C70490870084686
:10201000007832281FDD002008706A4908701AE035
:1020200069480068844216DD6748046014F10A0FAD
:1020300011DD0120664908746248007840F0040010
:10204000604908700020614908705E48007820F0FF
:1020500003005C49087010BD00B52DED048B81B004
:102060005C4A5D495D48FFF731FF5C49098811FB17
:1020700001F1594A1288584B1B8812FB0311554A2B
:102080001288544B1B8812FB031018F03AFA41ECEB
:10209000190BB0EE490AF0EE690A17F035FAB0EE06
:1020A000408AF0EE608A51EC180B18F0CDF94C49DB
:1020B00008600846006843F69821884202DD012046
:1020C000484908704748007800286AD04648007898
:1020D000401CC0B244490870C82862D14348007807
:1020E000401CC0B241490870142836DA3A480088CA
:1020F00010FB00F037490988364A128811FB0200AC
:1021000000EE900AB8EEE00AB5EEC00AF1EE10FA61
:1021100004DBF1EEC00ACDED000A04E0DFED340A85
:10212000CDED000A00BFDDED000A2D4890ED000A5C
:10213000B8EEC01A80EE810ADFED2E0A20EE200AEA
:10214000BDEEC00A10EE100A2B49096808442A495E
:102150000860C7202449087023E02748006814213C
:1021600090FBF1F0244908600020204908701E49C6
:1021700008701C4908702048006841F2F811884234
:1021800009DD1348007B40F08000114908730020EE
:102190001949086005E00E48007B20F080000C49DA
:1021A000087301B0BDEC048B00BD0000000000000E
:1021B00000407540A4703D0AD74342400000C84229
:1021C0004C010020180000201C00002019000020F5
:1021D000D01900200C0000200A0000200800002078
:1021E00010000020220000202000002021000020FC
:1021F0000000000000409C4514000020FA49CA205D
:10220000FA4A106053201060F8481838006820F02F
:102210002000F64A183A106000E0491E31B1F34838
:102220001838006800F020000028F6D009B9012015
:102230007047FF20ED4A10600020F9E74FF480312D
:10224000EA481838006800F0400008B100207047E4
:10225000E6481838006840F08000E44A183A1060F8
:1022600000E0491E31B1E1481838006800F0400034
:102270000028F6D009B90120E9E70020E7E70022AD
:10228000DA4B2C3303EB80021160704701460022C9
:10229000D6482C3000EB81021068704701460022BE
:1022A00004E0501CC2B2A1F10A00C1B20A29F8DA56
:1022B000100741EA10607047014600BF081100EBAB
:1022C0008000420001F00F001044C0B270472DE9B9
:1022D000F04106460C4615460027CA20C34908604F
:1022E00053200860FFF7AAFF10B10120BDE8F0817C
:1022F0003046FFF7D3FF000403F0010140EA8158A4
:102300002046FFF7CBFF48EA00282846FFF7C6FF24
:1023100048EA0007B54824380760B4481838006810
:1023200020F08000B149183908600020DEE72DE96F
:10233000F04106460C4615460027CA20AB49086006
:1023400053200860FFF77AFF10B10120BDE8F0814B
:102350003046FFF7A3FF000403F0070140EA4138CD
:102360002046FFF79BFF48EA00282846FFF796FF24
:1023700048EA00079D48203807609C4818380068E4
:1023800020F080009949183908600020DEE7F0B598
:1023900004460D4616461F46002300BFFFF72EFFDA
:1023A0000028FBD1914824380368C3F30540FFF7A8
:1023B00083FF2070C3F30620FFF77EFF287003F031
:1023C0007F00FFF779FF3070C3F387503870F0BD9E
:1023D000F0B504460D4616461F46002300BFFFF722
:1023E0000DFF0028FBD1814820380368C3F3074064
:1023F000FFF762FF2070C3F30420FFF75DFF287032
:1024000003F03F00FFF758FF3070C3F342303870DD
:10241000F0BD10B541F6FF747548006840F080507B
:10242000734908607348006840F48070714908601F
:102430000020FFF72BFF45F2500188425AD06C482C
:102440003030006840F0010069493031086004E034
:10245000601E84B2052003F0FCFA34B164483030C9
:10246000006800F002000028F2D00CB9012010BD75
:102470005F483030006840F480705D49303108605A
:102480000846006840F400400860CA2057490860C8
:1024900053200860FFF7D2FE08B10220E7E7FF20D3
:1024A0005249143908600846006840F4FE0008608C
:1024B0004E481C38006820F040004C491C39086028
:1024C000081D006820F08000091D0860FF204749B2
:1024D0000860002338223B211720FFF7F8FE012374
:1024E000052211460E20FFF722FF45F25001002081
:1024F000FFF7C5FE0020BAE770B504460D46CA20B6
:102500003A4908605320086038481C38006820F4B5
:10251000806036491C39086000BF344818380068AC
:1025200000F004000028F8D030481C38006820F083
:1025300007002E491C3908600846006804F00701AE
:1025400008432A491C390860284810380560081DCE
:10255000006820F48060091D0860081F006840F4CE
:102560008040091F08600846006840F480600860E9
:10257000FF201E4908604FF480001F4908601E4874
:102580001438006840F480001B49143908601A4868
:102590000C38006840F4800017490C3908600223A9
:1025A00003221946184603F095FA70BD0F481838F3
:1025B000006800F4806078B10C481838006820F496
:1025C00080600A49183908600C48006808B9012081
:1025D00000E00020094908600748006840F48000D6
:1025E0000549086070470000FFFF0F0024280040E5
:1025F0004038024000700040143C0140A882424232
:10260000F0B503460C461546642093FBF0F0C6B2C5
:10261000642093FBF0F700FB1730C1B2132E02DDEC
:1026200001F16400C1B20846CF1701EB977701EBC7
:10263000A707BAB2072092FBF0F700FB172082B27F
:102640005719601EDFF834C01CF80000384482B20D
:10265000CF1701EB9777BF10A1EB87071FB9032CAA
:1026600001DA501E82B2072092FBF0F700FB172020
:1026700082B202B90722D0B2F0BD000046AC010818
:10268000A548A6490860A64808607047A3480C30D2
:10269000006840F00040A1490C31086070470021FB
:1026A0009E480830016801F4803008B1012070476D
:1026B00001F0100008B10220F9E701F0200008B194
:1026C0000220F4E701F0400008B10220EFE701F03A
:1026D000800008B10220EAE70020E8E770B5044670
:1026E00000BFFFF7DCFF0546012D00D005E00A2002
:1026F00003F085F9641E002CF3D100BF04B9FF2557
:10270000284670BD70B5054600248648FFF7E6FFF1
:10271000044674BB81480C30006820F440707F4947
:102720000C3108600846006840F4007008600846F4
:10273000006820F0F80008600846006840EAC5001C
:1027400008600846006840F002000860084600681B
:1027500040F4803008607348FFF7C0FF0446012C46
:1027600007D06E480C30006820F002006B490C3135
:102770000860204670BD70B505460E46FF20FFF785
:10278000ADFF044604BB65480C30006820F440707F
:1027900062490C3108600846006840F40070086027
:1027A0000846006840F0010008602E60FF20FFF737
:1027B00095FF0446012C07D058480C30006820F0E3
:1027C000010056490C310860204670BD014608687A
:1027D000704701465448814201D200207047534857
:1027E000814201D20120F9E75148814201D2022001
:1027F000F4E75048814201D20320EFE74E4881427E
:1028000001D20420EAE74D48814201D20520E5E7E4
:102810004B48814201D20620E0E74A48814201D27A
:102820000720DBE74848814201D20820D6E7474825
:10283000814201D20920D1E74548814201D20A20D4
:10284000CCE70B20CAE72DE9F04704460E461746B1
:102850004FF000080025A946B4F1006F02D304F040
:10286000030008B1BDE8F087FFF70AFF2B48001FFF
:10287000006820F480602949091F0860254604EBA0
:1028800087093448854214D210E02846FFF79EFF9E
:10289000401C50B12846FFF79CFF8246FFF732FFED
:1028A0008046B8F1000F01D002E02D1D4D45ECD35C
:1028B00000BFB8F1000F0BD107E020463168FFF7E9
:1028C0005AFF00B103E0241D361D4C45F5D300BF6F
:1028D0001248001F006840F480601049091F08601A
:1028E000FFF7D4FE00BFBDE730B503460C461546E2
:1028F000002206E01846FFF769FF44F822001B1D7E
:10290000521CAA42F6D330BD13B50446012201A9D8
:102910002046FFF798FF1CBD23016745043C024099
:10292000AB89EFCD400D0300004000080080000897
:1029300000C00008000001080000020800000408B0
:10294000000006080000080800000A0800000C0843
:1029500000000E080000FF1F7CB505460C467D48B0
:10296000006840F002007B4908607A48103800682F
:1029700040F002007749103908600120032100234C
:102980000222CDE900100146734803F051F90222FA
:102990000021714803F02CF970480560011F0C807C
:1029A0006E481038008840F060006C49103908808B
:1029B0000846008840F008000880081D008840F4A0
:1029C0008070091D08800846008820F40070088087
:1029D00062482C38008840F0800060492C3908801B
:1029E0000846008840F0010008807CBD5948001D61
:1029F000006840F480605749091D086055481C383C
:102A0000006840F4807053491C390860084600682B
:102A100020F4807008604FF4803051490860002035
:102A20005049C1F80402C1F808024F480068C1F8D3
:102A300004024D480068C1F804020846D0F80802B4
:102A400020F00200C1F808020846D0F8080220F47D
:102A50000060C1F808024448001D0068C1F808027F
:102A60000846D0F82C0220F47000C1F82C023E4831
:102A700028300068C1F82C020846D0F80C0220F07B
:102A80003800C1F80C020846D0F80C0240F03800BB
:102A9000C1F80C020846D0F8080240F001003249A3
:102AA000091D0860704701462F483030006820F04B
:102AB0001F002C4AC2F834021046D0F834020843F2
:102AC000C2F834021046D0F8080240F08040C2F844
:102AD000080200BF2448001F006800F00200002820
:102AE000F8D021484830006880B270471CB51948BA
:102AF0001038006840F004001649103908600120C1
:102B000000210B460322CDE900100221174803F0F3
:102B10008FF8FFF76BFF1CBD70B50024002508E09F
:102B20000B20FFF7C0FF0444052002F092FF681C51
:102B3000C5B20A2DF4DB0A20B4FBF0F4B4F57A6FC9
:102B400001D94FF47A642820B4FBF0F0C0F164009E
:102B5000C0B270BD40380240000402402C04004066
:102B600004230140002001400422014000080240EB
:102B70002DE9F04105460E4617464FF0000800F0DB
:102B8000D1FA702000F079FB00F04EFBE8B200F0C3
:102B900074FB00F049FB00240BE0305D00F06DFB9E
:102BA00000F042FB8046B8F1000F00D003E0601C4B
:102BB000C4B2BC42F1DB00BF00F0D4FA4046BDE82D
:102BC000F0811FB50120FEF712FC0220FEF70FFC7A
:102BD0000020FE4981F8860081F88700012000224C
:102BE000CDE90020022302460C210290F848FEF7AE
:102BF0006DFB01200022CDE90020022302460321C3
:102C00000290F448FEF762FB01200022CDE900208B
:102C1000022302460B210290ED48FEF757FB0120EC
:102C20000022CDE90020022304210290E948FEF7AA
:102C30004DFB0020E8490860142002F00AFF012043
:102C4000E649C1F8AC023C2002F003FF00200390EB
:102C5000012203A9FFF78CFF16200390012203A98C
:102C60008020FFF785FF0C200390012203A9882014
:102C7000FFF77EFF1FBD2DE9F04107460C461546C4
:102C800000F050FA702000F0F8FA00F0CDFAF8B237
:102C900000F0F3FA00F0C8FA00F044FA712000F0F6
:102CA000ECFA00F0C1FA00260CE0691EB14201D036
:102CB000012100E00021084600F00BFB04F8010BA5
:102CC000701CC6B2AE42F0DB00F04CFA0020BDE84A
:102CD000F08130B505460C46012C01D1012030BDF4
:102CE000022C0BD1601E35F81010A01E35F8100014
:102CF000814201DB0120F2E70020F0E7611E284657
:102D0000FFF7E7FF48B1601E35F81010A01E35F838
:102D10001000814201DB0120E1E70020DFE710B570
:102D20002DED048B1D21A9480A30FFF7D2FF0028A2
:102D300070D01D21A5484630FFF7CBFF90B3A348C4
:102D4000B0F85010B0F88000081A00EE100AF8EE43
:102D5000C00A9E48818AB0F84400081A00EE100AA2
:102D6000B8EEC00A80EE808A9FED9D0AB4EEC08A5C
:102D7000F1EE10FA03DB0320BDEC048B10BD9FEDD8
:102D8000990AB4EEC08AF1EE10FA01DB012000E0EE
:102D900000209FED950AB4EEC08AF1EE10FA02D839
:102DA000012101E016E00021084008B10220E3E71C
:102DB0009FED8E0AB4EEC08AF1EE10FA01D803201E
:102DC000DAE7B4EE488AF1EE10FA01D00220D3E738
:102DD0000520D1E77D48B0F85010B0F88000081AFF
:102DE00000EE100AB8EEC00AF1EE400A7748818A78
:102DF000B0F84400081A00EE100AB8EEC00A80EEDF
:102E0000808A9FED770AB4EEC08AF1EE10FA02DBF9
:102E10000120B1E72FE09FED730AB4EEC08AF1EE16
:102E200010FA01DB012000E000209FED6F0AB4EEF4
:102E3000C08AF1EE10FA01D8012100E0002108401B
:102E400008B1022098E718EE100A17F081FE41EC55
:102E5000190B9FED670B53EC102B17F07DFB01D87E
:102E6000012089E7B4EE488AF1EE10FA01D0012082
:102E700082E7042080E71D2154484630FFF729FFF0
:102E800078B35248B0F85010B0F88000081A00EE3D
:102E9000100AF8EEC00A4D48818AB0F84400081ABA
:102EA00000EE100AB8EEC00AB1EE400A80EE808A49
:102EB0009FED4B0AB4EEC08AF1EE10FA01DB03205D
:102EC0005AE79FED480AB4EEC08AF1EE10FA09DB2A
:102ED0009FED450AB4EEC08AF1EE10FA02D8002048
:102EE0004AE711E09FED410AB4EEC08AF1EE10FA14
:102EF00001D8032040E7B4EE488AF1EE10FA01D081
:102F0000002039E7052037E73048B0F85010B0F816
:102F10008000081A00EE100AF8EEC00A2B48818AD9
:102F2000B0F84400081A00EE100AB8EEC00A80EEAD
:102F3000808A9FED2B0AB4EEC08AF1EE10FA01DB15
:102F4000012019E79FED270AB4EEC08AF1EE10FACE
:102F500008DB9FED250AB4EEC08AF1EE10FA01D825
:102F6000002009E718EE100A17F0F2FD41EC190BEA
:102F70009FED1F0B53EC102B17F0EEFA01D8012038
:102F8000FAE6B4EE488AF1EE10FA01D00020F3E63A
:102F90000520F1E61CB5002001900090012201A956
:102FA0000220FFF768FE9DF8040000F00F000028E3
:102FB0007ED09DF8040000F00F01FF208840C04340
:102FC000024908700846007816E00000321A002016
:102FD0000008024000040240AC02414200004142AD
:102FE000CDCC8C3FCDCCCCBD9A99193FCDCC4CBE2D
:102FF0009A9999999999C9BF00F0010000284CD07D
:103000004649088804226946FFF735FE9DF800000E
:1030100000F0C000802808D04FF6FF704049C880FB
:103020004880002081F886001CBD3D4840883C490E
:10303000A1F882000846C088A1F884009DF801002C
:103040009DF8001001F00F0140EA0120344948804A
:103050009DF803009DF8021001F00F0140EA0120E5
:103060002F49C880084690F8870000F08000A0B97A
:103070000846418890F886200A3020F812100A3855
:10308000C18890F88620463020F81210463890F813
:103090008600401C224981F886002148007840F0D3
:1030A00080001F490870084690F886001E2800E03E
:1030B0000BE031D1084690F8870040F0800081F89D
:1030C0008700002081F8860026E01548007800F08F
:1030D0008000B8B11248007820F0800010490870D4
:1030E000084690F8870000F0800030B1084690F85C
:1030F000870040F0400081F887000020084981F8EF
:10310000860009E04FF6FF700549C88048800846F0
:10311000007800F0E000087000BF85E752AC0108BD
:10312000321A00200EB50120002100910223024630
:10313000CDE901100C217F48FEF7C8F801207E4937
:1031400008607E49C1F88C020A2002F058FC002079
:10315000794908600A2002F052FC00207749C1F842
:103160008C020EBD0EB50120002100910223024603
:10317000CDE901100C216F48FEF7A8F80020704936
:1031800008607049C1F8B0020A2002F038FC012042
:103190006B4908600A2002F032FC01206949C1F83D
:1031A000B0020EBD0EB50020654908600120002167
:1031B000009102230246CDE901100C215D48FEF783
:1031C00085F800205F49C1F8B0020A2002F017FC20
:1031D00001205B4908600A2002F011FC00205749D9
:1031E000C1F88C020EBD0EB50020554908600120C3
:1031F0000021009102230246CDE901100C214D4827
:10320000FEF764F801204F49C1F8B0020A2002F02D
:10321000F6FB01204A4908600A2002F0F0FB00207A
:103220004649C1F88C020EBD3EB5002401200022A3
:10323000CDE9002002230C2102903E48FEF746F81B
:1032400001203D49086002F0DAFB01203B49C1F84A
:103250008C0202F0D4FB07E0601CC4B2FA2C03DD40
:10326000FFF780FF01203EBD33488038006800280A
:10327000F2D13349086000BFF5E73EB504460120AE
:103280000021009102230246CDE901100C212948BA
:10329000FEF71CF800202A490860032002F0AFFB6B
:1032A000002513E0E009244908606006040E0120AF
:1032B0002249C1F88C02022002F0A1FB0020204923
:1032C0000860022002F09BFB681CC5B2082DE9DBF8
:1032D0003EBDFEB50546002401200022CDE90020B8
:1032E00002230C2102901348FDF7F0FF022002F0A8
:1032F00086FB082613E00020114908601E2002F01A
:103300007EFB01200D49C1F88C026006040E0A48BC
:103310008038006808B1601CC4B2701EC6B2002EAE
:10332000E9DC15B9FFF75FFF01E0FFF73BFF20463F
:10333000FEBD000000080240B00241420080404251
:103340008C824042000041420021F74A1160012175
:10335000F64AC2F88C120021F34A121D1160F44A99
:10336000C2F89C12F34948610121EF4A121F116013
:10337000EF4AC2F8A41270470121EB4A1160EB4AF0
:10338000C2F88C120021E84A121D1160E84AC2F806
:103390009C12E84948610121E34A121F1160E44A86
:1033A000C2F8A412704710B503460C462A20FFF756
:1033B000CBFF1812FFF7E0FFD8B2FFF7DDFF0020C8
:1033C000FFF7DAFFF020FFF7D7FF2B20FFF7BCFF56
:1033D0002012FFF7D1FFE0B2FFF7CEFF0020FFF78A
:1033E000CBFFF020FFF7C8FF2C20FFF7ADFF10BD8B
:1033F0000EB50220FDF7FBFF0020FDF7F8FF0120CE
:10340000FDF7F5FF0120032100220223CDE9002171
:1034100002900246C848FDF759FF0120032100220F
:103420000223CDE90021029002461946C248FDF769
:103430004DFF0120032100220223CDE9002102904B
:1034400002460721BD48FDF741FF0120032100226C
:103450000223CDE90021029002460821B748FDF77A
:1034600035FF0120032100220223CDE90021029033
:1034700002460921B148FDF729FFAF481A300088FC
:1034800020F00400AC491A310880642002F0E1FA0F
:10349000A9481830008840F00400A7491831088076
:1034A000A44800686FF30F00A2490860084600684E
:1034B00045F2555108439F4908600846406800F4AA
:1034C0007F4048600846406900F47F404861112011
:1034D000FFF73AFF782002F0BCFA3620FFF734FFFE
:1034E0000020FFF749FF3620FFF72EFF0020FFF7EF
:1034F00043FF3A20FFF728FF0520FFF73DFF2A2072
:10350000FFF722FF0020FFF737FF0020FFF734FF0F
:103510000020FFF731FFEF20FFF72EFF2B20FFF7F2
:1035200013FF0020FFF728FF0020FFF725FF0020F2
:10353000FFF722FFEF20FFF71FFFB220FFF704FF86
:103540000C20FFF719FF0C20FFF716FF0020FFF7F4
:1035500013FF3320FFF710FF3320FFF70DFFB720D5
:10356000FFF7F2FE3520FFF707FFBB20FFF7ECFE69
:103570002C20FFF701FFC020FFF7E6FE2C20FFF70D
:10358000FBFEC220FFF7E0FE0120FFF7F5FEC3209F
:10359000FFF7DAFE0B20FFF7EFFEC420FFF7D4FEA3
:1035A0002020FFF7E9FEC620FFF7CEFE0F20FFF731
:1035B000E3FED020FFF7C8FEA420FFF7DDFEA12028
:1035C000FFF7DAFEE020FFF7BFFED020FFF7D4FEC2
:1035D0000620FFF7D1FE0120FFF7CEFE0E20FFF7F9
:1035E000CBFE0E20FFF7C8FE0820FFF7C5FE3220F5
:1035F000FFF7C2FE4420FFF7BFFE4020FFF7BCFEEE
:103600000820FFF7B9FE1020FFF7B6FE0F20FFF7E6
:10361000B3FE1520FFF7B0FE1920FFF7ADFEE12045
:10362000FFF792FED020FFF7A7FE0620FFF7A4FECB
:103630000120FFF7A1FE0F20FFF79EFE0E20FFF7EF
:103640009BFE0920FFF798FE2F20FFF795FE5420E0
:10365000FFF792FE4420FFF78FFE0F20FFF78CFE4E
:103660001D20FFF789FE1A20FFF786FE1620FFF7C0
:1036700083FE1920FFF780FE2120FFF765FE292039
:10368000FFF762FE00210846FFF78DFE0EBD10B564
:10369000284800686FF30F00264908600846C06894
:1036A0006FF30F00C8600846C06845F255510843E3
:1036B0002049C8600846406900F47F404861012005
:1036C000194908601A49C1F89C0200201649091DD1
:1036D00008601649C1F88C02012002F090F91548E3
:1036E0000069C4B201201649086002F088F901207F
:1036F0000F49C1F8A4020F4800686FF30F000D498D
:1037000008600846006845F25551084309490860B9
:103710000846406800F47F4048600846406940F031
:10372000FF004861204610BDA08240420000414297
:1037300000804042000002400008024000040240B5
:103740008C02414201226E4B1A606E4BC3F88C22F0
:1037500000226B4B1B1D1A606B4BC3F89C226B4AFB
:1037600050610122664B1B1F1A60654B1B1D1A60BE
:103770001B1F1A6000221B1D1A60634BC3F89C229A
:10378000624A516101225E4B1B1F1A605C4B1B1D7C
:103790001A60704730B503460C4615462A20FFF7DD
:1037A000D3FD1812FFF7E8FDD8B2FFF7E5FD2B2097
:1037B000FFF7CAFD2012FFF7DFFDE0B2FFF7DCFDE7
:1037C0002C20FFF7C1FD01204D4908604D49C1F88B
:1037D0008C0200204A49091D08604949091F0860F8
:1037E00028124A49486101204549091F0860444997
:1037F000091D0860091F08600020091D0860404974
:10380000091F0860E8B24149486101203C49091F8D
:1038100008603B49091D086030BD2DE9F0410446B0
:103820000D4629462046FFF7BEFD3E20FFF78CFDE2
:10383000FFF72DFFFFF72BFF0646FFF728FF074690
:10384000FFF725FF8046F010C002B91040EA411092
:1038500040EAE800BDE8F08110B504462046FFF7D5
:1038600073FDFFF714FFFFF712FF10BD2DE9F047BE
:1038700005460E4617469846DDF8209034463BE054
:1038800021462846FFF78FFD2C20FFF75DFDAA4655
:103890002EE001201A4908601A49C1F88C02002064
:1038A0001749091D08601649091F08604FEA2920B9
:1038B0001649486101201249091F08601049091D75
:1038C0000860091F08600020091D08600C49091FD5
:1038D000086009F0FF000D49486101200849091FEF
:1038E00008600749091D08600AF101001FFA80FA03
:1038F000BA45CEDD601C84B24445C1DDBDE8F08729
:10390000A08240420000414200804042000002404C
:1039100010B56448008800F00100002856D0FDF77B
:1039200037FE61484078401C5F49487008468088EF
:10393000401C88800846C088401CC8800846007A21
:10394000401C08720846407A401C4872084640896C
:10395000401C48810846808B401C8883534800687F
:1039600000F480505149086088B34F488078401C6B
:103970004D498870084680783C2870DD0846407EB6
:1039800040F08000487604F072FB6FF07F400CF04E
:1039900099FB0AF0B7FF46480CF0BCFB00200CF086
:1039A0009CFB78223C2143A00BF0D2F90BF02EFBBC
:1039B0004FF4FA7002F04DF8FDF7CCFA3B48001DC9
:1039C000006820F400503949091D086047E0FFE70E
:1039D000354880781E280DDD3348407E40F0800059
:1039E000314948760846807C40F0100088740020F9
:1039F000887034E02C48807802282DDD2A48407EEB
:103A000040F08000284948760846C08900F0200030
:103A100070B90846407A40F080004872002028497A
:103A200008602148C08940F020001F49C8810FE08C
:103A30001D48407A20F080001B4948724FF4FA700C
:103A40001F4908601848C08920F020001649C88125
:103A500000201549887002E0002013498870114841
:103A6000008820F001000F49088010BD154A126837
:103A700042F00402134B1A600A4A1C321060121FF3
:103A80001180084A121F128842F00102054B1B1FC9
:103A90001A80044A103A128842F00102014B103B8E
:103AA0001A80704710080040D0190020100402400E
:103AB00090B605087475726E206F66662E2E000033
:103AC0003C04004040380240F0B52DED028B83B03D
:103AD00005460E467F4905FB01F000EE100AF8EEA0
:103AE000400A300100EE100AB8EE400A80EE801A5B
:103AF000B0EE418ABCEEC80A10EE100A84B200EEA5
:103B0000104AB8EE400A38EE400AF3EE000A20EE02
:103B1000200ABCEEC00A10EE107A4FF6FF7000EAE1
:103B20000414E01984B26C48006840F001006A494E
:103B3000086069481430006840F01000664914318C
:103B400008600120022100230A46CDE900104FF44D
:103B5000C061624802F06CF8072209215F4802F058
:103B600047F807220A215D4802F042F85A480C380B
:103B7000006840F0100058490C3908600846006899
:103B800020F01000086056480481808920F400402D
:103B9000534988810846808940F00800888108469A
:103BA000808940F0040088810846808940F0200028
:103BB0008881022325220321084601F08BFF484813
:103BC000808940F400504649888103B0BDEC028BE7
:103BD000F0BD00BF4249098801F040010029F9D039
:103BE0003F4988807047704710B504F040FA3C4860
:103BF000008800F02000002868D039488088C4B2CE
:103C00003848007888BB38480088401C364908800E
:103C10006F2C01D04F2C0AD13348008840F48050DB
:103C200031490880084600883049088048E06B2CFC
:103C300001D04B2C44D12C4801882C480088401CD2
:103C400081420ED12848008840F40040264908806F
:103C50000846008800F400400880002023490880BE
:103C60002EE00020204908802AE0FFE72048008855
:103C700000F40040C0B11F481F49097844541E4851
:103C80000078401C1C4908700D2C01D07D2C17D1E8
:103C90000020174908800846008840F480400880CA
:103CA0000020154908700BE03D2C01D07B2C07D17A
:103CB00000200F4908800846008840F40040088032
:103CC0000748008820F020000549088004F0EAF940
:103CD00010BD000040420F0030380240000002409A
:103CE00000100140320000202A0000203000002097
:103CF0002C000020D81A00202E00002010B5044609
:103D000003E02078FFF765FF641C20780028F8D1D5
:103D100010BD10B504462046FFF7F0FF002010BD8F
:103D200070B5044600250DE0FE48008800F4004010
:103D300018B10020FB49088070BD681C85B20A20BC
:103D400001F087FEA542EFDB0120F5E71CB500245A
:103D5000F5A103C9CDE9000100F035F86846FFF789
:103D6000D8FFF348006820F04000F1490860642063
:103D700001F06FFEEE48006840F04000EC4908603A
:103D8000EC4890F82E0000F0E600EA4981F82E0099
:103D90004FF4FA6001F05DFE08E0642001F059FE86
:103DA000642C01DD01201CBD601CC4B2E048001F72
:103DB000006800F480700028EFD14FF4FA6001F041
:103DC00048FE0020EFE710B5DA4890F82E0000F02A
:103DD000100000B30020D8490870D848FFF799FFB9
:103DE000D748FFF796FF4FF4FA70FFF799FF28B115
:103DF000FFF7ACFF0120D049087010BDCD4890F806
:103E00002E0020F01000CB4981F82E000120CA4975
:103E100008700020F1E70020EFE770B504460025A8
:103E200008E00A2001F015FE681C85B2A54201DDFC
:103E3000012070BDC348008800F480400028F0D005
:103E40000020C049088000BFF3E710B5B94890F8DA
:103E50002E0000F0100008B1FFF7B5FF0020B649B2
:103E600008704FF47A7001F0F4FDB748FFF751FF86
:103E7000B348FFF74EFF4FF47A7001F0EAFDB34804
:103E8000FFF747FFAE48FFF744FF4FF47A7001F0A9
:103E9000E0FDAF48FFF73DFFA948FFF73AFF4FF4B9
:103EA0007A7001F0D6FDAB48FFF733FFA448FFF767
:103EB00030FF4FF47A7001F0CCFDA748FFF729FFDF
:103EC0009F48FFF726FF4FF47A7001F0C2FDA34828
:103ED000FFF71FFF9A48FFF71CFF4FF47A7001F0BD
:103EE000B8FD9F48FFF715FF9548FFF712FF4FF405
:103EF0007A7001F0AEFD9248FFF70BFF40F6B83044
:103F0000FFF70EFF58B18B4890F82E0020F0080004
:103F1000884981F82E0001208749087010BD854826
:103F200090F82E0040F00800824981F82E00012010
:103F3000814908700020F1E770B50446002532E0A1
:103F40008048008800F4804040B3864800784F28BD
:103F500001D1012000E00020824949784E2901D199
:103F6000012100E00021084078B97E4800786F28E0
:103F700001D1012000E000207A4949786E2901D161
:103F8000012100E00021084018B100206D4908809F
:103F900070BD00206B4908800120F9E7681CC5B29C
:103FA000642001F056FDA542CADB00205D4908806F
:103FB0000220EDE710B55F4890F82E0000F01000E9
:103FC00020BB00205C4908706748FFF7A2FE40F262
:103FD000DC5001F03EFD6548FFF79BFE4FF4FA70A0
:103FE000FFF79EFE28B1FFF7B1FE0120524908708D
:103FF00010BD504890F82E0040F010004D4981F857
:104000002E0001204C4908700020F1E70020EFE766
:1040100070B506460C460025464890F82E0000F084
:10402000100020B9FFF7C6FF08B1FFF7C3FF4FF438
:104030007A7001F00EFD3046FFF76BFE4048FFF747
:1040400068FE2046FFF778FFC5B2012D01D101209F
:1040500070BD0DB90020FBE70220F9E770B50546F9
:104060000C46344890F82E0000F0100020B9FFF7FD
:10407000A1FF08B1FFF79EFF00202F4908704FF401
:104080007A7001F0E6FC3A48FFF743FE2046FFF75E
:1040900040FE2B48FFF73DFE4FF4FA70FFF740FE5D
:1040A00018B101202449087070BD4FF4FA6001F086
:1040B000D0FC3048FFF72DFE2846FFF72AFE2048A7
:1040C000FFF727FE4FF4FA70FFF72AFE20B1012018
:1040D000194908700220E7E74FF4FA7001F0B9FCC3
:1040E000FFF734FE30B1FFF731FE012012490870AE
:1040F0000320D9E70120104908700020D4E710B54B
:1041000000240C4890F82E0000F0100020B9FFF7B2
:1041100051FF08B1FFF74EFF064890F82E0000F05F
:10412000020029E02A0000203132330D0A0000008D
:10413000140802401E1B0020320000205CAC010865
:10414000A0AC01082C00002036AD010852AD0108DA
:1041500072AD010885AD01089CAD0108C8AD01082C
:10416000EFAD0108D81A002064AC010868AC010862
:104170008BAC010895AC010830B1FA4890F82E00DC
:1041800000F0040000283AD00020F74908704FF4EE
:10419000FA7001F05EFCF548FFF7BBFDF448FFF74D
:1041A000B8FD4FF49670FFF7BBFD18B10120EE4942
:1041B000087010BD4FF47A7001F04BFCED48FFF72A
:1041C000A8FDEB48FFF7A5FDE64890F82E0040F06B
:1041D0000200E44981F82E00084690F82E0020F0F5
:1041E000040081F82E004FF4FA7001F032FC012037
:1041F000DD4908704FF47A7001F02BFC0124D94896
:1042000090F82E0000F0800008BBD64890F82E00F1
:10421000C0F38010D34991F82E10C1F3401108402B
:1042200080B1D0491031CF48FFF718FF08B1032003
:10423000BFE7CC4890F82E0040F08000C94981F8D3
:104240002E0008E0012C06D1FFF780FD03E0012CD1
:1042500001D1FFF77BFDC34890F82E0000F001006C
:1042600048BBFFF7A7FE08B1FFF7A4FE00244FF4F8
:104270007A7001F0EEFB1CE01E21BF48FFF7C8FE7C
:1042800070B1062C01D1012093E7032C01D1FFF777
:104290005DFD601CC4B241F2883001F0DAFB08E039
:1042A000B04890F82E0040F00100AE4981F82E0091
:1042B00000E0E1E700BF4FF47A7001F0CAFBA948C3
:1042C00090F82E0000F0080068B9FFF7BEFD50B16D
:1042D000FFF73CFD43F6982001F0BBFBFFF7B5FD6F
:1042E00008B1012065E76420FFF797FD58B901F098
:1042F000EFF830B178221146A0A00AF029FD0AF0AB
:1043000085FEFFF760FD002053E70246002112E022
:104310009D48405C0D2803D09B48405C7D2804D11B
:1043200000209A4B1880107070479748405C1070BE
:10433000521C481CC1B2C829EADB0120F4E710B5C1
:10434000884890F82E0000F0100020B9FFF732FEE8
:1043500008B1FFF72FFE4FF47A7001F07AFB8C481A
:10436000FFF7D7FC8248FFF7D4FC4FF47A70FFF7D1
:1043700054FD58B97B48FFF7C8FF7A4890F82E00E3
:1043800040F02000774981F82E0001E0022010BDA6
:104390000020FCE710B5734890F82E0000F01000E4
:1043A00020B9FFF707FE08B1FFF704FE4FF47A705B
:1043B00001F04FFB7748FFF7ACFC6D48FFF7A9FC15
:1043C0004FF47A70FFF729FD60B966481030FFF7A7
:1043D0009CFF644890F82E0040F04000614981F84D
:1043E0002E0001E0022010BD0020FCE73EB50024B5
:1043F0000220FCF7FCFF0120032100220B46CDE93F
:1044000000210290024606216348FCF75FFF01206D
:10441000032100220223CDE90021029007215E48FA
:10442000FCF754FF0120032100220223CDE90021E3
:10443000029008215848FCF749FF0020494981F8BB
:104440002E0007E0642001F004FB642C00DD08E08E
:10445000601CC4B250481030006800F4807000281E
:10446000F0D100BF002407E0642001F0F2FA322C02
:1044700000DD08E0601CC4B247481030006800F05E
:1044800080000028F0D100BFFFF794FD08B1FFF7CE
:1044900091FD41481030006800F0800050BBFFF7EC
:1044A0004EFF30480078422801D1012000E0002072
:1044B0002C494979542901D1012100E0002108400B
:1044C000C0B9284890F82E0040F08000254981F8B6
:1044D0002E00FFF75FFF4FF47A7001F0BAFAFFF792
:1044E0002EFF4FF47A7001F0B4FAFFF708FE08B11E
:1044F000FFF705FEFFF767FC00203EBD10B5044640
:10450000FFF7FDFD08B1012010BD164890F82E0000
:1045100000F0100008B1FFF756FC002012490870A7
:104520002046FFF7F6FB4FF47A70FFF7F9FBC0B1B6
:10453000FFF70CFC41F2883001F08BFAFFF785FCA5
:104540004FF47A7001F085FA2046FFF7E2FB4FF452
:104550007A70FFF7E5FB20B10120034908700220C3
:10456000D2E71BE01E1B002032000020E6AC010851
:10457000A0AC010813AD01080AAD0108736572769D
:104580006572206572720000D81A00202C0000208D
:1045900078AC01086FAC0108000802400120B44962
:1045A00008700020B0E738B50024B2A00068009081
:1045B000FFF709FC6846FFF7ACFBAF4890F82E0008
:1045C00000F0100020B9FFF7F5FC08B1FFF7F2FC8E
:1045D0000020A7490870A948FFF79BFBA848FFF7F0
:1045E00098FB0120A24908704FF4FA6001F031FAFB
:1045F00009E04FF47A7001F02CFA601CC4B25A2C16
:1046000001DD012038BD9F48006800F4807000285B
:10461000EFD142F2107001F01CFA974890F82E008A
:1046200000F0E600944981F82E009648006800F0FA
:104630008000D8B9084690F82E0040F0800081F83C
:104640002E00084690F82E0020F0100081F82E0071
:10465000FFF7A0FE4FF4FA6001F0FBF9FFF76FFEE1
:104660004FF47A7001F0F5F90020CBE70120C9E79B
:1046700038B585A0006800907F4890F82E0000F0C3
:10468000100020B9FFF796FC08B1FFF793FC00205B
:10469000774908704FF47A7001F0DBF97B48FFF737
:1046A00038FB7B48FFF735FB7548FFF732FB4FF4CB
:1046B000FA70FFF735FB18B101206D49087038BD5D
:1046C0004FF4FA6001F0C5F97248FFF722FB724817
:1046D000FFF71FFB6A48FFF71CFB4FF4FA70FFF768
:1046E0001FFB20B10120624908700220E7E74FF468
:1046F000FA7001F0AEF96948FFF70BFB6048FFF76D
:1047000008FB4FF4FA70FFF70BFB20B1012058496A
:1047100008700220D3E7584890F82E0040F00400BB
:10472000554981F82E00084690F82E0020F002002E
:1047300081F82E004FF4FA6001F08BF95848FFF72A
:10474000E8FA4F48FFF7E5FA4FF4FA70FFF7E8FA96
:1047500020B10120464908700320B0E74FF4FA70F9
:1047600001F077F9012042490870434890F82E0083
:1047700020F08000404981F82E00FFF7E7FA4FF45F
:104780007A7001F066F91CE01E214648FFF740FCF4
:1047900070B1062C01D1012091E7032C01D1FFF764
:1047A000D5FA601CC4B241F2883001F052F908E039
:1047B000314890F82E0040F004002F4981F82E0077
:1047C00000E0E1E700BFFFF7FEFA0020284908708B
:1047D0006846FFF79EFA41F27070FFF7A1FA20B128
:1047E000012023490870052069E70120204908704D
:1047F000FFF7E9FA002062E71CB504462AA000682A
:1048000001902AA000680090FFF7DDFA0020184907
:10481000087001A8FFF77DFA4FF4FA60FFF780FAFD
:1048200018B10120124908701CBD01201049087000
:1048300042F6E060FFF7F1FA18B92046FFF765FD90
:1048400001E00220F0E70020094908706846FFF700
:1048500060FA4FF4FA70FFF763FA10B101200449CF
:104860000870012002490870FFF749FC0020DBE7CF
:1048700032000020313233001E1B002082AC0108C0
:10488000A0AC0108100802404C4B00008BAC0108A2
:10489000ADAC010895AC0108A3AC0108C2AC01089D
:1048A00013AD01080AAD0108535400004E4C00003E
:1048B00010B50446F648C08900F0400050B1F448F5
:1048C000C08920F04000F249C88120680EF090F9BC
:1048D0000AF018F8EE48C08900F0100050B1EC481A
:1048E000C08920F01000EA49C88120680EF080F9E4
:1048F0000AF008F8E648C08900F0010050B1E44829
:10490000C08920F00100E249C88120680EF070F9EA
:1049100009F0F8FF04F000FF10BD10B5044604F0E4
:10492000A5FD20600AF072FB20680EF0C3FE20682F
:104930000EF0D4F9D648C08920F08000D449C8814F
:104940000846C08940F04000C88110BD70B50546DA
:104950006FF07F400BF0B6FB9E23F022532189209D
:1049600009F0DEFF4E23F0220321892009F0D8FF51
:10497000F0231A46A321A42009F0D2FF6FF07F4054
:104980000BF0ABFB0522114610460AF061FB052235
:10499000562103200AF05CFB0522AA2110460AF0EA
:1049A00057FBFF200BF099FBBA480BF0B3FBBA485A
:1049B00090ED010AF2EE040A20EE200ABCEEC00AD5
:1049C00010EE100A80B20A2190FBF1F201FB1200F6
:1049D00084B2B14991ED010ABCEEC00A10EE101A82
:1049E000C8B20223032289210AF01CF90322A6215E
:1049F000AAA00AF0ADF901230322AC2120460AF057
:104A000011F9A54890ED030AF2EE040A20EE200AFF
:104A1000BCEEC00A10EE100A80B20A2190FBF1F23F
:104A200001FB120084B29C4991ED030ABCEEC00A5E
:104A300010EE101AC8B202232B2289210AF0F2F8D4
:104A40002B22A62195A00AF083F901232B22AC2169
:104A500020460AF0E7F89048007A642190FBF1F0D4
:104A600038B18D49087A03237B2289210AF0DAF8CC
:104A700006E08949087A02237B2289210AF0D2F8CC
:104A800085480078642190FBF1F038B182490878BC
:104A90000323532289210AF0C5F80CE07123AF22C9
:104AA0005321892009F03CFF7B49087802235322D7
:104AB00089210AF0B7F87849087C0323A322A421AE
:104AC0000AF0B0F87449487C0223CB22A4210AF0F2
:104AD000A9F873480BF01EFB0322BB2171A00AF05A
:104AE00037F96D4890ED010ADFED6F0AB4EEE00A88
:104AF000F1EE10FA05DD1422D7216CA00AF028F996
:104B00000EE0654890ED010ADFED690AB4EEE00AB7
:104B1000F1EE10FA04D21422D72166A00AF018F997
:104B20005D480078652805DD6922D7215FA00AF07D
:104B30000FF908E058480078372804DA6C22D721AA
:104B40005CA00AF005F95C480BF0E4FA5322B921A5
:104B50005AA00AF0FDF88922B92158A00AF0F8F805
:104B60000AF054FA70BD10B50446FF200BF0AAFA03
:104B700004F06DFF206020680EF09CFD2046FFF7DA
:104B8000E5FE0AF043FA20680EF0A8F84048C08914
:104B900020F080003E49C8810846C08940F01000DE
:104BA000C88110BD10B504463948C08900F0020024
:104BB000F8B93748C08920F040003549C881084617
:104BC000C08920F01000C8810846C08920F01C0070
:104BD000C88120680EF00CF805F084F82060206889
:104BE0000EF07CF82A48C08940F001002849C881AD
:104BF00012E005F077F820600AF008FA20680EF05D
:104C00006DF82348C08940F001002149C881084659
:104C1000C08920F00200C88110BD10B504461C48B0
:104C2000C08900F00200F8B91948C08920F040009E
:104C30001749C8810846C08920F01000C88108467D
:104C4000C08920F01C00C88120680DF0D1FF05F05C
:104C50003EF9206020680EF041F80D48C08940F010
:104C600001000B49C88112E005F031F920600AF01B
:104C7000CDF920680EF032F80548C08940F00100F7
:104C80000349C8810846C08920F00200C88110BDD0
:104C9000D019002090B60508F01900202E00000061
:104CA00088BA0408E5BAA60000001442E9AB9800EF
:104CB00000001042E4BD8E00489A05082F62706D16
:104CC0000000000010B50446FB48807C00F0E000C6
:104CD00098B1F948407A20F08000F74948724FF4C3
:104CE000FA70F6490860142000F0B3FEF248C0895B
:104CF00020F02000F049C88130E0EF48C07C00F08F
:104D0000800020B1EC48C07C00F0400098B1EA4837
:104D1000007D00F0800020B1E748007D00F04000F9
:104D200048B1E548407D00F08000B8B1E248407DE0
:104D300000F0400090B9E048407A20F08000DE4961
:104D400048724FF4FA70DD490860142000F081FECB
:104D5000D948C08920F02000D749C881002010BD63
:104D600010B50446FF200BF0B8F9D5480078401C78
:104D7000D3490870D048C08800F40040E8B1084624
:104D80000078192808DAFF200BF0A7F90522114650
:104D900010460AF05DF910E0C9480078322809DAB7
:104DA0006FF07F400BF099F90522114610460AF08A
:104DB0004FF902E00020C2490870BF48808800F423
:104DC0000040E8B1BE480078192808DAFF200BF04F
:104DD00084F90522562103200AF03AF910E0B84878
:104DE0000078322809DA6FF07F400BF076F905225F
:104DF000562103200AF02CF902E00020B049087087
:104E0000AD48407C00F08000E8B1AD48007819283A
:104E100008DAFF200BF061F90522AA2110460AF0FA
:104E200017F910E0A6480078322809DA6FF07F40C1
:104E30000BF053F90522AA2110460AF009F902E005
:104E400000209F4908700AF0E1F810BD10B5044633
:104E50009948808800F4004048B99748C08800F419
:104E6000004020B99448407C00F0800018B12046F2
:104E7000FFF776FF3FE09048808800F4804048B913
:104E80008D48C08800F4804020B98B48407C00F0F9
:104E90004000C0B12046FFF759FD8748808820F4C4
:104EA0008040854988800846C08820F48040C880BA
:104EB0000846407C00F04000E8B10846407C20F005
:104EC0004000487417E07C48808800F4005020B906
:104ED0007948C08800F4005068B16FF07F400BF053
:104EE000FCF80522114610460AF0B2F805225621B8
:104EF00003200AF0ADF810BD10B56FF07F400BF045
:104F0000ECF8F0231A46C82132200AF0C1F86D48A7
:104F10000BF000F9FF200BF0E0F8C8223C216AA05A
:104F200009F016FF10BD10B56FF07F400BF0D5F8FB
:104F3000F0231A46C82132200AF0AAF861480BF083
:104F4000E9F8FF200BF0C9F8C8223C2162A009F063
:104F5000FFFE10BD38B504465748007E00F0100033
:104F600098B90020604908705348007E40F0100056
:104F70005149087653480BF0CDF8FF200BF0ADF8FF
:104F8000C822322159A009F0E3FE5C480BF0C2F8B8
:104F900055480078322190FBF1F0052827D2DFE850
:104FA00000F0030A11181F00CB22B421AFF2143015
:104FB00009F0CEFE2CE0CB22BE21AFF2203009F06A
:104FC000C7FE25E0CB22C821AFF2303009F0C0FE89
:104FD0001EE0CB22D221AFF23C3009F0B9FE17E03F
:104FE000CB22DC21AFF24C3009F0B2FE10E0012000
:104FF0003D4908706FF07F400BF06FF8F0231A46C0
:10500000BE21B4200AF044F8FF200BF066F800BF80
:1050100000BF35480078401C334908702648007EA0
:1050200000F0400098B10020234908764FF4006159
:1050300020680DF007FF054600200346304A014670
:105040000090284608F008FCFFF76DFF17E01A48AB
:10505000007E00F0200090B10020174908764FF440
:10506000006120680DF0EEFE054600200346254A4B
:1050700001460090284608F0EFFBFFF73DFF38BDE2
:105080000D48407E00F04000A8B11F48007850282D
:1050900006DA1E48006840F002001C49086062E021
:1050A00019480078782833DA1848006820F00200A0
:1050B000164908602FE040E0D01900203C04004071
:1050C0003300002088BA0408E993BEE68EA5E6887E
:1050D00090E58A9F21000000E993BEE68EA5E5A435
:1050E000B1E8B4A5210000003400002057696669CA
:1050F000E993BEE68EA5E4B8AD00000090B60508C1
:105100002C9D03080CC50308350000201404024040
:105110000020184908701848407E00F0200010B3A5
:105120000020154948761548006820F00200134910
:10513000086000200F49087015E00E4800780A2822
:1051400006DA0E48006840F002000C4908600AE0E8
:105150000A48006820F0020008490860002005495C
:1051600008700549487603480078401C01490870DA
:105170007047000035000020D019002014040240C0
:1051800070B500240025F948808840F40040F749B4
:10519000888008468088C0F30E00B0F5A07F06DA4C
:1051A000F348007820F00100F149087059E0FCF75D
:1051B000A4F90446EE48007800F00200002841D02F
:1051C000EC480470EC48807A0A2804D10020EA49AF
:1051D00088720120C872E848807AE7490C54084672
:1051E000807A401C88720846C07A01280FD10024BA
:1051F00005E0E148005D284485B2601CC4B20A2C79
:10520000F7DB0A2095FBF0F0DA49087211E0002480
:1052100005E0D948005D284485B2601CC4B2D64878
:10522000807AA042F5DCD448807A95FBF0F0D14931
:1052300008720020CD4988800846808840F480406C
:1052400088800EE0C9488088C0F30E00B0F5167F54
:1052500007DD0020C54988800846808840F400505A
:10526000888070BD70B52DED088B00250024BF48E7
:10527000C08840F40040BD49C8800846C088C0F3DB
:105280000E00B0F5C87F05DAFCF742FBB94880EDA7
:10529000010A78E0B948807A0A2804D10020B74989
:1052A00088720120C872B34890ED010ABCEEC00AB2
:1052B00010EE100AB149897AB04A50541046807AEB
:1052C000401C114688720846C07A012823D1002468
:1052D00005E0AA48005D284485B2601CC4B20A2CCF
:1052E000F7DB284615F024F941EC1A0B9FEDA40BCF
:1052F00053EC102B14F09CFE41EC190B9FEDA20B0C
:1053000053EC102B14F048FF41EC180B14F05EFE28
:105310009849C8602FE0002405E09848005D2844C3
:1053200085B2601CC4B29548807AA042F5DC9348EF
:10533000807A00EE100AB8EE400A10EE101A084605
:1053400015F006FC41EC190B284615F0F1F841EC7C
:105350001B0B9FED8B0B53EC102B14F069FE41ECF3
:105360001A0B53EC192B14F017FF41EC180B14F027
:105370002DFE8049C86000207C49C8800846C0884E
:1053800040F48040C880BDEC088B70BD10B5804BE8
:10539000DA1E511E481EFCF7FAFF7D4B5A1E511EA5
:1053A000C81CFDF715F800207049487010BD3EB5C7
:1053B00000240025FFF75CF938B16C48407C20F0F0
:1053C00080006A49487401203EBD4FF47A7000F0B5
:1053D00040FB6846FFF710FA38B16448407C20F083
:1053E0008000624948740220EEE7002407E01DF8BF
:1053F00004002C2801D1254603E0601CC4B2072C10
:10540000F5DB00BF6DB978223C2162A009F0A0FC59
:1054100009F0FCFD5548407C20F080005349487459
:1054200030E09DF802003038642110FB01F19DF856
:105430000300303800EB800001EB40019DF80400D0
:10544000303808444B4908749DF806003038642110
:1054500010FB01F19DF80700303800EB800001EBF4
:1054600040019DF8080030380844424948743F48DC
:10547000407C20F080003D4948740846407C40F064
:105480004000487400209FE7F0B504460025002640
:1054900000204CB1A1F13007A4F1300C0CEB8C0CC6
:1054A00007EB4C07FDB202E0A1F13007FDB24AB1B3
:1054B000A3F13007A2F1300C0CEB8C0C07EB4C077E
:1054C000FEB202E0A3F13007FEB246EA0520F0BDCD
:1054D00030B589B06846FEF718FF10B1012009B059
:1054E00030BD9DF80000532874D19DF802004F286C
:1054F00003D101202A49887009E09DF80200432861
:1055000003D100202649887001E00120E7E79DF8DB
:1055100006004F2803D101202149487009E09DF879
:105520000600432803D100201D49487001E00120F6
:10553000D5E79DF80A004F2803D1012018490870CB
:1055400009E09DF80A00432803D10020144908709F
:1055500001E00120C3E79DF80E00362822D0104854
:10556000C07840F080000E49C87028E0D0190020B3
:1055700003000020F01900200E1A00201A1A002043
:105580009A9999999999B93F000000000000244028
:1055900028000020646174612065727200000000C0
:1055A000041A00209DF80E00362806D1E748C0787E
:1055B00020F08000E549C87001E001208FE79DF8E8
:1055C0001400362807D0E148C07840F04000DF4999
:1055D000C8700DE065E09DF81400362806D1DB4860
:1055E000C07820F04000D949C87001E0012076E77A
:1055F0009DF81A00362806D0D448C07840F0200024
:10560000D249C8700CE09DF81A00362806D1CF4860
:10561000C07820F02000CD49C87001E001205EE78D
:10562000CA48C07800F0800070B19DF812309DF833
:1056300011209DF80F109DF80E00FFF725FF04467E
:105640002012C24908714C71C048C07800F0400077
:1056500070B19DF818309DF817209DF815109DF831
:105660001400FFF711FF04462012B8498871CC716D
:10567000B648C07800F0200070B19DF81E309DF84B
:105680001D209DF81B109DF81A00FFF7FDFE044633
:105690002012AE4908724C72AD48FEF72FFF002071
:1056A0001DE79DF80000672808D19DF803004428F5
:1056B00004D10120A7498875002010E79DF800005B
:1056C000632808D19DF801006F2804D10120A14969
:1056D0008876002003E79DF80000752807D19DF823
:1056E00001006E2803D100209A498876F7E6012050
:1056F000F5E670B50446F2EE040A60EE200AFCEE10
:10570000E00A10EE900A85B2642095FBF0F0924E0C
:10571000305C924EF074642095FBF0F600FB16505E
:105720000A2690FBF6F08C4E305C8C4E30750A20C9
:1057300095FBF0F600FB1650874E305C874E707577
:10574000642094FBF0F0844E305C844E307664200C
:1057500094FBF0F600FB16400A2690FBF6F07E4E16
:10576000305C7E4E70760A2094FBF0F600FB16400B
:10577000794E305C794EB076642091FBF0F0764E35
:10578000305C764EB077642091FBF0F600FB16108B
:105790000A2690FBF6F0704E305C704EF0770A20CF
:1057A00091FBF0F600FB16106B4E305C6B4E86F8EA
:1057B0002000642092FBF0F0674E305C674E86F864
:1057C0002400642092FBF0F600FB16200A2690FBD2
:1057D000F6F0614E305C614E86F825000A2092FB9F
:1057E000F0F600FB16205C4E305C5C4E86F826001E
:1057F000052B36D2DFE803F0030D17212B005848A4
:105800000078564E86F828005548407886F82900DA
:1058100028E054480078514E86F8280051484078D6
:1058200086F829001EE0504800784C4E86F8280083
:105830004D48407886F8290014E04C480078474EDF
:1058400086F828004948407886F829000AE0484848
:105850000078424E86F828004548407886F82900AE
:1058600000E000BF00BF002070BD2DE9FF41002512
:10587000002600270024A0463E48FEF73FFE18B150
:10588000012004B0BDE8F0814FF47A70FEF7C5FA4C
:1058900008B10120F5E76846FEF737FD08B10120A1
:1058A000EFE79DF8000059280AD19DF80200303832
:1058B0009DF80110303901EB810100EB4100C6B2C7
:1058C0009DF8030052280AD19DF8050030389DF854
:1058D0000410303901EB810100EB4100C7B29DF8A3
:1058E000060048280AD19DF8080030389DF80710B6
:1058F000303901EB810100EB4100C4B29DF8090091
:105900004D280BD19DF80B0030389DF80A10303926
:1059100001EB810100EB410000F0FF080C2C00DDE1
:1059200001250123002241462046FCF7D0FC3A46DF
:1059300031464FF4FC60FCF763FE05462B463A46C1
:1059400031461020FCF7F3FC00209AE7041A0020EF
:1059500036000020D019002009AE010845000020C3
:105960001BAE010813AE010817AE010815AE010801
:1059700019AE01087000002010B502F0CBFB10BD7D
:1059800010B502F00CFC10BD10B50446204602F024
:1059900057F910BD10B53F480078012805D102F035
:1059A00066FB02F0AAFC02F07DFB10BD10B54FF0C3
:1059B000E022126922F004024FF0E0231A61C317BB
:1059C00000EB5373C3F3C703334C2370C31700EBCF
:1059D0005373D91041F28832514305222F4B1A805C
:1059E0004FF0E022126942F002024FF0E0231A6108
:1059F0001A465161126942F001021A6110BD2DE987
:105A0000F047074600264FF0E020D0F814902248D7
:105A1000007807FB00F8FFF7AFFF4FF0E020856943
:105A200011E04FF0E0208469AC420CD0AC4202D2CD
:105A3000281B064403E0A9EB04002844064425463D
:105A4000464500D300E0ECE700BFFFF799FFBDE853
:105A5000F08770B504460F480078A0B11048007870
:105A600088B90E480088844206DB0C48008894FB05
:105A7000F0F52846FFF788FF0848008894FBF0F10E
:105A800000FB114084B24FF47A7104FB01F0FFF780
:105A9000B6FF70BDAE000020820000208400002010
:105AA000A10000204A0A52020243FE4B1A607047CE
:105AB0000146072323EA01021202FA4B1B1D186854
:105AC0004FF6FF031840F84B18431043F54B1B1DCE
:105AD000186070472DE9F0410746884614461D4678
