:0A0215003F065B4F666D7D077F6FAB
:03021F0001690072
:10010C00EF14B40800503F90011AF828287302012C
:10011C003202013602013A02013E0201420201465C
:10012C0002014A02014E7E40801E7EA0801A7ED0C3
:10013C0080167EE880127EF4800E7EFA800A7EFDA8
:10014C0080067EFF80027ED0759850758920758858
:0E015C00408E8D8E8B758780C298C299D28E90
:01016A002272
:1001A9008B6F8A708971AB6FAA70A9711201DD64B6
:1001B9004060203098FDAB6FAA70A971E5991201D2
:1001C900F6C29874012571F571E43570F570756999
:0401D9000180D322AC
:10016B00856E90E56C29FF2409F8E6F580740A2F5B
:08017B00F8E6F5A07F057E0007
:10018300E4FDFCC3ED9FEE6480F8EC6480985015A9
:10019300E4FBFA0BBB00010AEB640A4A70F50DBDE0
:0501A30000010C80DEEC
:0101A8002234
:0C0208007F3C7E147DF8DDFEDEFADFF6A0
:0102140022C7
:10008F00E4F56BF56C7F0612010CD2AFD2ACC2ABAC
:10009F007B007A0079091201A9E56960F3E4F9E5BB
:1000AF006DD39403401EE4F56D7402256CF56CE47A
:1000BF00356BF56BC3E56C9460E56B94004005E41C
:1000CF00F56BF56CD2B2E4F56E12016BE4F580F5C9
:1000DF00A00909056EC3E56E6480949040EBC2B22F
:1000EF00E4F56E12016BE4F580F5A00909056EC306
:0D00FF00E56E6480949040EB056D0200A852
:03000000020003F8
:0C000300787FE4F6D8FD75817102004A98
:1001DD00BB010689828A83E0225002E722BBFE0220
:0901ED00E32289828A83E4932253
:1001F600BB010689828A83F0225002F722BBFE01E8
:02020600F322E1
:10000F0002008FE493A3F8E493A34003F68001F278
:10001F0008DFF48029E493A3F85407240CC8C333F2
:10002F00C4540F4420C8834004F456800146F6DFC1
:10003F00E4800B010204081020408090021FE47E30
:10004F00019360BCA3FF543F30E509541FFEE493B6
:10005F00A360010ECF54C025E060A840B8E493A37D
:10006F00FAE493A3F8E493A3C8C582C8CAC583CAA8
:10007F00F0A3C8C582C8CAC583CADFE9DEE780BE60
:0102220000DB
:00000001FF
