:020000040800F2
:1000000028040020D5000008311700083317000825
:1000100000000000000000000000000000000000E0
:10002000000000000000000000000000351700087C
:100030000000000000000000371700083917000812
:10004000E7000008E7000008E7000008E7000008F4
:10005000E7000008E7000008E70000083D17000877
:10006000E7000008E7000008E7000008E7000008D4
:10007000E7000008E7000008E7000008E7000008C4
:10008000E7000008E7000008E7000008E7000008B4
:10009000E7000008E7000008E7000008E7000008A4
:1000A000E7000008E7000008E7000008E700000894
:1000B0003B170008E7000008E7000008E700000819
:1000C0000348854601F0A6FB004800477D1500085F
:1000D000280400200448804704480047FEE7FEE764
:1000E000FEE7FEE7FEE7FEE7C9150008C1000008CD
:1000F00030482F490160002141608160C1602E4974
:100100004161704710B583792A490268002B26D0D7
:100110000B6893430B604A6803689A434A6002790C
:10012000521813680468234313608A6803689A436B
:100130008A60CA6803689A43CA604279102A05D067
:1001400051180A68006802430A6010BD8A68036893
:100150001A438A60CA6800680243CA6010BD007909
:10016000401801689143016010BD002101600171D8
:100170000C224271817170470E490A6902430A617B
:1001800070470C4A0146526900200A4200D0012003
:100190007047084948617047064A01465269002085
:1001A0000A4200D0012070470249486170470000B0
:1001B0000000940F00040140FFFF6B00092110B5FF
:1001C000C906884202D101214C0404E0504988420A
:1001D00009D101210402204600F071FB00212046D4
:1001E00000F06DFB10BD4B49884202D10121040291
:1001F000F1E74949884202D101210C05EBE7474963
:10020000884202D101214402E5E745498842E9D10B
:1002100001218C05DFE7F0B50022032501230C68DE
:1002200093401C409C422AD10C79012C01D0022C15
:1002300012D1876854002E46A640B74387604E7996
:10024000A64084682643866084889C438480848892
:100250008B7993401C438480066853002C469C4055
:10026000A64306600E7907689E403E430660C66856
:10027000A643C660CC799C40C3681C43C460521C32
:10028000102ACBD3F0BD2749016000210171012262
:1002900042718171C1717047012208B512040A438D
:1002A0000092C261C1610099C161C169C0690090D9
:1002B00008BD0246128A00200A4200D00120704781
:1002C000008A70470246928A00200A4200D001202C
:1002D0007047808A70478161704701857047002AA6
:1002E00001D08161704701857047818270474B075B
:1002F000DB0E9A40C90810B589000818016A0F245E
:100300009C40A1430162016A1143016210BD0000DB
:100310000004004800080048000C00480010004895
:1003200000140048FFFF000030B5827801240178F6
:10033000002A15D08B08174A9B009A181368890762
:10034000C90EFF258D40AB434578AD072D0E8D407E
:100350001D4315600078C006C00E84400E4804E0BE
:10036000C806C00E84400C488030046030BD0B4A83
:100370000029116901D0014300E0814311617047F8
:10038000042207490428086902D090430861704795
:100390001043FBE700E400E000E100E000ED00E0D6
:1003A00000E000E010B501210C07204600F099FAAA
:1003B0000021204600F095FA10BD33498A15002827
:1003C000086801D0104300E09043086070472E4A4F
:1003D0001168E02399430143116070472A491022B4
:1003E0000028086801D0104300E09043086070477F
:1003F000254A0029516801D0014300E08143516042
:10040000704722490A6904239A430A61012801D0EE
:1004100020BF704730BF70471B4B1A68920892008C
:1004200002431A6019480369042213430361012936
:1004300006D0022906D001690222114301617047EA
:1004400030BF00E020BF01699143F7E70E48026822
:1004500004210A430260026802231A4302600B4827
:1004600002690A43026130BF7047074A0146526879
:1004700000200A4200D00120704703490A6880002A
:1004800002430A60704700000070004000ED00E089
:10049000F74801680122114301604168F54A1140A3
:1004A00041600168F44A1140016001680122920430
:1004B0009143016041683F22120491434160C16A47
:1004C00009090901C162016BFF22543291430163A2
:1004D000416B490849004163002181607047E4494C
:1004E00000228A708870704703460020E04A59094C
:1004F0000CD001290CD002290CD0516BDA06D20E97
:10050000012393400B4200D0012070471168F5E7AA
:10051000116AF3E7516AF1E718B5002005242403B6
:1005200000901120FFF7E0FF0099491C0091A142C3
:1005300001D00028F5D01120FFF7D6FF002800D009
:10054000012018BDCA4A1168F8239943C000084326
:1005500010607047C6490028086802D00122104385
:1005600001E04008400008607047C14A516BF82321
:100570009943C000084350637047BD490028486B49
:1005800002D00122104301E0400840004863704758
:10059000B74904220028486B01D0904300E0104383
:1005A00048637047B2490A6A520852000A620A6AEE
:1005B00004239A430A620A6A02430A627047AC49FA
:1005C0000A6A18239A430A620A6A02430A62704757
:1005D000A7490028486A02D00122104301E04008E0
:1005E00040004862704710B5A14A53687B24E40379
:1005F000A3435360536808430343536010BD012273
:100600009B4912060028086801D0104300E090437F
:10061000086070470122964912040028486B01D0F7
:10062000104300E0904348637047914AD16A09093A
:1006300009010143D162704701228D49D20400288B
:10064000086801D0104300E0904308607047884B71
:100650005A681202120A0006084310435860704795
:10066000834A516889088900014351607047804876
:1006700040680C21084070477D4A5168F023994337
:100680000143516070477A4A516807231B0299431E
:1006900001435160704776494A6801239B039A439E
:1006A0004A604A6883B21A434A600A6B8B159A43C0
:1006B0000A630A6B000C02430A6370476C490A6BB9
:1006C00040239A430A630A6B02430A6370476849EE
:1006D0000A6B10239A430A630A6B02430A6370474A
:1006E000020F6349012A0A6B07D003231B049A43B4
:1006F0000A630A6B02430A63704792089200F7E7A5
:100700005B490A6B80239A430A630A6B02430A63BC
:100710007047F8B5564E0446716800200C22574DBC
:10072000114005D0042903D0082903D00C2918D082
:10073000256018E07168706803228902D2030F0FE8
:100740001040BF1C002809D0F06A0107090F284695
:10075000491C01F049F87843206004E04848784398
:10076000FAE7484921607168474F0906090F7B5C29
:1007700021680A46DA40626073685B055B0FFB5CC8
:10078000DA40A260336BDB0501D4404B05E07368AF
:100790005B0401D4530800E09308E360336B5F0609
:1007A0003B4B03D43A4F1237276100E02361376B8C
:1007B000FF0601D4656100E06161376BBF070ED0B1
:1007C000376BBF07BF0F012F0BD0376BBF07BF0FB2
:1007D000022F08D0376BFF43BF0706D006E0A261A7
:1007E00004E0A16102E0A36100E0A561376BBF03F3
:1007F000BF0F0FD0326B9203920F012A0CD0316BD6
:100800008903890F022909D0316B8903890F0329D4
:1008100006D006E0E26104E0E16102E0E36100E0AD
:10082000E561316B090600D416482062F8BD104915
:100830000A6A02430A6270470D490028144A086A8E
:1008400001D0104300E0904308627047012208493C
:1008500012040028086A01D0104300E090430862A7
:100860007047034A0029516914D0014313E0000086
:10087000001002400CB8FF08FFFFF6FE00127A00DD
:1008800000093D00006CDC0200000020809FD500C4
:1008900000800000814351617047244A002991691A
:1008A00001D0014300E08143916170471F4A002954
:1008B000D16901D0014300E08143D16170471B4AF7
:1008C0000029916A01D0014300E0814391627047A1
:1008D000164A0029D16801D0014300E08143D1606C
:1008E0007047124A0029116901D0014300E0814399
:1008F000116170470D4A0029517A01D0014300E08F
:100900008143517270470948416A0122120611431E
:1009100041627047054A0146926800200A4200D0B1
:1009200001207047014988727047000000100240A2
:10093000244801688907890F016000218160C16036
:1009400001614161816982151143816170471D4ACE
:10095000116889088900014311607047194A00290C
:10096000116801D0014300E0814311607047154ACE
:100970000029116801D0014300E0814311607047F4
:100980008A0710B5120F0F2393408C080D49A4005D
:1009900061188C689C438C608B68904003438B602B
:1009A00010BD08498A6902438A61704705490020E1
:1009B0008969C90500D50120704702498A69024347
:1009C0008A61704700000140F94910B5884202D1A0
:1009D0000121C4143AE001218907884206D101218E
:1009E0000846FFF77EFF0021012008E0F149884218
:1009F00008D101210220FFF774FF00210220FFF738
:100A000070FF10BDEC49884206D101211020FFF78C
:100A100068FF00211020F2E7E849884206D1012151
:100A20002020FFF75EFF00212020E8E7E44988420C
:100A300007D1841501212046FFF753FF00212046EE
:100A4000DDE7E049884209D101210C042046FFF787
:100A50003FFF00212046FFF73BFF10BDDA498842E7
:100A600002D101214C04F1E7D8498842F5D1012196
:100A70008C04EBE710B50288CD4B984206D00124D8
:100A8000A407A04202D0CB4CA04203D17024A243C1
:100A90004C882243C84CA04203D0CD4C22400C8944
:100AA000224302804A68C2620A880285984208D0BE
:100AB000C44A904205D0C44A904202D0C34A9042F0
:100AC00001D1897A01860121818210BD0021C943AB
:100AD0004160002101800181418081727047018560
:100AE00082827047028870239A430A4302807047CB
:100AF00041627047C1627047406A7047008D70471D
:100B000002220029018801D0114300E091430180B5
:100B1000704704220029018801D0114300E091436D
:100B20000180704780220029018801D0114300E034
:100B3000914301807047028808239A43028002880B
:100B40000A43028070470288A14B1A400280028843
:100B50000A43028070470029018802D00122114314
:100B600001E0490849000180704710B50A884B88A8
:100B7000CC881A438B8823431A430B891A434B8929
:100B800089891A430A434030828010BD00210180C8
:100B900041808180C18001814181818170474030E5
:100BA0000029818803D00122D203114301E04904C6
:100BB000490C8180704770B5028C52085200028443
:100BC000048C8288038B7025AB439B080D889B00A7
:100BD0001D4302239C438E894B882643744C334328
:100BE000A04208D0774CA04205D0774CA04202D05A
:100BF000764CA0420DD10824A343CC891C43042386
:100C00009C438B882343724C22400C8A14434A8AAB
:100C100022438280058389684163038470BD70B577
:100C2000028C10239A430284048C8288038B694DC2
:100C30002B400D782D062D0C1D4320239C438B89C2
:100C40001B051E0C4B8826431B051B0C584C3343BD
:100C5000A04202D05B4EB04219D15F4E32400E8AA4
:100C6000B604360C3243A04211D18024A343CC8970
:100C70002405240C1C4340239C438B881B051B0C20
:100C80002343564C22404C8AA404240C22438280E5
:100C9000058389688163038470BD30B5028C504B35
:100CA0001A400284038C8288848B7025AC43A4088C
:100CB0000D88A40025434B4C23400C7B2406240CB8
:100CC0001C438B781B061B0C2343394CA04215D1C7
:100CD000424C23408C7B2406240C1C433E4B1C407E
:100CE0000B791B061B0C23433F4C22400C8A240526
:100CF000240C14434A8A1205120C224382808583F5
:100D00008968C163038430BD30B5028C374B1A400B
:100D10000284058C8288838B2E4C23400C78240619
:100D2000240C1C43324B1D400B7B1B071B0C2B431D
:100D30008D782D072D0C1D431D4B984205D12D4B51
:100D400013400A8A9205120C1A43828084838968B0
:100D50000164058430BD0021018041808180816073
:100D60008181C18101824182704730B503461833C9
:100D70000124058C8C40A5430584002910D0082946
:100D80000ED0091F0804400CC018016807231B037C
:100D90009943016001681206120C1143016030BDD5
:100DA0004808C01801687023994301600168F4E79E
:100DB000002C0140000400400010004000140040DE
:100DC0000020004000400140004401400048014034
:100DD000FFFC0000FF8C0000FFFB0000FFF700009D
:100DE000FFFE0000FFFD0000FFCF0000FFEF00004E
:100DF000FFDF0000FFBF0000416370478163704761
:100E0000C163704701647047028B70239A430A43A1
:100E100002837047028BF64B09021A40114301838B
:100E20007047828B70239A430A4382837047828B78
:100E3000EF4B09021A4011438183704700298188D2
:100E400002D00122114301E0490849008180704726
:100E5000028B08239A430A4302837047028BE54BB7
:100E600009021A40114301837047828B08239A4379
:100E70000A4382837047828BDE4B09021A4011437A
:100E800081837047028B04239A430A43028370478D
:100E9000028BD94B09021A40114301837047828BA0
:100EA00004239A430A4382837047828BD24B090200
:100EB0001A40114381837047028B80239A430A436F
:100EC00002837047028B5204520C090211430183C2
:100ED0007047828B80239A430A4382837047828BB8
:100EE0005204520C0902114381837047028C022381
:100EF0009A430A4302847047028C08239A430A43A8
:100F000002847047028C20239A4309011143018413
:100F10007047028C80239A43090111430184704772
:100F2000028CB64B09021A40114301847047028CAF
:100F3000B04B09021A40114301847047028CB04B38
:100F400009031A40114301847047028908239A4318
:100F5000028102890A430281704710B50123048C83
:100F60008B409C430484038C8A401343038410BD4C
:100F700010B50423048C8B409C430484038C8A406A
:100F80001343038410BD04220029818801D011433A
:100F900000E0914381807047828B9A4B1A40828394
:100FA000828B09020A4382837047828B0C239A4307
:100FB0008283828B0A4382837047028B914B1A4053
:100FC0000283028B09020A4302837047F0B5048C46
:100FD0001026B4430484058B048C8B4F1B0309013A
:100FE0003D402B4312021A43A0239C430C4334433D
:100FF00002830484F0BD028B0C239A430283028B8C
:101000000A430283704770B5048C6408640004844A
:10101000058B048C1B011343F3260A22B54394432A
:101020002B430C4301210C430383048470BDF8B5AA
:10103000054608884E888A880B890C4600281DD0F2
:10104000042824D00828288C2AD0704908402884F5
:10105000A88B2F8C31036C4E1202304002431803D0
:1010600010436B4AA88317400F43012109030F4324
:101070002F84E1882846FFF78FFFF8BD31462846C8
:10108000FFF7C1FFE1882846FFF7B5FFF8BD3146FD
:101090002846FFF79BFFE1882846FFF78EFFF8BD43
:1010A0005C4908402884A98B288C3702F3261B0151
:1010B000B14313430B435849AB830840FF213843E6
:1010C000013108432884E1882846FFF76EFFF8BD08
:1010D00000210180418001228280C180018170470E
:1010E000F8B50C464988002601250746002900D19D
:1010F0000226A288012A00D10225208823890028FF
:10110000384610D0FFF762FFE1883846FFF755FFF9
:1011100023892A4631463846FFF775FFE18838466D
:10112000FFF769FFF8BDFFF76EFFE1883846FFF76C
:1011300062FF23892A4631463846FFF747FFE18898
:101140003846FFF73AFFF8BD406B7047806B704739
:10115000C06B7047006C7047002A828901D00A4337
:1011600000E08A4382817047818270470246128A7A
:1011700000200A4200D001207047C9430182704715
:101180000246138A002092890B400A40002B02D0AD
:10119000002A00D001207047C943018270471143E3
:1011A000403001817047002A828901D00A4300E063
:1011B0008A438281704708220029818801D0114327
:1011C00000E09143818070470189C908C90001810D
:1011D0007047028970239A430A430281704710B511
:1011E0000446FFF7F6FF208907210843208110BD40
:1011F000FF8F0000FFF70000FFFB0000FFFD000075
:10120000FFDF0000FFF30000FF0C0000FFEF000015
:10121000FF5F0000FFFE0000FFF5000070B51646FE
:101220000D46044660290CD001223146FFF7EBFE43
:1012300029462046FFF7CDFF20890721084320815A
:1012400070BD01223146FFF7C1FEF1E710B50489F8
:101250001B021343E4B20B432343038110BD10B5BB
:101260000446FFF7F3FF2089C108C90007200143A6
:10127000702081430143218110BD10B50446FFF762
:10128000E5FF2089012189030843208110BD828860
:1012900070239A43828082880A4382807047028941
:1012A000D208D200028102890A4302817047028972
:1012B00080239A43028102890A430281704770B5F4
:1012C0000589048B068CED08ED000D430C49058162
:1012D0000C40FF2102310C43AA218E431901114316
:1012E00031430483018470BD80220029818801D0AC
:1012F000114300E091438180704740300182704784
:10130000FCFC00001CB501214804FFF7AAFA60208C
:10131000009001206A46107100219171D071032064
:1013200009245071E40669462046FEF774FF202127
:101330002046FEF7D2FF1CBD01B5009801E0401E1B
:1013400000900028FBD108BD01B5144A04E0491EF5
:1013500010460091FFF7F0FF00990029F7D108BD72
:1013600010B50924E40620212046FEF7ABFF012139
:10137000081AC2B220212046FEF7B1FF3220FFF743
:10138000E3FF10BD01B504E0401E00909620FFF77A
:10139000D3FF00980028F7D108BD0000983A00005C
:1013A00038B51C20694608700020487001248C70F4
:1013B0006846FEF7B9FF07206946087003204870A9
:1013C0008C706846FEF7B0FF38BD0000F0B5012113
:1013D00085B0C804FFF745FA01210846FFF75DFA1A
:1013E000012676030024684602960473C47302A99A
:1013F0001348FEF710FF7710684602970473012523
:10140000C57302A90E48FEF706FF0D210220FFF763
:10141000B7FA0C210220FFF7B3FA00966846047170
:10142000082646718571FEF76DFE684600970471C7
:1014300046718571FEF766FE05B0F0BD002070476D
:1014400000080048FEB5032001214004FFF709FA17
:1014500007200002009002256846057103264671A8
:10146000002787710124C47109206946C006FEF770
:10147000D2FE0720400300906846057146718771CF
:10148000C471304C69462046FEF7C5FE0920022291
:101490000821C006FEF72BFF09210222C806FEF72D
:1014A00026FF092002220A21C006FEF720FF0222A1
:1014B0000D212046FEF71BFF02220E212046FEF7DB
:1014C00016FF02220F212046FEF711FFFEBD30B5A8
:1014D00089B00C460546FFF7B5FF0121C802FFF7AA
:1014E000DCF9684684820024C48206958483164D04
:1014F000847705A92846FFF7BDFA60216846018078
:101500000121418004218180F0200290022168465F
:101510008181C481C9010182448269462846FFF75E
:101520004AFB08212846FFF793FC01212846FFF7D4
:1015300012FB01212846FFF732FB09B030BD70478E
:101540007047000000040048002C014007E0002222
:101550000021491C5F29FCD3521C642AF8D30146A0
:10156000401EC0B20029F2D1704710B50121080712
:10157000FFF79CF90120FEF744FF10BD00F024F8AE
:10158000FFF70EFFFFF7BEFEFFF720FFFFF7EDFFAF
:101590000926F6060B4C002540213046FEF79BFE3F
:1015A000FA20FFF7D3FF40213046FEF796FEFA20DF
:1015B000FFF7CCFF20780028EED025700120FEF741
:1015C00020FFE9E71000002010B550480168012213
:1015D0001143016041684E4A1140416001684D4A23
:1015E0001140016001680122920491430160416849
:1015F0007F22D20391434160C16A09090901C16296
:10160000016BFF22543291430163416B424A114006
:1016100041630021816000F032F810BD70B53B4E8F
:1016200071680C2001403D483D4C05D0042903D091
:10163000082903D00C2920D0206014E0726871685A
:1016400003239202DB03150F1940AD1C002907D0BC
:10165000F16A0907090F491C00F0C6F86843EBE777
:1016600030484543256070682D490006000F091D6C
:10167000085C2168C140216070BD2B48DCE71CB5C7
:1016800000232A4900931120019308601F484168F4
:101690004160416841600168012212041143016008
:1016A00051000524240302680A400192009A521C4A
:1016B0000092019A002A02D1009AA242F3D1016855
:1016C00089030CD50121019141687F22D203914306
:1016D00041604168112212041143416000E001930E
:1016E0000168012212061143016001688901FCD5DD
:1016F00041688908890041604168022211434160C4
:1017000041680907890F0229FAD11CBD0010024067
:101710000CB8FF80FFFFF6FEFEFFFEFF00127A000E
:101720001400002000093D00006CDC020020024093
:101730007047FEE77047704770477047F8B501245F
:1017400064032046FEF728FD0927244D244EFF069A
:10175000002819D020213846FEF7BDFDFF200521C5
:10176000F830FFF7B4FEFA20FFF7F0FE0521284617
:10177000FFF7ADFEFA20FFF7E9FE00213046FFF744
:10178000EAF92046FEF710FD012424032046FEF767
:1017900003FD002819D020213846FEF79CFDFF20CC
:1017A0000521E430FFF793FEFA20FFF7CFFE052175
:1017B0002846FFF78CFEFA20FFF7C8FE00213046CE
:1017C000FFF7C9F92046FEF7EFFC20213846FEF767
:1017D00084FD044901200870F8BD0000FF010000ED
:1017E000002C01401000002030B50B4601460020BF
:1017F0002022012409E00D46D5409D4205D31D4617
:101800009540491B2546954040191546521E002D0E
:10181000F1DC30BD064C0125064E05E0E36807CC3F
:101820002B430C3C98471034B442F7D3FEF74CFCE2
:10183000581800087818000802E008C8121F08C1EC
:10184000002AFAD170477047002001E001C1121F41
:10185000002AFBD170470000781800080000002023
:101860002800000038180008A018000828000020F0
:1018700000040000481800080000000001020304F2
:10188000010203040607080900000000006CDC02E6
:101890000000000000000000010203040607080920
:04000005080000C12E
:00000001FF
