:020000040800F2
:1000000088080020890100088D0100088F01000880
:10001000910100089301000895010008000000000C
:100020000000000000000000000000009701000830
:1000300099010008000000009B0100089D010008D4
:100040009F0100089F0100089F0100089F01000810
:100050009F0100089F0100089F0100089F01000800
:100060009F0100089F0100089F0100089F010008F0
:100070009F0100089F0100089F0100089F010008E0
:100080009F0100089F0100089F0100089F010008D0
:100090009F0100089F0100089F0100089F010008C0
:1000A0009F0100089F0100089F0100089F010008B0
:1000B0009F0100089F0100089F0100089F010008A0
:1000C0009F0100089F0100089F0100089F01000890
:1000D0009F0100089F0100089F0100089F01000880
:1000E0009F0100089F0100089F01000800F002F82E
:1000F00000F03CF80AA090E8000C82448344AAF186
:100100000107DA4501D100F031F8AFF2090EBAE883
:100110000F0013F0010F18BFFB1A43F0010318473B
:10012000CC120000EC120000103A24BF78C878C14D
:10013000FAD8520724BF30C830C144BF04680C60ED
:10014000704700000023002400250026103A28BF35
:1001500078C1FBD8520728BF30C148BF0B60704739
:100160001FB5AFF300801FBD10B510BD00F0B4F88F
:100170001146FFF7F5FF00F0C9FC00F0D2F8FFF7D9
:10018000F3FF00F0EAF9000008480047FEE7FEE749
:10019000FEE7FEE7FEE7FEE7FEE7FEE7FEE7FEE737
:1001A00003480449024A044B70470000ED00000870
:1001B000880600208808002088060020704740EA52
:1001C0000103024630B59B0710D14FF0013400E027
:1001D00008C208C91D1B9D4315EAC41FF8D013F0BF
:1001E000FF0102F8011B0ED01B0AF8E711F8014BC2
:1001F00002F8014B002C134605D011F8014B5A1C94
:10020000002C1C70F2D130BD40EA010370B59B0791
:1002100029D14FF00136042A25D308C810C9121F6E
:100220009D1B9D4315EAC61505D1A342F3D018BA0C
:1002300021BA401A70BDD8B2E1B2401A50EA056145
:10024000F8D198B2A1B2401A50EA0541F2D123F098
:100250007F4124F07F40081A50EA0521EAD1180EA8
:10026000A0EB146070BD0AB9002070BD10F8013B0E
:1002700011F8014B63B1A3420AD1521E08D010F805
:10028000013B11F8014B1BB1A34201D1521EEDD12C
:10029000181B70BD10B5431C04E010F8011B09B910
:1002A000C01A10BD8107F8D14FF0013202C88C1A74
:1002B0008C4314EAC211F9D0C01A0A0601D0C01E3C
:1002C00010BD0A0401D0801E10BD0902FCD0401EE2
:1002D00010BD704770477047754600F029F8AE466C
:1002E00005006946534620F00700854618B020B542
:1002F000FFF756FFBDE820404FF000064FF0000723
:100300004FF000084FF0000B21F00701AC46ACE8BD
:10031000C009ACE8C009ACE8C009ACE8C0098D462A
:1003200070470446AFF300802046FFF728FF000027
:100330000048704724060020F0B5CB780022DC0688
:1003400003F00F0301D58C7823430C880F2714F09A
:10035000FF0F4FF0010C1CD0D0F800500E880CFAA3
:1003600002F42640A64210D1960007FA06FE25EABE
:100370000E0E03FA06F5CE7845EA0E05282E00D1BA
:100380004461CE78482E00D10461521C082AE5D37E
:1003900005600A88FF2A1ED94568002202F1080676
:1003A0000CFA06F40E882640A64210D1960007FAF1
:1003B00006FE25EA0E0E03FA06F5CE7845EA0E058E
:1003C000282E00D14461CE78482E00D10461521C01
:1003D000082AE3D34560F0BD416170470161704771
:1003E000044A0029916901D0014300E081439161F1
:1003F000704700000010024070B5012186B008036C
:10040000FFF7EEFF01217C20FFF7EAFF4FF4A05039
:10041000ADF8000003248DF8024010258DF803503C
:1004200069462448FFF788FFE020ADF800008DF80A
:1004300002401820204E8DF8030069463046FFF731
:100440007BFF4020ADF8000048208DF8030069468E
:100450003046FFF771FF0020ADF804004FF48271C1
:10046000ADF80610ADF80C006901ADF80E100821CA
:10047000ADF81010ADF80800ADF80A00ADF81200A4
:1004800007200E4EADF8140001A9304600F049F8DF
:100490006020ADF800008DF802408DF803506946E9
:1004A0000748FFF749FF0121304600F025F806B064
:1004B00070BD000000100140000801400030014004
:1004C0000018014070B50B4C05460221204600F093
:1004D0001DF80028F9D02946204600F020F8012117
:1004E000204600F013F80028F9D0204600F015F857
:1004F000C0B270BD003001400029018802D041F037
:10050000400101E021F0400101807047024612895C
:1005100000200A4200D00120704780897047818105
:10052000704770B502880B884E888C88CD8833431D
:100530002C430E8923434C8933438D892343CC8933
:100540002B4302F44152234313430380828B22F452
:1005500000628283098A018270BDFEE770B504469D
:10056000002500F00DFF40B9FF2070BD2F2801D1FC
:10057000641C0AE06D1CEDB2641C207828B10A2DC1
:1005800003D22C2801D97B28F0D3207830380A28D0
:1005900001D2C0B270BDFE2070BD00000346002035
:1005A000012A02D101F1110003E0022A09D1801DC4
:1005B0000844083805E000BF33F8022B891E52BA00
:1005C00010440129F8D831B1197800EB012002E07C
:1005D00081B201EB1040010CFAD14FF6FF71484097
:1005E0007047000010B55C490446CA68002042F418
:1005F0008062CA604FF47A72401C9042FCD3CA6891
:10060000002022F48062CA6042F21072401C9042C4
:10061000FCD3CB68002043F48063CB60401C904245
:10062000FCD3C86840F48050C860FF220021104607
:1006300000F0B8F94949002048800146082000F040
:100640008BF90021092000F087F900210C2000F02F
:1006500083F900210D2000F07FF9FE210A2000F02F
:100660007BF919210B2000F077F9FF21042000F01D
:1006700073F91921052000F06FF9FF21062000F021
:100680006BF91F21072000F067F9B021382000F036
:1006900063F93F21282000F05FF93021292000F084
:1006A0005BF9F921302000F057F9F721312000F0F3
:1006B00053F90D21C02000F04FF90021C12000F0B6
:1006C0004BF93322C221802000F06CF91221C620A0
:1006D00000F042F90C21C72000F03EF91221C4209D
:1006E00000F03AF9DC21CA2000F036F90521CB20D0
:1006F00000F032F92178E42000F02EF96178E5204D
:1007000000F02AF9A178E22000F026F9E178E32050
:1007100000F022F92179E02000F01EF96179E12052
:1007200000F01AF94FF480742146002000F0A4F87C
:100730002146102000F0A0F81F2000F0F5F8C0229C
:100740001B21802000F02EF904221F21BDE810405B
:10075000802000F027B90000001001403E0000207A
:100760002DE9F04106468846392000F099F8002826
:100770004BD0274D6888C1B2002000F0EDF86888A2
:10078000010A012000F0E8F800213A2000F0B0F85A
:10079000688000213A2000F0ABF8698841EA002027
:1007A000688000213A2000F0A3F8044600213A2096
:1007B00000F09EF844EA0020001F84B200213A2095
:1007C00000F096F8074600213A2000F091F8761ED6
:1007D00047EA0020B44200DDB4B2000601D4002490
:1007E00003E04146204600F065F86888C1B20C205D
:1007F00000F0B2F86888010A0D2000F0ADF8402240
:100800001E21802000F0CEF82046BDE8F0810000D7
:100810003E00002070B505460E46FF21022000F084
:100820009BF81921032000F097F841F6FF102C18CF
:10083000E1B2062000F090F8C4F30721072000F091
:100840008BF8002211467A2000F0ACF83146284699
:1008500000F08EF808221F21802000F0A3F81C2051
:1008600000F01EF8800706D5BDE8704008221F2161
:10087000A02000F097B870BD10B50C460146D420FA
:1008800000F06AF8E1B2D62000F066F8210AD7201D
:1008900000F062F8EA2000F003F8C007FAD110BDBA
:1008A00010B5044600F040F82146BDE81040002095
:1008B00000F01EB870B50D4E0546F0680C4620F4E9
:1008C0008050F0603A20FFF7FDFD04E00020FFF7C4
:1008D000F9FD04F8010B2800A5F10105ADB2F5D131
:1008E0002070F06840F48050F06070BD001001404E
:1008F00070B50C4D0C46E96821F48051E96004F0B4
:100900001F010843FFF7DEFDFF20FFF7DBFD210697
:1009100002D5FF20FFF7D6FDE96841F48051E96078
:1009200070BD00000010014070B50A4E054600F091
:100930006004307884420BD003221F21A02000F0F5
:1009400031F8C5F341121F21802000F02BF83470DC
:1009500070BD00003E00002070B505460C46FFF754
:10096000E3FF22462946BDE87040402000F01AB857
:1009700070B50B4E0446F0680D4620F48050F060D0
:100980007A2001E015F8010BFFF79CFD2000A4F18F
:100990000104A4B2F6D1F06840F48050F06070BD5C
:1009A0000010014070B5094C1546E26822F48052EF
:1009B000E26001F01F010843FFF784FD2846FFF7BE
:1009C00081FDE06840F48050E06070BD001001409F
:1009D00000F007017520FFF7BFBF7220FFF760BF6F
:1009E00010B5002229290CD3017B082909D1417BAC
:1009F000062906D10749831893F826308C5CA34258
:100A000001D0002010BD521CD2B2042AF3D3012021
:100A100010BD00000C00002010B500222A290DD3C3
:100A2000017B08290AD1417B41B9817B452905D148
:100A3000064983189B7F8C5CA34201D0002010BD27
:100A4000521CD2B2042AF4D3012010BD0C000020A5
:100A500010B504460020207660764021217560752F
:100A6000A1750246142104F10E00FFF797FD010A5B
:100A70002176607610BD10B50346084604E01C18C8
:100A8000401C84F83610521C11780029F7D110BD93
:100A900010B50346084603E01C1884F83610401CC5
:100AA00012F8011B0029F7D110BD0000034881682E
:100AB00011B14068223070470020704700000020CC
:100AC00010B50A4C0023227004F10C02CC5CD45403
:100AD0005B1CDBB2042BF9D3044A00211032435CC7
:100AE0005354491CC9B20629F9D310BD0000002097
:100AF000018A90F82E00044A000949BA800014398E
:100B00005060081A906070470000002010B500F097
:100B10002BFC0549012048600860FFF76DFC00F0E0
:100B200053FA002010BD00009401234270B5054621
:100B3000002400F043F80020287502200F49687552
:100B40002819827D80F820200A5D631CDCB2827542
:100B5000062CF5D3094A0020121F29180B7F441CCC
:100B600081F82630105C0877E0B20428F5D32946D6
:100B7000BDE870402A20FFF74DBE000010000020A5
:100B800070B504460D4600F019F8204600F026F82E
:100B9000002084F8220094F82400F72804D994F85F
:100BA0002510491C84F82510083084F824002146BB
:100BB000A8B2BDE87040FFF72DBE000030B5064C6E
:100BC00000228518AB79511C8354A25CAA71CAB269
:100BD000062AF6D330BD00001000002030B4074BC9
:100BE00000214218947E4D1C9477595C9176E9B2AD
:100BF0000429F6D330BCFFF72BBF00000C00002007
:100C000010B50446FFF7DAFF102084F82F001148D2
:100C100001238168002209B90121FFE7204600F085
:100C200067F800202074282060742046FFF7D6FF64
:100C300002221C2104F11A00FFF7B0FC010A84F81B
:100C4000321084F833002146BDE810403620FFF70B
:100C5000E1BD00000000002070B50446192084F8B2
:100C60002F000D4601F12800010A2174607420460E
:100C7000FFF7EEFE002084F8320084F833000222F1
:100C800005F11C0104F11A00FFF788FC010A84F841
:100C9000321084F8330036352146A8B2BDE87040E2
:100CA000FFF7B8BD10B50446FFF788FF0020207499
:100CB0002C2060742046FFF791FF122084F82F004B
:100CC000012200231146204600F012F802222021C2
:100CD00004F11A00FFF762FC010A84F8321084F86C
:100CE00033002146BDE810403A20FFF793BD0000D5
:100CF000F0B50024A446051915F8226F641CAE70E7
:100D0000E4B285F800C0022CF5D3DFF878E00424C3
:100D10009EF8005080F82350051915F8256F2F799B
:100D200031442971253D13B185F8257001E085F81E
:100D300025C0090A641E14F0FF04EDD163B980F8E0
:100D400026C080F827C09EF8011080F8281080F88F
:100D500029C0891C8EF8011080F832C080F833C099
:100D60005AB102212E300172042141720521817293
:100D70008021C17260210170F0BD502180F82E10D9
:100D8000F0BD0000000000202DE9F0470446894630
:100D9000164698460025FFF711FFDC2E00D9DC2609
:100DA0000027277406F11C0060742046FFF716FF29
:100DB0004FEA182004F8240F84F80180A77006F188
:100DC0000800E07027716771243C06E019F80500FF
:100DD00061196D1C81F82A00EDB2B542F6D30122EB
:100DE00006F1100104F11A00FFF7D8FB010A84F89C
:100DF000281084F82900214606F12A00BDE8F047B2
:100E0000FFF708BD70B50C46054625A20021FFF787
:100E10003FFE81B232A22846FFF73AFE81B20CB102
:100E200035A200E03DA22846FFF732FE81B23CA287
:100E30002846FFF72DFE81B23E4A2846FFF71BFEEB
:100E40003C4A81B20A3A2846FFF715FE81B23AA21F
:100E50002846FFF71DFE81B2364A2846FFF70BFEF3
:100E6000344A81B20A3A2846FFF705FE81B20CB136
:100E70003BA200E03FA22846FFF70AFE81B242A251
:100E80002846FFF705FE81B248A22846FFF700FE7C
:100E900081B248A22846FFF7FBFD80B270BD00007A
:100EA000485454502F312E3020323030204F4B0DCB
:100EB0000A436F6E74656E742D547970653A2074B0
:100EC0006578742F68746D6C0D0A507261676D617E
:100ED0003A206E6F2D63616368650D0A0D0A00008C
:100EE0003C63656E7465723E3C703E4C4544CAE49A
:100EF000B3F63A20000000003C666F6E7420636F0A
:100F00006C6F723D2223464630303030223E20C185
:100F1000C13C2F666F6E743E00000000C3F00000FD
:100F2000203C736D616C6C3E3C6120687265663D6F
:100F30002200000028000020223E5BCBA2D0C25D30
:100F40003C2F613E3C2F736D616C6C3E3C2F703EBC
:100F50000A3C703E3C6120687265663D22000000DC
:100F60002F30223EB9D8B1D54C45443C2F613E3C90
:100F7000703E00002F31223EBFAAC6F44C45443CCF
:100F80002F613E3C703E000053544D3332BFAAB730
:100F9000A2B0E52057454220CDF8D2B34C4544CA13
:100FA000D4D1E93C2F613E3C703E00003C2F613EB5
:100FB0003C703E002D2DD6A3D6DDCCECD4B63C2F14
:100FC000613E3C703E0000002DE9F04F89B00024E6
:100FD0008548FFF707FBFFF700FD834F8DF80400FE
:100FE0000C3F3888391DC2B27F48FFF769FD40F2D7
:100FF00076411420FFF740FC0220FFF7E9FCDFF800
:10100000EC81DFF8ECA17B4E40F2DC5B4FF0010994
:1010100020214046FFF7E2F976495846FFF7A0FB4A
:101020000500F5D029467348FFF7DAFC18B171487E
:10103000FFF77CFDECE729466E48FFF7EDFC002842
:10104000E6D0F07D012808D196F822000828DFD1EB
:1010500029466848FFF794FDDAE7062875D196F827
:1010600024000028D4D196F8251038888142CFD1A9
:1010700096F82F00810703D55E48FFF713FEC7E7F8
:10108000C006C5D55B48FFF733FDFFF70FFD000431
:10109000000C07D196F82F00C007B9D05548FFF7CC
:1010A000AFFDB5E731180D46042253A0FFF7ACF8A9
:1010B00008B153A21FE0291D022260A0FFF7A4F887
:1010C00090B95FA200214B48FFF7E2FC81B268A211
:1010D0004848FFF7DDFC444A81B2921D4548FFF7BE
:1010E000CAFC81B265A207E0681DFFF737FA054622
:1010F000FF2806D1654A00213E48FFF7C9FC85B2AA
:101100001AE020214046FFF767F9012D07D1CAF800
:10111000989140214046FFF75FF9012407E035B977
:10112000CAF8989140214046FFF758F9002421461B
:101130003048FFF767FE05462E48FFF761FD294658
:101140002C48FFF789FD63E7FFE7112884D196F863
:101150002400042893D196F82500B0288FD196F862
:1011600027000838C5B223482A3000F009F90028C2
:1011700037D0002009E0401CC0B2311891F82A1085
:101180002C2902D1401CC0B201E0A842F3D30228AE
:1011900007D3ED1EA84204DC304490F82B103D2903
:1011A00001D03BA110E090F82A1074290BD190F8DF
:1011B0002C00312801D139A106E0302801D03F2888
:1011C00001D137A100E037A101A8FEF7F8FF01A87F
:1011D000FFF760F8C2B27B8801A90648FFF7D4FD8B
:1011E00016E734A1F0E700002200002000180140BB
:1011F0000000234244000020474554200000000026
:10120000485454502F312E3020323030204F4B0D67
:101210000A436F6E74656E742D547970653A20744C
:101220006578742F68746D6C0D0A0D0A3C68313E48
:10123000323030204F4B3C2F68313E002F200000D1
:10124000485454502F312E3020323030204F4B0D27
:101250000A436F6E74656E742D547970653A20740C
:101260006578742F68746D6C0D0A0D0A000000001B
:101270003C703E55736167653A200000706173737E
:10128000776F72643C2F703E000000009C130008D2
:10129000653D6E6F5F636D6400000000743D31005A
:1012A000743D3000653D6E6F5F737563685F636D9D
:1012B00064000000653D696E76616C69645F7077FB
:1012C00000000000094808494160094901600168BF
:1012D0008903FCD501688901FCD54168C1F381010E
:1012E0000229FAD17047000002841D00001002405C
:1012F0008200010110B517488269174942F00402C3
:101300008261164A1160002151608469144B44F0D7
:1013100008048461C2F80034C2F80414826942F0FF
:10132000100282610F4A11604FF4403353608369A9
:1013300043F020038361C2F80014C2F804148469E6
:101340004FF04C7344F040048461C2F80038C2F896
:10135000041810BD001002400400303400080140A1
:10136000330030000010014000B50449122008602D
:10137000FFF7A8FF5DF804EBFFF7BCBF00200240B9
:1013800010B5014603220448FEF73EFF08B90120CC
:1013900010BD002010BD00001E0000204854545015
:1013A0002F312E302034303120556E617574686FC6
:1013B00072697A65640D0A436F6E74656E742D549C
:1013C0007970653A20746578742F68746D6C0D0AB5
:1013D0000D0A3C68313E34303120556E61757468B9
:1013E0006F72697A65643C2F68313E000C14000806
:1013F00000000020440000002801000850140008EC
:10140000440000204408000044010008500A000085
:1014100000000000000000000000000000000000CC
:1014200000005000B004C0A801643838380054559A
:1014300058100024687474703A2F2F3139322E31CD
:1014400036382E312E3130302F00000000000000E1
:04000005080000ED02
:00000001FF
