:020000040800F2
:10000000F8EF01205D020008B9280108E5F40008B6
:1000100041280108152D0008F9AC01080000000076
:10002000000000000000000000000000D99001085E
:100030000D6D000800000000331E0008A93D0108F6
:1000400077020008770200087702000877020008AC
:10005000770200087702000877020008770200089C
:10006000770200087702000877020008770200088C
:10007000770200087702000877020008770200087C
:1000800077020008770200082121000877020008A3
:10009000770200087702000877020008770200085C
:1000A000770200087702000877020008770200084C
:1000B000770200087702000877020008770200083C
:1000C000770200087702000877020008770200082C
:1000D0007702000859A90108770200087702000892
:1000E000770200087702000877020008770200080C
:1000F000B597010877020008770200087702000828
:10010000770200088177010877020008770200086B
:1001100077020008770200087702000877020008DB
:10012000770200087702000877020008F93A000811
:1001300077020008770200087702000877020008BB
:1001400077020008770200087702000877020008AB
:10015000770200087702000877020008770200089B
:10016000770200087702000877020008770200088B
:10017000770200087702000877020008770200087B
:1001800077020008770200084B1C012B98BF7047CC
:100190002DE9F003911C9B08B1F80480B1F802909E
:1001A0000A8831F802CC8044814402448444D9F85E
:1001B0000070D8F800601568DCF80040C9F80060ED
:1001C000C8F80070CCF800501460D9F80470D8F862
:1001D00004605568DCF80440C9F80460C8F804708D
:1001E000CCF80450546008315B1ED5D1BDE8F00353
:1001F00070474B1C012B98BF70472DE9F003911CF1
:100200009B08B1F80480B1F802900A8831F802CC5A
:1002100000EB580800EB590900EB520200EB5C0CB4
:10022000D9F80070D8F800601568DCF80040C9F80B
:100230000060C8F80070CCF80050146008315B1EF4
:10024000DFD1BDE8F0037047DFF80CD001F024FDEA
:1002500000480047A1880208F8EF012006488047BF
:1002600006480047FEE7FEE7FEE7FEE7FEE7FEE79B
:10027000FEE7FEE7FEE7FEE7E1920108490200081B
:1002800072B6704762B67047EFF3108072B670476F
:1002900080F31088704730BF704720BF7047B0FAB6
:1002A00080F0704790FAA0F0B0FA80F0704790FAB2
:1002B000A0F070479FED3D0A5FEA920C57D000BF57
:1002C000D0ED000A90ED011A0B1D60EEA00A083077
:1002D00041EE010AF5EEC00AF1EE10FAC6BFB1EE2A
:1002E000E01A81ED001A81ED000AD0ED000A90EDD0
:1002F000011A191D60EEA00A083041EE010AF5EE60
:10030000C00AF1EE10FAC6BFB1EEE01A83ED001A92
:1003100083ED000AD0ED000A90ED011A0B1D60EE8E
:10032000A00A083041EE010AF5EEC00AF1EE10FA1B
:10033000C6BFB1EEE01A81ED001A81ED000A90ED22
:10034000001AD0ED010A191D21EE011A083000EE45
:10035000A01AB5EEC01AF1EE10FAC6BFF1EEC10A4E
:10036000C3ED000A83ED000ABCF1010CA8D112F024
:10037000030208BF704700BFD0ED000A90ED011ADC
:100380000B4660EEA00A091D083041EE010AF5EEA9
:10039000C00AF1EE10FAC6BFB1EEE01A83ED001A02
:1003A00083ED000A521EE7D17047000000000000F4
:1003B0002DE9F00F6FF003042DED0C8B5FEAD30AEB
:1003C000D0E901C7B0F8009004EB89040CEB0408F5
:1003D0009FEDFE9A18BF4FEAD90B00F0C18100BF14
:1003E00091ED000AB0EE493A88ED000A91ED010A5C
:1003F000F0EE430A88ED010A91ED020AB0EE431ACD
:1004000088ED020A91ED030AF0EE431A88ED030A23
:1004100091ED040AB0EE432A88ED040A91ED050A35
:10042000F0EE432A88ED050A91ED060AF0EE433A14
:1004300088ED060A91ED070A203188ED070ADCED08
:10044000007A9CED017ADCED026A9CED036ADCED3A
:10045000045A9CED055ADCED064AB0EE434A3D468F
:100460000CF11C0408F120085FEA0B0600F026815D
:10047000D5ED008A94ED008A26EE280A65EEA89A4A
:1004800025EE28AA27EEA8BA64EEA8AA67EE28BA35
:1004900026EEA8CA68EE28CAD5ED018A32EE000A17
:1004A00032EEA92A73EE0A2A30EE8BBA33EEAA3A5C
:1004B000D5ED020A74EE2C3A71EE8C1AD4ED017A65
:1004C00031EE2B1A27EE28DA26EEA8CA66EE28BAF5
:1004D00025EEA84A65EE289A24EEA8AA68EE28AA76
:1004E00067EEA8CA94ED027A7BEE0D8A31EE0C1A03
:1004F00071EEAB1A30EE040A32EE292A72EE8A2A25
:1005000033EE2A3A73EEAC3A66EEA0CA66EE20BA33
:1005100065EEA09A25EE20AA24EEA04A68EE20AA55
:1005200027EEA0BA27EE20CAD5ED030AD4ED036A60
:1005300030EE0A0A32EE042A78EEAC8A31EE2B1A3B
:1005400071EEA91A72EEAA2A33EE0B3A73EE8C3AC8
:1005500066EE20CA65EEA0BA65EE209A24EEA04AA7
:1005600028EE20AA67EEA0AA27EE20BA26EEA0CA9F
:10057000D5ED040A78EEAC8A31EE2B1A71EEA91A89
:1005800030EE040A32EE0A2A72EEAA2A33EE0B3A51
:1005900073EE8C3A65EEA0CA94ED046A65EE20BA5B
:1005A00024EEA0BA28EE204A67EEA09A27EE20AAF1
:1005B00066EEA0AA26EE20CAD5ED050AD4ED055AAE
:1005C00031EE2B1A71EE8B1A78EEAC8A30EE040AFB
:1005D00032EE292A72EE8A2A33EE2A3A73EE8C3AE8
:1005E00065EE20CA24EEA0BA68EE20BA27EEA04A33
:1005F00067EE209A26EEA0AA66EE20AA25EEA0CAF3
:10060000D5ED060A30EE040A32EE292A27EE204AFA
:1006100094ED065A72EE8A2A66EEA09A78EEAC8ABB
:1006200031EE0B1A71EEAB1A33EE2A3A73EE8C3AB6
:1006300026EE20AA65EEA0AA64EEA0BA28EE20CA93
:1006400027EEA0BA65EE20CAD5ED070A30EE040AFF
:1006500032EE294A72EE8A9A33EE2AAAD4ED074A7C
:1006600031EE0C1A78EEAB8A28EE20CA71EE8B1AA6
:1006700073EEACAA66EE202A67EEA0BA27EE20BA87
:1006800026EEA02A25EEA03A65EE203A24EEA08AB6
:1006900074EE222A78EE8C0A31EE2B1A71EE8B1A48
:1006A00030EE022A39EE833A7AEE233A3AEE884A5D
:1006B00020342035761E7FF4DBAE00BF19F007062C
:1006C00036D000BF95ED008A94ED000A241D67EE38
:1006D000889A67EE088A26EE88AA66EE08AA25EEB2
:1006E00088BA65EE08BA24EE88CA20EE088AF0EED1
:1006F000477AB0EE667AF0EE466AB0EE656AF0EEE2
:10070000455A70EEA90A31EE281A71EE8A1A32EEB5
:100710002A2A72EE8B2A33EE2B3A73EE8C3A34EEA1
:10072000084AB0EE645A2D1DF0EE404A761EC9D13B
:10073000C2ED000A82ED011AC2ED021A82ED032A0F
:10074000C2ED042A82ED053AC2ED063A82ED074A6F
:100750002032BAF1010A0CF1200C7FF441AE00BF47
:1007600013F0070A43D000BFB1EC010A3E1D0CF1A3
:100770000404B9F10103A8EC010ADCED000A97EDCD
:10078000001AB0EE490A00EE810A29D0B3F1004FF9
:100790007DD2002B24DD251F341F13F0010F07D05D
:1007A000D5ED010A94ED011A241D2D1D00EE810ADC
:1007B0005B1015D0D5ED010A94ED011A00EE810A07
:1007C000D5ED020A94ED021A02E0000000000000DC
:1007D00000EE810A5B1E04F1080405F10805E9D169
:1007E000A2EC010ABAF1010A0CF1040CBCD1406878
:1007F000A9F10104A3081FD0B3F1004F54D2002B7C
:100800001ADD624601461D4692ED000A81ED000A9E
:1008100092ED010A81ED010A92ED020A81ED020AD0
:1008200092ED030A103281ED030A10316D1EEBD1F7
:100830000CEB031C00EB031014F0030202BFBDEC31
:100840000C8BBDE8F00F7047B2F1004F42D2002A86
:100850001ADD001FACF1040112F0010F05D091ED7B
:10086000010A80ED010A001D091D52080CD000BFCD
:1008700091ED010A80ED010A91ED020A083180ED47
:10088000020A0830521EF3D1BDEC0C8B00E002E0EE
:10089000BDE8F00F7047F4EC010A5B1EB6EC011ADC
:1008A00000EE810AF7D19BE79CED000A80ED000A7B
:1008B0009CED010A80ED010A9CED020A80ED020A1E
:1008C0009CED030A0CF1100C80ED030A10305B1E46
:1008D000EAD1B1E7BCEC010A521EA0EC010AF9D141
:1008E000D2E770B504460498218008448000011FB7
:1008F0001D461846A26000F0B7FF656070BD91ED1F
:10090000000AD1ED010AD0F814C030EE001A70EEE2
:10091000A00A0088B6EE000A431E71EE201A71EE9E
:10092000600A0CF1080001EBC30C61EE801A60EE66
:10093000800A0831C2ED001AC2ED010A08329CEDAE
:10094000003A91ED001ADCED010AD1ED011A73EEC7
:10095000413AD0ED002A90ED012A30EEA14A62EE34
:10096000A34A31EE031A62EE233A71EEE00A22EE58
:10097000042A31EE241A62EE842A70EEA30A0830AB
:1009800031EE021A083170EEE20AACF1080C21EEE9
:10099000001A60EE800A82ED001AC2ED010A0832E8
:1009A0005B1ECCD17047D1ED000A91ED011AD0F851
:1009B00014C0008870EE811A70EEC10AB6EE000A0B
:1009C000431E61EE801A60EE800A0CF10800C2ED51
:1009D000001AC2ED010A01EBC30C01F1080102F19A
:1009E000080208BF7047DCED010A9CED003A91ED6A
:1009F000002A91ED011A90ED004A72EE431AD0EDF3
:100A0000013A71EE202A32EE032A64EE214A63EEA7
:100A1000A11A71EE600A23EEA25A32EE642A64EE45
:100A2000222A70EEA10A083032EE452A083170EE13
:100A3000E20AACF1080C22EE002A60EE800A82ED98
:100A4000002AC2ED010A08325B1ECCD170472DE9A5
:100A5000F0410446008A1D004FEA500016460F463A
:100A600020800AD02046FFF79EFF2A4631462046C6
:100A7000BDE8F041012300F08BBB01232A4620464C
:100A800000F086FB324639462046BDE8F04136E7A5
:100A90004A08002302800182B2F5807F31D008DC51
:100AA000102A4FD0202A45D0402A3BD0802A31D06E
:100AB00008E0B2F5007F1BD0B2F5806F0FD0B2F521
:100AC000006F03D04FF0FF33184670474FF46E624B
:100AD0008281214A8260214A2149426039E04FF4F3
:100AE000E16282811F4A82601F4A2049426030E0F1
:100AF0004FF4E07282811E4A82601E4A1E494260A3
:100B000027E04FF4DC7282811C4A82601C4A1D4936
:100B100042601EE0D02282811B4A82601B4A1C492F
:100B2000426016E0382282811A4A82601A4A1B49C2
:100B300042600EE030228281194A8260194A1A49C5
:100B4000426006E014228281184A8260184A1949DC
:100B500042604161B8E7000044140408ACBC0308DB
:100B60008471040834060408AC9C0308845104080A
:100B7000B4020408AC8C03088441040844FF030851
:100B8000AC84030884390408A4FD0308AC8003087E
:100B90008435040834FD0308AC7E0308843304085C
:100BA000D4FC0308AC7D030884320408ACFC0308C1
:100BB0002C7D0308043204082DE9F04106462DED92
:100BC000028B8C460088736801EB80044508274639
:100BD00001EB850004EB85025FEA95087DD000BF3C
:100BE000D1ED003AD4ED001A91ED012A94ED013ACD
:100BF00073EEA16A91ED024A91ED031AD4ED022A37
:100C0000D4ED035A90ED008A90ED017A90ED020A3E
:100C100090ED036A92ED005AD2ED014AD2ED027ACC
:100C2000D2ED030AC1ED006A72EE036A73EEE13A97
:100C300074EEC71AC1ED016A74EE226A74EE622A7C
:100C400037EEC04AC1ED026A71EE256AC1ED036A52
:100C500072EE436A31EE652A38EE051A35EE483AEF
:100C600080ED001A37EE241A80ED011A30EE271AB3
:100C700080ED021A36EE201A80ED031A30EEC61A05
:100C800093ED000AD3ED010A63EE804A26EEA05AE6
:100C900066EE805A63EEA03A74EE854A75EEE33A4A
:100CA000C4ED004A63EE204AC4ED013A61EE803A99
:100CB00061EEA00A23EE000A74EEE31A30EE800A19
:100CC000C2ED001A82ED010A93ED020AD3ED030A88
:100CD00062EE803A22EE203A00E024E062EEA01AB2
:100CE00022EE002A73EE832A1030103172EE611A60
:100CF000C4ED022A24EE202AC4ED031A61EE001A84
:100D000061EE200A24EE000A103332EE611A10342C
:100D100030EE800A82ED021A82ED030A1032B8F139
:100D200001087FF45DAF294602236046726800F037
:100D3000D5FA72682946BDEC028B3846BDE8F04111
:100D4000022300F0CBBA2DE9F34F2DED048B87B0D1
:100D50000B980088470801EB870000EB870606EB3D
:100D60008705CDE90056DDF82C80A5F1040C0CEBCD
:100D70008703CDE902014FEA5709D8F80480042718
:100D8000CDE90497D1ED000A96ED000A90ED011A25
:100D900095ED013A70EE802A70EEC03AD1ED010A6D
:100DA00096ED010A041F321F30EE802A70EEC01A41
:100DB00031EE230AD0ED000A32EE415A33EEC11A69
:100DC00030EE434A71EEE04A95ED000A70EEA11A4A
:100DD00035EE435A74EE805A72EEE04A70EEA20A83
:100DE00071EEC01A31EE031A74EEC04A30EE800A7A
:100DF000062708F1080A81ED000A90ED010AD5EDF9
:100E0000010A08F1100B30EE020A08F1180830EE62
:100E1000200A81ED010A80ED004AC0ED015AC6EDBD
:100E2000004A86ED015A85ED001AC5ED011ADDF87C
:100E300010900830083108350836A9F102095FEA38
:100E4000590900F0078100BFD1ED000A96ED000AB4
:100E5000D0ED011AD5ED014A30EE802A30EEC05AAD
:100E6000D1ED010A96ED010A70EE802A30EEC01A2B
:100E700031EE850AD5ED000A30EE644A90ED000AA5
:100E800031EE403A30EE011A73EE205A32EE403A1B
:100E900030EE020A31EE601A73EE603A30EE200A4C
:100EA00032EEE13A75EE611A81ED000A90ED010A29
:100EB000D5ED010A33EE643A30EE220A71EEA41A3F
:100EC00030EE200A81ED010AD4ED002ADCED004A63
:100ED00054ED010A1CED010A32EEA47A32EEE49AD6
:100EE00072EEE42A52ED018A70EE807A30EEC02A6A
:100EF00072EEE82AD2ED000A93ED000A13ED018AA2
:100F000030EEC05A72EE886A77EEE82A35EE026A51
:100F100032EEC85A77EE602A72EEC04A70EEC02AEE
:100F200070EE870A72EEC22A30EE800A38EE682A26
:100F300084ED000A12ED010A53ED010A32EE492A4E
:100F400030EE270A30EE200A04ED010A9AED000A7D
:100F5000DAED010A64EE007A25EEA07A65EE805A99
:100F600024EE204A37EE877A35EEC44A80ED007AC7
:100F700080ED014A26EEA04A66EE005A66EE200A8F
:100F800026EE800A083034EE654A083130EE800AD9
:100F900082ED004A083C02ED010A9BED000ADBED00
:100FA000010ADDF814E023EE804A63EE205A23EEB6
:100FB000003A63EEA03A083A34EE254A0BEB8E0B6A
:100FC00033EE633A86ED004A0AF1080A86ED013AEB
:100FD000B1EE643A083663EE003A25EE203A25EE8B
:100FE000000A64EEA00A33EEC33A30EEC00A8CED7C
:100FF000003A0CED010A98ED000AD8ED010A08EB61
:10100000870861EE803A21EE203A21EE001A61EE67
:10101000A01AACF1080C33EE833A31EE611A85ED7B
:10102000003A62EE801A85ED011A22EE201A62EE75
:10103000A00A22EE000A083531EE611A30EE800A6D
:1010400083ED001A03ED010A083BB9F101097FF4B1
:10105000FBAE00BFD1ED000A96ED000A91ED011A3A
:10106000D0ED015A30EE802A70EEC00A96ED010AEA
:1010700095ED015A042371EE001A71EE404A35EEE7
:10108000A00A90ED001A31EEE54A70EEE50A30EE66
:10109000453A95ED000A34EE454A30EE855A74EE35
:1010A000C12A72EE413A71EE240A31EE021A72EE52
:1010B000802A73EEC03A70EEC00A31EE000A81ED6C
:1010C000000A90ED010A95ED011A30EE210A30EE8A
:1010D000010A81ED010A9AED000A9AED011A63EE08
:1010E000001A22EE812A22EE800A23EE011A71EE06
:1010F000821A30EE410AC0ED001A80ED010A9BED24
:10110000000A9BED011A63EE801A24EE012A24EEF8
:10111000000A23EE811A71EE821A30EE410AC6ED02
:10112000001A86ED010A98ED010A98ED001A60EEAA
:10113000801A25EE012A60EE810A25EE000A32EEC1
:10114000211A30EEC00A85ED001A85ED010A0B98D0
:101150004268DDE9030100F0C1F80B98042304990B
:101160004268029800F0BAF80B9804230499426888
:10117000019800F0B3F80B98049904234268009892
:1011800007B0BDEC048B02B0BDE8F04F00F0A6B88C
:101190002DE9F0410488984617460D460646012A77
:1011A00020D1281DF4B1A0F1080114F0010F06D0E0
:1011B00091ED020AB1EE400A81ED020A08315FEAC0
:1011C000540C0FD091ED020AB1EE400A81ED020AF3
:1011D00091ED040AB1EE400A81ED040A1031BCF130
:1011E000010CEFD1B4F5807F1BD008DC102C13D09C
:1011F000202C16D0402C19D0802C0DD01CE0B4F53A
:10120000007F13D0B4F5806F06D0B4F5006F08D01E
:10121000B4F5805F0AD00FE029463046FFF7CCFCDA
:101220000AE029463046FFF78EFD05E021460123FE
:101230002846726800F052F8B8F1000F04D0B18966
:101240002846B268FEF7A0FF012F18BFBDE8F08165
:1012500000EE104AB7EE001A002CF8EE400A81EEBC
:10126000200A08BFBDE8F081A5F1080014F0010FC5
:101270000ED0D0ED020A60EE800AC0ED020AD0ED79
:10128000030AF1EE600A60EE800AC0ED030A08303E
:10129000610808BFBDE8F081D0ED020A60EE800A67
:1012A000C0ED020AD0ED030AF1EE600A60EE800A9A
:1012B000C0ED030AD0ED040A60EE800AC0ED040A16
:1012C000D0ED050AF1EE600A60EE800AC0ED050A75
:1012D0001030491EE0D1BDE8F08100002DE9FF4F3C
:1012E0002DED108B82B09FEDFEFA0B461C46DB08FD
:1012F0004FF0000C0CEB030505EB030808EB0309AA
:1013000009EB030606EB030A00EBCC0700EBC6066D
:1013100097ED001AD6ED000A0AEB030B00EBC505AA
:1013200000EBCA0A31EE200A71EE601A95ED002A30
:10133000DAED000A0BEB030E00EBC80832EE201AC0
:1013400000EBCB0B32EE602AD8ED002ADBED000A71
:1013500000EBC90900EBCE0E99ED003A9EED004A74
:1013600072EEA03A72EEE02A73EE040A33EE443ACB
:1013700070EE636A70EE233A31EE600A71EE200A75
:1013800033EEA01A73EEE00A87ED001AC6ED000AEC
:1013900097ED011AD6ED010AD5ED013A98ED014A13
:1013A00031EE206A71EE600A9AED011A99ED015A48
:1013B00073EE814A73EEC13A9BED011A34EE017A65
:1013C00034EE411A9EED014A75EE045A35EE444A58
:1013D00036EE475A36EE076A34EEE57A74EEA54AE1
:1013E00076EE245A76EE644AC7ED015AC6ED014AFC
:1013F00076EE874AC8ED004A76EEC74ACBED004A42
:1014000075EE404A35EE000AC8ED014A8BED010A3F
:1014100032EE430A32EE032A20EE0F0A62EE0F4A42
:1014200033EEC42AA4448C4522EE0F3A33EE842ACC
:1014300030EEC34A62EE0F3A30EE833A31EEC02A04
:1014400031EE800A71EE630A31EE231A72EEE41A6D
:1014500072EEA42A70EE013A30EE410AC5ED003A70
:101460008EED000A32EE200A8AED000A32EE600AA2
:1014700089ED000A33EE620A85ED010A33EE220A95
:101480008EED010A34EE610A8AED010A34EE210A7A
:1014900089ED010AFFF42EAF082B3FBF02B0BDEC6F
:1014A000108B04B0BDE8F08F4FF0000CCDF804C0F5
:1014B0004FF0010CCDF800C0DDF804C0159DAC4420
:1014C0004FEA8C0505EB0C07CDF804C007EB0C09BF
:1014D0004FEA4C0808EB0C0609EB0C0A02EBCC0CAB
:1014E00002EBC80802EBC60602EBC50502EBC70714
:1014F00002EBC90902EBCA0A9CED00DA9CED018AF5
:10150000D8ED00CA96ED00CAD5ED00BA97ED00BA45
:10151000D9ED00AADAED008AD8ED017A96ED01AA9C
:1015200095ED017AD7ED016A99ED016ADAED019A3C
:10153000DDF800C00CEB0307FD1805EB030A0AEB0E
:10154000030808EB030606EB030B00EBCC0900EBEA
:10155000C808D9ED000A98ED000A00EBC70700EBB8
:10156000C606D7ED001A96ED001A70EE803A0BEB26
:10157000030E70EEC00A31EE810A00EBC50500EBE8
:10158000CB0B31EEC11AD5ED001A9BED002A00EB12
:10159000CA0A00EBCE0E31EE824A71EEC21A9AED03
:1015A000002ADEED002A32EE223A32EE622A73EE93
:1015B000C42A73EE843A30EE435A30EE030A33EE17
:1015C000803A73EEC0DA89ED003A99ED010A98EDA0
:1015D000013AD7ED013A95ED014A70EE03EA30EE9B
:1015E000433A96ED010A9AED01EADEED014A33EE47
:1015F000809A73EEC03A9BED010A74EE005A34EE05
:10160000404A3EEE240A7EEE644A3EEEE5EA7EEE75
:10161000A55A79EE40EA39EE009A32EEAE0A72EE41
:10162000EE2A75EE89EA35EEC99A7EEE455AC9ED85
:1016300001EA3EEE055A2BEEADEA67EE09EA2BEE23
:10164000899A67EE2DDA3EEE2EEA39EE6D9A88ED34
:1016500000EA67EEA5DA88ED019A2CEE809A6CEE2E
:10166000A55A27EE800A39EE2D9A35EEC00A85ED8F
:10167000009A66EE055A85ED010A2AEEA20A2AEEC4
:10168000855A66EE222A30EE250A8BED000A35EEE9
:10169000620A73EEA42A8BED010A31EE420A31EEA2
:1016A000021A33EEE42A62EE8F3A20EE0F0A21EEA0
:1016B0000F1A22EE0F2A70EEC02A30EE800A71EE69
:1016C000C10A71EE811A33EE421A33EE022A34EE69
:1016D000633A34EE234A70EE043A30EE444A01E0B5
:1016E000F304353F72EE834A72EEC32A32EE613A5A
:1016F00032EE210A71EE601A71EE200A2DEE232AD5
:1017000028EE031A2DEE033A68EE233AA44432EE93
:10171000011A28EE842A8C4587ED001A33EE631AED
:1017200029EE843A87ED011A29EE801A28EE800A04
:1017300032EE011A30EE430A26EEA42A8EED001A8C
:101740008EED010A2BEE240A26EEA11A6BEE211A69
:1017500030EE010A2CEE221A86ED000A31EEC20AA2
:101760006AEE221A86ED010A2AEE200A6CEE200AA1
:1017700031EE000A8AED000A30EEE10A8AED010A34
:10178000FFF4D8AEDDF800C00CF1010CCDF800C0BC
:1017900063453FF691AEDDF854C04FF6FF7404EA9E
:1017A000CC0CCDF854C0072B3FF6A0AD02B0BDEC79
:1017B000108B04B0BDE8F08F2DE9F05F05460020E6
:1017C00092469B4688460646814640241BE02846B2
:1017D00041464746224600F09AF853465A46C01AF8
:1017E000914110D311461846224600F081F82D1A77
:1017F00067EB01084F4622460120002100F078F8EF
:1018000017EB00094E41201EA4F10104DFDC48461D
:1018100031462A464346BDE8F09F10B5431A93422D
:1018200009D28318881803E010F8011D03F8011D80
:10183000521EF9D210BD40EA01039B0703D009E014
:1018400008C9121F08C0042AFAD203E011F8013BAC
:1018500000F8013B521EF9D210BDD2B201E000F8EF
:10186000012B491EFBD270470022F6E710B5134644
:101870000A4604461946FFF7F0FF204610BD421CF9
:1018800010F8011B0029FBD1801A7047034611F89C
:10189000012B00F8012B002AF9D11846704700F0FF
:1018A000004230F000400AD0C10D01F56071C0F374
:1018B000160042EA0151C208400711437047002058
:1018C0000146704730B50B46014600202022012416
:1018D00009E021FA02F59D4205D303FA02F5491BFE
:1018E00004FA02F52844151EA2F10102F1DC30BD14
:1018F000202A04DB203A00FA02F1002070479140D0
:10190000C2F1200320FA03F3194390407047202AC4
:1019100004DB203A21FA02F00021704721FA02F399
:10192000D040C2F1200291400843194670472DE98A
:10193000FE4F804681EA0300C00F0C46009021F064
:10194000004123F00045B8EB0200A94105D2404612
:10195000214690461C460B46024623F000401043A9
:1019600004D14046214603B0BDE8F08F270DC7F3F0
:101970000A00C3F30A510290401A0190402866DA27
:10198000C3F3130040F4801B0098924620B100235B
:10199000D2EB030A63EB0B0B01985946C0F14002EE
:1019A0005046FFF7A5FF06460D4650465946019A98
:1019B00000F084F910EB08006141002487EA11521D
:1019C00084EAE7731A433BD0009A3AB3019A012A9A
:1019D0004FEA075210DC001B61EB02014FF000429E
:1019E00002EA0752CDE90042001C41F5801132465F
:1019F0002B4600F082F9B6E7001B61EB0201001CE8
:101A000041F5801300185B412018A2F5001747EB41
:101A1000030140EAD570B6196D4111E06D084FEA37
:101A2000360645EAC0754FEA0752001B61EB02011A
:101A3000001C41F5801149084FEA3000001951415E
:101A400032462B4603B0BDE8F04F00F049B900988C
:101A5000012240000023D0EB020263EBE073009808
:101A600021464FEAE074B8EB000061EB0401E9E7BE
:101A700083F000435BE781F0004158E72DE9FE4F1A
:101A800081EA030404F0004421F0004100944FF087
:101A9000000B23F0004350EA010402D052EA030491
:101AA00004D10020014603B0BDE8F08FC3F30A540F
:101AB000C1F30A552C44A4F2F3340194A0FB025460
:101AC000C1F3130141F48011C3F3130343F48013F2
:101AD00001FB024400FB034E840A970A44EA815446
:101AE00047EA8357A4FB076802958D0A05FB078523
:101AF0004FEA932C04FB0C542705029D4FEA06582D
:101B000047EA1637B5EB08056EEB070C870E920E09
:101B100047EA811742EA8312A7FB0201B6EB0B01E9
:101B200064EB00042B0D43EA0C335E1844EB1C50AD
:101B3000DA465146E7FB0201C5F313044FEA0B33C3
:101B400043EA14534FEA0432019C43EA0603A4F12A
:101B50000C040294009CCDE900B400F0CEF8A2E79A
:101B60002DE9F04D81EA030404F0004B21F000451B
:101B700014464FF0000A23F0004150EA050220D03D
:101B800054EA01021DD0C5F30A570246C5F31303F8
:101B9000C1F31300C1F30A5640F4801543F48013D7
:101BA000A7EB0608101BD64608F2FD3873EB0500BC
:101BB00002D308F1010801E092185B41B8F1000F6F
:101BC00003DA00200146BDE8F08D00204FF48011BB
:101BD000064684460EE0171B73EB050705D3121B60
:101BE00063EB050306434CEA010C49084FEA300059
:101BF00092185B4150EA0107EDD152EA030012D07E
:101C000082EA040083EA0501084303D100224FF071
:101C1000004308E0101BAB4102D20122002302E086
:101C20006FF0010253101AEB06004CEB085110EB59
:101C30000A0041EB0B01BDE8F04D00F051B8C1F3D3
:101C40000A52C1F3130140F2FF3341F480119A426A
:101C500002DA00200146704740F233439A42A2F272
:101C6000334202DC5242FFF752BEFFF741BE000092
:101C700030B5002904DB4FF00044404264EB010121
:101C8000002B04DB4FF00044524264EB0303994203
:101C900008BF904230BD0000064C074D06E0E068EA
:101CA00040F0010394E8070098471034AC42F6D3A3
:101CB000FEF7CEFA90BD0408B0BD0408202A06DB6A
:101CC000CB17203A41FA02F043EAE07306E041FA0A
:101CD00002F3D040C2F120029140084319467047F8
:101CE00010B5002B08DA401C41F1000192185B414D
:101CF0001A4301D120F0010010BD2DE9F04D9246AC
:101D00009B4611B1B1FA81F202E0B0FA80F22032C2
:101D10009046FFF7EDFD04460F4640EA0A0041EA0F
:101D20000B0153465A46084303D120463946BDE8C5
:101D3000F08D114653EA010015D0C8F1400250461B
:101D4000FFF7E5FD05460E46504659464246FFF769
:101D5000CFFD084301D0012000E00020054346EA02
:101D6000E0762C4337430A984FEA4453A0EB08002F
:101D70004FEAD4240A304FF0000244EA47544FEAB5
:101D8000D72502D500200146D1E701051019694188
:101D9000DDE9084500196941BDE8F04DA0E770B5DF
:101DA00001EB020410F8015B15F0070301D110F8F4
:101DB000013B2A1106D110F8012B03E010F8016B4A
:101DC00001F8016B5B1EF9D12B0705D40023521ECD
:101DD0000FD401F8013BFAE710F8013B02F10202CF
:101DE000A1EB030303E013F8015B01F8015B521E52
:101DF000F9D5A142D6D3002070BD000021484FF094
:101E0000FF010170002080F309881F48016881F3F9
:101E100008881E484FF08051016062B6FEE71B48FB
:101E20004FF080510160704718484FF080510160B9
:101E3000704772B6EFF3098050B11EF0100F08BF63
:101E400020ED108A734620E9F80F114909680860EF
:101E500000B5104880475DF804EB0F480F490A7839
:101E600002700B480E490A6802601068B0E8F80F6B
:101E70009E461EF0100F08BFB0EC108A80F3098850
:101E800062B6704722ED00E0E403002004ED00E0BC
:101E9000DC030020413A01087A0300207B03002084
:101EA000E00300200A4600214168024B194011431B
:101EB00041607047FFFD3FFF0A460021416821F065
:101EC0001F0111434160704741628262704721B136
:101ED000826842F00102826003E0826822F001021F
:101EE0008260704700210A4A11680A4A01EA020129
:101EF000D0E9002342EA0302836842EA0302C3688E
:101F000042EA030242EA0101034AC2F8041370479D
:101F100004230140E030FCFF0020014021B1826831
:101F200042F48072826003E0826822F480728260F0
:101F3000704721B1826842F40072826003E08268D7
:101F400022F400728260704710B500210E4817F02D
:101F500040FD00210D4801F0EDFD00210B4818382F
:101F600001F0E8FD00210948183001F0E3FD0021EF
:101F70000748FFF7ACFF00210648FFF7A8FF002144
:101F80000548FFF7A4FF10BD00000140286402408F
:101F900000200140002101400022014000B58FB027
:101FA000574801F0D3FD4FF08060009055480190F4
:101FB00055480290002003904FF4205004900020D8
:101FC00005904FF480600690400007900890C01084
:101FD000099040020A9000200B9001200C900020F4
:101FE0000D900E906946464801F084FE0121444858
:101FF00001F0A0FD4248183001F0A8FD4FF000703C
:1020000000904248019042480290002003904FF413
:1020100020500490002005904FF48060069040000E
:1020200007900890C010099040020A9000200B9081
:1020300001200C9000200D900E9069463048183019
:1020400001F058FE01212E48183001F073FD2C4894
:10205000183801F07BFD002000902E4801902E489A
:102060000290002003904FF420500490002005902F
:102070004FF480600690400007900890C0100990CF
:1020800040020A9000200B9001200C9000200D903F
:102090000E9069461A48183801F02CFE01211848A4
:1020A000183801F047FD002301220A2115484C3859
:1020B00000F0CEF8012113484C38FFF708FF002349
:1020C00001220A2111484C3800F0C2F801210F48C2
:1020D0004C38FFF7FCFE002301220A210D484C3842
:1020E00000F0B6F801210B484C38FFF7F0FE17F06E
:1020F00063FA0A48008808B118F0F8FB0FB000BD79
:10210000286402404C220140A4AD00204C21014033
:10211000A45D00204C200140A40D002010020020EE
:1021200023480068234908802348006810F0010F05
:102130003DD008460088B0F5205F04D11F480088D4
:102140001F49088015E01B480088A0F51C51FF3985
:1021500005D11A48801C00881949088009E01548F3
:10216000008842F2FE71081A164931F8100014492D
:1021700008801348008814490988884210DC1348F5
:10218000006820F040001249C1F804024FF001003D
:10219000104908801048008840F001000E4908806E
:1021A0000548006800F0FE000949C1F800027047C8
:1021B0002C6402404800002000220140A0FD0020C5
:1021C0004A000020A4AD002020020020042201408B
:1021D00000200140100200200004014010B50B4611
:1021E0000021D9B2012404FA01F11AB144680C4368
:1021F000446002E044688C43446010BD30B5024640
:10220000002000235068104C20400D790C6844EAEF
:1022100005242043506090680C4C2040D1E90354C1
:102220002C438D682C434D7944EA4504204390604B
:10223000D06A20F470000C7D641EE4B2234340EAAF
:102240000350D06230BD0000FFFEFFFCFDF7FFC071
:10225000F0B504460D4600200021092D11DDE0688F
:10226000A5F10A0606EB4607072606FA07F188439A
:10227000A5F10A0606EB460603FA06F10843E060FC
:102280000CE0206905EB4507072606FA07F18843AD
:1022900005EB450603FA06F108432061072A0FDA29
:1022A000606B561E06EB86071F2606FA07F1884369
:1022B000561E06EB860605FA06F10843606322E027
:1022C0000D2A0FDA206BD61F06EB86071F2606FAAB
:1022D00007F18843D61F06EB860605FA06F1084388
:1022E000206310E0E06AA2F10D0606EB86071F26C8
:1022F00006FA07F18843A2F10D0606EB860605FAF9
:1023000006F10843E062F0BD10B503A200210548C4
:1023100000F083F910BD000053454D5F53594E4303
:10232000480000007C0B002002E0024800F0A2F907
:10233000FBE7000040420F0000B58BB00AA8032164
:1023400000220592CDE9062108904FF40060CC21CF
:102350003C4B1B68CDE90131CDE903020320134654
:10236000394A3AA100903D48006810F0A7FF0AA83A
:10237000032100220592CDE90621089011464FF471
:1023800080626620364B1B68CDE90130CDE9032120
:1023900004200023334A34A100903748006810F02D
:1023A0008DFF0AA8032100220592CDE9062108909D
:1023B00010464FF480616622304B1B68CDE9013234
:1023C000CDE90310052000232D4A2EA100903148AD
:1023D000006810F073FF0AA8032100220592CDE9DE
:1023E0000621089001210A0340F299102A4B1B682C
:1023F000CDE90130CDE903213C200023274A28A163
:1024000000902B48006810F059FF0AA80321002211
:102410000592CDE90621089010464FF480616622AE
:10242000244B1B68CDE90132CDE903103B2000238A
:10243000214A22A100902648006810F03FFF0BB00F
:1024400000BD00000C000020ED2400084170702049
:102450005461736B2055706461746500080000203E
:102460001400002029230008417070205461736B10
:1024700020434F4D00000000100000201C000020F1
:10248000FD250008417070205461736B2055736501
:10249000724946001800002024000020D5240008BE
:1024A000417070205461736B204755490000000053
:1024B000200000202C000020DD2400084170702046
:1024C0005461736B204755495265667265736800A5
:1024D0002800002001E010F06BF9FCE705E0C820BF
:1024E00000F0C8F8022024F0DFFCF8E786B00025F1
:1024F00028E00021144800F0A1F80446012C21D165
:102500002A4612A1684621F03BF905A810F0C4FB49
:1025100013A025F043FB154908700A2269461448A8
:1025200025F01AFC114908701149124807F086FA83
:102530000F4825F023FB0D49087005A810F0E4FBB7
:10254000681CC5B2D5E700007C0B0020303A2F5044
:102550006963536176652F25642E626D70000000FB
:10256000303A2F506963536176650000B002002055
:102570000CB101201D36020808B5002400260025F4
:1025800000F0F0FF24F018F800F096F8684610F01C
:1025900013FEFFF7B9FEFFF7CFFE28E0144890F8CE
:1025A0002800012802D117F073FF16E011480078C7
:1025B000012807D1701CC6B20A2E0ED1002606F0E3
:1025C0001FFC0AE00C484078012806D1681CC5B2FF
:1025D0000A2D02D1002505F071FC601CC4B20A2C42
:1025E00002D1002424F034FC012000F043F8D5E7A8
:1025F000F4050120E80601200A07012002E0024854
:1026000000F038F8FBE7000040420F001FB56846B5
:1026100014F016FE019804B010BDF8B506460C463D
:1026200015466B4622462946304610F0B5FBBDF8EC
:10263000000008B10020F8BD0120FCE77CB505468C
:102640000C464FF47A70604309490968B0FBF1F613
:1026500001A800231A4631460090284610F0DCFB02
:10266000BDF8040008B100207CBD0120FCE700009B
:10267000DCE30208FEB5044642F21070844200D941
:102680000446B4F57A7F0BD34FF47A70B4FBF0F0C4
:1026900085B24FF47A70B4FBF0F100FB114601E013
:1026A000A5B2002602A800212B463246CDE9001033
:1026B000084611F059FAFEBD2DE9F041FFF7A6FFDB
:1026C000054614480068B5FBF0F42146481EB0F1F9
:1026D000807F00D31BE0481E4FF0E022506150176E
:1026E0000F22002807DA13071F0E0B4B00F00F060E
:1026F000361F9F5503E013071E0E084B1E5400BFE4
:1027000000204FF0E02290610720106100BFBDE87B
:10271000F0810000DCE3020818ED00E000E400E0D6
:1027200010B504462146512014F094FA10BD2DE94D
:10273000F04105460C4616461F46DDF81880E9B202
:10274000582014F087FA2912592014F083FAE1B2C4
:102750005A2014F07FFAB8F1000F04D121125B2047
:1027600014F078FA05E0802040EA24215B2014F080
:1027700071FAF9B25C2014F06DFA39125D2014F090
:1027800069FAF1B25E2014F065FA31125F2014F09C
:1027900061FABDE8F081000010B50120044908701D
:1027A000502014F0E7F9802014F006FA10BD000064
:1027B0007C00002010B5002406E014F02DF810F085
:1027C000400F00D103E0641C03488442F5D300BFEE
:1027D00000200249087010BDA08601007C00002086
:1027E00038B5446805460146204618F0A2FA00288C
:1027F00008BF38BD464A286811280DD006DC0B28D2
:102800002AD00E2838D00F2817D07CE0282873D083
:10281000B0F5107F0AD076E09268002A08BF38BD74
:10282000294601B02046BDE830401047526801B04B
:1028300029462046BDE8304010472546204606F090
:1028400021FF0090406E0468684606F0B3FF002C3C
:102850001CBF2846A04738BD204606F013FF009055
:10286000683006F011FE009803216C3006F03AFE45
:10287000684606F09FFF46E0E968486809680D2948
:1028800002D0202918D037E0002835DD4FF48071C0
:10289000204618F019FB204606F0F4FE009090F850
:1028A0002850684606F086FF15F0020F1ED0012161
:1028B000204619F092FE19E0002817DD25464FF456
:1028C0008071204618F000FB284606F0DBFE0090E1
:1028D00090F82840684606F06DFF14F0020F08BF1C
:1028E00038BD0121284619F078FE38BD2046BDE8E4
:1028F000384002211FF0A6B8E86820B920464FF4FE
:10290000807118F0FBF92846BDE8384018F0B8BDD2
:102910006004002030B585B04FF0000CDDE90845BB
:10292000CDE900C5CDE902C400F00EF805B030BD18
:1029300070B584B00026DDE9084C0A9D8DE8701062
:1029400000F002F804B070BD2DE9F04786B00646ED
:10295000DDE90E59884617469A46119C08F0F2FDAB
:102960004C201749CDE90210CDE9005953463A46AB
:102970004146304618F0C8FC05001BD006F082FE28
:1029800010222146049018F001FB0E4C0499B4E883
:10299000CD133431A1E8CD1394E80D10A1E80D104A
:1029A00054F82C0D086004A806F004FF2068416864
:1029B000284688470AF084FE06B02846BDE8F0871E
:1029C000E12700086C040020F0B5044680688C49BB
:1029D00089B051F820506068002800F00A8105286D
:1029E00006D006287DD0122800F0B48000F004B98B
:1029F000E869002808BF002651D0D5E90012AB686D
:102A00008DE80F0004F110010FC90BF03DFC00260A
:102A100055F826000AF0EDFAA169E8690A1A216959
:102A200001446069304408F017F8A169E8690A1A9E
:102A300021690144E069801B08F00EF8E169E8694A
:102A40000A1A616901442069304408F005FAE16915
:102A5000E8690A1A61690144A069801B08F0FCF961
:102A6000761C022ED4DBA8680AF0C3FAE069E96993
:102A7000D4F814C0431A206942186144801C521EC5
:102A800008F0D4FAE169E869A2690B1A61690144A6
:102A9000101A401C921E08F0C9FAEE6911E055F8B0
:102AA00026000AF0A6FAE069831BA069821B606910
:102AB00081192069304408F0B7F8761C022EEEDB4D
:102AC0000226D5E90301CDE90001E169606901440D
:102AD0004B10A1698A1B811C2069304407F0B2FEAB
:102AE00000E011E0D5E90501CDE90001E069616987
:102AF000831E01440122A06902EB6101821B20694F
:102B0000304407F09FFE77E0206806F0BBFD04909C
:102B100020681AF01FFE50B1A068002818BF0020DE
:102B20000AD10498006F002818BF012004E004981F
:102B3000406F002818BF0220049901EB8000C56E89
:102B400004A806F037FE00231A462846216807F03D
:102B50003DFA51E0206806F095FD0490866E002E47
:102B600008BF04A842D0A168B0F95C70002908BF72
:102B7000012103D003290CBF0221002100EB8101B8
:102B8000406D0C6C0AF04CFA20460AF032FA06A8A6
:102B900008F08EFBBDF81810A88B0144ADF8181092
:102BA000BDF81C10081AADF81C00BDF81A00801CF6
:102BB000ADF81A00BDF81E00801EADF81E00049886
:102BC000B0F96020B0F95E1006A809F009FE04A86B
:102BD00006F0F0FD02200AF08FFA304606F052FDB2
:102BE0003A4606A9059007F011FB05A806F0E2FD9C
:102BF00002E020681AF01EF809B00020F0BD0000C5
:102C0000B85E0308044A0349116004494A6A4862ED
:102C1000104670479C040020600400206C040020D3
:102C200000294FF0100101D018F04EB918F066B825
:102C3000002808BF704738B50C46054608F082FCEE
:102C4000284606F01FFD00904465684606F0B2FD78
:102C5000284619F00FFC0AF033FD38BD70B5054663
:102C60000C46104600210A4607F092F9024621461A
:102C70002846BDE8704000F02CB8F0B583B00F4690
:102C800005004FF0010421D008F05CFC284606F056
:102C9000F9FC0190866E01A8009606F08BFD39467E
:102CA00068460CF019F978B100980024B04208D0B9
:102CB000284606F0E7FC01900099816601A806F01D
:102CC00079FD284619F0D6FB0AF0FAFC03B020463D
:102CD000F0BD002808BF7047F8B515460C460646FB
:102CE00008F030FC304606F0CDFC0090032C0BD2EF
:102CF00000EB84006C3006F0C7FB009800EB84000A
:102D0000C566304619F0B6FB684606F053FD0AF07A
:102D1000D7FCF8BD00BFFEE72DE9F84F4468054633
:102D20000146204618F005F8002808BFBDE8F88FD6
:102D300028680B2873D00E2805D00F2823D0B0F5B3
:102D4000107F30D075E0204606F09CFC009090F893
:102D5000746090F87570684606F02CFD20461AF0F5
:102D6000F9FC002865D0E8684168002961DD006849
:102D700020285ED1781CB0FBF6F106FB110120463D
:102D800000F027FB55E02546204606F07BFC00902E
:102D9000006F0468684606F00DFD002C1CBF284635
:102DA000A047BDE8F88F26460027204606F06AFCBB
:102DB000009090F8749090F87580B0F930A0684653
:102DC00006F0F8FCEC6824B3304619F023FA20B181
:102DD0003946304619F001FC2BE0207A88B10121F8
:102DE000304619F0BBFD08F10100B0FBF9F109FB19
:102DF0001101304600F0EDFA0121304619F0EDFBEB
:102E000017E00221304619F0E8FB50460AF08CF931
:102E10000FE00321304619F0E0FB0AE0FFE720460F
:102E200006F030FC0090783006F02EFB684606F085
:102E3000C1FC2846BDE8F84F18F022BB70B586B03B
:102E4000B0F90840458AD0F818C00026CDE90254F0
:102E5000CDE90016CDF810C0B0F90C10B0F9104053
:102E6000B0F90EC0B0F90A00194410442346624676
:102E700000F002F806B070BD2DE9FF4F85B01D4689
:102E8000DDE912A7DDE9158916468B4608F05AFBE5
:102E9000264C0EB135B10AE0206880680068804792
:102EA000064625B9206880680068804705462048A6
:102EB0006FF07041C068884208BF47F0010709F110
:102EC00054011C48CDE900A7CDE902012B4632464A
:102ED0005946059818F018FA050021D006F0D2FBE3
:102EE00010224146049018F051F8241D0499B4E8CA
:102EF000CD133431A1E8CD1394E8CD11A1E8CD1163
:102F000054F8240D41F87009022081F874000F2054
:102F1000C86704A806F04EFC206841682846884728
:102F20000AF0CEFB09B02846BDE8F08FC0090020AA
:102F3000C4090020192D00082DE9F04F044600684F
:102F400089B028B11AF006FC002808BF012500D07E
:102F50000025FE4850F8256060680A2800F071815D
:102F600008DC002800F0DC8106283ED007280CD0C1
:102F700000F0E7B9122800F02F81192802BFB069CC
:102F800009B0BDE8F08F00F0DCB9256808F0DAFA86
:102F9000284606F077FB0090C76F684606F00AFCEB
:102FA0000AF08EFB5FF0000556F825000AF021F8C4
:102FB0002069C119491B4B1E61691A4629442844DE
:102FC00007F032FE6D1C032DEED3D6E90301CDE9E7
:102FD00000012069C119491B4B1E61691A46294429
:102FE000284407F02FFC00F0ACB9A068401E069002
:102FF000246808F0A7FA204606F044FB0090C46F4E
:10300000684606F0D7FB0AF05BFBDFF8449359F8FB
:103010002570002F1CBF069800EB80000DD000BF6C
:10302000B7F84810A14205D107EB8001896809B1C2
:103030001FB1C7E0FF6C002FF2D1502006F090FACC
:1030400007006AD0502200210BF0D4FF7069786429
:10305000A7F8484059F82500F864A4F10608BD48CF
:1030600049F8257080FB08104110A1EBE0700321A6
:1030700008910122CDF8088007F14001CDE9031243
:10308000069D05EB850107EB8101019105EB4501EB
:1030900007EB81012831009108EBD8714A104910E3
:1030A00001EBD173A1EB63010E18101A059008F122
:1030B0000700C11700EB51704FEAE00A0AFB08F461
:1030C000204606F04DFA8146224600210BF092FF81
:1030D000DDE9042001282BDD089901203446314424
:1030E000A14220DDD31702EB537E02F0070C8023B0
:1030F00023FA0CF3444509DA0AFB04FC0CEBEE0C52
:1031000019F80CB04BEA030B09F80CB06840641CCA
:10311000A14208DD0028F9D0ECE750218E4807F0E5
:10312000E3FE00F00EB90598521C761C9042D3DCE9
:1031300004990298401A0490904226DD089B0121D0
:103140003046334483421BDD4FEAE27C02EB5C7E77
:1031500002F0070C802424FA0CFC404509DA0AFB33
:1031600000F404EBEE0419F804B04BEA0C0B09F878
:1031700004B06940401C834202DD0029F9D0ECE72D
:103180000498521C761E9042D8DC009802210160FF
:10319000009901200871009A039991600199C880F3
:1031A00001980021A0F804A00198C0F808900198A7
:1031B0000161DDE90001C860DDE9010101800198DC
:1031C000A0F802800698032200EB800007EB800045
:1031D000114607F06FF9B4E0206806F053FA029048
:1031E000B0F9548090F85660D0F84490476B02A82C
:1031F00006F0E0FA256808F0A5F9284606F042FA3C
:103200000390B0F87C5003A806F0D4FA0AF058FAFC
:10321000684618F023FCBDF80000A9190844ADF871
:103220000000246A384609F0FBFE022009F064FF22
:10323000484609F0DEFE42466946204606F0E6FFB3
:103240007FE0206806F01EFA0290B0F9545090F822
:103250005680476B866C02A806F0ACFAD4F8009052
:1032600008F070F9484606F00DFA0390B0F87C902B
:1032700003A806F09FFA0AF023FA684618F0EEFB5E
:10328000BDF8000009EB08010844ADF80000206A11
:1032900008F088F80446384608F0AEF825F0030137
:1032A000042904BFBDF80610091A08D00C2908D15A
:1032B000BDF90610091A491C01EBD1714910ADF88E
:1032C000021025F00C0101290CD0022913D1BDF9FF
:1032D0000420BDF90010521A121B02EBD27201EB4E
:1032E000620106E0BDF80420BDF80010521A121B5E
:1032F0001144ADF80010BDF80010621E1144ADF885
:103300000410BDF80210401E0844ADF80600304617
:1033100009F06FFE4FF0FF31684607F045F910E005
:10332000206819F087FC206806F0ACF90790B0F926
:103330000610B0F90220891A491CC16707A806F0D7
:1033400039FA09B00020BDE8F08F0000C85E03081C
:103350006C0500206766666638BD040838B5050050
:103360004FF000040CD008F0EDF8284606F08AF97A
:10337000009090F87540684606F01CFA0AF0A0F933
:10338000204638BD044A034911600449CA69C8612E
:103390001046704728050020C0090020C4090020FD
:1033A000002808BF704738B50C46054608F0CAF833
:1033B000284606F067F90090416BA14203D04463B0
:1033C000284619F057F8684606F0F4F90AF078F93B
:1033D00038BD002808BF704738B50C46054608F0D0
:1033E000B1F8284606F04EF9009090F87410A1420A
:1033F0000CD980F87540684606F0DCF9284619F0CB
:1034000039F80521284619F0E8F802E0684606F088
:10341000D1F90AF055F938BD002814BF00297047CA
:1034200070B582B00D46044608F08CF8204606F0D0
:1034300029F90190866F01A8009606F0BBF929468C
:1034400068460BF049FD70B10098B04208D02046A4
:1034500006F018F901900099816701A806F0AAF911
:10346000204619F007F80AF02BF902B070BD0028C9
:1034700008BF704738B50C46054608F063F8284683
:1034800006F000F90090416CA14203D04464284644
:1034900018F0F0FF684606F08DF90AF011F938BD12
:1034A00000B589B000200090029003900490059030
:1034B00006900790089019200190044800688068E1
:1034C00041686846884709B000BD0000C009002077
:1034D00070B5234C054682B02068418CB0F84C2072
:1034E00011444184818CB0F85020114481842846D5
:1034F00007F0B8FE2168498CADF800104618284640
:103500000BF060FB3044401EADF8040007F016FFDE
:103510002168898CADF802100844401EADF8060001
:10352000684619F04DFF30B1284604F0BDFE19F091
:1035300071FD0028F8D10A2D04D0BDF804002168DF
:10354000401C48842068418CB0F84C20891A418482
:10355000818CB0F85020891A818402B070BD0000BF
:103560000004002010B500F01FF800F019F810BD9D
:1035700010B5002400BF00BFFCF786FE044600BF64
:1035800000BF102105480FF05DF900BF00BF2046C5
:10359000FCF77EFE00BF00BF10BD0000F0DB012085
:1035A00010B5FFF7E5FF10BD10B500200249086017
:1035B00000F00AF810BD000008030020014908606F
:1035C000704700000803002010B5FFF71FF80446FD
:1035D0000848006840F080700649086000200649ED
:1035E00048600846006840F0010008602046FFF788
:1035F000E5FF10BDFCED00E0001000E00149486867
:1036000070470000001000E070B50446049D581A91
:103610002E1B7043161B90FBF6F0084470BD70B56E
:1036200000254FF4803400E0641E24B1802014F0A3
:103630007BF80028F8D014B90325284670BD40F265
:10364000FF5014F02DF82846F8E700002DE9F0416E
:10365000064600274748056801E04648056815F01A
:10366000450FFAD015F0040F06D00327042014F0FC
:1036700017F83846BDE8F08115F0010F05D0012795
:10368000012014F00DF83846F4E714F047F8B04282
:1036900002D010273846EDE740F2FF5014F000F852
:1036A000002014F061F804463348044201D1384642
:1036B000E0E714F0004F01D01C20DBE714F0804F4E
:1036C00001D00920D6E714F0005F01D00A20D1E72D
:1036D00014F0805F01D00B20CCE714F0006F01D014
:1036E0000C20C7E714F0806F01D00D20C2E714F062
:1036F000807F01D00E20BDE714F4000F01D00F2011
:10370000B8E714F4800F01D01020B3E714F4001FC1
:1037100001D01120AEE714F4801F01D01220A9E7D8
:1037200014F4002F01D01320A4E714F4802F01D04B
:1037300014209FE714F4003F01D015209AE714F4F9
:10374000803F01D0162095E714F4004F01D01720D8
:1037500090E714F4804F01D018208BE714F4005F39
:1037600001D0192086E714F0080F01D01A2081E754
:1037700038467FE7342C014008E0FFFD70B5002596
:103780000F48046801E00E48046814F0450FFAD0B1
:1037900014F0040F05D00325042013F081FF284600
:1037A00070BD14F0010F05D00125012013F078FF42
:1037B0002846F5E740F2FF5013F072FF2846EFE786
:1037C000342C014070B500250B48046801E00A481C
:1037D000046814F0450FFAD014F0040F05D0032547
:1037E000042013F05DFF284670BD40F2FF5013F037
:1037F00057FF2846F8E70000342C01402DE9F0413E
:1038000006460F464FF000082248056801E02148AF
:10381000056815F0450FFAD015F0040F07D04FF0EA
:103820000308042013F03CFF4046BDE8F08115F08A
:10383000010F06D04FF00108012013F031FF404680
:10384000F3E713F06BFFB04203D04FF0100840468F
:10385000EBE740F2FF5013F023FF002013F084FF4A
:10386000044614F4604F03D1200C38804046DCE756
:1038700014F4005F01D01320D7E714F4804F01D077
:103880001020D2E714F4004F01D00F20CDE74046BE
:10389000CBE70000342C014070B500264FF4803592
:1038A0000F48046802E06D1E0D48046814F0450FCF
:1038B00001D1002DF7D115B114F0040F05D0032666
:1038C000042013F0EDFE304670BD14F0400F05D01B
:1038D0000026402013F0E4FE3046F5E73046F3E7DB
:1038E000342C0140014609B90B487047012901D128
:1038F0000020FAE7022901D10020F6E7032901D1CF
:103900000020F2E7042901D10020EEE7052901D1CA
:103910000020EAE70020E8E7A4FD002008B5252004
:103920008DF8000002208DF8010000208DF80200C3
:1039300001208DF8030068460EF0C0FF08BD0000AE
:103940001CB5002000900346044A0321019004485E
:1039500006F05CF9044620461CBD00000D39020843
:10396000F0BB02081CB5002000900346044A032166
:103970000190044806F04AF9044620461CBD0000A8
:10398000D139020844BC02081CB50020009003464F
:10399000044A09210190044806F038F904462046FB
:1039A0001CBD0000953A020898BC020800B593B00F
:1039B0000121480713F004FC0121480513F0E0FB46
:1039C00004200F90002010901190022012900FA957
:1039D000002000F077F8194800F0B8F84FF0606068
:1039E0000090174801901748029040200490400131
:1039F0000790089040200390002005904FF48060CD
:103A000006908010099040020A9000200B9001203F
:103A10000C9000200D900E906946084800F06AF95D
:103A20000121064800F086F80121002000F00CF882
:103A30000121002000F01CF813B000BD8860024096
:103A400008740040240D002039B1084A126801238F
:103A500083401A43054B1A6006E0044A12680123AA
:103A600083409A43014B1A60704700000074004085
:103A700041B1094A12684FF4805383401A43064B00
:103A80001A6007E0044A12684FF4805383409A4357
:103A9000014B1A6070470000007400401CB5012102
:103AA000084613F06DFB1020009003208DF80400F1
:103AB00000208DF807006946014805F015F91CBD86
:103AC0000000024030B5002200230A4C226840F674
:103AD000FE748440A243D1E900452C438D682C43F9
:103AE000CD6844EA050303FA00F42243014C226046
:103AF00030BD00000074004010B514F067FB10BD2D
:103B00000246094B9A4201D2084801E006481038A3
:103B100011F0005F03D0064B0B40C36002E0044B82
:103B20000B40836070470000106402400060024058
:103B30007D0F7D0F21B1026842F00102026003E0B7
:103B4000026822F00102026070470000016821F063
:103B5000010101600021016041608160C16001617B
:103B6000212141614A49884204D13D21484A103A05
:103B700091608CE046491831884205D14FF4746158
:103B8000434A103A916082E041493031884205D180
:103B90004FF474113E4A103A916078E03C49483144
:103BA000884205D14FF07461394A103A91606EE055
:103BB00037496031884204D13649354A103AD160DC
:103BC00065E033497831884204D13349304A103AAC
:103BD000D1605CE02E499031884204D12F492C4AB3
:103BE000103AD16053E02A49A831884205D14FF0FC
:103BF0003D51274A103AD16049E02949884204D111
:103C00003D21274A083A116041E025491831884290
:103C100005D14FF47461224A083A116037E0204917
:103C20003031884205D14FF474111D4A083A1160B1
:103C30002DE01B494831884205D14FF07461184A84
:103C4000083A116023E016496031884204D11149D5
:103C5000134A121F11601AE011497831884204D1C9
:103C60000D490F4A121F116011E00D499031884231
:103C700004D10A490A4A121F116008E00849A83114
:103C8000884204D14FF03D51054A121F1160704720
:103C9000106002403D000020400F002000003D2049
:103CA0001064024021B1026842F02002026003E089
:103CB000026822F020020260704710B511F0800FF8
:103CC00009D022B1436943F08003436103E04369B3
:103CD00023F08003436180290BD02AB1036801F0EF
:103CE0001E042343036004E0036801F01E04A343A1
:103CF000036010BD10B500220268134B1A40CC6857
:103D00000B6823434C6923438C692343CC692343C9
:103D10000C6A23434C6A23438C6A23434C6B234332
:103D20008C6B23431A430260426922F00702D1E9F7
:103D30000B3423431A4342610B6943604B68836031
:103D40008B68C36010BD00003F801CF02DE9F0417E
:103D5000044688B0006805F095FC0690468ED0F8C1
:103D6000885006A805F026FD002D18BF012506F095
:103D70000106206819F0EEFC002D18BF00200FD0BE
:103D80007D4951F820506068002800F0EE8002283C
:103D900000F0CE8005280CD012287DD000F0E8B8C5
:103DA000002E18BF0120EBD1002814BF02200320F1
:103DB000E6E7D5E90123A86A29688DE80F0004F138
:103DC00010000FC80AF060FA5FF0000655F82600F0
:103DD00009F00FF9A169A86A0A1A2169014460690A
:103DE000304406F039FEA169A86A0A1A2169014423
:103DF000E069801B06F030FEE169A86A0A1A616971
:103E000001442069304407F027F8E169A86A0A1ADA
:103E100061690144A069801B07F01EF8761C022E20
:103E2000D4DBA86A02281BDDA86809F0E2F8E16982
:103E3000A86AD4F810C00B1A0CEB00014A1E616985
:103E400001440CF1020007F0F1F8E169A86AA269E7
:103E50000B1A61690144101A401C921E07F0E6F823
:103E6000D5E90301CDE90001E1696069A269014476
:103E70004B10A96AD4F810C0521A8C44811C6046B9
:103E800006F0E0FCD5E90501CDE90001A069AB6AC7
:103E90006169C21AE06900E019E001444FF0010CC9
:103EA0000CEB6101D4F810C09C44831E604606F000
:103EB000C9FC686A09F09DF8E2696169A369501A52
:103EC000181A401C091D121F06F0C6FF50E020689A
:103ED00005F0D8FB0090B0F88060B0F98280C76C24
:103EE000684605F067FC208AB11C0844ADF808005C
:103EF000A08A801CADF80A00A08BA18A401A218BF1
:103F0000891B081AC01EADF80C00A08B801EADF8EE
:103F10000E00022009F0F0F8384609F081F8286A0E
:103F200009F067F8424602A9206A06F06FF91FE01F
:103F30006169E0694FF0FF32401AA0F1080102EB1D
:103F40006106411CA269801B4410A2EB6107E8696D
:103F500009F04FF8002E0BDBBA19B91B204606F00A
:103F60007BFD641C761EF7D502E0206818F062FE27
:103F700008B00020BDE8F081D05E0308044A034980
:103F8000116004490A6B08631046704774050020ED
:103F9000000A0020040A002038B50D46002405F070
:103FA00071FB0090C06B294605F0A7FC05466846EA
:103FB00005F000FC1DB1284605F064FB04462046D0
:103FC00038BD00007CB517F08FFD0546002000903D
:103FD0002B46044A02210190034805F017FE0446CF
:103FE00020467CBD894B020888B902087CB517F0D1
:103FF0007BFD0546002000902B46044A02210190DB
:10400000034805F003FE044620467CBD31560208F5
:1040100080BB02087CB517F067FD054600200090C4
:104020002B46044A02210190034805F0EFFD0446A7
:1040300020467CBDE54A020850B902087CB517F05D
:1040400053FD0546002000902B46044A08210190AC
:10405000034805F0DBFD044620467CBDC94C020840
:10406000F8B902087CB517F03FFD05460020009026
:104070002B46044A1F210190034805F0C7FD044662
:1040800020467CBDDD3C0208ECB502087CB517F08B
:104090002BFD0546002000902B46044A022101908A
:1040A000034805F0B3FD044620467CBDCD5602080A
:1040B000B8BB02087CB517F017FD0546002000903C
:1040C0002B46044A06210190034805F09FFD044653
:1040D00020467CBDAD510208D8BA02087CB517F065
:1040E00003FD0546002000902B46044A0221019062
:1040F000034805F08BFD044620467CBD294C020890
:10410000C0B9020870B5002008F068FF40F2B7138C
:1041100040F27F222821084605F042FD6FF07F40E3
:1041200008F067FF002514E000240EE005EBC5024F
:1041300002EB0512282303EB420104EB840203EB9C
:10414000420006F00BFD601C84B23D2CEEDB681CC7
:1041500085B2092DE8DB00240AE004EB8401282263
:1041600002EB410040F2B71106F0F8FC601C84B28B
:104170003D2CF2DB002414E000250EE005EB850267
:10418000282303EB420104EBC40202EB041203EB0D
:10419000420006F0E3FC681C85B2292DEEDB601CB2
:1041A00084B20C2CE8DB00250AE005EB8500282210
:1041B00002EB400140F27F2006F0A8FC681C85B2AB
:1041C000292DF2DB4FF4DB7140F27E2006F09EFCDD
:1041D000002513E005EB8500282202EB400140F2A8
:1041E000531006F093FC05EB8500282202EB4001FA
:1041F00040F2551006F08AFC681C85B2292DE9DBD7
:1042000040F2B71140F2531006F080FC40F2B711B3
:1042100040F2551006F07AFC002411E004EB840112
:10422000282202EB4100EF2106F070FC04EB840130
:10423000282202EB4100F12106F068FC601C84B2E8
:104240003D2CEBDBEF2140F27F2006F05FFCF121FB
:1042500040F27F2006F05AFC70BD000000B52DED45
:10426000028B91B044F2F00008F0C3FE40F27F22CE
:104270002821FC48B0F9000006F0EEFB40F27F2256
:104280002821F848B0F90000401C06F0E5FB0320A7
:104290000090F448B0F9003012333D22B0F900101C
:1042A000C91C322006F0F8FE40F27F222821EE4899
:1042B000B0F9000006F0D0FBEB49B1F90010481E40
:1042C00040F27F22282106F0C7FB03200090E64839
:1042D000B0F90000C31EE448B0F90000A0F11201DB
:1042E0003D22322006F0D8FE002008F082FEDF4892
:1042F00008F096FE022008F0FFFEDA48B0F9002030
:104300003321612005F0D4FED7480088133802B26B
:104310003321622005F0CCFE002008F06AFE042064
:10432000872340F27B22372100904FF4FA7006F089
:10433000B3FE6FF07F4008F05CFE042088234FF44A
:104340001F723621009040F2F31006F0B5FC44F2E3
:10435000F00008F04EFE03204D2340F207223E21DC
:1043600000904FF4FE7006F097FE0320692340F2A0
:1043700007225A2100904FF4FE7006F08DFE0020B7
:1043800008F037FEBA4808F04BFE022008F0B4FEF1
:104390003B2240F2FD11612005F08AFE582240F2D6
:1043A000FD11622005F084FE4FF6FF7008F021FE3B
:1043B000B04808F035FE732240F2FF11232005F0CB
:1043C00077FEAD48B0F90000A0F5AA70AB49AC4A41
:1043D00092F9002031F82210484300EE100AB8EE9E
:1043E000C00ADFEDA80A80EE201AA74880ED001A67
:1043F000A248A34991F9001000EB810040880128F0
:1044000010D1A1480068FDF74AFA41EC100BB0EE5C
:10441000408AF0EE608A53EC182B9CA102A81FF092
:10442000AFF99AE09548964991F9001000EB8100A8
:104430004088022810D194480068FDF730FA41EC1A
:10444000100BB0EE408AF0EE608A53EC182B91A16D
:1044500002A81FF095F980E08848894991F9001079
:1044600000EB81004088032810D187480068FDF7E1
:1044700016FA41EC100BB0EE408AF0EE608A53EC75
:10448000182B86A102A81FF07BF966E07B487C49C7
:1044900091F9001000EB81004088042810D17A487F
:1044A0000068FDF7FCF941EC100BB0EE408AF0EE2D
:1044B000608A53EC182B7BA102A81FF061F94CE035
:1044C0006E486F4991F9001000EB81004088052883
:1044D00010D16D480068FDF7E2F941EC100BB0EE29
:1044E000408AF0EE608A53EC182B70A102A81FF0EE
:1044F00047F932E06148624991F9001000EB810010
:104500004088062810D160480068FDF7C8F941ECE2
:10451000100BB0EE408AF0EE608A53EC182B65A1C8
:1045200002A81FF02DF918E05448554991F90010E0
:1045300000EB8100408807280FD153480068FDF741
:10454000AEF941EC100BB0EE408AF0EE608A53EC0D
:10455000182B5AA102A81FF013F93F2240F20B2199
:1045600002A805F03FFE5748B0F90000A0F5AA7078
:104570004249434A92F9002031F82210484300EEA4
:10458000100AB8EEC00ADFED3F0A80EE201A4E484E
:1045900080ED001A39483A4991F9001000EB81008A
:1045A0004088012810D148480068FDF778F941ECAF
:1045B000100BB0EE408AF0EE608A53EC182B33A15A
:1045C00002A81FF0DDF8D1E02C482D4991F9001028
:1045D00000EB81004088022810D13B480068FDF7BD
:1045E0005EF941EC100BB0EE408AF0EE608A53ECBD
:1045F000182B28A102A81FF0C3F8B7E01F482049D4
:1046000091F9001000EB81004088032810D12E485A
:104610000068FDF744F941EC100BB0EE408AF0EE73
:10462000608A53EC182B1DA102A81FF0A9F89DE089
:104630001248134991F9001000EB810040880428CA
:1046400044D121480068FDF72AF941EC100BB0EE87
:10465000408AF0EE608A53EC182B12A102A81FF0DA
:104660008FF883E02E02002030020020202803086B
:10467000501803083CFD02082A0200205CB502081D
:104680001502002000007A443402002025352E3126
:104690006675730025352E33666D730025352E3211
:1046A000666D730025352E31666D730025352E330A
:1046B0006673000025352E326673000025352E31D5
:1046C000667300002C02002038020020EC48ED49FF
:1046D00091F9001000EB81004088052811D1EA48CB
:1046E0000068FDF7DCF841EC100BB0EE408AF0EE0C
:1046F000608A53EC182BAFF24C0102A81FF040F86F
:1047000034E0DF48DF4991F9001000EB8100408878
:10471000062811D1DC480068FDF7C1F841EC100B08
:10472000B0EE408AF0EE608A53EC182BAFF27C01B9
:1047300002A81FF025F819E0D148D24991F90010DC
:1047400000EB81004088072810D1CF480068FDF7B2
:10475000A6F841EC100BB0EE408AF0EE608A53EC04
:10476000182BAFF2A80102A81FF00AF85B2240F252
:104770000B2102A805F036FDC148C24991F900108D
:1047800000EB8100408801281AD1BF4890ED000A53
:10479000BE48D0ED000A30EE600A10EE101A08464E
:1047A000FDF77DF841EC100BB0EE408AF0EE608A28
:1047B00053EC182BAFF22C1102A81EF0E1FFD6E04B
:1047C000AF48B04991F9001000EB81004088022801
:1047D0001AD1AD4890ED000AAC48D0ED000A30EE99
:1047E000600A10EE101A0846FDF759F841EC100B5C
:1047F000B0EE408AF0EE608A53EC182BAFF26C11E9
:1048000002A81EF0BDFFB2E09D489E4991F900103C
:1048100000EB8100408803281AD19B4890ED000AE4
:104820009A48D0ED000A30EE600A10EE101A0846E1
:10483000FDF735F841EC100BB0EE408AF0EE608ADF
:1048400053EC182BAFF2AC1102A81EF099FF8EE0CA
:104850008B488C4991F9001000EB810040880428B6
:104860001AD1894890ED000A8848D0ED000A30EE50
:10487000600A10EE101A0846FDF711F841EC100B13
:10488000B0EE408AF0EE608A53EC182BAFF2EC11D8
:1048900002A81EF075FF6AE079487A4991F9001084
:1048A00000EB8100408805281AD1774890ED000A76
:1048B0007648D0ED000A30EE600A10EE101A084675
:1048C000FCF7EDFF41EC100BB0EE408AF0EE608A91
:1048D00053EC182BAFF22C2102A81EF051FF46E03A
:1048E0006748684991F9001000EB8100408806286C
:1048F0001AD1654890ED000A6448D0ED000A30EE08
:10490000600A10EE101A0846FCF7C9FF41EC100BC4
:10491000B0EE408AF0EE608A53EC182BAFF26C21B7
:1049200002A81EF02DFF22E05548564991F90010CB
:1049300000EB81004088072819D1534890ED000A08
:104940005248D0ED000A30EE600A10EE101A084608
:10495000FCF7A5FF41EC100BB0EE408AF0EE608A48
:1049600053EC182BAFF2AC2102A81EF009FF732202
:1049700040F20B2102A805F035FC732240F24521DC
:10498000232005F095FB4248B0F90000C0F1F0008B
:104990004049414A92F9002001EB8201498848438D
:1049A00000EE100AB8EEC00ADFED3C0A80EE201AD5
:1049B000364880ED001A0068FCF771FF41EC100BDF
:1049C000B0EE408AF0EE608A53EC182B34A102A8B6
:1049D0001EF0D6FE3F2240F24E2102A805F002FC56
:1049E0003148B0F90000C0F1F0002A492A4A92F992
:1049F000002001EB82014988484300EE100AB8EE1E
:104A0000C00ADFED260A80EE201A1F4880ED001A4A
:104A10000068FCF744FF41EC100BB0EE408AF0EE6A
:104A2000608A53EC182B1EA102A81EF0A9FE5B227F
:104A30004FF4137102A805F0D5FB144890ED000A5D
:104A40001148D0ED000A30EE600A10EE101A084648
:104A5000FCF725FF41EC100BB0EE408AF0EE608AC7
:104A600053EC182B0EA102A81EF08AFE732240F20E
:104A70004E2102A805F0B6FB11B0BDEC028B00BDC3
:104A80005CB5020815020020380200203402002024
:104A90002E02002050B402081602002000504347A6
:104AA00025352E33665600003002002000B52DED6E
:104AB000028B91B044F2F00008F09BFA40F2B7127A
:104AC0002821FD48B0F9000006F0C6F940F2B712FF
:104AD0002821F948B0F90000401C06F0BDF9032078
:104AE0003E230090F448B0F9002010322F21B0F995
:104AF0000000401D06F0D0FA40F2B7122821EF481E
:104B0000B0F9000006F0A8F9EC49B1F90010481E10
:104B100040F2B712282106F09FF90320E7490090E0
:104B2000B1F900104A1FE549B1F90010A1F11000D8
:104B30003E232F2106F0B0FA002008F05AFAE04890
:104B400008F06EFA022008F0D7FA2C22DA48008822
:104B5000801D01B2612005F0ABFAD84800880F38FB
:104B600001B22D22622005F0A3FA002008F041FADC
:104B70000420872340F27B22372100904FF4FA7003
:104B800006F08AFA6FF07F4008F033FA0420882399
:104B90004FF41F723621009040F2F31006F08CF8AB
:104BA00044F2F00008F025FA03204D2340F20722DA
:104BB0003E2100904FF4FE7006F06EFA0320692348
:104BC00040F207225A2100904FF4FE7006F064FA7A
:104BD000002008F00EFABB4808F022FA022008F084
:104BE0008BFA3B2240F2FD11612005F061FA582258
:104BF00040F2FD11622005F05BFA4FF6FF7008F0FD
:104C0000F8F9B14808F00CFA732240F20121232090
:104C100005F04EFAA848B0F90000A0F5AA70AB491B
:104C2000AB4A92F9002031F82210484300EE100AF6
:104C3000B8EEC00ADFEDA70A80EE201AA64880ED84
:104C4000001AA248A24991F9001000EB81004088A7
:104C5000012810D1A0480068FCF721FE41EC100BA0
:104C6000B0EE408AF0EE608A53EC182B9BA102A8AC
:104C70001EF086FD9AE09548954991F9001000EBE9
:104C800081004088022810D193480068FCF707FE95
:104C900041EC100BB0EE408AF0EE608A53EC182B1A
:104CA00090A102A81EF06CFD80E08848884991F927
:104CB000001000EB81004088032810D1864800686E
:104CC000FCF7EDFD41EC100BB0EE408AF0EE608A8F
:104CD00053EC182B85A102A81EF052FD66E07B481C
:104CE0007B4991F9001000EB81004088042810D125
:104CF00079480068FCF7D3FD41EC100BB0EE408A18
:104D0000F0EE608A53EC182B7AA102A81EF038FD51
:104D10004CE06E486E4991F9001000EB810040882C
:104D2000052810D16C480068FCF7B9FD41EC100B68
:104D3000B0EE408AF0EE608A53EC182B6FA102A807
:104D40001EF01EFD32E06148614991F9001000EB50
:104D500081004088062810D15F480068FCF79FFD5D
:104D600041EC100BB0EE408AF0EE608A53EC182B49
:104D700064A102A81EF004FD18E05448544991F9BA
:104D8000001000EB8100408807280FD152480068CE
:104D9000FCF785FD41EC100BB0EE408AF0EE608A26
:104DA00053EC182B59A102A81EF0EAFC3F2240F256
:104DB0000B2102A805F016FA4048B0F90000A0F552
:104DC000AA704249424A92F9002031F82210484321
:104DD00000EE100AB8EEC00ADFED3E0A80EE201A9F
:104DE0004C4880ED001A3948394991F9001000EB20
:104DF00081004088012810D146480068FCF74FFD2B
:104E000041EC100BB0EE408AF0EE608A53EC182BA8
:104E100032A102A81EF0B4FCCEE02C482C4991F936
:104E2000001000EB81004088022810D1394800684A
:104E3000FCF735FD41EC100BB0EE408AF0EE608AD5
:104E400053EC182B27A102A81EF09AFCB4E01F48CF
:104E50001F4991F9001000EB81004088032810D110
:104E60002C480068FCF71BFD41EC100BB0EE408AAB
:104E7000F0EE608A53EC182B1CA102A81EF080FCF7
:104E80009AE01248124991F9001000EB8100408825
:104E9000042841D11F480068FCF701FD41EC100BCC
:104EA000B0EE408AF0EE608A53EC182B11A102A8F4
:104EB0001EF066FC80E000002A0200202C02002088
:104EC00020280308501803083CFD02085CB50208BE
:104ED0001502002000007A443402002025352E31CE
:104EE0006675730025352E33666D730025352E32B9
:104EF000666D730025352E31666D730025352E33B2
:104F00006673000025352E326673000025352E317C
:104F10006673000038020020EC48ED4991F900105A
:104F200000EB81004088052811D1EA480068FCF7B1
:104F3000B6FC41EC100BB0EE408AF0EE608A53EC08
:104F4000182BAFF2480102A81EF01AFC34E0DF482B
:104F5000DF4991F9001000EB81004088062811D14B
:104F6000DC480068FCF79BFC41EC100BB0EE408A7B
:104F7000F0EE608A53EC182BAFF2780102A81EF015
:104F8000FFFB19E0D148D24991F9001000EB8100F4
:104F90004088072810D1CF480068FCF780FC41EC1E
:104FA000100BB0EE408AF0EE608A53EC182BAFF293
:104FB000A40102A81EF0E4FB5B2240F20B2102A830
:104FC00005F010F9C148C24991F9001000EB8100C9
:104FD000408801281AD1BF4890ED000ABE48D0EDA4
:104FE000000A30EE600A10EE101A0846FCF757FC73
:104FF00041EC100BB0EE408AF0EE608A53EC182BB7
:10500000AFF2281102A81EF0BBFBD6E0AF48B049B2
:1050100091F9001000EB8100408802281AD1AD48B8
:1050200090ED000AAC48D0ED000A30EE600A10EEB8
:10503000101A0846FCF733FC41EC100BB0EE408A26
:10504000F0EE608A53EC182BAFF2681102A81EF044
:1050500097FBB2E09D489E4991F9001000EB81005A
:10506000408803281AD19B4890ED000A9A48D0ED59
:10507000000A30EE600A10EE101A0846FCF70FFC2A
:1050800041EC100BB0EE408AF0EE608A53EC182B26
:10509000AFF2A81102A81EF073FB8EE08B488C497A
:1050A00091F9001000EB8100408804281AD189484A
:1050B00090ED000A8848D0ED000A30EE600A10EE4C
:1050C000101A0846FCF7EBFB41EC100BB0EE408ADF
:1050D000F0EE608A53EC182BAFF2E81102A81EF034
:1050E0004FFB6AE079487A4991F9001000EB8100A2
:1050F000408805281AD1774890ED000A7648D0ED0F
:10510000000A30EE600A10EE101A0846FCF7C7FBE2
:1051100041EC100BB0EE408AF0EE608A53EC182B95
:10512000AFF2282102A81EF02BFB46E06748684931
:1051300091F9001000EB8100408806281AD16548DB
:1051400090ED000A6448D0ED000A30EE600A10EEDF
:10515000101A0846FCF7A3FB41EC100BB0EE408A96
:10516000F0EE608A53EC182BAFF2682102A81EF013
:1051700007FB22E05548564991F9001000EB8100E9
:105180004088072819D1534890ED000A5248D0EDC5
:10519000000A30EE600A10EE101A0846FCF77FFB9A
:1051A00041EC100BB0EE408AF0EE608A53EC182B05
:1051B000AFF2A82102A81EF0E3FA732240F20B21FD
:1051C00002A805F00FF8732240F24521232004F0D5
:1051D0006FFF4248B0F90000C0F1F0004049414A79
:1051E00092F9002001EB82014988484300EE100A41
:1051F000B8EEC00ADFED3C0A80EE201A364880ED9A
:10520000001A0068FCF74BFB41EC100BB0EE408A33
:10521000F0EE608A53EC182B34A102A81EF0B0FA0D
:105220003F2240F24E2102A804F0DCFF3148B0F9E1
:105230000000C0F1F0002A492A4A92F9002001EB4F
:1052400082014988484300EE100AB8EEC00ADFED3B
:10525000260A80EE201A1F4880ED001A0068FCF72D
:105260001EFB41EC100BB0EE408AF0EE608A53EC6E
:10527000182B1EA102A81EF083FA5B224FF41371B3
:1052800002A804F0AFFF144890ED000A1148D0EDD9
:10529000000A30EE600A10EE101A0846FCF7FFFA1A
:1052A00041EC100BB0EE408AF0EE608A53EC182B04
:1052B0000EA102A81EF064FA732240F24E2102A849
:1052C00004F090FF11B0BDEC028B00BD5CB502088C
:1052D0001502002038020020340200202E02002097
:1052E00050B40208160200200050434725352E33E3
:1052F00066560000300200201FB5002415E061480A
:10530000B0F9000020446049B1F9001008445F4939
:1053100031F8100000EE100AB8EE400A5C4800EBCD
:10532000840080ED000A601C84B240F28A2084422E
:10533000E5DB58480078012809D140F28A20564B15
:10534000564A5121009001A8FBF7CBFA7CE0514866
:105350000078022809D140F28A204F4B504A51214F
:10536000009001A8FBF7BDFA6EE04A4800780328D8
:1053700009D140F28A20484B4A4A5121009001A8A5
:10538000FBF7AFFA60E043480078042809D140F207
:105390008A20414B444A5121009001A8FBF7A1FA11
:1053A00052E03C480078052809D140F28A203A4B67
:1053B0003E4A5121009001A8FBF793FA44E035489A
:1053C0000078062809D140F28A20334B384A51210F
:1053D000009001A8FBF785FA36E02E4800780728F0
:1053E00009D140F28A202C4B324A5121009001A869
:1053F000FBF777FA28E027480078082809D140F21F
:105400008A20254B2C4A5121009001A8FBF769FA0C
:105410001AE020480078092809D140F28A201E4B62
:10542000264A5121009001A8FBF75BFA0CE01948CD
:1054300000780A2808D140F28A20174B204A5121CF
:10544000009001A8FBF74DFA40F28A231D4A10494B
:1054500001A8FAF7ADFF00240FE01A4904F1320069
:1054600001EB800090ED000ABCEEC00A10EE100ABD
:10547000154921F81400601C84B2B4F5167FECDBEA
:105480001FBD0000A00200201E0200200A410120D2
:1054900038BC01200902002088D00120E4D602088F
:1054A00028D802086CD90208B0DA0208F4DB020836
:1054B00038DD02087CDE0208C0DF020804E10208D1
:1054C00048E2020860C601200A1101201FB500242D
:1054D00015E06148B0F9000020446049B1F90010BE
:1054E00008445F4931F8100000EE100AB8EE400A97
:1054F0005C4800EB840080ED000A601C84B240F23E
:105500008A208442E5DB58480078012809D140F21E
:105510008A20564B564A5121009001A8FBF7E1F929
:105520007CE051480078022809D140F28A204F4B94
:10553000504A5121009001A8FBF7D3F96EE04A4888
:105540000078032809D140F28A20484B4A4A512169
:10555000009001A8FBF7C5F960E0434800780428F3
:1055600009D140F28A20414B444A5121009001A8C0
:10557000FBF7B7F952E03C480078052809D140F222
:105580008A203A4B3E4A5121009001A8FBF7A9F925
:1055900044E035480078062809D140F28A20334B90
:1055A000384A5121009001A8FBF79BF936E02E48BC
:1055B0000078072809D140F28A202C4B324A512129
:1055C000009001A8FBF78DF928E02748007808280B
:1055D00009D140F28A20254B2C4A5121009001A884
:1055E000FBF77FF91AE020480078092809D140F23A
:1055F0008A201E4B264A5121009001A8FBF771F921
:105600000CE0194800780A2808D140F28A20174B8C
:10561000204A5121009001A8FBF763F940F28A2348
:105620001D4A104901A8FAF7C3FE00240FE01A49E9
:1056300004F1320001EB800090ED000ABCEEC00ADC
:1056400010EE100A154921F81400601C84B2B4F55C
:10565000167FECDB1FBD0000A00200201E02002010
:105660000A41012038BC01200A02002088D0012014
:105670003CCA020880CB0208C4CC020808CE02084B
:105680004CCF020890D00208D4D1020818D30208E7
:105690005CD40208A0D5020860C601200A110120CE
:1056A0001FB5002415E06148B0F9000020446049AE
:1056B000B1F9001008445F4931F8100000EE100AFB
:1056C000B8EE400A5C4800EB840080ED000A601CE4
:1056D00084B240F28A208442E5DB584800780128F1
:1056E00009D140F28A20564B564A5121009001A818
:1056F000FBF7F7F87CE051480078022809D140F226
:105700008A204F4B504A5121009001A8FBF7E9F83D
:105710006EE04A480078032809D140F28A20484BBD
:105720004A4A5121009001A8FBF7DBF860E04348AA
:105730000078042809D140F28A20414B444A512183
:10574000009001A8FBF7CDF852E03C48007805280E
:1057500009D140F28A203A4B3E4A5121009001A8DB
:10576000FBF7BFF844E035480078062809D140F23D
:105770008A20334B384A5121009001A8FBF7B1F839
:1057800036E02E480078072809D140F28A202C4BB9
:10579000324A5121009001A8FBF7A3F828E02748DE
:1057A0000078082809D140F28A20254B2C4A512143
:1057B000009001A8FBF795F81AE020480078092826
:1057C00009D140F28A201E4B264A5121009001A89F
:1057D000FBF787F80CE0194800780A2808D140F256
:1057E0008A20174B204A5121009001A8FBF779F835
:1057F00040F28A231D4A104901A8FAF7D9FD002476
:105800000FE01A4904F1320001EB800090ED000A2C
:10581000BCEEC00A10EE100A154921F81400601CF5
:1058200084B2B4F5167FECDB1FBD0000A00200209F
:105830001E0200200A41012038BC01200B0200207A
:1058400088D0012094BD0208D8BE02081CC00208FE
:1058500060C10208A4C20208E8C302082CC50208FD
:1058600070C60208B4C70208F8C8020860C6012062
:105870000A1101208AB04FF40060039000200290CA
:10588000FD48FE4908600120FD4908738873C8730C
:105890000875002405E020B2FA4921F82400601CB4
:1058A00084B2B4F5167FF6DB4FF40060039000205D
:1058B000029004A80399FBF7EBF869E39FEDF20A65
:1058C000F24880ED000A9FEDF20AF24880ED000AEE
:1058D0009FEDEF0AF04880ED000AF04800880028AC
:1058E00077D1EF480068C0F5205086B2ED4890F9B6
:1058F00000000A286EDAB6F5006F44DA06F50050AB
:1059000087B23C4618E0E01B00EB400085B2E64859
:1059100030F81400E54921F81500E54830F8141076
:10592000E24A681C22F81010E24830F81410A81C53
:1059300022F81010601C84B2B4F5205FE3DBC6F5DA
:10594000006000EB400087B2002419E004EB440043
:1059500085B2D54830F814007919D44A22F81100DC
:10596000D34830F814107819401C22F81010D14890
:1059700030F814107819801C22F81010601C84B2C2
:10598000B442E3DB22E0A6F5006086B200241AE010
:1059900004EB440085B2A019C34931F81000C34993
:1059A00021F81500A019C24931F81010BF4A681C2F
:1059B00022F81010A019BF4931F81010A81C22F8C5
:1059C0001010601C84B2B4F5006FE1DB00270024E6
:1059D00015E08FE1A8E0781C87B2B44830F81400D5
:1059E000B5490988884208DDB049601C31F81000CB
:1059F000B1490988884200DA05E0601C84B241F2AE
:105A0000A8508442E7DB00BF38B2AC4908800846A2
:105A1000B0F90000AA49B1F9001040180CD5A74808
:105A2000B0F90000642190FBF1F000FB01F8C8F12F
:105A3000000000B2A2490880A048B0F90000A049C7
:105A4000B1F90010084441F2A85188420CDD9B488E
:105A5000B0F90000081A642190FBF1F048430FFAF6
:105A600080F89748A0F8008000241DE09348B0F922
:105A7000000020449249B1F9001008448B4931F8E4
:105A800010007D4921F81400084630F8140000EE9B
:105A9000100AB8EE400A8048D0ED000A30EE200A25
:105AA00080ED000A601C84B2B4F5167FDEDB0024B2
:105AB0000DE07E4830F8140000EE100AB8EE400AFF
:105AC000804800EB840080ED000A601C84B2B4F5CD
:105AD000006FEEDB0298C3B27B4A7A4904A8FAF75A
