:020000040800F2
:10000000189D00201D030008354D0008374D0008DD
:10001000394D00083B4D00083D4D00080000000030
:100020000000000000000000000000003F4D00083C
:10003000414D000800000000434D0008454D0008F8
:1000400037030008370300083703000837030008A8
:100050003703000837030008370300083703000898
:100060003703000837030008370300083703000888
:100070003703000837030008370300083703000878
:100080003703000837030008370300083703000868
:100090003703000837030008370300083703000858
:1000A0003703000837030008370300083703000848
:1000B0003703000837030008370300083703000838
:1000C0003703000837030008370300083703000828
:1000D0003703000837030008370300083703000818
:1000E00037030008370300083703000800F002F860
:1000F00000F05AF80AA090E8000C82448344AAF168
:100100000107DA4501D100F04FF8AFF2090EBAE865
:100110000F0013F0010F18BFFB1A43F0010318473B
:1001200004240300242403000A444FF0000C10F8B8
:10013000013B13F0070408BF10F8014B1D1108BF65
:1001400010F8015B641E05D010F8016B641E01F805
:10015000016BF9D113F0080F1EBF10F8014BAD1C55
:100160000C1B09D16D1E58BF01F801CBFAD505E073
:1001700014F8016B01F8016B6D1EF9D59142D6D3CD
:10018000704700000023002400250026103A28BFF5
:1001900078C1FBD8520728BF30C148BF0B607047F9
:1001A0001FB51FBD10B510BD05F059F91146FFF779
:1001B000F7FF04F032FC05F077F903B4FFF7F2FF24
:1001C00003BC05F07BF900000CB500214B48019100
:1001D0000091026842F4803202604FF4A06302682A
:1001E00002F400320092019A521C0192009A12B954
:1001F000019A9A42F3D10268920333D5012100910A
:100200003F490A6842F010020A600A6822F00302BD
:100210000A600A6842F002020A604168416041686F
:100220004160416841F480614160416821F47C1182
:100230004160416841F4E8114160016841F080711A
:10024000016001688901FCD5416821F0030141602A
:10025000416841F0020141604168C1F38101022916
:10026000FAD10CBD00910CBD244810B5016841F0D5
:10027000010101604168234A114041600168224A3E
:1002800011400160016821F480210160416821F47E
:10029000FE0141604FF41F018160FFF795FF1B498C
:1002A0004FF00060086010BD144910B54868184A46
:1002B00010F00C03174803D0042B01D0082B0AD0F0
:1002C00002604968134AC1F30311121D515C0268B0
:1002D000CA40026010BD4A684B6802F470124FF0C9
:1002E000020413F4803F04EB924202D04B689B035C
:1002F00001D5094B00E0064B5A43E1E700100240EC
:10030000002002400000FFF8FFFFF6FE08ED00E0CD
:1003100000127A000000002000093D0009488047D3
:1003200009480047FEE7FEE7FEE7FEE7FEE7FEE7D7
:10033000FEE7FEE7FEE7FEE704480549054A064BEF
:100340007047000069020008ED00000818970020BF
:10035000189D0020189900201899002010B504F06D
:1003600078FE002807D004F0A7FDFF2004F094FFDA
:1003700004F0A5FD012010BD0020704710B5144603
:10038000084673B1DAB2214604F00DFF002807D009
:1003900004F092FDFF2004F07FFF04F090FD0120A7
:1003A00010BD042010BD0020704703F033B903F0E6
:1003B0002AB9000070B54FF40A7003F02BF9364DDE
:1003C0004FF407762860304603F024F92C4660602D
:1003D000304603F01FF9A0604FF4007003F01AF9E3
:1003E000E060296831B1616821B1A16811B108B13B
:1003F000002070BD012070BD412803D3612801D3C6
:100400002038C0B270472DE9FC4100210A46521C39
:100410000378D2B213B1401CFA2AF8D3FA2A31D0A9
:100420005FF0000210F8013D2E2B2ED0521CD2B2EC
:10043000052AF7D3684604F09FFF00216A46505C06
:10044000FFF7DAFF5054491CC9B20429F7D3124F01
:100450000024103704EB840000EBC400002507EBF8
:10046000800600BF56F82500017839B1694604F0CE
:10047000B3FF60B16D1CEDB20D2DF3D3641CE4B27B
:10048000062CE7D3FF20BDE8FC81411CD2E745EAFA
:100490000410C0B2F7E7000014000020C268891EF3
:1004A000921E8A4201D800207047026A807801FBC0
:1004B000002070472DE9F0410D460446022909D37A
:1004C000E068A84206D92078012806D0022828D062
:1004D000032832D00120BDE8F081A06905EB550664
:1004E00000EB5621204600F053FE68BBC6F308001F
:1004F0002044761C90F82870A06900EB5621204615
:1005000000F046FE00BBC6F308002044E90790F85F
:10051000280047EA002001D00009DCE7C0F30B0007
:10052000D9E7A06900EB1521204600F031FE58B94B
:10053000E8B204EB4000008DCDE7A06900EBD511D7
:10054000204600F025FE10B14FF0FF30C3E740F227
:10055000FF1000EA8500204490F82810D0F8290008
:1005600041EA002020F07040B5E770B5C180836893
:100570000D460446012B34D02068C168994230D919
:1005800023B90178032904D1C36913B18078060126
:1005900010E00189A94224D9C06911E0FFF78AFF60
:1005A0000346401C1BD0022B1BD32068C068984216
:1005B00017D9AD1B2068B5421946EFD2FFF76EFF81
:1005C000E36070B100EB1510206105F00F012822E7
:1005D000206802EB411108446061002070BD0120D9
:1005E00070BD022070BD70B5C58804466D1C28041E
:1005F000000C1FD02069E8B1290723D1401C2061DD
:10060000E168206829B18278521E12EA151F04D0D1
:1006100018E00089A8420DD914E0FFF74BFF01460E
:10062000012801D8022070BD481C05D02068C2688E
:100630008A4203D8042070BD012070BDE160FFF73D
:100640002DFF2061E58005F00F012822206802EBD4
:10065000411108446061002070BD2DE9F84F054646
:100660000021FFF782FF002878D14FF0FF0BD94619
:100670002969286800F08CFD06000ED16C6920788D
:1006800050B1E17AE52801F03F0103D00A0705D512
:100690000F2909D0FF204CE0042671E00F2903D078
:1006A000B9F1000F4AD04EE0E96979B3420606D5A8
:1006B00094F80DB020F04000EA8881462A8448452D
:1006C00035D1627B5A4532D100912078A04620F086
:1006D0004000401E00EB80010027DFF800A601EB80
:1006E000C00601241AF8071001EB0800008874B155
:1006F00000F0FCFD0446FF2E19D2009830F81600D9
:10070000761C00F0F3FDA04211D104E02FE0A0F52B
:100710007F41FF390BD17F1C0D2FE3D398F80000E8
:10072000400608D53CB1009830F8160018B1FF20FB
:10073000C0B281461DE0A9F10100F9E7204600F0B2
:1007400043FD58451CD04FF6FF702884A8694FF030
:10075000FF09C17AC9070CD10A2102E011E0491E44
:1007600006D314F8013B10F8012B9A1AF7D000E0D9
:1007700032B100212846FFF736FF06003FF478AF7C
:100780003046BDE8F88F2DE9F05FFF248B46054623
:10079000274604264FF6FF784FF0000965E02868E9
:1007A00000F0F6FC060064D16869017869B1C27A8C
:1007B000E52902F03F0206D02E2904D0082A06D0EF
:1007C000B446DC4506D0FF2441E0042651E04FF05A
:1007D000010CF6E70F2A01D0B4BB3FE04A0605D56D
:1007E000477B21F04001EA880C462A84A1422CD1A3
:1007F000417BB94229D10178DFF8E0A401F03F0143
:10080000491E01EB810202EBC1010022D5F81CC098
:10081000012600BF1AF8023003441B8836B1FF29B5
:1008200013D22CF811301E46491C01E043450CD16F
:10083000521C0D2AEED30078400603D5FF2904D2BE
:100840002CF81190641E01E00CE0FF24E4B20021BA
:100850002846FFF7C8FE060007D00AE000F0B4FC07
:10086000B84208D0A5F8208005E02969002996D172
:100870000EB1C5F810903046BDE8F09F2DE9F84F55
:10088000884682460F6800E07F1C38782F28FBD00E
:100890005C28F9D00024DAF81C602546785D6D1CD0
:1008A000202827D32F2825D05C2823D0FF2C44D202
:1008B000A0F181017D290BD8795D6D1CA1F1400269
:1008C0003F2A02D3403A7F2A37D201EB002080B280
:1008D000012100F0E9FC5FEA00092ED0B9F1800F98
:1008E00004D20146FEA000F04BFC30BB26F8149069
:1008F000641CD3E77A19C8F80020202801D2042507
:1009000019E0002517E000BF06EB440030F8020CA8
:1009100020280FD02E280DD07CB1002026F81400FE
:100920002021DAF818000A22521E00F8011BFBD21F
:10093000002705E0641E002CE6D1062021E77F1C7D
:1009400036F817002028FAD02E28F8D01FB145F02D
:10095000030500E0641E2CB106EB440030F8020CE5
:100960002E28F7D1002081464FF0080BCDF800006B
:1009700036F8170007F101075FEA000824D0B8F144
:10098000200F04D0B8F12E0F04D1A74202D045F0B9
:100990000305EDE70098584501D2A7421AD1BBF1F3
:1009A0000B0F0FD0A74201D045F003050CD84FF034
:1009B000080000904FEA896027464FF00B0B4FEA82
:1009C0001069D5E745F00305DAF818000178E52944
:1009D00049D04AE04046B8F1800F07D300F086FCCA
:1009E000002100F061FC804645F00205B8F1FF0FE0
:1009F00013D90099ABF10100814204D345F00305FE
:100A0000CDF800B0B4E7DAF8182000984FEA1821C2
:100A100011540098401C00901CE0B8F1000F04D065
:100A20000146B2A000F0ACFB20B14FF05F0845F0EA
:100A300003050FE0A8F14100192802D849F0020986
:100A400008E0A8F16100192804D8413049F00109F3
:100A50001FFA80F8DAF81820009902F8018000984F
:100A6000401C009084E705210170BBF1080F03D101
:100A70004FEA89604FEA1069C9F38100032803D067
:100A80006FEA0901890701D145F00205A90709D4D8
:100A900009F00301012901D145F01005012801D118
:100AA00045F00805DAF81800C572002069E673B54C
:100AB0000446019801782F2901D05C2901D1401CFE
:100AC00001900025A56001980078202805D200211A
:100AD0002046FFF74AFD65617CBD01A92046FFF76E
:100AE000CDFE0028F8D12046FFF7B7FDA169C97AED
:100AF00028B10428F0D14907EED405207CBD490770
:100B0000FCD46169C87AC006F7D5206800F053FBB1
:100B1000A060E2E710B504464FF0FF302268002ADB
:100B200013D0114600E0491C0B78202B0ED33A2B32
:100B3000F9D112F8013B303B0A2B06D28A4204D18C
:100B4000022B02D2491C1846216010BD002010BDA6
:100B500010B5044600202071401E6062204600F05F
:100B600017FB08B1032010BDB4F82602A0F52A41F6
:100B7000553901D0022010BD94F85E00B4F85F1022
:100B800040EA01215B48B0EB012F08D094F87A10BD
:100B9000B4F87B2041EA0221B0EB012F01D1002003
:100BA00010BD012010BD2DE9FF410027064607605A
:100BB0000846FFF7AFFF050002D50B2004B08AE41A
:100BC0004D4850F8254084B13460207820B16078D9
:100BD000FFF7D2FBC007F1D02770E8B26070FFF7D3
:100BE000BDFBC00703D00320E8E70C20E6E70025A3
:100BF00029462046FFF7ACFF012822D100206F468E
:100C000004EB001191F8EA2101F5F3712AB10A7A97
:100C1000D1F8091042EA012100E0002147F8201034
:100C2000401C0428ECD3002657F826502DB1294645
:100C30002046FFF78DFF08B909E00220761C042E3C
:100C4000F2D3032801D0E0BB01E00120B6E7B4F8FD
:100C50003300B0F5007F70D1E28F2AB994F84C00D0
:100C6000D4F84D1040EA0122226194F83800E07077
:100C7000012801D0022860D194F835105043A170AA
:100C8000F9B14B1E194258D1B4F8393023811E07EF
:100C900053D1B4F83BC0BCF1000F05D194F84860C3
:100CA000D4F8497046EA072CE78E57B13E1806EB98
:100CB0001316B44541D3ACEB060CBCFBF1F101B10A
:100CC00000E03AE040F6F67E4FF0010C714501D3AA
:100CD0004FF0020C4FF6F67E71450FE06A5B00089C
:100CE000222A3A3C3E3F7C7F000000002B2C3B3DFB
:100CF0005B5D0000004641546001002001D34FF0CD
:100D0000030C891C2F44E160C4E905573544256272
:100D1000BCF1030F13D083B13844E061BCF1020F82
:100D200018D001F0010001EB410100EB510000BFC0
:100D300000F2FF10B2EB502F0ED20D203EE7002B39
:100D4000FBD194F85400D4F8553040EA0320E06118
:100D50008800EDE74800EBE7FA4984F800C008880E
:100D6000401C0880E080002028E710B538B10168F9
:100D700029B10A781AB1CA888088824201D0092034
:100D800010BD4878FFF7F8FAC007F9D0032010BD6E
:100D900017B581B01446029800906846FFF7BAFE76
:100DA000002802DA0B2004B010BDE64A121D002311
:100DB00052F8201001B10B700199002900D00B707E
:100DC00042F8201001D0012C01D00020EBE70022D6
:100DD00002A901A8FFF7E7FEE5E72DE9F7438CB08C
:100DE00004000DD04FF0000902F001084A460DA999
:100DF0006846C4F80090FFF7D6FE050004D03AE03C
:100E000009200FB0BDE8F0834FF40070FFF7CDFA72
:100E100007000AD009A8CDE9060768460D99FFF733
:100E200046FE059E050002D006E01120E9E73EB12E
:100E3000F07AC00606D504253846FFF7B8FA1AE05E
:100E40000625F9E73846FFF7B2FA84F8068084F8F9
:100E500007904F463146009800F0ADF92061307F91
:100E6000D6F81D1040EA0120C4E90270A76100987D
:100E70002060C088A0802846C3E72DE9F84F0446CB
:100E800000201860994615460E462046FFF76DFF74
:100E9000002810D1E07900280DD1A079C00709D031
:100EA000D4E90210401A01274FF0020885426DD99B
:100EB00005466BE0072064E4A068C10548D12268BC
:100EC0009178491E01EA5021C9B25FEA010A09D1AD
:100ED00018B310466169FFF7EDFA02281FD3411CD1
:100EE00031D0606161692068FFF7D8FAB8B1504429
:100EF0000090680A5FEA000B18D020680AEB0B022A
:100F000081788A4201D9A1EB0A0B40785B463146D1
:100F1000009AFFF733FAB0B905E02069DDE784F8FD
:100F2000078002202DE44FEA4B2025E0A1690098BC
:100F300081420BD02068012304F11C014078009A03
:100F4000FFF71CFA10B1E77101201AE40098A061C4
:100F50002089C0F30801C1F50070A84200D92846D5
:100F60002144324603461C3104E000BF11F801CB96
:100F700002F801CB5B1EF9D2A16806440144A160CE
:100F8000D9F800100A182D1AC9F80020002D93D1A5
:100F90000020D3E410B50446FFF7E7FE002801D196
:100FA0000021216010BD2DE9F0470D460446FFF7F2
:100FB000DCFE5FEA000854D1E079002851D1E068F6
:100FC000A84200D205460027A0684FF0010AA7609A
:100FD000ADB3216889784E0268B1691E401EB1FB2D
:100FE000F6F1B0FBF6F2914205D3711E8843A06082
:100FF0002D1A616901E0216961614FF0020989B927
:101000001DE02068FFF756FA0146401C26D0012952
:1010100029D92068C068884225D96161A068AD1BC4
:101020003044A060B542ECD8A0682844A060E80530
:1010300005D02068FFF732FAA8B100EB55272089C8
:10104000C00515D0A069B84212D0206801233A46E5
:10105000407804F11C01FFF791F940B184F807A032
:101060000120BDE8F08784F807900220F9E7A76126
:101070004046F6E773B584B0050007D0002205A905
:101080006846FFF790FD040003D02DE0092006B06C
:1010900070BD009828604FF40070FFF786F90600D5
:1010A0000CD001A8C5E9060628460599FFF7FFFC04
:1010B00004463046FFF77BF914B112E01120E6E751
:1010C000696931B1C87AC00612D5009800F073F88A
:1010D000A86000980021C088A8802846FFF745FA3C
:1010E0000446042C04D00CB1002028602046CEE732
:1010F0000524F9E710B50446FFF737FE002801D1B3
:101100000021216010BD2DE9FE4388460546FFF70A
:101110002CFE040032D1B8F1000F15D04FF400704E
:10112000FFF743F9060015D06846C5E90606002119
:101130002846FFF728FB0027044604280DD06CB191
:1011400019E000005C01002000212846FFF70DFA9D
:10115000044613E01120BDE8FE832F614146284676
:1011600000F03FF800212846FFF73DFA0446042826
:1011700001D100242F613046FFF719F92046EAE734
:1011800000E0401C02780AB18A42FAD1D0B270471E
:1011900070B50446406A0D46A8420AD00A466078F7
:1011A000012304F12801FFF7E9F808B1012070BD1F
:1011B0006562002070BD0246488B1278032A02D176
:1011C000898A40EA01407047014600200B2243080B
:1011D00003EBC01011F8013B521E1844C0B2F6D107
:1011E00070472DE9F0410C4601F10902016971B324
:1011F000002543692E26595D6D1C202919D005292B
:1012000000D1E521092D01D102F8016BA1F14107BF
:10121000192F0CD81F7B092D02D34FF0100C01E0C1
:101220004FF0080C17EA0C0F01D02031C9B202F8B8
:10123000011B0B2DDFD3D97A2172197FD3F81D50F2
:1012400041EA05212160198BA180D98AE1804FF004
:10125000000882F80080A669002E22D001690025CE
:10126000E9B1E169D9B1018CA1F57F42FF3A16D00D
:10127000C76910E0002100F017F840B1FF2802D93B
:10128000010A71556D1CE169491EA94201D800256A
:1012900005E070556D1C37F8020B0028EAD106F8FE
:1012A0000580BDE8F081000070B580281BD345F2B1
:1012B000205309B1144D00E0144D002110245A1A96
:1012C00002EBD27201EB620235F82260864206D050
:1012D00001D2114600E01346641EF0D104E01CB1B7
:1012E00005EB8200408870BD002070BD0021084BD6
:1012F00000E0491C33F81120002A04D08242F8D1C2
:10130000044830F811007047FCAF0108785B000812
:101310008004030860060308284908432849086038
:10132000704770B50F23C47801780122F4B1244CC2
:101330002468457804F4E064C4F5E064240AC4F148
:101340000406E3408478B5401C402C4301F1E021C1
:10135000230181F80034007800F01F018A40400921
:10136000800000F1E020C0F8002170BD01F01F00F6
:1013700082404809800000F1E020C0F8802170BD63
:10138000104A114001430E48001F016070470C4A8B
:10139000121D0029116801D0014300E08143116052
:1013A00070474FF0E0210428086903D020F00400C2
:1013B0000861704740F00400FAE700000000FA05F9
:1013C0000CED00E080FFFF1F914910B5884206D167
:1013D0000121042000F04BFA002104203BE08D495C
:1013E000884206D10121082000F041FA002108209E
:1013F00031E08949884206D10121102000F037FAF6
:101400000021102027E08549884206D101212020B3
:1014100000F02DFA002120201DE08149884206D1EC
:101420000121402000F023FA0021402013E07D49F3
:10143000884206D10121802000F019FA0021802085
:1014400009E0794988420AD184150121204600F03B
:101450000EFA00212046BDE8104000F008BA10BD89
:1014600010B50121084600F002FA0021BDE8104045
:10147000012000F0FCB9F0B5CA78002502F00F0396
:10148000D20601D58A7813430A784FF00F0E12F076
:10149000FF0F4FF001021DD0D0F800400F8802FA74
:1014A00005F63740B74211D14FEA850C0EFA0CF71A
:1014B00024EA070703FA0CF43C43CF78282F02D024
:1014C000482F02D002E0466100E006616D1C082D45
:1014D000E4D304600C88FF2C1ED944685FF000063A
:1014E00006F1080702FA07F50F882F40AF420FD127
:1014F0004FEA860C0EFA0CF7BC4303FA0CF73C4398
:10150000CF78282F00D14561CF78482F00D10561D1
:10151000761C082EE4D34460F0BD4FF6FF710180C5
:10152000022181700421C170704702460020926838
:101530000A4200D001207047806880B2704702469E
:101540000020D2680A4200D001207047C06880B2F3
:10155000704701617047416170470AB1016170478E
:1015600041617047C160704741F48032826181619E
:1015700082618169806970472C4B10B51A684FF6FB
:101580008074224042EA00100843186010BD2849C8
:10159000C8617047F0B5254C002801DAE36900E026
:1015A0006368420D120185B2C0F301579540C0F344
:1015B0000346032F05D0C2020AD50322B24093434B
:1015C00007E023F07062636823F07063636002E0F9
:1015D000AB4343F0706201B12A43002801DAE261B3
:1015E000F0BD6260F0BD10B58A0721F003040F4919
:1015F000130F21440F228C689A4094438C608A68B0
:10160000984002438A6010BD0949C1F8DC00704768
:1016100000080140000C014000100140001401408E
:1016200000180140001C0140002001400000014062
:1016300000002042A448016841F0010101604168B6
:10164000A24A114041600168A14A1140016001684D
:1016500021F480210160416821F4FE0141604FF4D2
:101660001F018160704798490A6822F480320A603D
:101670000A6822F480220A60B0F5803F07D0B0F5F6
:10168000802F03D1086840F4A020086070470868E4
:1016900040F48030F9E70246002053098A49012BC3
:1016A0000AD0022B0AD0496A02F01F02012393409C
:1016B0000B4200D0012070470968F5E7096AF3E79B
:1016C00018B500204FF4A06400903120FFF7E3FF2D
:1016D0000099491C0091A14201D00028F5D0312089
:1016E000FFF7D9FF002800D0012018BD76490A680D
:1016F00022F0F80242EAC0000860704775490860AD
:101700007047714A5368084323F47C1318435060B0
:1017100070477049086670476B4A516821F00301B1
:101720000143516070476848406800F00C00704702
:10173000654A516821F0F001014351607047624AE7
:10174000516821F4E0610143516070475E494A6885
:1017500022F4605242EAC000486070475A4A0029A9
:10176000517A01D0014300E08143517270475949D9
:10177000C1F8D8007047544A516821F440410143F0
:10178000516070475049002281F8202081F82020C4
:10179000012802D0042802D1052081F820007047DA
:1017A0004D490860704748490A6A02430A62704717
:1017B000494944390860704730B543494A6812F0D6
:1017C0000C03464A03D0042B01D0082B21D0026021
:1017D0004A680F23424C03EA1212A35C0268DA4003
:1017E00042604B68072505EA1323E35C22FA03F302
:1017F00083604B6805EAD323E35CDA40C260496842
:10180000032303EA9131231F595CB2FBF1F101611B
:1018100030BD4A684B6802F470124FF0020413F4B2
:10182000803F04EB924202D04B689B0301D52D4BC5
:1018300000E02A4B5A43CAE7234A0029516901D0E4
:10184000014300E08143516170471F4A00299169BB
:1018500001D0014300E08143916170471A4A002999
:10186000D16901D0014300E08143D1617047164A3C
:101870000029D16801D0014300E08143D160704765
:10188000114A0029116901D0014300E0814311612F
:10189000704711494039086070470E49C864704765
:1018A0000949C87170470848416A41F08071416236
:1018B0007047054A0146002092680A4200D0012084
:1018C0007047014988727047001002400000FFF81D
:1018D000FFFFF6FE000042428004424200127A00FE
:1018E0006C01002000093D00994910B588420AD1D9
:1018F000841401212046FFF7BAFF2046BDE81040BE
:101900000021FFF7B4BF9349884202D1012104149A
:1019100004E0914988420AD10121C4132046FFF70F
:10192000AFFF2046BDE810400021FFF7A9BF10BD62
:1019300030B502884C8802F441530A88CD8822438E
:101940008C882C4322430C8922434C8922438C8966
:101950002243CC8922431A430280828B22F4006204
:101960008283098A018230BDF0B505460C4602200B
:101970000021AA8B85B001264FF240031A40AA83AA
:101980002884AF8BA268022A27D0A08800B1022643
:101990006846FFF711FFE1880098B1F5007F2DD070
:1019A0007101B0FBF1F000BF00EB8000A1684000C6
:1019B000B0FBF1F0401D80B20A21B0FBF1F000F065
:1019C0000101401A4FF6FF72C0F34F0002EA0121F5
:1019D000821EFE2A01D302200021E288084302432E
:1019E0002A8420886188A2890843A188114308437A
:1019F000384340F40060A88305B0F0BD000AD3E787
:101A00000021018041808180C180018141818181EB
:101A1000C1810721018270470021018041808180BE
:101A2000C18002228260818170470029018802D032
:101A300041F0400101E021F04001018070470029A0
:101A4000818B02D041F4806101E021F480618183C7
:101A50007047090901238B40002A828899B201D07E
:101A60000A4300E08A4382807047002A828801D0BE
:101A70000A4300E08A4382807047818170478089F1
:101A80007047A1F57E420188FF3A02D041F480718F
:101A900001E021F48071018070470029818802D023
:101AA00041F0040101E021F00401818070470288C7
:101AB00022F40062028002880A4302807047018893
:101AC00041F48051018070470029018802D041F41F
:101AD000005101E021F4005101807047012901D03B
:101AE000008B7047808A7047008A7047B1F5804F3D
:101AF000018803D021F480410180704741F4804186
:101B0000FAE70246002012890A4200D001207047FD
:101B1000C9430181704710B501F00F04012203464B
:101B200002FA04F4002009098A4091B29A88A4B20A
:101B30000A401989214202D0002A00D0012010BD9C
:101B400001F00F0201219140C9430181704700005B
:101B50000030014000380040003C0040F94910B519
:101B6000884202D10121C41486E0B0F1804F09D02F
:101B7000F54988420DD101210220FFF781FE0021A5
:101B8000022064E001210846FFF77AFE00210120CF
:101B90005DE0EE49884206D101210420FFF770FE86
:101BA0000021042053E0EA49884206D1012108209F
:101BB000FFF766FE0021082049E0E649884206D189
:101BC00001211020FFF75CFE002110203FE0E249D8
:101BD000884206D101212020FFF752FE002120205B
:101BE00035E0DE49884202D10121441444E0DC4959
:101BF000884202D10121CC043EE0DA49884202D178
:101C000001210C0538E0D849884202D101214C0558
:101C100032E0D649884206D101214020FFF730FE4C
:101C20000021402013E0D249884206D101218020C2
:101C3000FFF726FE0021802009E0CE4988420AD124
:101C4000841501212046FFF71BFE00212046BDE838
:101C50001040FFF715BEC849884202D101210C048B
:101C60000AE0C649884202D101214C0404E0C4497B
:101C700088420AD101218C042046FFF7F8FD204656
:101C8000BDE810400021FFF7F2BD10BD30B502885D
:101C9000AC4BB24C98420DD0A0420BD0B0F1804F6B
:101CA00008D0A94DA84205D0A84DA84202D0A84D01
:101CB000A84203D122F070054A882A43A54DA842C4
:101CC00006D0A54DA84203D022F44075CA882A4305
:101CD00002808A8882850A88028598420AD0A042BA
:101CE00008D0A54A904205D0A44A904202D0A44A06
:101CF000904201D1097A01860121818230BD30B53F
:101D0000028C22F001020284028C8388048B22F070
:101D1000020224F073050C882C430D8915434A8870
:101D20002A43884DA8420BD08C4DA84208D0924D32
:101D3000A84205D0914DA84202D0914DA8420DD1A4
:101D400022F008054A8923F440732A4322F004054F
:101D50008A882A438D891D43CB892B438380048342
:101D6000C9888186028430BD70B5028C22F01002D1
:101D70000284028C8488038B0D8823F4E6464FF698
:101D8000FF7303EA052535430E8922F0200203EA9A
:101D9000061616434A8803EA02123243694EB042DD
:101DA00002D06E4EB04215D122F080064A8924F44A
:101DB000406403EA0212324322F040068A8803EAB2
:101DC000021232438E8903EA86062643CC8903EA4F
:101DD0008404344384800583C9880187028470BDEC
:101DE00070B5028C22F480720284028C8488838B0A
:101DF0000D8823F073031D4322F400730E894FF600
:101E0000FF7202EA06261E434B8802EA032333438D
:101E10004C4EB04202D0514EB04215D123F4006670
:101E20004B8924F4405402EA0323334323F48066AD
:101E30008B8802EA032333438E8902EA061626437F
:101E4000CC8902EA0414344384808583C98881875D
:101E5000038470BD70B5028C22F480520284048C1D
:101E60008288838B0D8823F4E6464FF6FF7303EADE
:101E70000525354324F400560C8903EA0434344321
:101E80004E8803EA063626432E4CA04202D0334C3D
:101E9000A04205D122F480448A8903EA82122243B7
:101EA00082808583C988A0F84010068470BD828B2B
:101EB00022F440628283828B4FF6FF7303EA012192
:101EC0000A4382837047828B22F00C028283828BCA
:101ED0000A4382837047028B22F440620283028BA2
:101EE0004FF6FF7303EA01210A4302837047F0B5FE
:101EF000048C24F010040484078B048C4FF6FF75C7
:101F000027F4734705EA03333B4305EA02221A43E9
:101F10000C4B05EA011698420ED0104B98420BD09C
:101F2000B0F1804F08D0084B984205D0074B98423B
:101F300002D0074B984225D124F02001314341F0D3
:101F4000100124E0002C0140000400400008004083
:101F5000000C00400010004000140040003401401C
:101F6000004C014000500140005401400018004066
:101F7000001C00400020004000400140004401409F
:101F80000048014024F0A0030B4343F010010283FA
:101F90000184F0BD028B22F00C020283028B0A4303
:101FA0000283704770B5048C24F001040484058B0F
:101FB000048C4FF6FF7606EA0313134325F0F3056E
:101FC000F94A2B4390420ED0F84A90420BD0B0F120
:101FD000804F08D0F64A904205D0F64A904202D08F
:101FE000F54A904202D124F0020201E024F00A02F4
:101FF0000A4342F001010383018470BD2DE9F05FC3
:102000000D4604460888E84FDFF8A0C3DFF8A08338
:102010004988AA882B894FF0804960B3042832D0C0
:102020004FF6FF7E082836D0208C9B4620F4805047
:102030002084A38B268C704600EA022223F473438B
:102040001A4300EA0B3010430EEA013EBC420BD0AB
:10205000644509D04C4507D0444505D0D54A944243
:1020600002D0D54B9C4245D126F4005141EA0E01E5
:1020700041F4805143E02046FFF794FFE988204671
:10208000BDE8F05F86E72046FFF731FFE98820468C
:10209000BDE8F05F1FE7208C20F480702084B4F846
:1020A0001CA0208C0EEA031313432AF0F30A0EEA55
:1020B000012B43EA0A03BC420BD0644509D04C45CE
:1020C00007D0444505D0BB4A944202D0BA4A944254
:1020D00004D120F4007040EA0B0002E020F42060FC
:1020E000084340F48070A3832084E9882046BDE83B
:1020F000F05FE8E626F402420A4342F48051A083EE
:1021000020462184E988BDE8F05FD0E62DE9F04162
:102110000C46002649880746012501B90226A288F7
:10212000012A00D10225208823890028384610D0B2
:10213000FFF7DDFEE1883846FFF7CDFE23892A460A
:1021400031463846FFF72EFFE1883846BDE8F041BA
:1021500020E7FFF727FFE1883846FFF71BFF2389B9
:102160002A4631463846FFF7C2FEE1883846BDE8C8
:10217000F041B0E610B50A884B88CC881A438B88AA
:1021800023431A430B891A434B8989891A430A430B
:10219000A0F8442010BD4FF6FF718180002101801E
:1021A000C18041800172704700210180418081809F
:1021B000C180018141818181C181704700210180FD
:1021C000418001228280C18001817047002101800D
:1021D00041808180C18001814181818170470029D6
:1021E000018802D041F0010101E021F001010180EC
:1021F0007047002930F8441F02D041F4004101E04B
:10220000C1F30E0101807047002A828901D00A4380
:1022100000E08A4382817047818270471143A0F8B1
:1022200048107047002A828901D00A4300E08A439F
:1022300082817047018921F007010181704702897D
:1022400022F070020A430281704700B50346FFF78F
:10225000F6FF188940F00700188100BD70B51646DA
:102260000D46602904464FF0010231460AD0FFF7BF
:1022700099FE29462046FFF7E2FF208940F007003B
:10228000208170BDFFF733FEF3E730B504894FF6C8
:10229000FF7505EA03231343E4B20B432343038191
:1022A00030BD10B50446FFF7F0FF208940F07700FD
:1022B000208110BD10B50446FFF7E7FF208940F4E8
:1022C0008040208110BD018582827047028822F003
:1022D00070020A430280704770B50589048B068C32
:1022E00025F007050D434FF6FC410C4040F201116B
:1022F0000C434FF6FF7101EA031126F02206114349
:10230000314305810483018470BD028B22F0700289
:102310000A4302837047028B4FF6FF7322F4E042B8
:1023200003EA0121114301837047828B22F070027E
:102330000A4382837047828B4FF6FF7322F4E04298
:1023400003EA01211143818370470029018802D0EB
:1023500041F0800101E021F08001018070470029F7
:10236000818802D041F0040101E021F00401818064
:1023700070470029818802D041F0080101E021F076
:102380000801818070470029818802D041F0010155
:1023900001E021F0010181807047028B22F00802E8
:1023A0000A43028370470000002C014000340140C2
:1023B0000004004000080040000C0040028B4FF673
:1023C000FF7322F4006203EA012111430183E9E76C
:1023D000828B22F008020A438283E3E7828B4FF666
:1023E000FF7322F4006203EA012111438183D9E7DC
:1023F000028B22F004020A430283D3E7028B4FF6DA
:10240000FF7322F4806203EA012111430183C9E7CB
:10241000828B22F004020A438283C3E7828B4FF649
:10242000FF7322F4806203EA012111438183B9E73B
:10243000028B22F080020A430283B3E7028B4FF63D
:10244000FF73C2F30E0203EA012111430183A9E7DE
:10245000828B22F080020A438283A3E7828B4FF6AD
:10246000FF73C2F30E0203EA01211143818399E74E
:10247000028C22F002020A43028493E7028C22F0CB
:1024800008020A4302848DE7028C4FF6FF7322F0A4
:10249000200203EA01111143018483E7028C4FF605
:1024A000FF7322F0800203EA01111143018479E7EE
:1024B000028C4FF6FF7322F4007203EA01211143EC
:1024C00001846FE7028C4FF6FF7322F4006203EA87
:1024D00001211143018465E7028C4FF6FF7322F45A
:1024E000005203EA0131114301845BE710B5012377
:1024F000048C8B409C430484038C8A4013430384E4
:1025000010BD10B50423048C8B409C430484038CC1
:102510008A401343038410BD30B50124058C00F1BB
:1025200018038C40A543058489B108290FD0091FE1
:10253000C1F34E001844016821F4E04101600168D4
:102540004FF6FF7303EA02221143016030BD03EB33
:102550005100016821F0700101600168F4E7002971
:10256000018802D041F0020101E021F00201018066
:1025700018E70029018802D041F0040101E021F0B0
:10258000040101800EE70029818802D041F080011A
:1025900001E021F08001818004E7028822F0080236
:1025A000028002880A430280FCE6828822F07002E0
:1025B000828082880A438280F4E6028922F0070240
:1025C000028102890A430281ECE6028922F080023C
:1025D000028102890A430281E4E68184E2E6818580
:1025E000E0E68186DEE60187DCE68187DAE6A0F8B0
:1025F0004010D7E6028822F44072028002880A4323
:102600000280CFE6808ECDE6008FCBE6808FC9E6D4
:10261000B0F84000C6E6808CC4E6008DC2E60246F3
:102620000020128A0A4200D00120BBE6C943018281
:10263000B8E602460020138A92890B4202EA0102A0
:1026400002D0002A00D00120ACE6C9430182A9E6ED
:102650002DE9F84301213D20FFF7F7F80121FE485D
:10266000FEF798FF4FF6FF70ADF8000003248DF8D9
:10267000024010258DF803506946F848FEF7FBFE2E
:10268000EE02ADF80060DFF8D8838DF802408DF8D7
:10269000035069464046FEF7EEFE0420ADF8000008
:1026A000F04F8DF802408DF8035069463846FEF72A
:1026B000E2FE4FF4E050ADF800008DF80240EA4C25
:1026C0008DF8035069462046FEF7D5FE21152046B9
:1026D000FEF73FFF31464046FEF73BFFA114204680
:1026E000FEF737FFE1142046FEF733FF042138469A
:1026F000FEF72FFFBDE8F8832DE9F05F142000F00E
:10270000DDFED84804261430066042F2107000F056
:10271000D5FED4481030066042F2107000F0CEFEB4
:10272000B02000F0DDFEDFF83883770308F11008F1
:10273000C8F80070CC4C35026561DFF8209309F1D0
:102740000C09C9F80060A61466612661256136206F
:1027500000F0C6FEC8F8007065616021C9F800107D
:102760006661266125613A2000F0BAFEC8F8007063
:1027700065615521C9F80010666126612561B420A4
:1027800000F0AEFEC8F8007065614FF0000AC9F8AD
:1027900000A0666126612561C02000F0A1FEC8F896
:1027A000007065610321C9F800106661266125612A
:1027B000C8F800706561DF21C9F800106661266104
:1027C0002561C8F8007065614020C9F800006661A5
:1027D00026612561C8F8007065611221C9F80010F2
:1027E000666126612561C8F800706561C9F800A0BE
:1027F000666126612561C8F8007065610120C9F82D
:102800000000666126612561C8F800706561C9F83D
:1028100000A0666126612561C8F8007065614321EA
:10282000C9F80010666126612561C12000F058FEDC
:10283000C8F80070656105204946C9F80000666166
:1028400026612561C8F8007065612F20C9F8000075
:10285000666126612561C8F8007065614FF0080B5C
:10286000C9F800B0666126612561C8F8007065612D
:10287000C1F800B0666126612561C8F80070656125
:10288000C1F800A0666126612561C42000F028FE21
:10289000C8F8007065616321C9F80010666126619F
:1028A0002561C8F800706561C9F800A066612661FD
:1028B0002561C8F800706561C9F800B066612661DD
:1028C0002561C8F800706561C9F800B066612661CD
:1028D0002561C82000F004FEC8F80070656106207C
:1028E000C9F80000666126612561C8F8007065615D
:1028F0000C21C9F80010666126612561C8F80070D6
:1029000065611620C9F80000666126612561C8F876
:10291000007065612422C9F8002066612661256186
:10292000C8F8007065613022C9F800206661266130
:102930002561C8F8007065614822C9F80020666109
:1029400026612561C8F8007065613D214A46C9F8D5
:102950000010666126612561C8F800706561282154
:10296000C9F80010666126612561C8F800706561CC
:102970002021C9F80010666126612561C8F8007041
:10298000656114211160666126612561C8F80070D7
:1029900065614FF00C0AC2F800A0666126612561EE
:1029A000C8F80070656104211160666126612561C7
:1029B000C8F80070656106211160666126612561B5
:1029C000C8F800706561C2F800A0666126612561E3
:1029D000C8F80070656183461060666126612561F4
:1029E000C8F8007065612421C9F80010666126618D
:1029F0002561C8F80070656130204946C9F80000BB
:102A0000666126612561C8F8007065614820C9F8D3
:102A10000000666126612561C8F8007065613D208F
:102A2000C9F80000666126612561C8F8007065611B
:102A300028200860666126612561C8F8007065611C
:102A400020200860666126612561C8F80070656114
:102A500014200860666109E000023000000C0140AB
:102A6000000801400014014000100140266125616A
:102A7000C8F800706561C1F800A066612661256133
:102A8000C8F80070656104200860666126612561F0
:102A9000C92000F025FDC8F8007065610620C9F85E
:102AA0000000666126612561C8F800706561C9F89B
:102AB00000A0666126612561C8F800706561C9F8EB
:102AC00000B0666126612561C8F800706561242147
:102AD000C9F80010666126612561C8F8007065615B
:102AE00030204946C9F80000666126612561C8F8B2
:102AF000007065614820C9F80000666126612561A3
:102B0000C8F8007065613D20C9F800006661266163
:102B10002561C8F80070656128200860666126613B
:102B20002561C8F800706561202008606661266133
:102B30002561C8F80070656114200860666126612F
:102B40002561C8F800706561C1F800A06661266162
:102B50002561C8F80070656104200860666126611F
:102B60002561C8F80070656106200860666126610D
:102B70002561C8F800706561C1F800A06661266132
:102B80002561C8F800706561C1F800B06661266112
:102B90002561C8F8007065612421C9F800106661DC
:102BA00026612561C8F80070656130204946C9F882
:102BB0000000666126612561C8F8007065614820E3
:102BC000C9F80000666126612561C8F8007065617A
:102BD0003D20C9F80000666126612561C8F80070D3
:102BE000656128200860666126612561C8F800706B
:102BF000656120200860666126612561C8F8007063
:102C0000656114200860666126612561C8F800705E
:102C10006561C1F800A0666126612561C8F8007091
:102C2000656104200860666126612561CA2000F0A4
:102C300057FCC8F8007065610620C9F8000066619D
:102C400026612561C8F800706561C9F800A0666159
:102C500026612561C8F800706561C9F800B0666139
:102C600026612561C8F8007065612421C9F800104B
:102C7000666126612561C8F80070656130204946AB
:102C8000C9F80000666126612561C8F800706561B9
:102C90004820C9F80000666126612561C8F8007007
:102CA00065613D20C9F80000666126612561C8F8AC
:102CB0000070656128200860666126612561C8F89A
:102CC0000070656120200860666126612561C8F892
:102CD0000070656114200860666126612561C8F88E
:102CE00000706561C1F800A0666126612561C8F8C1
:102CF0000070656104200860666126612561C8F87E
:102D00000070656106200860666126612561C8F86B
:102D100000706561C1F800A0666126612561C8F890
:102D200000706561C1F800B06661A51425612615C3
:102D30002661C8F8007066612421C9F80010656139
:102D400025612661C8F8007066613021C9F800105D
:102D5000656125612661C8F8007066614821C9F87F
:102D60000010656125612661C8F8007066613D212B
:102D7000C9F80010656125612661C8F800706661B8
:102D80004FF0280AC9F800A0656125612661C8F8DE
:102D9000007066612021C9F8001065612561266117
:102DA000C8F8007066611421C9F8001065612561DA
:102DB0002661C8F8007066610C21C9F800106561D1
:102DC00025612661C8F8007066610421C9F8001009
:102DD000656125612661D02000F082FBC8F8007093
:102DE00066619521C9F80010656125612661C8F802
:102DF000007066610620C9F80000656125612661E2
:102E0000C8F8007066614FF0080BC9F800B0656142
:102E100025612661C8F8007066611021C9F80010AC
:102E2000656125612661C8F8007066613F20C9F8B8
:102E30000000656125612661D12000F051FBC8F8D2
:102E4000007066610221C9F8001065612561266184
:102E5000C8F800706661C9F800A065612561266147
:102E6000C8F800706661C9F800A065612561266137
:102E7000C8F8007066614020C9F8000065612561EE
:102E80002661E12000F02CFBC8F8007066614FF06D
:102E9000000A4946C9F800A0656125612661C8F8A5
:102EA00000706661C9F800A0656125612661C8F8F7
:102EB00000706661C9F800A0656125612661C8F8E7
:102EC00000706661C1F800A0656125612661C8F8DF
:102ED00000706661C1F800A0656125612661C8F8CF
:102EE00000706661C1F800A0656125612661E2207D
:102EF00000F0F6FAC8F8007066618021C9F8001089
:102F00006561256126612A2000F0EAFAC8F80070A0
:102F100066614946C9F800A0656125612661C8F867
:102F200000706661C9F800A0656125612661C8F876
:102F3000007066610120C9F80000656125612661A5
:102F4000C8F8007066613F200860656125612661F0
:102F50002B2000F0C5FAC8F800706661C9F800A01F
:102F6000656125612661C8F800706661C9F800A036
:102F7000656125612661C8F8007066610120C9F8A5
:102F80000000656125612661C8F800706661DF2177
:102F9000C9F80010656125612661112000F0A0FAD2
:102FA000782000F08BFA292000F09AFAC12000F076
:102FB00097FAC8F8007066610521C9F800106561CC
:102FC00025612661C8F8007066612F204946C9F85E
:102FD0000000656125612661C8F800706661C9F866
:102FE00000B0656125612661C8F800706661C9F8A6
:102FF00000B0656125612661C8F800706661C1F89E
:1030000000A0656125612661BDE8F05F202000F029
:1030100067BA10B50C4600F063FAFF494FF4004060
:1030200008604111FD484161FD4A1460821442610B
:103030000261016110BD2C2000F052BA2DE9FF5F42
:1030400083468A462A2000F04BFADFF8CC834FF4FF
:103050000047C8F80070F14C7D116561DFF8C0933E
:103060004FEA1B21C9F80010A6146661266125618C
:10307000C8F8007065610BF0FF01C9F800106661C7
:1030800026612561C8F8007065614FEA1A21C9F808
:103090000010666126612561C8F8007065610AF05C
:1030A000FF01C9F800106661266125612B2000F040
:1030B00017FAC8F8007065610298010AC9F8001093
:1030C000666126612561C8F8007065610298C1B229
:1030D000C9F80010666126612561C8F80070656155
:1030E0000398010AC9F80010666126612561C8F8D5
:1030F000007065610398C1B2C9F80010666126616D
:10310000256104B02C20BDE8F05F00F0E9B92DE99D
:10311000F0411D4614464B190A460119491E5B1E13
:10312000069EFFF78BFFBD484FF4004700217A1140
:103130008314DFF8E4E2DFF8E8C26C4309E000BF83
:10314000CEF800704261CCF8006043610361026117
:10315000491C8C42F4D8BDE8F0812DE9F0411446B9
:103160000D460A461E4607462146DDF81880FFF741
:1031700065FF711BE01B401C491C484384B24FF49F
:103180000045A64900206A11DFF88CC2A44E8B14BA
:103190000AE000BFCCF800504A61C6F800804B61DD
:1031A0000B610A61401C80B2A042F3D3D3E72DE942
:1031B000F0411746121A521C95B25A1A521C94B278
:1031C0000A463946069EFFF739FF94494FF40047F7
:1031D00000207A118B14DFF840E2DFF844C26C4320
:1031E0000CE000BFCEF800704A6136F81050CCF801
:1031F00000504B610B610A61401C80B28442F1DCDB
:10320000A9E72DE9F041002406464FF4163540F2B7
:103210003F13224640F2DF112046FFF70FFF4FF425
:103220000043DFF8F4C158117C497D4F5FEA80020A
:10323000CCF8003048613E604A610A610861641C54
:10324000AC42F5D387E710B514464B1C0A46411C27
:10325000FFF7F4FE70494FF40040086041116F48D9
:1032600041616F4A1460821442610261016110BDC4
:103270002DE9F05F8A468346B0F5F07F02D2BAF5B9
:10328000A07F02D30020BDE8F09F2A2000F028F99B
:10329000DFF884914FF400484946C9F800805F4C3C
:1032A0004FF4806565615E4F4FEA1B203860A614BD
:1032B000666126612561C9F8008065610BF0FF0039
:1032C0003860666126612561C1F8008065610BF197
:1032D0000100010A3960666126612561C9F8008034
:1032E0006561C0B238606661266125612B2000F0FF
:1032F000F7F8C9F8008065614FEA1A203860666106
:1033000026612561C9F8008065610AF0FF00386018
:10331000666126612561C9F8008065610AF10100D6
:10332000010A3960666126612561C9F8008065611E
:10333000C0B238606661266125612E2000F0D0F8A9
:1033400037494FF088300C39086001F1040BCBF895
:1033500000004FF0000AC7F800A0C9F800806561BE
:10336000CE146661012000F0A9F8A7F10408D8F88E
:10337000000026616661012000F0A0F8D8F8000086
:10338000266180B22561ABF104024FF03331116048
:10339000CBF80010C7F800A075E72DE9FF5F1D46C8
:1033A0000C468A46580700D0012000EBD50069087A
:1033B0004843203A00F0FF0902F0FF0B00264BE0E3
:1033C0000C2D10D0102D12D0182D47D115490BEB14
:1033D000CB0000BF01EB80004FF00008875D38068E
:1033E00009D5109A0AE00BEB4B000F49F2E70F49A1
:1033F00001EB0B10F0E70E9820B90F9A21460098C8
:10340000FFF721FF7806641C070EA4B2B4F5A07F75
:1034100024D2A4EB0A000BE0100801400010014088
:103420000C0C0140A412030840080308B40C030864
:10343000A84208D100985446401C80B20090B0F5D4
:10344000F07F0BD206E008F1010000F0FF08B8F1B0
:10345000080FC4D3761CF6B24E45B1D3BDE8FF9F2A
:103460002DE9FE4F044600F0FF0910190D46DDE975
:103470000CB61FFA80F8581987B24FF0010A16E00F
:10348000444503D305EB0B004C4685B2BD4213D235
:10349000DDE90E01CDF800A0CDE901015B4629462A
:1034A0002046FFF77AFF04EB5B0084B2761C32788B
:1034B000A2F120005E28E3D9BDE8FE8F01B581B0FE
:1034C00000204FF4E151009001E0401E019001986E
:1034D0000028FAD10098401C00908842F7DB0CBD10
:1034E000064A4FF4004111604A1105494A61054BF3
:1034F00018608814486108610A6170471408014027
:10350000001001400C0C014004E000BF11F8013B29
:1035100000F8013B521EF9D2704701E000F8011B90
:10352000521EFBD2704710B54C4C4FF40C62002178
:10353000E068FFF7F2FF4FF40C420021A068FFF7AC
:10354000ECFF0120207410BD444A10B50021D26860
:1035500008464FF48C6300BF32F8104004B1491C98
:10356000401C9842F8D364204143B1FBF3F0C0B251
:1035700010BD70B5394C06460025207C08B920687E
:1035800080474FF0FF33FEB1C6F34F11F00601D074
:10359000491C89B2D4F80C2040F25F4032F8106028
:1035A00026B100258D420DD1002207E06D1CADB281
:1035B000F8E7E3688518521C23F815108A42F8D3FF
:1035C000400170BD401EE9D5184670BD70B5234955
:1035D0000A7C4AB1B0F50C4F13D24209C86830F8E2
:1035E00012300020044608E008688047012070BDC2
:1035F000CD681618401C25F816409842F8DB0020CC
:1036000070BD022070BD002803D014498968401A9B
:10361000DCE7704710B5FFF7ACFF411C03D00F4942
:103620008968084410BD002010BD2DE9F041064610
:103630000D460846FFF79DFF0446401C0BD0074F80
:103640002A463146B8682044FFF75EFF3046FFF750
:10365000DAFFB8682044BDE8F08100007C0100205A
:103660002DE9F04F93B0044601200E904FF0000971
:10367000C002CDF82C900646FFF7CCFF5FEA000AA7
:103680000CD04FF40770FFF7C5FF099050B101222D
:103690002146FDF7A2FB040008D0D8E0112013B0AA
:1036A000BDE8F08F5046FFF7AEFFF7E70FAB3246AD
:1036B00051460998FDF7E1FBBAF80A10684D8CB243
:1036C000BAF81C10C1F3C7089AF81E101291DAF864
:1036D0001610A960DAF81200686000F011F9686845
:1036E00000FB08F0810702D080088000001D80B236
:1036F0000D90002083460190594800250189C0683B
:103700008FB27843C0F34F300A907DE0B8F1030FD9
:1037100005D0B8F1020F1DD0B8F1040F2AD125B1A0
:10372000012D06D0022D25D10AE01AF80400C008A8
:103730001FE01AF804104FF4FC6000EAC10105E034
:103740001AF804104FF4784000EA01210198084467
:1037500080B20EE015B1012D0CD166E01298002860
:103760001AF8040005D100F01F0100F0E00001EBA1
:10377000400001906D1C641CEDB2A4B2454524D1FB
:10378000374D6968594519D9E868012200FB0BF0EB
:10379000C0F34F300B900A9900F019F970B10E98F0
:1037A00060B10A98A98B401E084481B22A8B0B98FD
:1037B00010442C4A80B25368019A98470BF10100DB
:1037C0001FFA80FB00200546019009F101000D99C8
:1037D0001FFA80F9894517D37F1E3F043F0C16D08E
:1037E0001F480022C0687843C0F34F3001460A905A
:1037F0000B9800F0ECF800B101204FF0000BD94617
:103800005D46CDF804B00E90B442FFF47FAF0FAB2D
:10381000324651460998FDF730FB0446BDF83C009E
:10382000B04200D006467CB90BE012981AF804109A
:103830000028019802D000EB012089E700EB41202D
:1038400086E708B10024DFE70998FDF7A3FB50469F
:10385000FFF7D9FE0998FFF7D6FE20461FE70000C4
:10386000649600208C96002008B5002A0CD0B0F594
:10387000F07F09D8B1F5A07F06D80244521E00930C
:1038800092B20B46FFF769FC08BD38B50B44024401
:10389000049C5B1E521E9BB292B20094FFF787FC01
:1038A00038BD6E486C4901606D4941606D49816069
:1038B000AFF24B01C160AFF22D01016128384FF426
:1038C000F07101804FF4A07141800021416081605E
:1038D000C160016141618161C16101624162704702
:1038E000614B40EA004041EA014118401940091A81
:1038F000514300EB5110184040EA104080B270472D
:103900002DE9F041554C283C606801F035FF054633
:10391000606901F031FF294601F04CFE0646A068BF
:1039200001F02AFF0546206901F026FF294601F033
:1039300041FE05460146304601F032FF00D23546D1
:103940004FF07E50854200DD0546606801F014FFAF
:10395000294601F059FF0646606901F00DFF314626
:1039600002F01EF84FF0FF37394602F0C0F8064665
:10397000A06901F001FF314601F0A8FD01F0DCFE75
:10398000A061A06801F0F8FE294601F03DFF06465F
:10399000206901F0F1FE314602F002F8394602F0EA
:1039A000A6F80646E06901F0E7FE314601F08EFD1B
:1039B00001F0C2FEE0610D21284602F098F801F006
:1039C000BBFEE060380C20626062BDE8F081234BF2
:1039D00010B5283B1C6A844202D15C6A8C4205D037
:1039E000012A01D1C3E90801012010BD002010BD4A
:1039F0002DE9F041194C0646283CDDE90605B4F8EE
:103A000000C0CF1867450CD8B4F802C01718674536
:103A100007D833B128B1C4E904031048006910B1D4
:103A200002E02920D1E70025C4E906123046FCF760
:103A3000EAFC502805D0512808D0522806D027206B
:103A4000C3E73046BDE8F041FFF70ABE29463046DD
:103A5000BDE8F04100F0B2BE713200088C96002043
:103A6000473200085B3100081FF8E0072DE9F74FE7
:103A700016460D465CE0112E53D315F8010BA6F146
:103A8000110A070900F00F0410F0EE0F49D11021C0
:103A9000009800F0F2FE06003AD0009800EBC40057
:103AA00000EB870B00200446CBF8246015F8011BBF
:103AB0003154401C0C441028F8D36100009800F0E9
:103AC000DCFE030024D0002001460A464FF6FF79B1
:103AD000CBF8343016F801C005E000BF23F812001F
:103AE000401C80B2521CBCF1010CF7D2491C09EAFF
:103AF00040001029EED3A24513D3AAEB04062146B9
:103B0000009800F0BAFE18B10021CBF844000DE097
:103B10000320BDE8FE8F00BF15F8012B1FB90B2A4B
:103B200001D90620F5E700F8012B491CA142F3D387
:103B3000002EA0D10020ECE72DE9F0470546067BDA
:103B4000D5E90004884621780027B946FEB960B15E
:103B5000641C401EB9F1000F15D021784FF0000908
:103B600071B16FF00500BDE8F087AC686B6F4FF482
:103B700080622146284698470028EAD1801EF2E755
:103B8000FF21217002E02178FF290FD080267F00DD
:103B9000314200D07F1C7608A8F10108B8F1000F6F
:103BA000D4D12E73C5E900043846DCE74FF0010993
:103BB000F4E72DE9F84F04468A46057BD4E9000175
:103BC0008846097800269B4617464FF01009009654
:103BD0000DBB50B108F101080099401EB1B10021A0
:103BE000009198F80010A9BB0CE0D4F80880636F2E
:103BF0004FF480624146204698470028ECD1801E51
:103C0000BDE8F88FFF2188F8001003E098F8001055
:103C1000FF2913D080257600294200D0761C1AF89F
:103C2000012B6D088AB100BF37F8023BB34208D1BF
:103C30002573C4E900089BF80000E1E70122009227
:103C400005E00BF1010B521EEED1A9F10109B9F10A
:103C5000000FBDD16FF00500D2E72DE9F04F002233
:103C600050F8404B4FF4B55C50F8405B4FF4B558FA
:103C70000768036CE619E41BEF1A2B4407FB0CF7EB
:103C8000C3EB2737F518A6EB030A07EB040BA4EBED
:103C9000070950F860CC036E50F8207CACEB0304AD
:103CA000066A9C44F31B3E44ACEB060707FB08F78F
:103CB0004FEA27386644E71841F6905C07FB0CF79B
:103CC00041F2511C04FB0CF442F6CF1C03FB0CF335
:103CD0003F13A7EB233305EB060C9B1BAD1BA7EB98
:103CE000243440F880CCA8EB030705660BEB0305F2
:103CF00040F8605CABEB0303036409EB070340F897
:103D0000403CE41BA9EB070303620AEB040340F801
:103D1000203CAAEB0403521C40F87C39082A9FD3AC
:103D20000023DFF82CE620384FF4B55C50F8082B60
:103D30004FF4B55850F8085B02F5004250F8104BAC
:103D400050F8086C1719141BAA1B02FB0CF24FEA5F
:103D5000223C7219ACEB020505EB0409A4EB050A41
:103D6000BE18A7EB020B50F8045C50F81CCC50F8BE
:103D70000C2C50F8147CACEB0504AC44D51B3A4435
:103D8000ACEB020707FB08F74FEA273862446719D4
:103D900041F6905C07FB0CF741F2511C04FB0CF45C
:103DA0003F1342F6CF1C05FB0CF5A7EB2535A7EB1F
:103DB0002434AD1AA8EB0507A4EB070CB418C4F320
:103DC0000928B21A1EF80880C2F3092201F8078BED
:103DD0001EF8022001F8062909EB0502C2F30922A8
:103DE00074461EF8022001F8012BA9EB0502C2F36C
:103DF00009221EF802200A710AEB0702C2F3092207
:103E0000A25C01F8022BAAEB0702C2F30922A25C12
:103E10004A700BEB0C02C2F30922A25C01F8012CE0
:103E2000ABEB0C02C2F309221EF802205B1C01F866
:103E3000042B082BFFF478AFBDE8F08F2DE9FF5F6E
:103E40000446877B466EC07BA16E4743002507F181
:103E50000209039199E0BD4202D24FF0000A06E048
:103E6000E81B401C5FEA000A01D0012000E00020AE
:103E700004EBC0008346436C426B416A2046FFF767
:103E800098FEB0F1000802DAC8F1000058E004EB37
:103E90004A000190B0F91400009013D0414620462A
:103EA000FFF74AFE00284ADBA8F1010101228A40FF
:103EB000104202D1A0EB4200401C00990844019935
:103EC0000090888204EB0A00007C04EB8000D0F8AC
:103ED00054A00098DAF80010414308123060012025
:103EE0005FF0000146F82010401C4028FAD3DBF8B0
:103EF00028000090DBF838000190DBF848004FF014
:103F0000010802909DE80E002046FFF752FE0028AF
:103F100030D014DB010907D08844B8F1400F03D337
:103F2000062004B0BDE8F09F00F00F005FEA000B30
:103F30001BD001462046FFF7FFFD002802DA404271
:103F4000C0B2EEE7ABF1010201219140084202D17B
:103F5000A0EB4100401CFE4AC03A12F808105AF883
:103F600021204243101246F8210008F10108B8F15F
:103F7000400FC7D3607B03280CD030460399FFF76E
:103F80006CFE039840306D1C0390A9453FF663AF6B
:103F90000020C6E73068C11700EB1160802101EBFB
:103FA000202003990870ECE72DE9FF4F817B93B047
:103FB000CD00C17B5419CE00C1698C4201D82C467A
:103FC00000E08C1A016A9F198F4201D8374600E041
:103FD000CF1A417BCC4027FA01F7049715D0A7B13F
:103FE000CA40CB401119ADF83C20491EADF83E1037
:103FF000D919ADF84030491EADF84210417B032974
:1040000078D00021D0F864B062E0002017B013E748
:10401000816E102E01EBC90707D005EB090201EBF9
:10402000C20200BF4FF0000C4EE04FEA590201EB14
:10403000C20202F58072B9F1080FF3D34037F1E7FD
:1040400092F840301178803BA1F1800E102D52D0B3
:1040500012F1010240F29B5803FB08F117F801AB83
:104060004FEAE17801EB98580AEBA821C1F309085F
:10407000B7490CF1010C18F801800BF8018B40F2E4
:10408000DB214B430EEB4E0808EBCE0103EB411155
:10409000CB1701EB9353AAEBA321C1F30903AC495E
:1040A0005B5C8BF8003040F216730EFB03F1CB170C
:1040B00001EB93530AEBA321C1F30903A4495B5C11
:1040C0008BF801300BF1020BAC45B9D309F10101BA
:1040D0008946B1429CD3417B002950D04A000992C5
:1040E00001228A40A91A01EB41010691416E11910A
:1040F000002141E044E0BCF1080F00D138370CF05A
:1041000001010A44A6E7002131E0019B476E03FB51
:1041100005E14FF0000901EB41013944CB46DA4695
:104120004F4610E0002309E011F8018B5B1CC244EC
:1041300011F8018BC34411F8018BC1449342F3D3AE
:10414000069B7F1C19449742ECD3099B2AFA03F182
:10415000119B1970099F11992BFA07F34B70099F56
:1041600029FA07F38B70C91C11910EEB02018E46E0
:10417000A942CAD3019911440191B142C3D35AE073
:10418000D0E9191205FB0622137892F84020A3F11A
:10419000800BA2F1800E00224AE0826EB9F1080F76
:1041A00000D1803200273FE040F29B580EFB08FC14
:1041B00012F8403B4FEAEC780CEB985C03EBAC2C2C
:1041C000CCF30908DFF888C1083718F80CC001F8EB
:1041D00001CB8A4640F2DB210EFB01FC0BEB4B08C6
:1041E00008EBCB010CEB41114FEAE17C01EB9C5158
:1041F000A3EBA121C1F3090C554940F216781CF834
:1042000001C08AF800C00BFB08FC4FEAEC780CEB0D
:10421000985C03EBAC23C3F3090C4D4B0AF101018D
:104220001CF8033001F8013BAF42BDD309F108028D
:104230009146B242B1D3417BCD40AC421DD2416EDA
:1042400000260A4616E000230DE000BF11F8017BAE
:1042500002F8017B11F8017B02F8017B11F8017B68
:1042600002F8017B5B1CA342F0D32B1B03EB43033F
:104270001944761C049B9E42E5D3416E049B0A467A
:104280005C4300BF11F8013B11F8015B03F0F80338
:104290001B0205F0FC0543EAC50311F8015B641E2F
:1042A00043EAD50322F8023BECD1149B0FAA416EDE
:1042B0009847C0B2AAE62DE9F05F04460A987AB39F
:1042C000C4E91D100020C4E91B23608302460021BD
:1042D00004EBC20505EB8103491C5862586358641E
:1042E0000229F7D3521C022AF1D300214FEA000918
:1042F00004EB8102491CC2F854900429F8D34FF40E
:104300008061204600F0B9FA0646A060300073D004
:10431000636F022231462046984702286DD102E0A1
:10432000FFE70520FEE5308840BAA0F57F41D83987
:1043300072D14FF0020A636F04223146204698473B
:104340000428EBD1718830884DBA40BA022D01E0C3
:10435000C020030860D9FF21B1EB102FE8D1AD1EBA
:10436000C0B20AEB0501C03801F1040A1E2871D25F
:10437000DFE800F00FBEBEBE53BEBEBE70BEBEBE06
:1043800070BEBEBE707070707070707070BEA464CD
:104390007044B5F5806F7CD8636F2A46314620465D
:1043A0009847A842BAD1B6F8030040BAE061B6F81F
:1043B000010040BA2062707903286BD15FF00000E1
:1043C00000EB40018A19D17910B1112962D10AE0BC
:1043D000112903D0222901D021295BD10B09A37314
:1043E00001F00F01E173117A032953D82218401C00
:1043F00011740328E4D39EE7BEE07BE0B5F5806F3F
:104400005FD8636F2A46314620469847A84271D14B
:10441000308840BA60838EE79BE0B5F5806F50D856
:10442000636F2A46314620469847A84262D12A4601
:1044300031462046FFF71AFBC0B23AE0B5F5806F6F
:104440003FD8636F2A46314620469847A84251D14B
:1044500037462BE092E0412D04D317F8010B413D84
:10446000010901D0062024E000F003084FF4807118
:10447000204600F002FA01001ED004EB8800DFF8AD
:1044800018B4416500200BF1400C00BF1BF8002060
:1044900001E016E02CE017F8013B3CF81280401CCC
:1044A00003FB08F341F822304028EFD3002DD2D18E
:1044B000484600289FD035E50320FAE7B5F5806F20
:1044C00001D904202EE5636F2A46314620469847DD
:1044D000A8425AD1E069E0B3206AD0B3307803280B
:1044E00006D1002006EB4001897821B1112902D0C4
:1044F000082017E549E008B1012100E0002104EBA4
:10450000C1014A6A2AB3896A19B32118097C04EBEC
:104510008101496DE9B1401C0328E3D3E57BA07B11
:10452000454327D0402000EBC511FF2900D881006A
:10453000204600F0A2F96066F0B1A9012046803162
:1045400000F09BF9A066B8B1C4E9009684F80C901D
:1045500000E00FE0CAF30900002809D03518C0F5C3
:104560008062636F2946204698476D1EC4E90005A6
:104570000020D7E40620D5E40320D3E4636F2A4665
:10458000002120469847A84294D00220CAE42DE991
:10459000F74F84B00446032A02D9052007B04BE444
:1045A0006273A07B4FF0000BC0000290E07B5D4681
:1045B000C0000190A4F814B0A4F816B0A4F818B084
:1045C000AA465846594656E000214DE0608BB0B3EC
:1045D00029466D1CADB2814236D15146481C1FFAA6
:1045E00080FA0091D4E9000500263746E0B16D1C41
:1045F000401E29787F1C41EA06218EB2022FF5D396
:10460000C4E9000526F02701A1F57F42584684F849
:104610000CB0D03A06D1009906F0070201F007016C
:104620008A420DD00620B9E7A568636F20464FF493
:104630008062294698470028DAD10220AEE703E0DD
:10464000A082E082208301252046FFF7F7FB0028A7
:10465000A4D14B46424620460599FFF7A5FC002809
:104660009CD1029A08EB0201E26988464245ADD826
:10467000019A09EB0201226A89464A45A4D88DE7CE
:1046800010B54FF40770FEF7C5FF844C206060B191
:104690007C20FEF7BFFF606038B14FF48050FEF71A
:1046A000B9FFA06008B1002010BD112010BD10B5E9
:1046B0007A4C2068FEF7A7FF6068FEF7A4FFA068A9
:1046C000BDE81040FEF79FBF38B5806F144621B19A
:1046D0006B46FCF7D2FB009838BD81682144FCF79B
:1046E00062FC08B1002038BD204638BD38B553887B
:1046F00010886B4D1B1A5B1C9CB2D388928800916A
:10470000A98B9B1A11442A8B5B1C1044654A9BB2EF
:1047100089B2156980B22246A847002038BD2DE92C
:10472000F84F10880C4651888146081A401C1FFA21
:1047300080F8D08891881546401A401C1FFA80FAEC
:104740000027DFF85CB134E0A988DBF80C003944BD
:104750004843C0F34F300146009000224846FFF71F
:1047600036F908B1002620E004EB48041FE0298850
:10477000DBF80C0031444843C0F34F30814601223E
:104780000099FFF724F968B1BBF81C300099228822
:104790001944BBF8183089B203EB0900414B80B2D1
:1047A0005B689847A41C761CB6B24645DFD37F1CD5
:1047B000BFB25745C8D30020BDE8F88F2DE9F843B4
:1047C00088460546FFF75CFF040051D12946334D6A
:1047D00001222868FCF701FB040046D128684FF449
:1047E0008053AFF21B110090D5E90102FFF763FD82
:1047F0000400AFF2D50638D129496868D1E90473BD
:10480000D0F81C2022FA04FC9C4515D8D0F820C012
:104810002CFA04FCBC450FD8E2409A4206D0026A4A
:10482000E240BA4202D024B100240BE0AFF24316BA
:1048300006E0AFF2471605E0641CE4B2042CE1D3B5
:10484000042CF1D0B8F1000F01D1AFF22D16026A9D
:10485000E2408A60C069E0404860FFF751F82246B4
:1048600031466868FFF793FE04462868FCF792FB20
:10487000FFF71DFF2046BDE8F883C91C036F002227
:1048800021F003018B4204D35A1A0267C26E11440D
:10489000C166104670470000002003089001002008
:1048A000649600208C96002070B592B001460024DA
:1048B00008A8FCF7DFFB054640F2FF100790FEF763
:1048C000A9FE0690CDB9C0B105260DF109056946CE
:1048D00008A8FCF718FC80B99DF8090068B1069893
:1048E000007808B1069800E02846FBF78CFDB6EB8F
:1048F000101FECD1641CA4B2E9E712B0204670BDD1
:1049000070B5012188B00846FCF7A8FF01210420FA
:10491000FCF79BFF0124ADF81C4018208DF81F0008
:1049200003208DF81E0007A9D348FCF7A4FD6320DF
:10493000ADF814002320ADF810000025A607ADF84F
:10494000125004A93046FDF7A1F97020ADF800001F
:104950003120ADF80600ADF80240ADF808506946C8
:104960003046FDF7CCF901213046FDF738FC08B0A0
:1049700070BD7FB543F26660FEF743FC4FF4FA70FA
:1049800000F010FA18264FF6FF740025BBA0009621
:104990000394CDE9010533464FF4E1726E212420E2
:1049A000FEF75EFDBEA000960394CDE90105182335
:1049B0004FF4C872A0213C20FEF752FD4FF47A74E8
:1049C000204600F0EFF9204600F0ECF9204600F018
:1049D000E9F9204600F0E6F9204600F0E3F904B0DA
:1049E0000020BDE87040FEF70CBC38B50121042062
:1049F000FCF72BFF0820ADF8000048209E4C8DF8F6
:104A0000030069462046FCF736FD08212046FCF7E6
:104A10008CFD002800D0012038BD2DE9F04F9DB05D
:104A20004FF000084FF0310A00F08EF9FFF768FFF1
:104A3000FDF70EFEFDF760FE00F0D2F9FEF773FD04
:104A4000FBF7B8FCFFF795FF0020FEF7DAFB002725
:104A50004FF4784418254FF496760AE098A0CDE9F3
:104A60000050CDE9027418233246A0215020FEF7F1
:104A7000F7FCFFF7BAFF0028F0D19548012295A175
:104A80000068FCF785F9A946B3460BE092A1CDF882
:104A900000900394CDE9011718235A46A021502015
:104AA000FEF7DEFC92A109A8FCF7E4FA0028EDD19C
:104AB0008FA0FFF7F9FE05000FD040F2FF1019900C
:104AC000FEF7A8FD18901998FEF7A4FD079068005E
:104AD000FEF7A0FD06464F4619E04D465E4687A00C
:104AE000CDE90050CDE9027418233246A0215020B0
:104AF000FEF7B6FCF3E7002084A100970394CDE90C
:104B0000011018235A46A0215020FEF7A9FC18983E
:104B10000028F0D007980028EDD0002EEBD074A12B
:104B200009A8FCF7A7FA0DF15109E8B900244FF0E4
:104B3000050B00BFBDF82A7012A909A8FCF7E3FA1B
:104B400090B99DF8510078B11898007808B118987C
:104B500000E04846FBF757FCBBEB101FEAD126F8F4
:104B60001470641CA4B2E5E740F2DC5000F01AF9BE
:104B7000FEF797FE00245EA109A8FCF77BFA002847
:104B80006DD100BF36F8141009A8FBF7EEFC12A98E
:104B900009A8FCF7B8FA90BB9DF8510078B31898B3
:104BA000007808B1189F00E04F465FA1079800F019
:104BB000E3FB3946079800F003FC0020FEF721FBD9
:104BC00001214FF4A070CDE9000100224FF4F073F1
:104BD00011460798FEF70CFF002700F012F94FF47A
:104BE000FA7B03E00027B8F1000F10D0022807D0AD
:104BF00001280CD0032810D0042816D025E02EE080
:104C000014B1641EA4B2BDE7681E84B2BAE7641C86
:104C1000A4B2AC42B6D30024B4E7B8F1000F02D07E
:104C20000020804611E00120FBE70AF10F0000F0B0
:104C3000FF0ABAF1640F01D94FF00A0AAAF1010084
:104C400081B24FF08040FDF7CCFC7F1CBFB2142036
:104C500000F0A8F800F0D5F85F45C7D9C2E718986A
:104C6000FEF7D1FC0798FEF7CEFC3046FEF7CBFCF2
:104C70001DB00020BDE8F08F000801404E6576654C
:104C80007220676976652075702077686174207975
:104C90006F75207265616C6C792077616E740000AD
:104CA000746F2C4265636175736520796F75207729
:104CB000696C6C207265677265742069742E0000DF
:104CC0004E6F205344204361726421212100000073
:104CD00014000020303A00004E6F20275049435402
:104CE0005552452720466F6C6465722121210000D2
:104CF000303A2F5049435455524500004E6F2050D2
:104D00006963747572657321212100004D656D6FB3
:104D1000727920416C6C6F636174696F6E204661BB
:104D2000696C656421212100303A2F504943545564
:104D300052452F007047FEE7FEE7FEE7FEE77047AB
:104D4000704770477047000010B56FF00400FCF723
:104D500028FB204820490068B0FBF1F0C1B21F4891
:104D600001EB41020170C2EBC1114FF6FF7202EA82
:104D7000C101418010BD1949097848434FF0E02135
:104D8000486100228A61086940F0010008610869F1
:104D9000C30701D0C003FAD5086920F001000861FB
:104DA0008A6170470D49498848434FF0E0214861C6
:104DB00000228A61086940F0010008610869C307A0
:104DC00001D0C003FAD5086920F0010008618A61AA
:104DD000704700000000002000127A009C010020B3
:104DE00008B501211020FCF730FD4FF47070ADF8CC
:104DF000000048208DF8030069462E48FCF73BFB75
:104E000008BD70B52B4C002540212046FCF78DFBDA
:104E100070B90A20FFF7C6FF40212046FCF785FB4A
:104E200030B940212046FCF780FB0028F9D001254D
:104E300080212046FCF779FB70B90A20FFF7B2FF0A
:104E400080212046FCF771FB30B980212046FCF719
:104E50006CFB0028F9D002254FF4807631462046BD
:104E6000FCF763FB70B90A20FFF79CFF3146204630
:104E7000FCF75BFB30B931462046FCF756FB0028B7
:104E8000F9D003254FF4007631462046FCF74DFB60
:104E900070B90A20FFF786FF31462046FCF745FB34
:104EA00030B931462046FCF740FB0028F9D00425F4
:104EB000284670BD00100140382000F04ABA00209A
:104EC00000F047BA38B501210420FCF7BEFC1C20D5
:104ED000ADF8000010208DF803000320EB4C8DF896
:104EE000020069462046FCF7C6FA1C212046FCF762
:104EF00030FB00F0F7F9E6490120C1F8900138BD18
:104F0000E3490120C1F89001FF2000F0C5B970B558
:104F100000246FF07F45FF2000F0BEF9FF2804D089
:104F2000641CAC42F7D3012070BD002070BDD8498D
:104F300010B50020C1F89001FFF7E9FF002802D06A
:104F4000FFF7DEFF012010BD70B505464FF6FF7478
:104F500001E0641EA4B2FF2000F09EF9A84202D036
:104F6000002CF6D102E00CB1002070BDFF2070BD16
:104F700070B504460D46FE20FFF7E6FF30B1012074
:104F800070BD00BF00F088F904F8010B6D1EADB2D2
:104F90004FF0FF00F6D200F07FF9FF2000F07CF91F
:104FA000002070BD70B50C460546FFF7B0FF08B194
:104FB000012070BD204600F06FF9FD2C18D00024B0
:104FC0004FF40076285D00F067F9641CA4B2B44287
:104FD000F8D3FF2000F060F9FF2000F05DF9FF201A
:104FE00000F05AF900F01F00052801D0022070BD22
:104FF000002070BD70B516460C460546FFF780FFD1
:10500000FFF795FF08B1FF2070BD45F0400000F0AC
:1050100043F9200E00F040F9C4F3074000F03CF9DA
:10502000C4F3072000F038F9E0B200F035F930465B
:1050300000F032F90C2D02D1FF2000F02DF91F24D1
:10504000FF2000F029F90106DED5641EE4B2F7D294
:1050500070BD2DE9F843FFF735FF382000F079F9EE
:105060000024FF2000F018F9641CA4B20A2CF8D325
:105070001424002195220846FFF7BCFF05460128AD
:1050800002D0641EA4B2F4D2824E0027012D3770E4
:105090007AD187224FF4D5710820FFF7ABFF4FF686
:1050A000FE7801281ED0012200213720FFF7A2FF41
:1050B000012200212920FFF79DFF01284FD802205F
:1050C00030704446012200213720FFF793FF012270
:1050D00000212920FFF78EFF05004DD0641EA4B2E9
:1050E000F0D249E000246F46FF2000F0D5F8385593
:1050F000641CA4B2042CF7D39DF80200012843D10C
:105100009DF80300AA283FD144464FF08048012271
:1051100000213720FFF76EFF012241462920FFF7CB
:1051200069FF050002D0641EA4B2F0D2B4B101221E
:1051300000213A20FFF75EFF80B90024FF2000F035
:10514000ABF83855641CA4B2042CF7D39DF80000CA
:10515000400601D5062000E00420307014E0012054
:1051600030704446012200211046FFF743FF05003E
:1051700002D0641EA4B2F5D22CB10122510210203B
:10518000FFF738FF00B13770FFF7BAFE002000F0DC
:10519000E0F8307810B10020BDE8F8830DB1284662
:1051A000FAE7AA20F8E72DE9F04106463948154606
:1051B0000078062800D049024FF40077012D4FF007
:1051C00001021AD01220FFF715FF39463046FFF7CB
:1051D000CFFE6D1E044606F5007615F0FF0501D0E2
:1051E000002CF2D0012200210C20FFF703FF00BFAA
:1051F000FFF786FE2046BDE8F0811120FFF7FAFE9A
:105200000400F5D139463046FFF7B2FE0446EFE719
:1052100070B506461F4815460C460078062800D093
:105220004C02012D13D0012809D001220021372082
:10523000FFF7E0FE012229461720FFF7DBFE0122DF
:1052400021461920FFF7D6FE04000AD01AE00122F9
:1052500021461820FFF7CEFE040013D1FE21304670
:105260000DE0FC213046FFF79DFE6D1E06F5007631
:1052700015F0FF0501D00028F3D0FD210020FFF735
:1052800091FE0446FFF73CFE204670BD0008014039
:1052900000002142A001002070B506460024334DD5
:1052A00003E0641CE4B2C82C0FD802212846FCF7A6
:1052B00028FC0028F5D031462846FCF7DEFB002408
:1052C00005E0641CE4B2C82C01D9002070BD0121A6
:1052D0002846FCF716FC0028F3D02846FCF7CFFB45
:1052E000C0B270BD38B5012141F20400FCF7ADFA3F
:1052F000E020ADF8000018208DF8030003201C4CBE
:105300008DF8020069462046FCF7B5F8E0212046FA
:10531000FCF71FF9174800214FF482720180428088
:1053200081800222C28001220281520242813822FF
:105330008281C181072101820C4C01462046FCF785
:10534000F7FA01212046FCF770FBFF20FFF7A4FFCE
:1053500038BD06490A8822F038020A800A880243CA
:105360000A80088840F04000088070470030014003
:1053700000080140A096002040EA0103024630B533
:105380009B0710D14FF0013400E008C208C91D1B73
:105390009D4315EAC41FF8D013F0FF0102F8011B6A
:1053A0000DD01B0AF8E711F8013B002B02F8013B76
:1053B00005D011F8013B002B02F8013BF3D130BDC1
:1053C000421E12F8013F002BFBD111F8013B002BCC
:1053D00002F8013BF9D170474FF0013C50F8042B23
:1053E00051F8043B9A4221D1A2EB0C03934313EAF8
:1053F000CC1317D150F8042B51F8043B9A4215D125
:10540000A2EB0C03934313EACC130BD150F8042BFB
:1054100051F8043B9A4209D1A2EB0C03934313EADF
:10542000CC13DBD04FF00000704700BFD01A01BA98
:10543000B1FA81F101F0180122FA01F0CB40C1F17B
:105440002001DBB2C0B2C01A2CFA01F3D11A914389
:1054500011EAC311E6D1704770477047704775462F
:1054600000F028F8AE4605006946534620F00700D4
:10547000854618B020B5FAF75FFFBDE820404FF031
:1054800000064FF000074FF000084FF0000B21F02E
:105490000701AC46ACE8C009ACE8C009ACE8C009FB
:1054A000ACE8C0098D4670470446AFF30080204643
:1054B000FAF783FE00487047B4960020014918208F
:1054C000ABBEFEE7260002007047000090EA010F25
:1054D00048BF81F0004100F16A82421A3CBF801A45
:1054E00089184FEAD0524FF07F4C1CEA410FA2EBD3
:1054F000D15318BF9CEA026F00F03B804FF0004C84
:105500004CEA00204CEA012121FA03FC10EB0C0CC0
:105510001ED202F1FF325FEA1C2040EBC25038BFBE
:1055200070471CF07F0F4FEA400C18BFBCF17F4F53
:1055300038BF7047C3F12003994008BF20F0010035
:10554000BCF17F4F38BF7047A0F1C04000F023BAD4
:105550004FEA3C00000A40EBC25028BF1CF0FF0F8E
:105560004FEA400CE6D018BFBCF17F4F38BF704700
:10557000EAE79CEA026F05D010EA5C0F08BF00F072
:105580000040704710B500F0C0F900BF64FBBE3E9C
:10559000014800F07ABA00BF0000C07F401058BF39
:1055A000C0F14040491058BFC1F140418142EFF382
:1055B000008070474FF47F0C1CEAD0121EBF1CEA1B
:1055C000D11392EA0C0F93EA0C0F00F0858090EA59
:1055D000010F48BF42F4807240F4000C41F4000017
:1055E0002CF07F4120F07F4000B58142A2EB030206
:1055F0000FF2081CACEB504EC0F100009EF800E02A
:105600004FEA4E0E00FB0EFC38BF49004FEA2C1C3F
:1056100002F5FA020CFB0EF34FEACE1E4FEA112CF4
:105620004FEAC1210EEB635E42EB22420EFB0CFC03
:105630004FEA1C5300FB03114FEA112C4FEA0131D2
:105640000EFB0CFC4FEADC4C00FB0C11C14228BFE6
:1056500009184CEB03335DF804EB10EB410143EB0D
:10566000C250B2F57C0F38BF704729D512F0F00F49
:105670001CBF00F1C04000F00040704700818283F1
:105680008485868788898B8C8D8E8F919293959651
:1056900097999A9C9D9FA0A2A3A5A7A8AAACAEB0DB
:1056A000B2B3B5B7B9BCBEC0C2C5C7C9CCCED1D4E0
:1056B000D7D9DCDFE2E6E9ECF0F3F7FAFE00000010
:1056C0004FEA400C0CF1807CBCF17E4F28BF704744
:1056D000B0F1C04000F05FB990EA010F0CEAD113BD
:1056E00048BF42F48072624538BF634507D213F465
:1056F0007F0F16D080EA010000F00040704710B51F
:1057000000F003F9097EFC3E00F005B880EA0100D4
:1057100000F00040704780EA010000F0004000F017
:105720003AB912F47F0F04BF0248704780EA0100C3
:1057300000F031B90000C07FC10DD1F19E0206DB3F
:105740004FEA002343F0004323FA02F0704700427F
:1057500007D54FEA4001B1F1FE4F02D24FF00000F1
:10576000704710B500F0D1F84992248000207047AE
:105770006FEA200070470000B0FA80F310FA03F2DD
:10578000C3F19D030AD0D90501EB1220530638BF9F
:10579000704700F1010008BF20F0010070470000D1
:1057A00050EA010C00F113801CF5000F58BFBCF546
:1057B000000F01D48842704707D710F5000F58BF7B
:1057C00011F5000F15D488427047894270471CF5C7
:1057D000000F04D5BCF5000FF7D5814270474FF09C
:1057E000807C1CEB400F38BF1CEB410F01D2814283
:1057F000704710B500F089F8922449004FF000502E
:105800004FF08051FFF7CABE4FF47F0C1CEAD01254
:105810001EBF1CEAD11392EA0C0F93EA0C0F00F0A2
:10582000478090EA010F48BF42F480724FF0004C6D
:105830004CEA00204CEA012102EB0302A0FB011319
:10584000A2F50002002918BF43F001035B0028BF46
:105850004FEA330342EB22425FEA132C4CEBC25077
:105860002EBFBCEB436FB2F57C0F70474FEA036C61
:10587000BCF1004F08BF20F00100B2F57C0F38BF2B
:1058800070470BD582F0FF0212F5803FC8BF70470A
:1058900000F1C040D8BF00F00040704700F5000C98
:1058A0005FEA4C0C48BF7047B0F1C04000F073B8DD
:1058B00090EA010F0CEAD11348BF42F480726245AE
:1058C00038BF634504D280EA010000F00040704711
:1058D00010B500F01AF800BF8900013E00F007B8CB
:1058E00000F009B85FEA410C5FEA1C6C08D080EA5E
:1058F000010000F050B85FEA400C5FEA1C6CF6D182
:105900004FF00040A0F5800070470EF1020E2EF01F
:10591000030E5EF8044B244204D44FEA4102B2F174
:105920007F4F11D84FEA4003B3F17F4F0CD80ED10F
:105930004FEAD07CB2F17F4F0CEB4C0C0CF1020C17
:1059400008BF4CEBD17C04E04FF0080C01E04FEABB
:10595000D17C0CEB4C0324FA03F404F00704B4F1FB
:10596000040C06D20EEB840CBDE810404CF0010C88
:105970006047DFE80CF0070802024FF00040A0F596
:10598000800010BD0846420018BFD2F1807288BF67
:1059900000F0004010BDFF2141EAD050C005704723
:1059A00090EA010F48BF81F000413FF596AD421AE1
:1059B00004D882F00042A0EB020011444FEAD0521A
:1059C0004FF07F4C1CEA410FA2EBD15318BF9CEA69
:1059D000026F4AD04FF0004C4CEA00204CEA012103
:1059E00021FA03FCB0EB0C0C0FD412F0FE0F36D0F2
:1059F0005FEA4C001DD5001240EBC25038BF704723
:105A00001CF03F0F18BF70470BE0A2F101025FEAE4
:105A10001C2040EBC25038BF70471CF07F0F18BFEE
:105A20007047C3F12003994014BF401E20F00100CD
:105A3000704780084FEA122308BF7047B0FA80FC15
:105A4000A2EB0C02CCF1280C60FA0CF093EA122FB6
:105A500004BF00EBC25070474FEAC3707047130A8F
:105A60005FEADC1008BF7047F6E79CEA026F04D0DB
:105A700010EA5C0F08BF0020704710B5FFF745FF24
:105A800040DFF63E81F0004070470CF00F03092B19
:105A900008BF082000F051800A2B0BD0082B18BF3C
:105AA000704708BF1CF0400F0AD04FF000004FF0C5
:105AB000000170471CF0400F18BF4FF000407047C6
:105AC0001CF0100F08D020F0704300F07F4242EA33
:105AD000D3014FEA4370704700F0604021F07F42ED
