:030000000201EA10
:0C01EA00787FE4F6D8FD75814E020231EA
:100346000B24BFC0F9A4B0999282F8809006377F3B
:10035600BFDFEFF7FB063DBFBFBFBFBFBF06450808
:0503660008080808086A
:1002F2008537A07424252FF8E6F5807F0112033795
:100302008538A074242530F8E6F580120337853944
:10031200A074242531F8E6F580120337853AA074DB
:10032200242532F8E6F580120337853BA074242594
:0503320033F8E6F58040
:0E033700E4FEEEC39F50077DE8DDFE0E80F46D
:010345002295
:1003DD00EFD39400400B7E147DF8DDFEDEFA1F8016
:0103ED00EF20
:0103EE0022EC
:100401001202F2853CA074242534F8E6F58002033B
:0104110037B3
:10039200E4FF742F2FF8E6FE74452FF8E6B5060445
:1003A200D2008004C2007F060FEFC3940640E3A28E
:0103B200004A
:0103B3002227
:1003B400E590640F600EE590540FFF7590F0E590A2
:0403C40054F04FFFA3
:0103C8002212
:100151002098030201E9859936853622E522700748
:10016100742F2508F87601E522B40107742F2508BC
:10017100F87602E522B40207742F2508F87603E524
:1001810022B40307742F2508F87604E522B4040786
:10019100742F2508F87605E522B40507742F250884
:1001A100F87606E522B40607742F2508F87607E5E8
:1001B10022B40707742F2508F87608E522B408074A
:1001C100742F2508F87609E522B40907742F25084C
:1001D100F8760AE522B4750C120392E433F521B4E2
:0801E1000102D2B7C298050823
:0101E90022F3
:1003C900E4F5351202F2853CA074242534F8E6F5EB
:0403D9008002033764
:10000300EF12036C00807700E97B01437D0065B745
:1000130000D1BB0131BD004AD700B6DB0119DD00B9
:100023002FE7009BEB0101ED00000150E535C39480
:1000330006400302015074452535F87601742F25D7
:1000430035F87601053522E535C3940640030201F0
:100053005074452535F87602742F2535F876020558
:100063003522E535C3940640030201507445253516
:10007300F87603742F2535F87603053522E535C365
:100083009406400302015074452535F87604742F15
:100093002535F87604053522E535C3940640030279
:1000A300015074452535F87605742F2535F8760506
:1000B300053522E535C394064003020150744525F6
:1000C30035F87606742F2535F87606053522E5359D
:1000D300C39406507874452535F87607742F253573
:1000E300F87607053522E535C39406506074452537
:1000F30035F87608742F2535F87608053522E53569
:10010300C39406504874452535F87609742F253570
:10011300F87609053522E535C39406503074452534
:1001230035F8760A742F2535F8760A053522E53534
:10013300B4061A120392E433F521B40110D2B722A4
:0E014300E535D394065006E4F5357523012208
:1003EF00758920E4F587759850758DFD758BFDD255
:0203FF008E224C
:100276001203EFE4F5357580BFC2B775900FE590B0
:10028600640F60107F901203371203B41200037FCD
:100296009012033712015120B50C120392E433F584
:1002A60021B40102D2B7120401E523B401CD742FA3
:1002B6002535F8E4F60535742F2535F8E4F60535C9
:1002C600742F2535F8E4F60535742F2535F8E4F650
:1002D6000535742F2535F8E4F60535742F2535F8E0
:0C02E600E4F6120401E4F523F535808FE6
:1001F600020276E493A3F8E493A34003F68001F2A7
:1002060008DFF48029E493A3F85407240CC8C33309
:10021600C4540F4420C8834004F456800146F6DFD8
:10022600E4800B0102040810204080900346E47E1F
:10023600019360BCA3FF543F30E509541FFEE493CD
:10024600A360010ECF54C025E060A840B8E493A394
:10025600FAE493A3F8E493A3C8C582C8CAC583CABF
:10026600F0A3C8C582C8CAC583CADFE9DEE780BE77
:01036B000091
:10036C00D083D082F8E4937012740193700DA3A320
:10037C0093F8740193F5828883E473740293686034
:06038C00EFA3A3A380DF34
:00000001FF
