:1004EE00030B090D0C0E060707060E0C0D090B0368
:0A04FE00C0F9A4B0999282F8809032
:04052E000213001F95
:10000300C297E4F50BF50C20A00D30A0FD750C0193
:100013009004FFE493F58020A10D30A1FD750C023F
:10002300900500E493F580120383E50C24FE600839
:10003300047008120508800312051BE51370C8E558
:10004300141204C8012F07013509013B0B01410DAF
:1000530001470F014D11015313015915015F170199
:100063006519016B1B01711D01771F017D2101833F
:1000730023018925018F27019529019B2B01A12D9F
:1000830001A72F01AD3101B33301B93501BF3701E9
:10009300C53901CB3B01D13D01D73F01DD4101E32F
:1000A3004301E94501EF4701F54901FB4B02014DCE
:1000B30002074F020D51021353021955021F570233
:1000C3002559022B5B02315D02375F023D6102431A
:1000D30063024965024F67025569025B6B02616DFA
:1000E30002676F026D71027373027975027F770283
:1000F3008579028B7B02917D02977F029D8102A30A
:100103008302A98502AF8702B58902BB8B02C18D29
:1001130002C78F02CD9102D39302D99502DF9702D2
:10012300E59902EB9B02F19D0000000A7508640249
:10013300000A75086302000A75086202000A75085E
:100143006102000A75086002000A75085F02000A6E
:1001530075085E02000A75085D02000A75085C02F4
:10016300000A75085B02000A75085A02000A75083E
:100173005902000A75085802000A75085702000A56
:1001830075085602000A75085502000A75085402DC
:10019300000A75085302000A75085202000A75081E
:1001A3005102000A75085002000A75084F02000A3E
:1001B30075084E02000A75084D02000A75084C02C4
:1001C300000A75084B02000A75084A02000A7508FE
:1001D3004902000A75084802000A75084702000A26
:1001E30075084602000A75084502000A75084402AC
:1001F300000A75084302000A75084202000A7508DE
:100203004102000A75084002000A75083F02000A0D
:1002130075083E02000A75083D02000A75083C0293
:10022300000A75083B02000A75083A02000A7508BD
:100233003902000A75083802000A75083702000AF5
:1002430075083602000A75083502000A750834027B
:10025300000A75083302000A75083202000A75089D
:100263003102000A75083002000A75082F02000ADD
:1002730075082E02000A75082D02000A75082C0263
:10028300000A75082B02000A75082A02000A75087D
:100293002902000A75082802000A75082702000AC5
:1002A30075082602000A75082502000A750824024B
:1002B300000A75082302000A75082202000A75085D
:1002C3002102000A75082002000A75081F02000AAD
:1002D30075081E02000A75081D02000A75081C0233
:1002E300000A75081B02000A75081A02000A75083D
:0402F3001902000AE2
:09049E00E51593F590AF14AE13BF
:1004A700E4F50EC3E50E9FEE6480F8748098500E55
:1004B700E4F5100510E510B41EF9050E80E50204F9
:0104C7000E26
:0D0472007FFF7E0012047F12047F12047FC2
:10047F00E4F50EC3E50E9FEE6480F8748098500487
:0F048F00050E80EFE4F5100510E510B4FFF9221B
:10050800E4F5159004F612049E0515E515C3940844
:0305180040F1228D
:10051B00E4F5159004EE12049E0515E515C3940839
:03052B0040F1227A
:10038300C29720A225120472E514151470021513E6
:10039300D3E5149407E51364809480500675130025
:1003A300751407900501E493F58020A35D12047290
:1003B300900502E493F580C3E514942EE51364805D
:1003C30094805012E5149407E513648094804006EA
:1003D300751300751402C3E514949DE513648094AA
:1003E300805014E514942FE513648094804008052D
:1003F30014E51470020513C3E514949DE51364809A
:0B0403009480400675130075149D22C4
:10040E00E50875F06484F509E50875F06484E5F097
:10041E0075F00A84F50FE50875F00A8485F00A5325
:10042E00A07F9004FEE493F5B07F087E0012047F57
:10043E0043A0F053A0BFE50993F5B07F0812047FE7
:10044E0043A0F053A0DFE50F93F5B07F0812047FB1
:10045E0043A0F053A0EFE50A93F5B07F0812047F96
:04046E0043A0F02295
:030000000202F702
:0C02F700787FE4F6D8FD75811502033E07
:10030300020003E493A3F8E493A34003F68001F20D
:1003130008DFF48029E493A3F85407240CC8C333FB
:10032300C4540F4420C8834004F456800146F6DFCA
:10033300E4800B010204081020408090052EE47E27
:10034300019360BCA3FF543F30E509541FFEE493BF
:10035300A360010ECF54C025E060A840B8E493A386
:10036300FAE493A3F8E493A3C8C582C8CAC583CAB1
:10037300F0A3C8C582C8CAC583CADFE9DEE780BE69
:0105320000C8
:1004C800D083D082F8E4937012740193700DA3A3C3
:1004D80093F8740193F5828883E4737402936860D7
:0604E800EFA3A3A380DFD7
:00000001FF
