:1000260000000000000000000000000000000000CA
:1000360000000000000000000000000000000000BA
:1000460000000000000000000000000000000000AA
:10005600000000000000000000000000000000009A
:10006600000000000000000000000000000000008A
:10007600000000000000000000000000000000007A
:1000860000000000C0FFFFFFFFFFFFFFFFFFFFFFB5
:10009600FFFFFFFFFFFFFF0740000000000000001A
:1000A6000000000000000000000000044000000006
:1000B6000000000000000000000000000000000436
:1000C60040000000000000000000000000000000EA
:1000D600000000044000F80318C3FF8F010000B0C1
:1000E600613033300C06060440006C3E180618805A
:1000F600E10700F87FE031FE7F060304400C6C0642
:10010600FF0C18806106008061F837300CE63F046A
:10011600400C6006181B30E07F0600F0FF31FFB090
:100126000D360304400CFF3F18037C80610600B0C7
:100136006D30338001F60604400C6086FF07F680BA
:10014600F90700F07F303FFE7FF60C04400CEC0709
:10015600060EB7816D0600B0EDFC3F8001B61F04A8
:10016600400C7887FF9F33836D0600F0EF31F380F4
:10017600017603044000700E068631866106C0F1E2
:100186006C3033F81FF60E04400CF03E6606308CD9
:100196006106C0F97F30331818B63904400CB6072B
:1001A60036063080E107C0C078303318188603045D
:1001B60040001E1E360630806D0680C1EC31F618F2
:1001C60018E60E0440000E0C1C06300007000080E6
:1001D600C3306CF81F7C38044000000000000000AB
:1001E60000000000000000000000000440000000C5
:1001F60000000000000000000000000000000004F5
:1002060040000000000000000000000000000000A8
:1002160000000004C0FFFFFFFFFFFFFFFFFFFFFF1F
:10022600FFFFFFFFFFFFFF070000000000000000C8
:1002360000000000000000000000000000000000B8
:1002460000000000000000000000000000000000A8
:100256000000000000000000000000000000000098
:100266000000000000000000000000000000000088
:100276000000000000000000000000000000000078
:100286000000000000000000000000000000000068
:100296000000000000000000000000000000000058
:1002A6000000000000000000000000000000000048
:1002B6000000000000000000000000000000000038
:1002C6000000000000000000000000000000000028
:1002D6000000000000000000000000000000000018
:1002E6000000000000000000000000000000000008
:1002F60000000000000000000000000000000000F8
:1003060000000000000000000000000000000000E7
:1003160000000000000000000000000000000000D7
:1003260000000000000000000000000000000000C7
:1003360000000000000000000000000000000000B7
:1003460000000000000000000000000000000000A7
:100356000000000000006CC018180006C000E6038C
:1003660003FE070C3000300080E36FFC0FF8070334
:10037600C00066F83F0CC00CF81F3300C0C7D86C2D
:1003860083DF001BFC0FEF193018E0FF8081FF03AD
:10039600C087FF6DBBF1061BCC8CF9B16D70C0CC6C
:1003A60080013303C0C7DB6C1BFF6378CCCCFF81B5
:1003B6000766C0FF8001FF038063F36C1B8C6178C6
:1003C600CC0CE08319FFCFCC800133038003CFEC44
:1003D6001B8C3178FC8F7F800D60C0CC800133038D
:1003E6000000187C1BDEF3D8C080FFF87F60C0FFDA
:1003F6008001FF0380C3FD60187EC318C080FFC361
:10040600036000CC8001300380E3F1003E33C61860
:10041600C00063600660600C808131000080BFFD13
:10042600B3E1C01FC0C0FF313CE0E107FCBF1F00C5
:1004360000000000000000000000000000000000B6
:1004460000000000000000000000000000000000A6
:100456000000000000000000000000000000000096
:100466000000000000000000000000000000000086
:100476000000000000000000000000000000000076
:100486000000000000000000000000000000000066
:100496000000000000000000000000000000000056
:1004A6000000000000000000000000000000000046
:1004B6000000000000000000000000000000000036
:1004C6000000000000000000000000000000000026
:1004D6000000000000000000000000000000000016
:1004E6000000000000000000000000000000000006
:1004F60000000000000000000000000000000000F6
:1005060000000000000000000000000000000000E5
:1005160000000000000000000000000000000000D5
:1005260000000000000000000000000000000000C5
:1005360000000000000000000000000000000000B5
:1005460000000000000000000000000000000000A5
:100556000000000000000000000000000000000095
:100566000000000000000000000000000000000085
:100576000000000000000000000000000000000075
:100586000000000000000000000000000000000065
:100596000000000000000000000000000000000055
:1005A6000000000000000000000000000000000045
:1005B6000000000000000000000000000000000035
:1005C6000000000000000000000000000000000025
:1005D6000000000000004200108000080F08000222
:1005E600102220000880400000C09FF027FE3F0830
:1005F600E1FFFBFFFC97FF0F08F82F000041821078
:100606002002201429000A8020910008088020007A
:1006160000E13F114802202229444A80F887FE0B58
:1006260008F0070000414212F8FC9F4109244000EF
:10063600280580E0FF83E00000C15FF0130002BDE3
:1006460009944000D836400108F82F0000018200C6
:10065600621004800F44F8FF081466061400200098
:1006660000C19F0182F80FD100244010F817A8009E
:1006760014F0270000008202FA8000A9E0FF430878
:10068600101030032290240000E1BF0002F80FAAE8
:10069600030A4004FC1F680422902400000182081B
:1006A6003A8000AA0C1140001012A40041F02F005D
:1006B60000008208C280008480604002609123E3CB
:1006C60080103400000082F001FEBF7F638083014A
:1006D600FE2FC14C00332400000000000000000083
:1006E6000000000000000000000000000000000004
:1006F60000000000000000000000000000000000F4
:1007060000000000000000000000000000000000E3
:1007160000000000000000000000000000000000D3
:1007260000000000000000000000000000000000C3
:1007360000000000000000000000000000000000B3
:1007460000000000000000000000000000000000A3
:100756000000000000000000000000000000000093
:100766000000000000000000000000000000000083
:100776000000000000000000000000000000000073
:100786000000000000000000000000000000000063
:100796000000000000000000000000000000000053
:1007A60000001824424242424242422418000000FD
:1007B6000000083808080808080808083E00000075
:1007C60000003C4242420404081020427E00000021
:1007D60000003C4242041804020242443800000071
:1007E6000000040C14242444447E04041E0000006B
:1007F60000007E4040405864020242443800000037
:1008060000001C2440405864424242241800000064
:1008160000007E444408081010101010100000005C
:1008260000003C4242422418244242423C0000005E
:1008360000001824424242261A02024478000000B0
:1008460000000010181C1E1F1F1E1C1810000000A0
:10085600000000003C3C3C00003C3C3C000000002A
:100866000000000000000000000000000000000082
:10087600FF07A6FF07B6FF07C6FF07D6FF07E6FF77
:1008860007F6FF0806FF0816FF0826FF0836C00011
:10089600FF3F30333033FE3F3033F0330030FC3728
:1008A6001833B031E030B8610F6706DC0000003065
:1008B600FE1B06180660F66736663666F667366607
:1008C6003666F6670660066006601E600C6000000D
:1008D600FC1F0C18FC1F0C18FC1F80018019FE1F42
:1008E60080318031FC6F80018001FF7F0000003382
:1008F6007E33E67F6633663F7E33663F6633663316
:10090600FEFF6600C636C6339E638CC1000000003B
:100916000000F81F1818181818181818F81F1818B3
:100926001818181818181818F81F1818000030008A
:10093600300030FC30CCFECF30CC30FC30CFB0CDE8
:10094600B0CD30FC300030003000F0006000F837E9
:100956001836F80718DE187EF81F0030FE3FB6ED91
:10096600B66DB66DB66DB66DFF7F00600000000017
:100976000000FC3E802280228022FC3E84088428DF
:10098600842EFC288028802E8038FE20000000005F
:100996008000FE3F2002480988084809F80F8000B9
:1009A600FC1F04114412E4171C1000000000000094
:1009B60000018002400420081010EC2F08410001BD
:1009C600E00F000100010001FC7F000000000000B4
:1009D6000000FE3F02200220FA2F82208220F2270A
:1009E600A2209220FA2F02200220FE3F00000000E3
:1009F6000001000100010001FC7F0001800280026D
:100A06004004400420081C1008600000000000009C
:100A16000000081190082000FE3F0220F22F20005F
:100A26004000FE3F80008000800080030000000040
:100A3600800880088008FC1F801080208000F80F46
:100A46008000800080008000FE3F00000000000063
:100A5600000100010001F83F08210821F83F0821A4
:100A66000821F83F02210201FC00000000000000FE
:100A76000000F81F10002000400080008000FE3FAC
:100A860080008000800080008002000100000000DD
:100A960000008000FC1F10042002FE3F0000F80F3B
:100AA60008080808F80F200222041E38000000007B
:100AB60000008000FE3F2222FA2F2002F80F2002BB
:100AC600FE3F0808F63790044001380E000000008B
:100AD6000040FC2F802080000061A02298228C24F8
:100AE6008428802080200050FC4F00000000000079
:100AF6000002FC7F0004F00F10081018F02F1048B9
:100B06001008F00F100890086008000000000000B0
:100B16000000FC1F8000800080008000FE3F8000F7
:100B260040014001200210040808063000000000C1
:100B360000000000000100010001000100010001A9
:0E0B460000000000000300030000000000009B
:0B134100EF1FAC0670011E4C70F6227E
:1012B100C2EAC2E9C2E8EFD2E97F08C2E8C31392E9
:1012C100EAD2E8DFF6ED7F08C2E8C31392EAD2E87A
:0612D100DFF6C2E9C2EAEB
:0112D70022F4
:09127F0074FFFFFE1213417F8190
:10128800C2E9C2E8EFD2E97F08C2E8C31392EAD202
:10129800E8DFF67F08D2E8C2E8C313A2EA92E7DFE4
:0812A800F4C2E9C2EAFF7E0076
:0112B000221B
:0F132600EF60047D108002E4FD7F8E1212B12271
:10000300AE05AC07E4FF121326AF04EE75F00A84C5
:10001300C454F0FDEE75F00A84E5F04DFD0212B113
:10101900781BE624D075F00AA4FF08E624D02FFD3A
:101029007F8C120003781EE624D075F00AA4FF080D
:10103900E624D02FFD7F881200037821E624D0759D
:10104900F00AA4FF08E624D02FFD7F86120003785A
:1010590024E624D0FD7F8A1200037826E624D07581
:10106900F00AA4FF08E624D02FFD7F84120003783C
:1010790029E624D075F00AA4FF08E624D02FFD7FC5
:1010890082120003782CE624D075F00AA4FF08E642
:0910990024D02FFD7F800200032A
:100EDC007F81121288EF5470C4540F75F00AA4FE6F
:100EEC00EF540F2E120CCC7F83121288EF5470C467
:100EFC00540F75F00AA4FEEF540F2E900001120C43
:100F0C00DE7F85121288EF5470C4540F75F00AA45A
:100F1C00FEEF540F2E900002120CDE7F8712128807
:100F2C00EF5470C4540F75F00AA4FEEF540F2E90BA
:100F3C000004120CDE7F8B121288EF5470C4540F15
:100F4C0075F00AA4FEEF540F2E900003120CDE7FF6
:100F5C0089121288EF5470C4540F75F00AA4FEEF76
:100F6C00540F2E900005120CDE7F8D121288EF5458
:100F7C0070C4540F75F00AA4FEEF540F2E900006A7
:030F8C00020CDE76
:1012D800E515FDC374099DFFE49400FE7C007D1FA5
:1012E800120D00C3EF9514FFEE9CFEEF2403FFECF4
:0212F8003EFEB8
:0112FA0022D1
:1012FB0012127FEF30E70E12127FEF30E707E4FD9B
:05130B007F80120003C9
:0113100022BA
:10131100E589540F4420F589759850758DFFD28E5B
:05132100D2ACD2AF22A6
:03002300020F8F3A
:100F8F00C0E0C0F0C083C082C085C084C0965396B5
:100F9F00FBC0D075D000C000C001C002C003C004A8
:060FAF00C005C006C007EA
:100FB500900000C2AC30983675080020981D058257
:100FC500E582AE837002058314FFE4FCFD7B607A45
:100FD500EAF9F8C3120D4850E28016C29890000055
:100FE50074192508F8A6990508E508B415CD121059
:030FF50019D2AC62
:100FF800D007D006D005D004D003D002D001D0004D
:10100800D0D0D096D084D085D082D083D0F0D0E014
:0110180032A5
:10112B00EFB40800505D901138F828287302115065
:10113B00021158021160021168021170021178023B
:10114B001180021188D297D296D2958036D296D240
:10115B0097C295802ED297D295C2968026C296C200
:10116B0095D297801ED296D295C2978016C297C2FF
:10117B0095D296800EC297C296D2958006C297C220
:10118B0096C295D293C293D2947B007A00791012B7
:05119B000EDCC29422ED
:1012460075F00A84E5F075F003A42476F582E4349B
:0E12560008F583E493FB740193FA740293F994
:10126400BD020B74082FF582E433F58380058F8269
:0B127400758300120C9F90FFF0F02229
:0611A0007BFFAD18AF1744
:1011A6008B0D8A0E890FED6402702575F002EFA48F
:1011B6002411F582E435F0F583120C9F90FFF0F0D0
:1011C60075F002EFA42410F582E435F0F58380254E
:1011D600AB0DAA0EA90F75F002EFA42401F582E467
:1011E60035F0F583120C9F90FFF0F075F002EFA436
:0D11F600F58285F083120C9F90FFF0F0222F
:020DBF00AE077D
:100DC1007C02AF06AD047BFF7A0979141211A67B70
:100DD100FF7A0879F41211A67BFF7A08794612127C
:100DE10064E51675F00A8412124CE5161212467B60
:100DF100FF7A087956121264E51575F00A84121209
:100E01004CE5151212467BFF7A087956121264E5F9
:100E11001475F00A8412124CE5141212467BFF7A03
:100E21000979541211A67BFF7A0879941211A67BD5
:100E3100FF7A0879461212647A0779C61212647A27
:100E41000779F61212641CEC6003020DC37C02AF39
:100E510006AD047BFF7A0979341211A67BFF7A086B
:100E610079B41211A67BFF7A087946121264E51251
:100E710075F00A8412124CE5121212467BFF7A08B1
:100E81007956121264E51175F00A8412124CE511BB
:100E91001212467BFF7A087956121264E51075F03A
:100EA1000A8412124CE5101212467BFF7A0879D49B
:100EB1001211A67BFF7A0879F41211A67BFF7A083A
:100EC1007966121264E51312124C7BFF7A08796677
:0A0ED1001212641CEC6003020E50C4
:010EDB0022F4
:020B54008F17F9
:100B56007518027BFF7A087966AD18AF1712126412
:100B6600AD18AF171212647A0A79741211A27A0AB2
:100B760079941211A07A0A79B41211A07BFF7A0A2D
:100B860079D41211A27BFF7A0A79F41211A21212F9
:100B9600D87C007D0A120D1290087675F003EF12CC
:100BA6000D5EEE75F003A42583F583E493FB7401D3
:100BB60093FA740293F9AD18AF171212641212D891
:100BC6007C007D0A120D1290087675F003ED120D69
:100BD6005EEC75F003A42583F583E493FB7401931F
:100BE600FA740293F9AD18AF171212647BFF7A0BF1
:100BF60079141211A27BFF7A0B79341211A27BFFB2
:100C06007A087966AD18AF17121264AD18AF1712CD
:100C160012641518E518D394004003020B59751891
:100C2600027BFF7A087966AD18AF17121264AD1809
:100C3600AF171212647A0979741211A27BFF7A092E
:100C460079941211A27BFF7A0979B41211A27BFF63
:100C56007A0979D41211A27BFF7A0979F41211A2CA
:100C66007BFF7A0A79141211A27BFF7A0A79341271
:100C760011A27BFF7A0A79541211A27BFF7A0879B6
:100C860066AD18AF17121264AD18AF1712126415BD
:080C960018E518D39400508901
:010C9E002233
:021203008F0D4D
:10120500750E04750F14AF0E7E007C007DA0120DC7
:1012150000AC06AD07E50D75F014A42DFFEC35F017
:10122500FE7C00EF250FFFEC3ECF245FCF34FF8F10
:1012350082F583120C9F90FFF0F0D50FC9D50EC330
:011245002286
:1010A200E4F509F50AF50BF50C121311C293C2947B
:1010B2001212FBE4F509D3E50B942CE50A940140E6
:1010C20039E50C14600F1460142402701D7BFF7A42
:1010D200007926800E7BFF7A0279A680067BFF7A52
:1010E200057926AF0912120380157BFF7A00792653
:1010F200AF09121203E4F50C8005AF09120DBFAF60
:101102000912112B0509E509C3940840A9D3E50B7F
:1011120094C2E50A94014007E4F50AF50B050C05B3
:091122000BE50B708E050A808AB2
:03000000021335B3
:0C133500787FE4F6D8FD75812D0210A22F
:100C9F00BB010CE58229F582E5833AF583E022500A
:100CAF0006E92582F8E622BBFE06E92582F8E22254
:0D0CBF00E58229F582E5833AF583E493226E
:100CCC00BB010689828A83F0225002F722BBFE0107
:020CDC00F32201
:100CDE00F8BB010DE58229F582E5833AF583E8F04C
:100CEE00225006E92582C8F622BBFE05E92582C8F8
:020CFE00F222E0
:100D0000EF8DF0A4A8F0CF8CF0A428CE8DF0A42E07
:020D1000FE22C1
:100D1200C2D5EC30E709B2D5E4C39DFDE49CFCEEFC
:100D220030E715B2D5E4C39FFFE49EFE120D6AC3FD
:100D3200E49DFDE49CFC8003120D6A30D507C3E4F8
:060D42009FFFE49EFE226B
:100D4800EB9FF5F0EA9E42F0E99D42F0EC6480C822
:060D580064809845F022C2
:0C0D5E00A42582F582E5F03583F58322A0
:100D6A00BC000BBE0029EF8DF084FFADF022E4CC6D
:100D7A00F875F008EF2FFFEE33FEEC33FCEE9DEC36
:100D8A00984005FCEE9DFE0FD5F0E9E4CEFD22ED7C
:100D9A00F8F5F0EE8420D21CFEADF075F008EF2FC6
:100DAA00FFED33FD4007985006D5F0F222C398FDB7
:050DBA000FD5F0EA2254
:00000001FF
