:030000000200CF2C
:0C00CF00787FE4F6D8FD75811002011660
:1001DF00030B090D0C0E060707060E0C0D090B037A
:0401EF00020E0005F7
:09019100E51093F590AF0FAE0EDE
:10019A00E4F50BC3E50B9FEE6480F8748098500E6B
:0F01AA00E4F50C050CE50CB4FAF9050B80E52221
:1001B900E4F5109001E71201910510E510C39408C8
:0301C90040F122E0
:1001CC00E4F5109001DF1201910510E510C39408BD
:0301DC0040F122CD
:10015B0020A43220A2167F027E0012019A30A2FD4B
:10016B000508E508C39409400375080920A3167F09
:10017B00027E0012019A30A3FD1508E508D3940006
:06018B005003E4F5082218
:10000300750805E4F50920A00630A0FD7509012057
:10001300A10630A1FD75090212015BE50924FE600A
:10002300080470081201B980031201CCE508B40A70
:100033000050D390003DF828287302005B0200664D
:1000430002007102007C02008702009302009F02FB
:1000530000AB0200B70200C3750E00750F6475B0E4
:10006300C080A3750E00750F4B75B0F98098750E9F
:1000730000750F3C75B0A4808D750E00750F2D753E
:10008300B0B08082750E00750F2375B09902000918
:10009300750E00750F1975B092020009750E007583
:1000A3000F1475B082020009750E00750F0F75B03D
:1000B300F8020009750E00750F0A75B08002000979
:0C00C300750E00750F0575B09002000965
:1000DB00020003E493A3F8E493A34003F68001F238
:1000EB0008DFF48029E493A3F85407240CC8C33326
:1000FB00C4540F4420C8834004F456800146F6DFF5
:10010B00E4800B01020408102040809001EFE47E94
:10011B00019360BCA3FF543F30E509541FFEE493E9
:10012B00A360010ECF54C025E060A840B8E493A3B0
:10013B00FAE493A3F8E493A3C8C582C8CAC583CADB
:10014B00F0A3C8C582C8CAC583CADFE9DEE780BE93
:0101F300000B
:00000001FF
