:020000040800F2
:10000000283C0020D5020008493A0008B938000809
:10001000F9390008111C0008F5660008000000000E
:10002000000000000000000000000000F55E000875
:10003000C521000800000000551B000819600008D9
:10004000EF020008EF020008EF020008EF020008CC
:10005000EF020008EF020008EF020008EF020008BC
:10006000EF020008EF020008EF020008EF020008AC
:10007000EF020008EF020008EF020008EF0200089C
:10008000EF020008EF020008EF020008EF0200088C
:10009000EF020008EF020008EF020008EF0200087C
:1000A000EF020008EF020008EF020008EF0200086C
:1000B000EF0200080000000000000000EF0200084E
:1000C000EF0200080000000000000000EF0200083E
:1000D000000000000D6500081D660008000000001B
:1000E000EF020008EF02000800000000000000001E
:1000F0000000000000000000000000000000000000
:10010000000000000000000000000000EF020008F6
:100110000000000000000000EF0200087560000809
:10012000EF020008EF020008EF020008EF020008EB
:10013000EF020008000000000000000000000000C6
:10014000EF020008EF020008EF020008EF020008CB
:10015000EF020008EF020008EF020008EF020008BB
:10016000EF020008EF020008EF02000800000000A4
:10017000EF020008EF02000800000000000000008D
:10018000EF020008EF020008EF02000800F002F89A
:1001900000F090F80AA090E8000C82448344AAF191
:1001A0000107DA4501D100F085F8AFF2090EBAE88F
:1001B0000F0013F0010F18BFFB1A43F0010318479B
:1001C000347B0000547B0000103A24BF78C878C10B
:1001D000FAD8520724BF30C830C144BF04680C604D
:1001E000704700000023002400250026103A28BF95
:1001F00078C1FBD8520728BF30C148BF0B60704799
:100200006E2900F05683702900F0C386662907F036
:100210002484652907F02184672907F01E84612959
:10022000AFF3008003681B0A28BF41F080016929F1
:1002300000F07A81642900F07781752900F07481DB
:100240006F2900F05186782900F08F86E92900F0A7
:10025000EB85E42900F0E885F52900F0E585EF2934
:1002600000F04E86F82900F08E860368DB0928BF6F
:1002700041F08001632900F06885732900F06D85E5
:10028000E32900F04D87F32900F0528700207047E2
:100290001FB500F0B1FE04000020002106F0F2FDC1
:1002A000401C60600020002106F0D6FDE0601FBD0C
:1002B00010B510BD00F0D2FF1146FFF7E9FF06F0C0
:1002C000BBFC00F0F9FF03B4FFF7F2FF03BC06F03C
:1002D00066FA00000948804709480047FEE7FEE744
:1002E000FEE7FEE7FEE7FEE7FEE7FEE7FEE7FEE7E6
:1002F00004480549054A064B704700003D60000868
:100300008D01000828360020283C002028380020D5
:100310002838002072B6704762B67047EFF310803D
:1003200072B6704780F31088704730BF704720BFA7
:100330007047B0FA80F0704790FAA0F0B0FA80F001
:10034000704790FAA0F07047704753EA020C00F033
:1003500069802DE9F04B4FF00006002B1FBFB3FA68
:1003600083F503FA05F424FA05F65E4012BF16433E
:10037000B2FA82F502FA05F4C5F120051EBF22FA91
:1003800005FC44EA0C04203556EA044C4FEA1444B8
:1003900018BF641C4FF000084FF00009904271EB49
:1003A000030C39D3002919BFB1FA81F701FA07F616
:1003B000B0FA80F700FA07F6C7F120071EBF20FA4F
:1003C00007FC46EA0C062037B6FBF4FCA7EB050752
:1003D000103F07F01F0BCBF120060CFA0BFB2CFA99
:1003E00006F644BFB3460026202FA4BF5E464FF05A
:1003F000000B5BEA060C08BF4FF0010B19EB0B0971
:10040000ABFB027C48EB0608C01B06FB02CC0BFBD7
:1004100003CC71EB0C01C1E70B460246414648464E
:10042000BDE8F08B13B54FF000004FF00001AFF3C3
:100430000080BDE81C4070471CB50C46064B7B4451
:1004400069460090204600F05EFC044600206946A4
:1004500000F06CFC20461CBDEB0800000FB41CB57E
:10046000084B06AA7B4469460090059800F04BFCB7
:1004700004460020694600F059FC20461CBC5DF88B
:1004800014FB0000C508000070B5044685690068CB
:10049000C10601D5302600E02026C00707D070BD78
:1004A000D4E9012130469047206A401C20626D1E2D
:1004B000F6D570BD70B5044685690078C00707D1D0
:1004C00070BDD4E9012120209047206A401C2062A1
:1004D0006D1EF6D570BD70B50C460546012A05D0D7
:1004E0002878800600D5EA69002302E0012305E0B0
:1004F0005B1C934202D2E05C0028F9D1A869E6189F
:10050000C01AA861286A184428622846FFF7BCFF71
:1005100004E0D5E9012114F8010B9047B442F8D367
:100520002846FFF7C7FF70BD2DE9F04106460024BD
:1005300010687529314616A510D000F04FF9002833
:1005400002DA404213A507E031688A0701D512A5F7
:1005500002E0490704D511A5012401E000F047F9A4
:1005600000210A2206F1240709E0B0FBF2FCB0FBEF
:10057000F2F302FB1C00303078541846491C002866
:10058000F3D123462A463046BDE8F04100F038B9A1
:10059000000000002D0000002B00000020000000E3
:1005A0002DE9F05F894604464FF0000ADFF874B188
:1005B000FB44C0F820A02046E1688847002874D09A
:1005C000252806D0D4E901219047206A401C2062EA
:1005D000F1E700265F462046E16888472028054667
:1005E00007DB312D05D2781910F8200C08B106432D
:1005F000F1E7B00701D526F00406C4F81CA00027D7
:10060000C4F818A02A2D09D0284606F0C1F838B33E
:1006100004EB8708303DC8F8185019E059F8041B5E
:10062000204604EB87029161E1688847012F054667
:1006300018D1E069002820DA26F020061DE0D8F85D
:10064000180000EB800005EB40003038C8F81800B7
:100650002046E1688847054606F09AF80028EED162
:10066000012F0AD02E2D08D12046E16888477F1C33
:100670000546022F46F02006C4DBA069002803DAF5
:10068000404246F00106A061F00701D026F01006B6
:100690006C2D0BD0682D09D04C2D39D06A2D35D05A
:1006A000742D35D07A2D33D016E038E0E1682F462E
:1006B00020468847B842054609D16C2F26D04FF412
:1006C0008060E168064320468847054604E06C2FB9
:1006D0001AD04FF4807006430DB3A5F141001928DC
:1006E00002D8203546F400664A4629462046266050
:1006F0004E46FFF785FD80B101280BD0F61D26F090
:10070000070000F1080956E74020E4E78020D8E719
:100710000020D6E706F104094DE7284652E7206A93
:1007200000F002B84076000030BCBDE8C09F30B594
:1007300005460B462A4613F8014B12F8010B08B187
:10074000A042F8D01CB1002802D06D1CF1E7284669
:1007500030BD10B5431C02E010F8011B71B18107D8
:10076000FAD14FF0013202C88C1A8C4314EAC2113C
:10077000F9D0C01A0A0603D0C01E10BDC01A10BDA1
:100780000A0401D0801E10BD0902FCD0401E10BD1D
:100790004FF000020429C0F0128010F0030C00F0AA
:1007A0000584CCF1040CBCF1020F18BF00F8012B3A
:1007B000A8BF20F8022BA1EB0C0100F0F7BB5FEA09
:1007C000C17C24BF00F8012B00F8012B48BF00F8C2
:1007D000012B7047704770477047704709684A059A
:1007E00001D540B27047C905FCD500B27047096811
:1007F0004A0501D5C0B27047C905FCD580B2704723
:100800002DE9F0470D4699469246044600F124082A
:100810000168880604D5E06921F01001216000E03C
:100820000120A84201DD471B00E00027A1697A19D9
:1008300002EB0900081AA0612078C00602D4204605
:10084000FFF722FE002608E0D4E901211AF806008D
:100850009047206A401C761C20624E45F4DB2078CD
:10086000C0060AD52046FFF70FFE06E0D4E90121B5
:1008700030209047206A401C2062381EA7F10107F3
:10088000F4DC07E0D4E9012118F805009047206A5C
:10089000401C2062281EA5F10105F3DC2046FFF76D
:1008A00009FE2078000602D50220BDE8F08701206D
:1008B000FBE711680268006A530501D508700AE079
:1008C000D30501D5088006E0130603D5C217C1E998
:1008D000000200E008600120704770472DE9FF4FDB
:1008E0000C461E464FF0FF378BB0D2E90001DDF811
:1008F00060800A908A46C1F30A5505B93D46002139
:1009000008464FF00000BAF1000F00F4400005DA8D
:1009100000EB80004FF4400101EA50004FEA90598B
:10092000B9F1010F00DDB9460A9850EA4A000ED02D
:1009300044F61050A5F2FF3545432F14B8F1000FCF
:100940001ED07542291E1EDDC9F100021CE0B8F15F
:10095000010F4FF0000001D0302103E0F24305E029
:100960002154401CB042FBDB3046002200212154C0
:100970000B99C1F80880C1E900200FB000F0BAB9A6
:10098000BD1B6D1CDEE74A4600DA694206A800F08E
:10099000D3FB06AB93E8070003AB83E807005046A0
:1009A0000A9900F0D3FC8DE80700A0F500501F382D
:1009B00000900398002D09DD42F21F014A460844C9
:1009C00003A90390684600F032FF08E0A0F500504C
:1009D0004A461F3803A90390684600F03CFF8DE8A3
:1009E00007000004000C03D04FF0FF30410800E086
:1009F0001046B8F1000F03D00022009215461EE009
:100A0000751E05D400F0FCFA303262556D1EF9D522
:100A1000B3460122084302D000227F1C04E0207864
:100A2000302801D100227F1E002A099786D01DE0C0
:100A3000112D07DA00F0E4FA303262556D1C50EAED
:100A40000102F5D1084302D00098C8B10EE00021A0
:100A5000681E05E0235C625C63542254401E491CFE
:100A60008142F7DBAB46A81B401E0990002004F82A
:100A70000B000B98099AC0F80880C0E9002B7CE7AE
:100A800011264FF0000859E72DE9F04F884604463B
:100A9000D21D22F0070191B0D1E90001CDE90A0190
:100AA00005F062FE02460B98C00F01D02D2007E032
:100AB0002068810701D52B2002E0202101EAC00037
:100AC000032A099001D0072A05DB03464146204648
:100AD00000F0DCFA0BE12078800601D5E06900E047
:100AE0000620B8F1650F814606D0B8F1660F18D020
:100AF000B8F1670F70D131E00020B9F1110F00900B
:100B000001DB112301E009F101030AAA01A90CA8E4
:100B1000FFF7E4FEDDE90C70002609F101058346CC
:100B200047E001204B4600904FF000470AAA01A978
:100B30000CA8FFF7D3FEDDE90DB00C995D46002649
:100B400010B909F101000D18B9EB050003D4C0F18B
:100B5000FF3609F10105A5EB09002BE0B9F1010F02
:100B600001DA4FF001090020B9F1110F0090484659
:100B700001DD112300E003460AAA01A90CA8FFF732
:100B8000ADFEDDE90C704D46002683462078000757
:100B90000AD4AB4500DA5D4601A8012D04DD4119F8
:100BA00011F8011C302907D04F4502DA17F1040F64
:100BB00004DA012082460FE06D1EEEE7002F02DC12
:100BC000ED1B3E4403E0781CA84200DD7D1CB81BF1
:100BD00000F1010A4FF000472078000703D4AA452E
:100BE00001DB4FF0FF3A0021B7F1004F0DF1430850
:100BF0008DF8431024D002202B23002F01DA7F42EE
:100C00002D230A21021EA0F1010000DC5FB197FB39
:100C1000F1FC97FBF1F201FB1C7C17460CF1300C48
:100C200008F801CDEEE7A8F101000370218809055D
:100C300001D5452100E06521A0F1010800F8011C63
:100C400009980FA9A1EB0807FF1D00B10120411968
:100C500001EBEA70A1693844081A401EA0612078AF
:100C6000C00602D42046FFF70FFC099828B1D4E94A
:100C700001219047206A401C20622078C00622D5BE
:100C80002046FFF701FC1EE0002E04DBB34502DD29
:100C900001A8805D00E03020D4E901219047206A5E
:100CA000401C2062761CAAF101005FEA000A0AD10A
:100CB00000F0A2F9C0680168405CD4E901219047C6
:100CC000206A401C2062281EA5F10105DCDC07E03B
:100CD000D4E9012118F8010B9047206A401C2062DA
:100CE000381EA7F10107F3DC2046FFF7E3FB0320E2
:100CF00011B043E630BCBDE8C08F000001694A1C5A
:100D000002610878704700B58FB0CDE9013100214C
:100D1000059105497944CDE9031011466846FFF76E
:100D20003FFC0FB000BD0000E5FFFFFF0A6802F8BE
:100D3000010B0A60704710B5436913B1AFF300802F
:100D400001E0FFF7C8FB012010BD127800F124017B
:100D50000A7000224A700122EDE711684FF0FF325D
:100D6000E9E700002DE9FF5F15468A460446DFF8F3
:100D7000AC80F8440027D8E900103E46CDE90010C9
:100D800010E03AF816106A4602A800F043FA411C37
:100D900007D02178890603D5E269391891420DD828
:100DA0000744761C2078800602D5E069B84205DD4C
:100DB000AE42E6DB3AF816000028E2D1A069C01B7B
:100DC000A0612046FFF760FBD8E90010CDE90010D4
:100DD000002017E03AF818106A4602A800F01AFA44
:100DE000B0F1FF3F81460BD000250DF1080B05E067
:100DF000D4E901211BF8050090476D1C4D45F7D340
:100E000008F10100B0428046E4DB206A38442062E9
:100E10002046FFF74FFB00F003B80000926E000081
:100E20003FBCBDE8C09F00002DE9F0418046D21DC7
:100E300022F007020025D2E90002F52915A614D0F8
:100E4000011E72F1000106DA0023D0EB030063EB10
:100E5000020211A608E0D8F800108B0701D50FA6F2
:100E600002E0490701D50EA601251146002408F12C
:100E7000240704E000F0C4F830323A55641C50EA0C
:100E80000102F7D12B46324621464046BDE8F041EB
:100E9000FFF7B6BC000000002D0000002B00000092
:100EA0002000000030B4002100F1240408E002F02A
:100EB0000705D208303542EA4372DB086554491C05
:100EC00052EA0305F3D10468002310A2250708D5D0
:100ED00004F020040C4304D0C46901230CA2641E56
:100EE000C46130BCFFF78CBC10B5044621461068C5
:100EF000FFF77DFC02462046BDE810400023D1E705
:100F0000D21D22F00701D1E90023CBE70000000049
:100F100030000000F0B40D460188090502D5214CCF
:100F20007C4402E01F4C7C440E34002100F1240676
:100F300008E002F00F071209E75D42EA03721B099D
:100F40007754491C52EA0307F3D1027800231207B1
:100F500004D5702D06D009B1022311342246F0BC0D
:100F6000FFF74EBC01231034F8E770B504460D4678
:100F700021461068FFF73BFC024629462046BDE8A3
:100F800070400023C6E7D21D22F00703D3E90023F7
:100F9000C0E70368126843F0200303600823C361BD
:100FA0000023B7E7EC6C00004FF0000200B51346D9
:100FB00094469646203922BFA0E80C50A0E80C5079
:100FC000B1F12001BFF4F7AF090728BFA0E80C502A
:100FD00048BF0CC05DF804EB890028BF40F8042B23
:100FE00008BF704748BF20F8022B11F0804F18BF90
:100FF00000F8012B7047000000487047E4350020DE
:1010000030B5B0F10A024FEA900E71F100034EEADA
:10101000817EB0EB0E0061EB91014FEA101E4EEAAB
:10102000017E10EB0E0041EB11114FEA102E4EEA3B
:10103000016E10EB0E0041EB11214FEA104E4EEA0B
:10104000014E10EB0E0041EB1141401841F100013F
:101050004FEAD00040EA41704FEAD10110EB800521
:101060004FEA810444EA907444EB01046D1944EBA7
:101070000404521BA3414FF0000348BF0A3200D5BD
:1010800030BD401C41F1000130BD00002DE9F041B0
:101090001F46044603260168072A01F4006004DBAA
:1010A00008B116A505E016A503E008B115A500E0F6
:1010B00015A521F010002060A069C01EA0610FB12D
:1010C000401EA0612046FFF7DFF94FB1D4E90121AE
:1010D00038469047206A401C2062C01C206206E00F
:1010E000206AFAE7D4E9012115F8010B9047761E32
:1010F000F8D22046FFF7DEF9BDE8F0814E414E0000
:101100006E616E00494E4600696E660010B5436917
:1011100013B1AFF3008001E0FFF724FE012010BD02
:10112000128800F1240182840022C2840122EDE7AA
:1011300011684FF0FF32E9E72DE9F0478146164686
:101140008AB0334878440DC88DE80D0030487844A3
:10115000801C03AC0DC884E80D0041F69B300844A8
:10116000372190FBF1F290FBF1F5A5F1800501FB31
:1011700012041B3C02D56442012000E00020DFF88D
:1011800090A080460027FA44AAF1BE0A0DE0E007CD
:1011900009D03246684607EB47010AEB810100F0AF
:1011A0005AFB8DE8070064107F1C002CEFD1184F0C
:1011B0007F44AC3F18E0E80714D007EB04100DF1B2
:1011C000180A90E80E008AE80E00C068F04201D1CB
:1011D00098190890324606A903A800F03CFB03AB1F
:1011E00083E807006D10641C002DE4D13246694687
:1011F000B8F1000F03A802D000F019FB01E000F0E5
:101200002AFBC9E90001C9F808200AB0BDE8F08747
:101210006C6B000070B516460C46054600F044F8AD
:10122000036893F80101012806D0FF2C0FD8185D40
:1012300068B101202C7070BDD3F8070132462146F9
:1012400003F2071303442846BDE8704018474FF0E7
:10125000FF3070BD00487047C43500207546FFF769
:10126000F9FFAE4605006946534620F00700854663
:1012700018B020B5FFF73CF8BDE820404FF000065D
:101280004FF000074FF000084FF0000B21F007016E
:10129000AC46ACE8C009ACE8C009ACE8C009ACE8B1
:1012A000C0098D467047000010B5FFF7A5FE001D70
:1012B00010BD00BFD15B000010B50446AFF3008045
:1012C0002046BDE81040FEF7FEBF00004FF0013C95
:1012D00050F8042B51F8043B9A4221D1A2EB0C03A5
:1012E000934313EACC1317D150F8042B51F8043B65
:1012F0009A4215D1A2EB0C03934313EACC130BD102
:1013000050F8042B51F8043B9A4209D1A2EB0C038C
:10131000934313EACC13DBD04FF00000704700BFBB
:10132000D01A01BAB1FA81F101F0180122FA01F0E4
:10133000CB40C1F12001DBB2C0B2C01A2CFA01F3DC
:10134000D11A914311EAC311E6D170475FEA400C0C
:1013500008BF91F0000F4FEA8C234FEAC12243EA05
:1013600051514FEA1C5018BF00F5F0404FEA3000D1
:1013700018BF41F000415FEA6C5C00F02980BCF1CD
:10138000FF3F08BF40F080407047130C06BF1204B7
:101390004FF0100C4FF0000C130E04BF12020CF1B2
:1013A000080C130F04BF12010CF1040C930F04BFBF
:1013B00092000CF1020CD30F04BF52000CF1010C8F
:1013C00011464FF00002A0F11F00A0EB0C00704787
:1013D00011F0004F08BF704731F000413FF4D5AF26
:1013E0000B0C06BF09044FF0100C4FF0000C0B0E55
:1013F00004BF09020CF1080C0B0F04BF09010CF12A
:10140000040C8B0F04BF89000CF1020CCB0F04BF3E
:1014100049000CF1010CCCF12003A0EB0C0022FAE6
:1014200003F302FA0CF241EA030100F101007047F4
:1014300020F07F4C80EA030023F07F47ACEB0703EA
:1014400003F57C5300F0004003F1FF032DE98049D0
:101450004FEA154B09B44FEA144325EA0B4E24EA30
:1014600003480FF2042606EB132749083E785FEA8B
:10147000320203FB0667C7F5000707FB06F64FEAD3
:1014800054374FEAD64606F1020607FB066CCCF14C
:10149000005C4FEA1C472CEA074C07FB06F40CFBE8
:1014A00006F504EB15464FEA961634BF00204FF0C0
:1014B00000404FEAD13706FB07FC4FEA1C4C0CFBFF
:1014C0000BF7D21B03FB0CF761EB07010CFB0EF7CC
:1014D000B0EB074072EB17420CFB08F734BFA2EBEE
:1014E0000742B2EB074261EB17414FEA0C444FEA67
:1014F000910706FB07FC4FEA1C4C0CFB0BF7B0EB0B
:10150000C74072EB573203FB0CF734BFA2EBC74264
:10151000B2EBC74261EB57310CFB0EF7B0EBC700E3
:1015200072EB57720CFB08F734BFA2EBC702B2EBA9
:10153000C70261EB5771039F4FEA816141EA921143
:1015400004EBCC044FEAD1374FEA826206FB07FC7A
:1015500042EA90124FEA80604FEA1C4C0CFB0BF7FA
:10156000D21B03FB0CF761EB07010CFB0EF7B0EB92
:10157000074072EB17420CFB08F734BFA2EB07429F
:10158000B2EB074261EB17414FEA8C554FEA9107E6
:1015900004EB9C2406FB07FC4FEA1C4C0CFB0BF7EE
:1015A000B0EBC74072EB573203FB0CF734BFA2EB32
:1015B000C742B2EBC74261EB57310CFB0EF7B0EB01
:1015C000C70072EB57720CFB08F734BFA2EBC702DF
:1015D000B2EBC70261EB577115EB4C254FEA816105
:1015E00041EA92114FEA82624FEAD13742EA901201
:1015F00006FB07FC44F100044FEA80604FEA1C4CF4
:101600000CFB0BF7D21B03FB0CF761EB07010CFB88
:101610000EF7B0EB074072EB17420CFB08F734BF34
:10162000A2EB0742B2EB074261EB174115EB1C1529
:101630004FEA813141EA92414FEA823242EA9042D6
:101640004FEA80304FEA0C7644F1000448EA034345
:101650004EEA0B484FF0000EB2EB080C71EB03079B
:1016600024BF624639464EEB0E0E4FF0000B0018B9
:10167000524149414BEB0B0BB2EB080C71EB0307EA
:101680007BF1000B24BF624639464EEB0E0E4FF045
:10169000000B0018524149414BEB0B0BB2EB080C0D
:1016A00071EB03077BF1000B24BF624639464EEB1A
:1016B0000E0E51EA020718BF46F0010616EB0E7631
:1016C00055F1000254F1000103D5BDE88901BDE8E0
:1016D0000088BDE88901BDE80048B619524141EBD8
:1016E0000101A3F10103704780807F7E7D7C7B7ABE
:1016F0007978777676757473727171706F6E6E6DBE
:101700006C6C6B6A6A696868676666656464636363
:1017100062616160605F5F5E5E5D5D5C5C5B5B5AE9
:101720005A59595858575756565555555454535356
:1017300052525251515050504F4F4F4E4E4D4D4DB1
:101740004C4C4C4B4B4B4A4A4A49494948484847FC
:10175000474747464646454545444444444343433A
:101760004342424242414141002B26D4770021D0DE
:101770001CB54FEA370703B44FF010004FF01001CB
:101780004FF000000FBCBDE810400BF1010BBBF1A6
:10179000010F08BF5FEA170722BF12F1010211F122
:1017A00001014FF0004143F1000300F0004043EA23
:1017B00000007047F9D35708DAE746EA064613F106
:1017C000400F4FEA16461FDD13F1200FDFBF16430F
:1017D0000A46002120335B42C8D0C3F1200746EA05
:1017E000064602FA07F74FEA164646EA0706C3F12D
:1017F000200722FA03F201FA07F721FA03F14FF06A
:10180000000342EA0702B1E746EA020646EA064654
:101810004FEA164646EA0106BCBF46EA0646360CC3
:101820004FF000034FF000024FF000019EE72DE95A
:10183000C048934630B491E8380007C831EA400CFC
:1018400048BF34EA430C03D5FFF7F2FDFFF78CFFE6
:10185000F0BCBDE800882DE9C048934630B491E85B
:10186000380007C810F0804F08BF13F0804F03D135
:1018700000F005F8FFF778FFF0BCBDE8008820F025
:101880007F4780EA030023F07F4C07EB0C03A3F5AE
:101890007C5300F00040A3F1FE0392F0000F00F033
:1018A000B38095F0000F00F077802DE901494FEAF1
:1018B00011404FEA144621EA004800FB06FC24EAE6
:1018C000064708FB06F607FB08F800FB07F718EBCE
:1018D00006484CEB164C4FEA124B18EB07484FEA00
:1018E00015464CEB174022EA0B4E0BFB06FC25EA93
:1018F00006470EFB06F607FB0EFE0BFB07F71EEB7B
:10190000064E4CEB164C4FF000061EEB074E4CEB10
:10191000174B18EB0B0840F1000018EB0E0B58EBBF
:10192000000840F100008F1A4FF000013CBFC9438E
:10193000661B14BFB5EB040C00213CBFC943F61B6A
:101940004FEA17444EEA8E0E27EA04454FEA1C4739
:1019500004FB07622CEA074C05FB07F70CFB05F6B6
:1019600004FB0CFC16EB074642EB174216EB0C4649
:1019700042EB1C421BEB060658EB0202414146EAD1
:101980009E0601D5BDE80189B619524141EB01011E
:10199000A3F10103BDE801894FEA14454FEA11475D
:1019A00024EA054621EA074C05FB07F406FB07F786
:1019B0000CFB06F105FB0CFC11EB074144EB174453
:1019C0004FEA124711EB0C4144EB1C4422EA074C4E
:1019D00005FB07F206FB07F70CFB06F605FB0CFC04
:1019E00016EB074642EB174216EB0C4642EB1C4542
:1019F0006A1854F1000148BF7047B619524141EBD3
:101A00000101A3F10103704795F0000F37D04FEAB1
:101A100011424FEA144721EA024624EA074C02FB2E
:101A200007F106FB07F70CFB06F402FB0CFC14EBBA
:101A3000074441EB17414FEA154714EB0C4441EBC7
:101A40001C4125EA074C02FB07F506FB07F70CFBD8
:101A500006F602FB0CFC16EB074645EB174516EBAA
:101A60000C4645EB1C42121951F1000148BF70476A
:101A7000B619524141EB0101A3F1010370474FEA4E
:101A800014454FEA114724EA054621EA074C05FBB5
:101A900007F106FB07F70CFB06F24FF0000605FB0B
:101AA0000CFC12EB074241EB174112EB0C4251EBDD
:101AB0001C4148BF7047921841EB0101A3F101039B
:101AC0007047000072B64EF62250CEF2000040F28F
:101AD000FF01C0F2000101704FF0000080F309889F
:101AE00002F05AFE40F21C10C2F20000016881F3BD
:101AF000088840F2A600C2F2000040F2A701C2F23C
:101B000000010A78027040F21415C2F2000540F29A
:101B10001811C2F200010A682A60106880F309886F
:101B2000EFF3148040F0020080F31488BFF36F8F4E
:101B3000BDE8F00F0FBCBDE8005006BC62B6084718
:101B400018484FF080510160704716484FF080519F
:101B50000160704772B6EFF3098020E9F00F40F2A0
:101B60001415C2F200052E683060744602F014FEAF
:101B700040F2A600C2F2000040F2A701C2F200014A
:101B80000A78027040F21811C2F200010A682A6055
:101B900044F0F40E1068B0E8F00F80F3098862B6E4
:101BA0007047000004ED00E070B5044600688168ED
:101BB00001F00301012902D10168C90723D181681D
:101BC000124A114210D1816841F00101816000F098
:101BD0009DFF054612E0816841F00101816000F03F
:101BE00095FF401B022809D9A06D40F01000A065A8
:101BF000E06D40F00100E065012070BD20680168E3
:101C0000C943C907E7D1002070BD00003F00008034
:101C1000FEE70000054910B50020486000F0A6F876
:101C200000F006F8BDE8104000F086B84000002043
:101C30002DE9F041104D002427462C806C80AC60CB
:101C4000EC606C61AC612C61FEF768FB804600269D
:101C50006C6100F049F800F057F86869761C3604AA
:101C60000744360CF4D0C5E904744046AC61BDE8C5
:101C7000F041FEF757BB000040000020034909690E
:101C8000884201D9401A7047002070474000002068
:101C900010B5FEF743FB04494C69FEF743FB2046B1
:101CA000BDE81040FFF7EABF4000002010B5FFF785
:101CB000EFFF0446FEF732FB034A00215161FEF7B5
:101CC00031FB204610BD00004000002010B5FEF79B
:101CD00025FB04498C69FEF725FB2046BDE8104032
:101CE000FFF7CCBF4000002010B5064C2088401CF8
:101CF0002080608810B900F051F8A0606088401C16
:101D0000608010BD4000002010B50A4C6088401E65
:101D10000004000C60800CD100F040F8E060A16885
:101D2000401A6169814200D26061A169814200D29A
:101D3000A06110BD4000002010B5FEF7EFFA044688
:101D4000FFF7D2FF1021054801F057FEFFF7DCFF37
:101D50002046BDE81040FEF7E5BA0000182000203C
:101D600001494860704700004000002010B501F0B4
:101D700079F908490A6842F080720A60064900222F
:101D80004A600A6842F001020A60BDE81040FFF7AD
:101D9000E7BF0000FCED00E0001000E001484068F3
:101DA00070470000001000E010B50A2205A107A04E
:101DB00004F002FE08B1002010BD0848C079303898
:101DC000C0B210BD5354415455533A0041542B43B3
:101DD000495053544154555300000000201C00202A
:101DE000F0B5404900220120097801F007010529DA
:101DF0000FD13D490B787B2B0BD10B5C2C2B01D1E8
:101E0000521CD2B200F10100072AC0B202D032281F
:101E1000F3D3F0BD02460C5C401C0B46C0B22C2C28
:101E200002D0841A042CF6DB871A304E304D7F1E08
:101E30006FF02F04012F04D0022F05D0032F0DD1F6
:101E400031E0995C303908E08F18995C7F7830393F
:101E500001EB810104EB410139443170024619461E
:101E60000B5C401CC0B27D2B02D0831A042BF7DB25
:101E7000831A20485B1E012B27D0022B28D0032B6E
:101E8000C7D18B18895C9C78303901EBC10202EB19
:101E900001115A7804EB810102EB820205EB420248
:101EA00011440170F0BD8F18995C97F802C0303969
:101EB00001EBC10202EB01117A780CEB810102EB1C
:101EC000820205EB42021144C7E7895C3039E8E73A
:101ED0008B18895C5B78303901EB810104EB41019F
:101EE0001944DEE720000020901800201D0000208B
:101EF000F0FDFFFF1E0000202DE9F0411F4C204D9A
:101F0000204E20784FF4807140064FF0904701D565
:101F100000220CE06078400608D528784228F7D2E5
:101F200030784228F4D2A0784228F1D201223846F3
:101F300000F0E7FD20784FF40061800601D5012212
:101F40000CE06078800608D528784228F7D23078EF
:101F50004228F4D2A0784228F1D20022384600F07C
:101F6000D0FD20780107084801D5012200E00022B9
:101F7000BDE8F041102100F0C4BD00001D000020AC
:101F800038000020390000200004004870B51748D0
:101F90000025016821F44061016001680160134C73
:101FA000103404E06D1CEDB2012004F047FC206801
:101FB00010F02000206002D0C82DF3D30FE0C82D10
:101FC0000DD2002504E06D1CEDB2012004F036FCBA
:101FD000206810F02000206003D0F02D04D30120F1
:101FE00070BDF02DEFD3FAE7002070BD000400486B
:101FF00070B500F0A7F800F085F8FFF7C7FFCC2018
:1020000000F0AEF8BE2000F0ABF800F06BF804462C
:1020100000F068F8072805D9C043E143C0B2CCB24C
:10202000002500E0012504EB002000B205F00BF9CB
:102030006FF0030205F045FD002D01D181F0004154
:1020400070BD00000D4800B5C16C87B041F00201C1
:10205000C164C06C694600F0020005902020009029
:1020600001200190029003200390054800F080FCBD
:1020700000F048F8FFF78AFF07B000BD00100240EB
:102080000004004870B5164C206820F440602060C1
:10209000206840F480602060114D1435286820F0DD
:1020A00020002860022004F0C9FB286840F02000CE
:1020B0002860206820F440602060206820600C20A8
:1020C00004F0BCFB281F016811F02001016001D061
:1020D000012400E00024322004F0B0FB204670BD53
:1020E0000004004870B500255FF00104FFF7CAFF47
:1020F000C001641C40EA5500E4B2C5B2082CF5D911
:10210000284670BD0E4810B5016821F44061016099
:10211000016841F480610160094C1434206820F0AA
:102120002000206040F2EE2004F088FB206840F0A0
:1021300020002060BDE810400F2004F07FBB0000AD
:102140000004004810B5FFF7DDFFFFF71FFFCC20AC
:1021500000F006F8BDE81040442000F001B800008F
:1021600070B506461648016821F4406101600168B7
:1021700041F480610160124C0125143416F0010F06
:1021800020684FEA560620F02000206008D0022088
:1021900004F054FB206840F0200020603C2007E061
:1021A0003C2004F04BFB206840F02000206002201F
:1021B00004F044FB6D1CEDB2082DDFD970BD0000AA
:1021C000000400487047000000B587B069460090E1
:1021D000012001900720029000200590074800F0A0
:1021E00023F8064800F081FB0A21044800F028FB90
:1021F000024800F01CFA07B080B200BDB01F0020FA
:102200002DE9F04100250E4607462C4605E03846EC
:10221000FFF7DAFF641C0544E4B2B442F7D3B5FB20
:10222000F6F080B2BDE8F0812DE9F847002600966F
:1022300090F85420B246012A21D04FF0010980F8CD
:1022400054900468A26852077DD44A681F254FF451
:10225000F863052A16D2276B93FAA3FCBCFA8CFC10
:1022600002FB0CFC05FA0CF5AF4393FAA3F3B3FAA7
:1022700083F30D685A4395402F43276344E00220BF
:1022800000F0D2B90A2A14D2676B93FAA3FCBCFA05
:102290008CFC521F02FB0CFC05FA0CF5AF4393FAC1
:1022A000A3F3B3FA83F30D685A4395402F43676352
:1022B0002AE00F2A14D2A76B93FAA3FCBCFA8CFC79
:1022C0000A3A02FB0CFC05FA0CF5AF4393FAA3F3B0
:1022D000B3FA83F30D685A4395402F43A76313E085
:1022E000E76B93FAA3FCBCFA8CFC0F3A02FB0CFCE4
:1022F00005FA0CF5AF4393FAA3F3B3FA83F30D6831
:102300005A4395402F43E7630568AA684FF00704D6
:1023100012F00C0F4FF038027ED10B680A2B1BD342
:10232000AF6992FAA2FCBCFA8CFC0A3B03FB0CFCE2
:1023300092FAA2F804FA0CFCB8FA88F827EA0C071B
:1023400003FB08F300E033E1D1F808C00CFA03FC0A
:1023500047EA0C07AF6117E06F6992FAA2FCBCFA7A
:102360008CFC03FB0CFC04FA0CFC27EA0C0792FA29
:10237000A2F8B8FA88F8D1F808C003FB08F30CFA01
:1023800003FC47EA0C076F6103684F69DD68D1F809
:102390001080C5F3C1056D00AF40DFF878C24FF083
:1023A000F845B8F1010F53D0B8F1020F64D0B8F17D
:1023B000030F77D0B8F1040F73D01F6E95FAA5F80C
:1023C00007F0F84C0F68B8FA88F807FA08F7BC4528
:1023D00003D11F6E27F000471F6603685F6E95FAF2
:1023E000A5F807F0F84C0F68B8FA88F807FA08F76C
:1023F000BC4503D15F6E27F000475F6603689F6EA0
:1024000095FAA5F807F0F84C0F68B8FA88F807FABB
:1024100008F7BC4505D100E013E09F6E27F00047A8
:102420009F660368DF6E95FAA5F507F0F84C0F6814
:10243000B5FA85F5AF40BC4503D1DD6E25F000450A
:10244000DD6603689D6805F00305012D54D150E059
:10245000D3F8608095FAA5F508EA0C08D1F800C019
:10246000B5FA85F50CFA05FC4CEA070C48EA0C08AD
:1024700048F000451D66E4E7D3F8648095FAA5F5B9
:1024800008EA0C08D1F800C0B5FA85F50CFA05FC8D
:102490004CEA070C48EA0C0848F000455D66D0E7B6
:1024A00000E013E0D3F8688095FAA5F508EA0C0877
:1024B000D1F800C0B5FA85F50CFA05FC4CEA070C1A
:1024C00048EA0C0848F000459D66BAE7D3F86C80EE
:1024D00095FAA5F508EA0C08D1F800C0B5FA85F51B
:1024E0000CFA05FC4CEA070C48EA0C0848F00045D9
:1024F000A6E71D68ED0760D1CD68B5F1804F07D024
:1025000053F8B04F0D7809FA05F294431C6034E09B
:1025100053F8B07F91F800C009FA0CF52F431F6003
:102520000B680568092B14D3AF6992FAA2FCBCFAB8
:102530008CFC093B03FB0CFC04FA0CF4A74392FA55
:10254000A2F2B2FA82F28C6853439C402743AF61F7
:1025500013E06F6992FAA2FCBCFA8CFC5B1C03FBD3
:102560000CFC04FA0CF4A74392FAA2F2B2FA82F23B
:102570008C6853439C4027436F610968264A1129A0
:1025800003D0122904D031B117E093681B0204E094
:102590009368DB0101E093685B02002B0DDB0368AD
:1025A0009C6804F00304012C0BD11C68E40708D0DC
:1025B000816D41F020018165012680F854A03046EC
:1025C0005EE6164C11290AD012291CD00029F4D13C
:1025D000A342F2D1916841F480019160EDE7A342FA
:1025E000EBD1916841F4000191600D490D4A0968F1
:1025F000B1FBF2F1C1EB0111C90000E0491E0091ED
:102600000029FBD1D9E7A342D7D1916841F080716D
:10261000E3E7000000F0FF03000304500000045053
:102620000000002080841E0018BCBDE8E087006820
:10263000006C7047F8B54FF0000504002E46009579
:1026400002D0A06D10B107E00120F8BD204600F0D7
:10265000CDF8E66584F8546020688168890003D568
:10266000816821F00051816020688168C90010D420
:10267000816841F080518160584859490068B0FB39
:10268000F1F000EB8000400000E0401E00900028C8
:10269000FBD120688168C90008D4A16D41F0100108
:1026A000A165E16D41F00101E1650125A16DC9065A
:1026B0007ED4816849077BD4A16D41F00201A165F8
:1026C0004849826802F00302012A02D10068C0076B
:1026D00005D18868626820F47C1010438860E16846
:1026E000A06B4FF40053084393FAA3F3E269B3FAE3
:1026F00083F3A1689A40114308434FF4803292FA61
:10270000A2F2616AB2FA82F2914008434FF4602269
:10271000A16A92FAA2F2B2FA82F2491E91400843EB
:10272000E16A012903D0226B0AB1114308432168F1
:10273000CA682D4B1A400243CA602168886810F0AD
:102740000C0F1DD14FF4804292FAA2F2A069B2FAA6
:1027500082F29040022393FAA3F3626BB3FA83F3FD
:102760009A401043CA6844F202039A430243CA6083
:10277000E06B01280CD02068016921F001010161A2
:10278000206901282068016B21F00F0113D015E0AA
:10279000D4E910010843D4E9121211430843216817
:1027A0000A6940F2FD739A43104340F0010000E0D3
:1027B0000CE00861E4E7226A521E11430163A06D38
:1027C00020F0020040F00100A06504E0A06D40F0A0
:1027D0001000A06501252846F8BD0000000000207B
:1027E00080841E000003045007C0F0FF00B500689D
:1027F000104987B088421AD10F48C16C41F400518A
:10280000C164C16C01F400510591C16C41F0020139
:10281000C164C06C694600F002000590032000907E
:102820000B20019000200290044800F0A1F807B0AE
:1028300000BD0000000004500010024000040048E9
:102840002DE9F0410446406901270D4608280AD0C9
:102850002068C068C00708D0A06D40F02000A065C7
:102860000120BDE8F081082600E0042600F04EF9C2
:1028700080460EE0681C0CD02DB100F047F9A0EBAB
:102880000800A84205D9A06D40F00400A06503200F
:10289000E7E7206800683042ECD02068016809074B
:1028A00000D40027C168082E0ED04A0401D40422A7
:1028B0000260A06D40F40070A065A7B12068C068F8
:1028C00010F4406F02D00EE00822F1E788040AD429
:1028D000A06D20F48070A065A06DC00403D4A06D2D
:1028E00040F00100A0650020BBE710B50446006879
:1028F0008068400711D494F8540001280DD00120BD
:1029000084F854002046FFF74FF902004FF0000111
:1029100005D084F85410104610BD022010BDA06DE3
:10292000C00404D5E06D20F00600E06500E0E1653C
:10293000A06D40F60163984340F48070A065A06DDF
:1029400020F48010A06523681C2018602068C368EC
:102950009B0105D5A36D23F4005343F48053A36575
:1029600084F85410816841F004018160D3E70000CD
:102970002DE9F84FDFF870B1002301274FF0030A6B
:102980004FF00F090BF1040EA7E000BF07FA03F6A2
:10299000324070D04C68022C01D0122C10D1DC08CF
:1029A00000EB8408D8F820405D074FEAD56C09FA9F
:1029B0000CF5AC430D6905FA0CF52543C8F8205019
:1029C000D0F800805D0091F804C00AFA05F40CF01C
:1029D000030C28EA04080CFA05FC4CEA080CC0F8C1
:1029E00000C0D1F804C0BCF1010F08D0BCF1020F47
:1029F00005D0BCF1110F02D0BCF1120F16D1D0F8E6
:102A000008C0D1F80C802CEA040C08FA05F848EA52
:102A10000C08C0F80880D0F804C02CEA060C0E7927
:102A2000C6F300169E4046EA0C064660C668A643FA
:102A30008C68AC403443C4604C68E4004CD52B4CEB
:102A4000256E45F001052566246E23F0030504F08C
:102A500001040094264C2E19B4689D074FEA157C9A
:102A600009FA0CF5AC43B0F1904F05D0214DA842C6
:102A700004D1012508E02FE0002505E01E4DA84205
:102A800001D1022500E0072505FA0CF52543B560C4
:102A9000DBF800405D464E689443F60300D51443CE
:102AA0002C60DEF8004075464E689443B60300D5AE
:102AB00014432C600C4D08352C684E689443F60284
:102AC00000D514432C60084D0C352C684E68944397
:102AD000B60200D514432C605B1C0A6832FA03F47A
:102AE0007FF454AF00F00AB8000401400010024027
:102AF00000000140000400480008004818BCBDE880
:102B0000E08F0AB1816170478162704701480068B7
:102B1000704700000400002002480168491C016061
:102B2000704700000400002010B5052000F048F8B0
:102B30000F2000F005F800F017F8002010BD00008D
:102B400010B5044607484FF47A710068B0FBF1F005
:102B500000F0B2FD00222146501E00F011F80020C6
:102B600010BD000000000020704700F01F0201218E
:102B700091404009800000F1E020C0F8001170474A
:102B8000F0B40E4B1B680C46C3F30223C3F10705D8
:102B9000042D00D90425191D072901D2002300E0C6
:102BA000DB1E012606FA05F1491E214099409E4090
:102BB000761E16403143F0BC00F047BF0CED00E03C
:102BC000064900F0070208684FF6FF03184040EA84
:102BD0000220034A10430860704700000CED00E03B
:102BE0000000FA051549B0F5007F0868C0F34120E0
:102BF00009D0022805D0086820F4C06040F4806045
:102C00000860002070470128FBD0086820F4C060ED
:102C100040F4007008600A480A4A0068B0FBF2F00D
:102C20003222504300E0401E10B14A695205FAD4E6
:102C300048694005E5D5032070470000007000405A
:102C40000000002040420F000248006800F4C0600D
:102C500070470000007000402DE9F84F044600273F
:102C600000889C4D3E46000515D5E06B60B1B0F57F
:102C7000000F04D0B0F5400F2BD001270AE0E86820
:102C800040F48030E86024E00021201D03F040F88B
:102C900007001ED03E462068800338D5A86D4FF04F
:102CA0000008C00009D4A86D40F08050A865A86D48
:102CB0004FF0010800F080500090DFF81CA2DAF815
:102CC000001041F48071CAF80010FFF71FFF814621
:102CD00010E0D5F88800E16B20F440000843C5F807
:102CE0008800D8E7FFF712FFA0EB0900022801D9FE
:102CF000032704E0DAF80000C005F3D5EFB33E4641
:102D0000B8F1000F03D0A86D20F08050A86520789E
:102D1000C00707D0D5F88800216A20F003000843D7
:102D2000C5F888002078800707D5D5F88800616A43
:102D300020F00C000843C5F888002078800607D5ED
:102D4000D5F88800A16A20F440600843C5F88800DF
:102D50002088800507D5D5F88800616B20F44020D5
:102D60000843C5F888002088400509D5D5F88800B3
:102D7000A16B20F44010084300E02EE0C5F8880065
:102D80002078400607D5D5F88800E16A20F4405045
:102D90000843C5F888002088C00507D5D5F8880005
:102DA000216B20F440300843C5F8880020884FF09C
:102DB000006780044FF080684ED5D5F88800216CFC
:102DC00020F040600843C5F88800206CB8423BD131
:102DD000E86840F48010E8603EE0D5F8900010F418
:102DE000407014D0216D814211D0D5F89000D5F8F3
:102DF000901020F4407041F48031C5F89010D5F85F
:102E0000901021F48031C5F89010C5F89000C007EB
:102E100011D0FFF77BFE074641F2883907E000BF7B
:102E2000FFF774FEC11B494501D9032668E7D5F8B1
:102E300090008007F4D5D5F89000216D20F4407003
:102E40000843C5F890005BE7404505D10121201DEE
:102E500002F05EFF00B106462068400317D5D5F8A2
:102E60008800616C20F040600843C5F88800606C01
:102E7000B84204D1E86840F48010E86007E04045BB
:102E800005D10121201D02F043FF00B10646208834
:102E9000400411D5D5F88800A16C20F040500843BB
:102EA000C5F88800A06CB0F1805F05D10221201D1B
:102EB00002F02EFF00B106462088000406D555F822
:102EC000880FE16C20F0804008432860304600F015
:102ED00005B80000001002400070004018BCBDE8BA
:102EE000E08F00002DE9F047DFF8688105460E46C7
:102EF000D8F8000000F00700B0420CD2D8F800105B
:102F000021F007013143C8F80010D8F8000000F0A4
:102F10000700B04274D128784F4C800705D5A068CF
:102F2000A96820F0F0000843A0602878C00756D0B8
:102F30006868022818D0032819D02168D0B1490543
:102F400000295DDAA16821F003010143A160FFF7C8
:102F5000DDFD6968074641F28830022912D0032955
:102F60001ED0814649B335E021688903E8E721682E
:102F70008901E5E78907E3E7FFF7C8FDC11B49457C
:102F800001D924E08146A068C0F381000228F3D172
:102F900025E000BFFFF7BAFDC11B494501D916E086
:102FA0008146A068C0F381000328F3D117E000BF79
:102FB000FFF7ACFDC11B494509D8A06810F00C0F04
:102FC000F6D10CE0FFF7A2FDC11B494502D9032051
:102FD000BDE8F087A068C0F381000128F2D1D8F8DD
:102FE0000010404601F00701B1420BD9016821F001
:102FF000070131430160006800F00700B04201D0D2
:103000000120E5E72878400705D5A068E96820F4A5
:10301000E0600843A0602878000706D5A068296909
:1030200020F4605040EAC100A06000F051F8A168AF
:10303000F02292FAA2F201F0F001B2FA82F2D1404B
:10304000064A515CC840064908600F20FFF778FD2A
:103050000020BDE70020024000100240507B000825
:1030600000000020014800687047000000000020B8
:1030700008480949006889684FF4E06292FAA2F2B0
:1030800001F4E061B2FA82F2D140044A515CC840D6
:10309000704700000000002000100240907B0008F4
:1030A00008480949006889684FF4605292FAA2F210
:1030B00001F46051B2FA82F2D140044A515CC84036
:1030C000704700000000002000100240907B0008C4
:1030D00070B53B49002318468A683A4C12F00C0F31
:1030E0004FEA640514D08A68C2F38102032A04D12E
:1030F000CA6802F00302012A0AD08A68C2F3810278
:10310000012A21D08A68C2F38102022A1ED01EE061
:103110000A68120706D4D1F894204FF4706302F4C1
:10312000706203E00A68F02302F0F00293FAA3F35E
:10313000B3FA83F3DA40244B53F822308A6812F052
:103140000C0F04D1184602E0204600E028468A68A9
:10315000C2F38102032A31D1C868CA6800F00300B3
:10316000702696FAA6F602F07002B6FA86F6F240DB
:10317000521C4FF4FE46022804D0032805D0B3FBAE
:10318000F2F004E0B4FBF2F001E0B5FBF2F0CA6843
:1031900096FAA6F302F4FE42B3FA83F3DA40C96862
:1031A00050434FF0C06292FAA2F201F0C061B2FA4D
:1031B00082F2D140491C4900B0FBF1F070BD000023
:1031C000001002400024F400607B00082DE9F84361
:1031D00004460078FE4DC00663D5A86810F00C0FB9
:1031E0000AD0A0690028286878D040F00100286043
:1031F000FFF78CFC06465AE02868800702D5A069D4
:1032000000286AD0216A28684FF0F006000703D52D
:10321000286800F0F00003E0D5F8940006EA1010EA
:10322000814216D9084602F027FE002855D12868A9
:1032300040F0080028602868216A20F0F000084368
:1032400028606868E16920F47F4040EA01206860F6
:1032500015E0286840F0080028602868216A20F0FE
:10326000F000084328606868E16920F47F4040EA84
:1032700001206860206A02F0FFFD0028D6D1FFF728
:1032800027FFA96896FAA6F201F0F001B2FA82F2DD
:10329000D140D04A515CC840CF4908600F20FFF7A9
:1032A0004FFC2BE0FFF732FC801B02287ED82868F9
:1032B0008007F7D5286840F0080028602868216A50
:1032C00020F0F000084328606868E16920F47F403E
:1032D00040EA0120686011E000E0B7E020F0010062
:1032E0002860FFF713FC064605E000BFFFF70EFC61
:1032F000801B0228DAD828688007F7D42078C00716
:1033000048D0A868C0F3810002281DD0A868C0F387
:103310008100032803D1E868C043800714D06068A7
:10332000B0F5803F17D0B0F5A02F286817D020F453
:1033300080302860286820F4802028606068E0B130
:10334000FFF7E4FB064614E02868800322D5606896
:1033500000287BD01EE0286840F48030EDE740F480
:1033600080202860F7E700BFFFF7D0FB801B6428B0
:103370009CD828688003F7D50CE0FFF7C7FB06460A
:1033800005E000BFFFF7C2FB801B64288ED82868C9
:103390008003F7D42078800748D5A8684FF0F85705
:1033A000C0F38100012816D0A86800E0D4E0C0F383
:1033B0008100032804D1E86800F0030002280AD045
:1033C000E0680028286821D040F480702860FFF76A
:1033D0009DFB06460BE0286840050BD5E0680028F9
:1033E000B7D007E0FFF792FB801B0228C0D82868FF
:1033F0004005F7D5686897FAA7F22169B2FA82F218
:1034000020F0F8509140084368600FE020F480708D
:103410002860FFF77BFB064605E000BFFFF776FB61
:10342000801B0228A4D828684005F7D4207800071C
:1034300029D560690028D5F8940013D040F0010028
:10344000C5F89400FFF762FB064606E021E100BFE5
:10345000FFF75CFB801B02287ED8D5F8940080071C
:10346000F6D510E020F00100C5F89400FFF74EFB00
:10347000064604E0FFF74AFB801B02286CD8D5F80B
:1034800094008007F6D42078400761D5A86D002607
:10349000C00008D4A86D40F08050A865A86D012632
:1034A00000F0805000904D480168C90511D40168B2
:1034B000804641F480710160FFF728FB074604E075
:1034C000FFF724FBC01B022846D8D8F80000C0052F
:1034D000F6D5A068012815D00528D5F8900016D09B
:1034E00020F00100C5F89000D5F8900020F004000D
:1034F000C5F89000A06841F28838B8B1FFF706FB24
:1035000007460EE0D5F8900040F00100F0E740F0EB
:103510000400C5F89000F5E7FFF7F8FAC11B414534
:103520001AD8D5F890008007F6D50CE0FFF7EEFA30
:10353000074604E0FFF7EAFAC11B41450CD8D5F86D
:1035400090008007F6D41EB1A86D20F08050A865C9
:103550002078800629D500E082E0606A0028D5F84E
:10356000980011D040F00100C5F89800FFF7CEFA9E
:10357000064604E0FFF7CAFA801B022870D8D5F887
:1035800098008007F6D510E020F00100C5F89800FB
:10359000FFF7BCFA064604E0FFF7B8FA801B0228E2
:1035A0006FD8D5F898008007F6D4A06AE8B3A96868
:1035B000C1F3810103296CD00228286820F08070B3
:1035C000286018D0286800010DD4E86808E00000E1
:1035D00000100240507B00080000002000700040F6
:1035E00020F00300E860E8682B490840E860FFF736
:1035F0008DFA044648E0FFF789FA064605E000BF69
:10360000FFF784FA801B02283BD828688001F7D492
:10361000206B54F82C1F000110380843218A1F4AE0
:10362000490802EB4151A26800E030E041EA022182
:103630000843217D4FF07E42490802EB4161084377
:10364000217B40EAC160E860286840F08070286013
:10365000E86840F08070E860FFF758FA044606E03A
:103660000FE000BFFFF752FA001B022809D82868B4
:103670008001F7D50BE000BFFFF748FA001B0228D6
:1036800002D90320BDE8F88328688001F4D4002023
:10369000F8E70120F6E70000FFFFEEFE0000E0FF84
:1036A0004FF0E0210428086903D020F004000861ED
:1036B000704740F00400FAE710B5401EB0F1807F7B
:1036C00001D3012010BD4FF0E02460610F2160178D
:1036D00000F0BBF90020A06107202061002010BD90
:1036E00010B5040003D094F8390010B107E00120B0
:1036F00010BD002084F83800204600F00DF80220AC
:1037000084F83900211D206802F0F4FC012084F8BF
:103710003900002010BD000008B500680B49884240
:1037200012D10B48816D41F020018165806D03222B
:1037300000F02000009001213720FFF721FABDE8BA
:1037400008403720FFF711BA08BD00000014004000
:10375000001002400168CA6842F00102CA600068B5
:10376000016841F0010101600020704710B50400BC
:1037700003D094F8690010B107E0012010BD0020CB
:1037800084F86800204600F027F8242084F86900B7
:103790002068016821F001010160204602F06EFD01
:1037A0000128EBD0606A10B1204602F0D5FC2068F9
:1037B000416821F4904141602068816821F02A012C
:1037C00081602068016841F0010101602046BDE888
:1037D000104002F025BD00002DE9F04705463348B2
:1037E000334C0227072686B04FF001084FF003093B
:1037F0004FF0904A854225D1E06C40F00100E06432
:10380000E06C00F001000590206E40F480402066DE
:10381000206E049600F4804005904FF4C0608DE85F
:10382000810369465046FFF7A3F82868016841F014
:1038300020010160022211462520FFF7A1F9252071
:10384000FFF793F91B4885422CD1E06C40F0010052
:10385000E064E06C00F001000590A06D40F40030E1
:10386000A065A06D049600F40030059004208DE85A
:103870008103694654465046FFF77AF808200090C5
:10388000694604962046FFF773F82868016841F0FE
:1038900020010160032202212620FFF771F9262072
:1038A000FFF763F906B0BDE8F0870000401F002075
:1038B0000010024020180020FEE7000030B5144838
:1038C00087B0C16C41F00201C164C16C01F002011A
:1038D0000591C16C41F00101C164C06C012400F08C
:1038E000010005901820CDE9000403256946094828
:1038F000CDE90245FFF73CF84FF41060CDE9000434
:103900006946C004CDE90245FFF732F807B030BD83
:10391000001002400004004810B501461020FEF7D8
:103920006FFC03F0A7FC0D4A0D4B03F0F3FC0022E3
:103930000C4B03F003FB03F059FC84B2204603F068
:1039400099FC4FF03332084B03F0A8FC01D2412020
:1039500010BD0CB1432010BD422010BD52B81E85D1
:10396000EB510A40007CAF403333D33F10B50146E2
:103970000F20FEF745FC03F07DFC0D4A0D4B03F0D4
:10398000C9FC00220C4B03F0D9FA03F02FFC84B2DF
:10399000204603F06FFC4FF03332084B03F07EFCFF
:1039A00001D2412010BD0CB1432010BD422010BDFA
:1039B00052B81E85EB510A40007CAF403333D33FF1
:1039C0000C480B4904220160002141608160C16004
:1039D000C0E90412C16101228161C0E90821C0E986
:1039E0000A12016341638163C163FEF723BE0000D5
:1039F00000000450B01F0020FEE70A46002100F03E
:103A000001B8000010B500234FEA0304641C41EA2A
:103A10000323042CFAD310F0030405D10BE000BFFC
:103A2000521E00F8011B641C002A0CD0042CF7D392
:103A300001E008C0121F042AFBD202E000F8011BBB
:103A4000521E002AFAD110BD70470907090E00283E
:103A500006DA00F00F0000F1E02080F8141D704736
:103A600000F1E02080F800147047704702480068B9
:103A7000002800D0004770477000002010B50446B1
:103A800000F09CF83B490020424A08703A4908700F
:103A90003A4908703A4908603A4908603A4908705A
:103AA0003A4908703A490870116831B13A490968D1
:103AB00019B1126801C1521EFCD138490860384959
:103AC0000860384908603849086038490860384952
:103AD0000860384908603849087001F0D3F901F0EE
:103AE00009FA204600F04CFF2088002841D12046EA
:103AF00000F0A0FF208800283BD1204600F0A6FF60
:103B00002088002835D1204601F042F8208800287E
:103B10002FD1204601F0E2F92088002829D1204643
:103B200001F072FA2088002823D1204601F096FC8B
:103B3000208800281DD1204600F048FF208800285A
:103B400017D1204601F07EFF2088002811D12046A1
:103B500001F088FB208800280BD1204601F0CCFF23
:103B60002088002805D100F009FFBDE81040FFF7CC
:103B70007CBF10BD840000208C000020B20000201B
:103B80001401002018010020A6000020A70000203A
:103B9000A8000020A87B0008A47B00086400002087
:103BA000680000206C0000207000002074000020DD
:103BB000780000207C000020DE0000200548064937
:103BC0000068096800EB8100044920F007000860E4
:103BD00070470000A47B0008A87B00081C0100209F
:103BE00005480078012805D104490878FA2801D24F
:103BF000401C0870704700008C00002084000020EA
:103C0000184810B5007801282BD1FCF787FB044633
:103C10001548017801B3491E11F0FF0101701BD155
:103C200012480078C0B901F01BF911490870114918
:103C300000EB400051F820100F4801600F48006869
:103C4000814209D051F88C0F401C08600C48016873
:103C5000491C0160FDF779FF2046BDE81040FCF7E4
:103C600061BB10BD8C00002084000020B200002049
:103C7000A70000205430002018010020140100206B
:103C8000D40000202DE9F04117460D460446FCF70C
:103C900045FB0646FEF728F80D48C4E90005002557
:103CA0002562656284F8285004F10800E56201F09D
:103CB00007F8204600F016FF06490888401C0880D7
:103CC000FEF722F83046FCF72DFB3D80BDE8F08181
:103CD0004D555458A40000202DE9F04788B089467E
:103CE000054600685149109E1C469046884202D005
:103CF00045F6C45051E0002704B12760FCF70EFBE5
:103D00008246FDF7F1FF95F82810494899B16A6A93
:103D100003689A422CD1FF2922D0491C85F828102B
:103D20000CB1E86A2060FDF7EFFF5046FCF7FAFAA5
:103D300045F2827031E001686962012185F828103E
:103D40000CB1E96A21600068C16B2962C563FDF7A7
:103D5000DBFF5046FCF7E6FA378008B0BDE8F08795
:103D6000FDF7D2FF5046FCF7DDFA45F2847014E00F
:103D70005FEA084107D5FDF7C7FF5046FCF7D2FAC6
:103D800046F2B01009E02B49097841B1FDF7BCFFBC
:103D90005046FCF7C7FA46F663503080DDE792F8EC
:103DA00037C093F8371080468C4502D9104601F091
:103DB000CBFA4B4604222946684600F0F5FEFDF793
:103DC000A3FF5046FCF7AEFA00F0D2F8FCF7A6FAD3
:103DD0000546FDF789FFD8F8000090F8351041B18D
:103DE00001290BD002291AD003290DD046F62E60E6
:103DF0000EE00CB1806C206037800AE00CB1806C62
:103E0000206046F2A91003E004B1276047F2D920F0
:103E10003080FDF779FF2846FCF784FA9DE70CB166
:103E2000806C206045F6C250F2E700004D555458B2
:103E300014010020B20000202DE9FC5F8B460446EF
:103E4000006846491646884204D045F6C4501080A2
:103E500000F08AB8FCF762FA0190FDF745FFDFF841
:103E60000081606AD8F80010884207D0FDF74CFF47
:103E70000198FCF757FA45F2817012E0FDF78EFFCA
:103E80008146E06294F82800401E10F0FF0084F89C
:103E9000280008D0FDF738FF0198FCF743FA45F2F7
:103EA00083703080D4E72146D8F8000000F066FE29
:103EB000208A04F108074FF0000AE8B3D8F80000A0
:103EC00090F8371090F8382091421CD000F045FE51
:103ED0000546D8F8000090F83810A94200D20D46E7
:103EE00090F83710A9420ED201F064F8D8F800001B
:103EF00080F83750284600F0D1FFD8F8000001F0D4
:103F00003FF818480570386800231A468168012078
:103F1000616284F82800C86B2062CC632046CDF82B
:103F2000009000F02FFFFDF7EFFE0198FCF7FAF983
:103F30005FEA0B4003D400E004E000F019F8A6F8B3
:103F400000A085E7C4F824A0554684F828A0FDF712
:103F5000DBFE0198FCF7E6F9358079E74D555458BA
:103F600014010020A60000203CBCBDE8C09F00005A
:103F7000174810B50078002829D116480078002885
:103F800025D1FCF7CBF9044600F06AFF124908700E
:103F9000124900EB400051F8200011490860114916
:103FA0000968884204D12046BDE81040FCF7BAB940
:103FB00050F88C1F491C01600B480168491C0160C6
:103FC000FDF7BEFD2046FCF7ADF9BFF36F8F10BDC6
:103FD00084000020B2000020A70000205430002000
:103FE0001801002014010020D400002070B5044600
:103FF0000E480078012802D045F6896014E00C4D87
:104000002878FA2802D345F209200DE0FCF786F95A
:104010000646FDF769FE2878401C2870FDF774FEFF
:104020003046FCF77FF90020208070BD8C00002016
:10403000B200002070B5044614480078012802D070
:1040400045F6896020E0124D287890B1FCF766F9BA
:104050000646FDF749FE2878401E10F0FF00287044
:104060000AD0FDF751FE3046FCF75CF946F6635086
:104070000AE046F6645007E0FDF746FE3046FCF7DE
:1040800051F9FFF775FF0020208070BD8C000020E3
:10409000B200002070B50F4D0446287818B145F6DF
:1040A0008A60208070BD00F0DBFE0B4908700B4970
:1040B00008700B4900EB400051F8200009490860E6
:1040C0000949086001202870FDF7FCFC43F699209F
:1040D000E7E700008C000020A7000020A6000020D9
:1040E0005430002018010020140100202DE9F04177
:1040F0000646FCF713F90446FDF7F6FD28480025AF
:10410000058028480560284805602848056028483B
:10411000056028480581FDF7F7FD2046FCF702F908
:10412000FCF7FCF80746FDF7DFFD2348046816E0BE
:10413000FCF7F4F80746FDF7D7FDC4F8B05044F893
:10414000745F2563A561A582E5826562A562FDF7BE
:1041500025FE44F8200FA4F134008581646AFDF740
:10416000D3FD3846FCF7DEF8002CE1D1FCF7D6F899
:104170000746FDF7B9FD1148046806E0FCF7CEF8E4
:104180000746FDF7B1FDA585A469FDF7BDFD3846DD
:10419000FCF7C8F8002CF1D13580BDE8F0810000B3
:1041A000BE000020D0000020E40000200401002018
:1041B0008800002048300020D8000020AC000020FB
:1041C000F8B504466946244800F0DAFABDF8000064
:1041D00058BB6A460021022000F006FBBDF8000033
:1041E00018BBFCF79BF80746FDF77EFD1B4E00252C
:1041F0003560FDF789FD3846FCF794F818491948F1
:104200000A6803689A4202D9B2FBF3F010B90A2196
:10421000B2FBF1F06A46002100F0E6FA69460E486A
:1042200000F076F9BDF8000008B12080F8BDFCF779
:1042300075F80746FDF758FD0B480C4905603068D6
:1042400008600B4901200870FDF75EFD3846FCF759
:1042500069F82580F8BD000004350020C00000206A
:10426000CC7B0008B87B0008D0000020C4000020F0
:10427000CC00002002480068002800D000477047AA
:10428000740000202DE9FF4F83B09346DDE91085CF
:10429000DDE9176A139F0446B8F13F0F09D13B4887
:1042A000844206D046F27321AAF8001007B000F04D
:1042B00073B8204601F0E2F84FF00009AAF8009028
:1042C000F00709D0B00707D5284600214A4601E08B
:1042D00004C0491CB942FBD31298CDE9007605EB26
:1042E0008000824603462A465846069900F00EFA98
:1042F000C4F828B00699E1620499216284F83780F5
:1043000084F83880C4F808A0206016982764656295
:104310006060A4F8446000204FEA090104EB8002C9
:10432000401C916710F0FF00F8D004F16000149970
:1043300000F0D0FB204600F03DF8FBF7EFFF05460C
:10434000FDF7D2FC94F8370000F0A8FD204600F0FD
:1043500017FE204601F054F80D490888401C0880DB
:104360000C480078012807D0FDF7CEFC07B028469E
:1043700000F015B8FBF7D6BFFDF7C6FC2846FBF7E3
:10438000D1FF07B000F010B8FFF7F2BD882F002072
:10439000DC0000208C00002030BCBDE8C08F30BCA9
:1043A000BDE8C04FFFF7E6BF30BCBDE8C04FFFF728
:1043B000EBBF000002490968002900D00847704798
:1043C000640000202DE9F04704464A480E46844226
:1043D00004D147F24C100880BDE8F0875CB9FBF7C8
:1043E0009DFF0546FDF780FC43480468FDF78CFC03
:1043F0002846FBF797FFFBF791FF8146FDF774FC1A
:1044000094F836004FF00008082869D2DFE800F081
:104410000441080844410808204600F0CBFD3BE079
:1044200094F8340007282ED2DFE800F02D042D0484
:1044300008040400204600F075FC24E0206BC068EE
:10444000456A204615F8377F00F06CFC15F8010B23
:1044500015F8381988420CD094F83710884208D1E2
:10446000284600F07AFB95F83810814200D20846C1
:10447000074684F8348095F83700B84203D03946AF
:10448000284600F061FF94F83600032801D0072881
:1044900002D1204601F0D4F9E06B10B1204600F0C3
:1044A00033FB04F1600000F0FBFA204600F028F82E
:1044B000204600F0B7FF11490888401E08802046BA
:1044C00000F0DCFFFF2084F83600FDF71DFC4846B5
:1044D000FBF728FFA6F80080BDE8F047FFF748BDCE
:1044E000FDF712FC4846FBF71DFF46F62D603080B5
:1044F00072E70000882F002014010020DC0000205B
:1045000002490968002900D0084770476800002068
:1045100070B50D460646FBF701FF0446FDF7E4FBC8
:10452000FDF7F2FB2046FBF7FDFE29463046BDE8CD
:10453000704001F005B8000002490968002900D068
:10454000084770476C0000202DE9F0471E46140014
:10455000884681464FF0000700D02760FBF7DEFE5B
:104560008246FDF7C1FB3D4D2968C86CD8B1401E9D
:104570008046C8640CB1886C2060FDF70FFC296888
:104580008A6C801AC1F8A000D1F8A420824201D21E
:10459000C1F8A400FDF7B8FB5046FBF7C3FE378017
:1045A0004046BDE8F0875FEA084007D5FDF7ACFB61
:1045B0005046FBF7B7FE46F2B01009E028480078F5
:1045C00048B1FDF7A1FB5046FBF7ACFE46F6635041
:1045D00030800020E5E700214B460722084600F026
:1045E000E3FAFDF791FB5046FBF79CFEFFF7C0FC9A
:1045F000FBF794FE8046FDF777FB286890F83510AE
:1046000031B1012916D003291AD046F62E601BE0DD
:1046100074B1806C2060FDF7C1FB29688A6C801A38
:10462000C1F8A000D1F8A420824201D2C1F8A400B0
:1046300037800AE00CB1806C206046F2A91003E0DC
:1046400004B1276047F2D92030802868C46CFDF798
:104650005BFB4046FBF766FE2046A2E71401002004
:10466000B200002070B514460D460646FDF796FBD5
:104670000246234629463046BDE8704000F0C8BFD8
:104680002DE9F0471D4616460F460446FBF746FE49
:104690008146FDF729FB0CB91B4804684FF0000860
:1046A000206858B194F84400C00713D0FDF72CFBE4
:1046B0004846FBF737FE0020616A1BE0FDF724FB4C
:1046C0004846FBF72FFEC7F8008047F25210C6F8A5
:1046D00000800AE0FDF718FB4846FBF723FEC7F809
:1046E000008047F25410C6F800802880BDE8F087AB
:1046F000401C091D0A68002AFAD03860216C081A8B
:104700003060A5F80080F1E71401002010B5029C8C
:1047100002EB840222F007024FF0807442E90204A7
:10472000164842F80C0C4FF0123042F8100CA2F16F
:1047300014004FF0023240E903134FF0113140F8FA
:10474000101CD10040F8141C4FF0093140F8181C1F
:10475000910040F81C1C4FF007314FF0033440F833
:10476000201C610040F8241C4FF0053140F8281D42
:104770005100C0E9092440F8041D10BDF955000896
:10478000044A904203D147F25B100880704700F062
:1047900095BF0000882F002070B51048006800B158
:1047A0008047FDF7FBFA0E4C0E4A216812689142D1
:1047B00007D0D1F89430C31A41F8903F8D682B444C
:1047C0008B60C2F89400FDF771FA2168D1F8B0202F
:1047D000824201D2C1F8B00070BD00007800002014
:1047E00014010020180100202DE9F04106461D4863
:1047F0000D461446007810B146F6635021E045B1ED
:10480000022D06D0042D05D0082D02D045F62560D6
:1048100017E0A6B1FBF782FD0746FDF765FA2A46C9
:10482000114D23463146286800F0CCFF208858B14E
:10483000FDF76AFA3846BDE8F041FBF773BD47F271
:104840007E201080BDE8F081286800F0B3FBFDF702
:104850005BFA3846FBF766FDFFF78AFB00202080F5
:10486000F0E70000B2000020140100202DE9F04123
:104870002C4D1E46DDE906342D7815B146F6635001
:1048800049E013F00E0547F27E2708D0022D06D02E
:10489000042D08D0082D02D045F625603BE016B95E
:1048A0000AB901B9D0B3204B4FF4FA7CC1EB011126
:1048B0001B68BCFBF3FC66445E434FF47A7CB6FB9A
:1048C000FCF64FF4616C00FB0CF000EB810010442F
:1048D00000FB036616B3FBF721FD0746FDF704FA5C
:1048E0002A46124D23463146286800F06BFF208887
:1048F00030B1FDF709FA3846BDE8F041FBF712BDCB
:10490000286800F057FBFDF7FFF93846FBF70AFD72
:10491000FFF72EFB00202080BDE8F081FFE7278015
:10492000FAE70000B2000020CC7B00081401002050
:1049300008B500F01BF86A4600210848FFF792FE10
:1049400007490868401E086007D106486A460068A3
:10495000086000210448FFF785FE08BD14340020DC
:10496000100100200C0100200435002002480068DE
:10497000002800D0004770477C00002070470000EE
:10498000034A00211160034A118001807047000032
:1049900090000020940000200A4C0B4DFBF7BEFC59
:1049A0000646FDF7A1F92068401C20602868401CDD
:1049B0002860FDF7A9F93046FBF7B4FCFFF756F87D
:1049C000ECE7000080000020C000002000B50E4A87
:1049D00089B0002111600B2205910691CDE90720D5
:1049E0000A480B4A0B4B006812681B680292CDE91B
:1049F00003013F20CDE900030023074A07A10C482B
:104A0000FFF740FC09B000BD80000020A07B00083B
:104A10009C7B0008987B00089949000875432F4F3C
:104A2000532D4949492049646C65205461736B00DA
:104A3000882F0020034A00211160034A1180018061
:104A400070470000980000209C000020F0B5124E36
:104A5000104D31882A68491E8FB2002402F11003DC
:104A6000214608E0E2E80231641C22F8081BA4B2E7
:104A700042F8041C1033BC42F4D311605160118120
:104A8000D160064A2B68136033889380D1801181EE
:104A90000180F0BDB07B0008AC7B000848300020EE
:104AA00010B5428992B10A4903680C681C604368DA
:104AB0000B60CB8844891B1BCB808B8844892344A3
:104AC0008B8000214181818101604160104610BDD1
:104AD00048300020018100214181818101604160D5
:104AE000704700000022074B05A14261C1611968AF
:104AF00019B181614861186070478261FBE700006D
:104B000020000000A0000020F8B50646C46B1CE0A1
:104B1000256AFDF743F90346E0622146304600F07E
:104B20002DF8218A04F1080091B100688168012004
:104B3000666284F82800C86B2062CC63009300236F
:104B40001A46204600F01EF92C46002CE0D1F8BD94
:104B5000002084F828006062F6E73F213C3008E03E
:104B600082682AB1926892F837208A4200D21146B0
:104B7000203000680028F3D1084670473C3001E03F
:104B800002F1200002688A42FAD1116A016070477E
:104B9000034A00211160034A118001807047000020
:104BA000A0000020A40000202DE9F041114D07468F
:104BB0000C4628680026194680F8342080F83560B5
:104BC00000F0AEFB64B1FC6004F108060122394636
:104BD000286800F011F83946304600F076F803E016
:104BE0002868A0F84660066320462968BDE8F041C1
:104BF00000F01CB81401002010B5A0F846200024D5
:104C0000234601630EE04B6041F8103B641C41F801
:104C1000103BA4B241F80C3C21F8083C41F8043C9C
:104C200041F8180C9442EED310BD000038B1426830
:104C3000C1F8BC2081688968096AC161704791F830
:104C40003400022803D0072803D004A002E004A007
:104C500000E005A0C1F8BC00704700002000000083
:104C60005461736B205100005461736B2053656D68
:104C70000000000005A2C1F8BC20816811B189685C
:104C8000096A00E001A1C161704700002000000036
:104C900070B5B0F84640056B0FE0EE68308A083614
:104CA000012807D92946304600F051F829463046F8
:104CB00000F00BF8641EA4B22035002CEDD170BDBD
:104CC0000021016041600181704730B58A6800238E
:104CD00092F8374002891AB1521C028102680BE037
:104CE000012202814B600B60016014E0956895F829
:104CF0003750A54203D85268002AF7D107E032B1F5
:104D0000146854B1C1E900426160116030BD4B606C
:104D100042680A605160416030BD1160C1E90032F3
:104D2000016030BD70B50646B0F84640056B07E03F
:104D3000E8682946083000F00AF8641EA4B220355D
:104D4000002CF5D10020A6F84600306370BD10B5E8
:104D500002890023012A0BD00A6862B14C6874B141
:104D6000546022600289521E02814B600B6010BDAC
:104D700003604360F6E74A6813600260F2E753603D
:104D80004260EFE7F8B50C46064691F8361000256C
:104D9000069808294ED2DFE801F04D4D04044D4D30
:104DA000282894F83410032910D0A265A4F85C30A8
:104DB000A06436B12046FFF7B5FF21463046FFF725
:104DC00059FF94F83600032806D008E000902146E9
:104DD000304600F030F8ECE7204600F031FD204688
:104DE00000F09AF884F8365020E094F83410032943
:104DF00010D0A265A4F85C30A06436B12046FFF75D
:104E000091FF21463046FFF735FF94F8360007281A
:104E100006D008E000902146304600F00CF8ECE7A0
:104E2000204600F00DFD042084F8360084F835504B
:104E300084F83450F8BD70B50C6B049DB1F8461081
:104E40000AE0E668864204D1C4E904022383E561EE
:104E500070BD491E89B220340029F2D170BD000016
:104E600010B50024064802E02034E4B2001D0168B9
:104E70000029F9D00846FBF75CFA2044C0B210BD07
:104E80005C00002000200449024600BF41F82020B9
:104E9000401C0228FAD370475C00002000F01F027B
:104EA00041090120C2F11F029040034A52F821300B
:104EB000034342F8213070475C00002000F01F02DD
:104EC00041090120C2F11F029040034A52F82130EB
:104ED000834342F8213070475C000020034A0021E0
:104EE0001160034A1180018070470000AC0000206F
:104EF000B00000200020074B014600BF00EB40023D
:104F000003EB8202401C11811160C0B25160402845
:104F1000F4D370475430002010B5044690F83700A1
:104F2000FFF7BCFF074994F837000978884220460C
:104F300003D1BDE8104000F023B8BDE8104000F0F8
:104F400003B80000A600002090F837100B4A01EBD0
:104F5000410102EB810100220B8943B15B1C0B81F3
:104F60000B68C0E903320A681061086070470123CA
:104F70000B81C260026108604860704754300020B5
:104F800090F837100A4A01EB410102EB810100223F
:104F90000B893BB15B1C0B81C2604A680261D06027
:104FA0004860704701230B81C26002610860F7E727
:104FB0005430002070B5054690F83700114900EBD9
:104FC000400001EB8001D5E90302002442B10B89C6
:104FD0005B1E0B81D06090B102612C61EC6070BDF2
:104FE00028B10A89521E0A8104610860F5E70C8124
:104FF0000C604C6095F83700FFF760FFEDE74A6002
:10500000EBE7000054300020034A00211160034AFE
:105010001180018070470000B4000020B80000201B
:105020000EB5804C804E2068450004E028466A4654
:105030000021FFF7D9FB30780128F7D16846FFF748
:1050400055F87A4822680168914206D90A462168D3
:10505000B2FBF1F15FEA010803D100680A21B0FB5D
:10506000F1F8DFF8CCB1734F42F2107A5FF000062E
:10507000FCF794FE0190FCF729FE6F490860FBF7EE
:105080004DF90546FCF730FE6C486D4C0168216017
:105090000660FCF739FE2846FBF744F969482368A7
:1050A00002689A422BD96848824202D250460121B6
:1050B00015E06648824203D24FF47A700A210EE06E
:1050C0006348824202D26420014608E0614882427D
:1050D00003D20A204FF47A7101E001205146B2FB5D
:1050E000F1F15843B0FBF1F1AAEB01005A4980B24B
:1050F000ABF800000A88824203D2088001E0ABF8D6
:105100000060FFF7B7F80024FBF708F98146FCF7C9
:10511000EBFD3D6816E000BFFBF700F98146FCF7A8
:10512000E3FD55F8980FC5E90060FCF7EDFD484632
:10513000FBF7F8F868680444FBF7F0F88146FCF7E1
:10514000D3FD2D6AFCF7E0FD4846FBF7EBF8002D98
:10515000E2D12CB33C48844202D25546012015E0EE
:105160003A48844203D24FF47A750A200EE0384858
:10517000844202D26425284608E03648844203D29D
:105180000A254FF47A7001E001255046B4FBF0F097
:105190008146FBF7C3F80290FCF7A6FD3C6822E0CD
:1051A00000250120F4E700BFD4F89C006843B0FB61
:1051B000F9F080B2504500D95046A4F88800B4F800
:1051C0008A10814201D2A4F88A0004F1A8026B4639
:1051D000111D2046FFF754FAFBF7A0F80290FCF7E8
:1051E00083FDD4F8B840FCF78FFD0298FBF79AF8DE
:1051F000002CD9D119480178012903D106706846DD
:10520000FEF774FFFCF7CAFD0199401A14490A68B9
:10521000824200D208606A4600214046FFF7E4FA65
:1052200026E70000B87B0008CC000020CC7B0008FB
:10523000BC000020D800002088000020C000002012
:10524000C8000020C4000020801A060000093D00AC
:10525000005A62020084D717BE000020BA00002066
:10526000D000002030B51D4A89B0002111601C4AD1
:1052700011601C4A11601C4A11701C4A11701C4AB2
:10528000136843B11B4B1C4D1C682D68AC4205D202
:1052900046F62C6108E046F62B6105E0174C2578B0
:1052A0003F2D04D346F62A61018009B030BD0325A5
:1052B00005910691CDE9075011481B6812680068F6
:1052C000CDE90120CDE903312078009000230D4A7B
:1052D0000DA11248FEF7D6FFE7E70000C00000204E
:1052E000C8000020C4000020CC000020BA0000202C
:1052F000BC7B0008C47B0008C87B0008B47B0008A6
:10530000C07B00082150000875432F4F532D494999
:10531000492053746174205461736B00543300202E
:1053200010B5044631B10A460146064800F01AFAA3
:10533000032000E0022084F836002046BDE810403B
:10534000FFF738BEF000002070B50C464FEA0005AC
:1053500095F8360095F8376008281CD2DFE800F091
:1053600004191C1C19191C1C2846FFF723FE85F87C
:1053700037402046FFF792FD2048006885422846C6
:1053800003D1BDE87040FFF7DFBDBDE87040FFF717
:10539000F7BD85F8374070BD85F8374095F8340083
:1053A0000728F8D2DFE800F0040504050A05050027
:1053B000F1E72846BDE87040FFF76ABC2846FFF7D2
:1053C00067FC286BA642C068456A95F8370002D989
:1053D000A042E0D90EE0B0420CD12846FFF7BDFB59
:1053E000044695F83800A04200D2044695F83700EC
:1053F000A042D0D0002DABD170BD00001401002020
:10540000074B0022C0F8B420196829B1C0F8B810C1
:10541000C1F8B40018607047C0F8B820FAE700007F
:10542000D8000020D0E92D2100234AB181B1C2F873
:10543000B810C1F8B420C0F8B830C0F8B430704724
:10544000054A116009B1C1F8B430C0F8B8307047EE
:10545000C2F8B830F1E70000D8000020044A00216B
:105460001160044A1180044A1160018070470000F5
:10547000D8000020DC000020D400002070B50025FA
:10548000056085604560C5600561456104468561CC
:1054900028A0C4E907506562A562E5622563A4F807
:1054A0004650A564A565A4F85C50002104F1600095
:1054B000FFF710FB25676567E567A4F884500020B7
:1054C000C4F8805004EB8001401C8D6710F0FF0091
:1054D000F8D0E564C4F8A050C4F8A450256484F85A
:1054E0008650C4F8AC50C4F8A850A4F844502565C0
:1054F0006565A4F88850A4F88A50C4F88C50C4F8A4
:1055000090503434FCF74AFCC4E91805E56704F808
:10551000015B402004F8015B04F8025B04F8010C15
:1055200004F8040B05A044F8785B20C4C4E90050DB
:1055300070BD00003F5461736B000000200000004C
:1055400070B50D460446FAF7E9FE0646FCF7CCFBBB
:105550000020288094F83610082944D2DFE801F0B2
:10556000040404040D232D37FCF7CEFB3046FAF774
:10557000D9FE47F25310288011E094F88610491E96
:1055800011F0FF0184F8861004D184F8360020461B
:10559000FFF7C2FCFCF7B8FB3046FAF7C3FEBDE8E4
:1055A0007040FEF7E5BC94F88600401E10F0FF0046
:1055B00084F88600EED1012012E094F88600401EA7
:1055C00010F0FF0084F88600E4D1022008E094F88F
:1055D0008600401E10F0FF0084F88600DAD1032018
:1055E00084F83600D6E7FCF78FFB3046FAF79AFED0
:1055F00046F62D60288070BD044808B50068FEF7A7
:105600009BFF69460020FEF7DDFE08BD1401002067
:105610002DE9F8431E46144688460546FAF77EFEF5
:105620008146FCF761FB0DB923480568002046F66A
:10563000C557AC64308095F83600082830D2DFE8D2
:1056400000F004040F0F04040F0FEC6C601C1ED05C
:10565000641CEC64FCF758FB4846FAF763FE28E04C
:1056600095F834000728F0D100231A462946184639
:105670000094FFF787FBEC6CFCF746FB4846FAF713
:1056800051FE5FEA084014D4FEF772FC11E0FCF70B
:105690003BFB4846FAF746FE37800020BDE8F8831A
:1056A000FCF732FB4846FAF73DFE46F62D603080A7
:1056B00000242046F2E700001401002070B50D46DA
:1056C0000446FAF72BFE0646FCF70EFB234804B906
:1056D0000468006884420AD12148007838B1FCF798
:1056E00013FB3046FAF71EFE46F6635034E0002006
:1056F000288094F836100120082926D2DFE801F02E
:10570000040D181A20202020042184F8361084F873
:1057100086002046FFF74EFC01E005210BE0FCF778
:10572000F3FA3046FAF7FEFDBDE87040FEF720BC04
:10573000062100E0072184F8361084F88600EEE7A1
:1057400014F8860F401C2070E9E7FCF7DDFA3046BC
:10575000FAF7E8FD46F62D60288070BD14010020A0
:10576000B200002030B50368002433B94C610A65EB
:10577000C1E90640016001210FE01D6D954216D37D
:105780009D694B610A6555B1C1E906501C6DA21AAD
:105790001A65996169618188491C818030BDC1E9C0
:1057A00006401C6DA21A1A6599610160F3E7521B4D
:1057B0001D465B69002BE0D14C610A65C1E90650CA
:1057C000E8E70000F0B51C461B4BDFF868C0002579
:1057D0001B6847F27E26042A04D0082A08D029B183
:1057E0000A4614E0CA1A624500D882B905651EE06F
:1057F000D0F854E0A3EB0E078F4202D90A4699185D
:1058000004E0CA1B62450BD852B1714441650121C5
:1058100080F8361001460948FFF7A4FF2580F0BD47
:10582000B7FBF1F201FB02E21144C0E914512680FA
:10583000F0BD00000000FFFFE0000020E8000020B5
:1058400030B5D0E90524C369002174B1626122B189
:105850009461146D056D2C44146581619A88521E03
:105860009A8041610165C16130BD32B19161146DB1
:10587000056D2C4414651A60F0E719609980F1E712
:105880002DE9F047FAF74AFD8246FCF72DFAFCF7BE
:1058900085FA1B4D074600262C6814B3206DB046D0
:1058A000401E4FF00409206518E0761C94F836007D
:1058B000B6B2012802D0052806D007E084F8368069
:1058C0002046FFF729FB01E084F8369064692C60DC
:1058D0009CB1A888401EA880C4F81880206D0028BC
:1058E000E3D0EE80FCF75AFAC41BFCF70DFA5046E1
:1058F000FAF718FD2046BDE8F087A5F80480F0E728
:10590000E80000202DE9F047FAF708FD8246FCF791
:10591000EBF9FCF743FA354E804600273468E4B3D0
:10592000206DB946401E20654DE07F1C94F8340080
:105930000025BFB2042802D1206BC068456AC4F8B4
:105940005890A4F85C90FCF729FAA0642046FFF771
:10595000E9F994F83600032802D0072806D008E0B9
:105960002046FFF7D9FA84F8369002E0042084F844
:105970003600032084F8350084F83490DDB195F8C2
:10598000370095F83810884215D094F837108842BF
:1059900011D12846FFF7E1F800E017E095F838103C
:1059A000814200D2084695F83710814203D0014663
:1059B0002846FFF7C9FC64693460A4B1B088401E72
:1059C000B080C4F81890206D0028AED0F780FCF7A6
:1059D000E5F9A0EB0804FCF797F95046FAF7A2FCAA
:1059E0002046BDE8F087A6F80490EFE7F00000201D
:1059F00008B5124C124D00226B4611461046FEF7B8
:105A0000A3FDBDF800000028F5D1FAF787FC064693
:105A1000FCF76AF92068401C2060FCF775F93046F5
:105A2000FAF780FCFFF72CFF0646FFF76BFF2968AB
:105A300030448142DFD22860DDE70000E000002032
:105A4000E400002030B51D4A89B0002111601C4AD5
:105A50001C4B116019609180D1801B4A9980D980BC
:105A6000136843B1194B1A4D1C682D68AC4205D21E
:105A700047F2132108E047F2122105E0154C257882
:105A80003F2D04D347F21121018009B030BD0B2511
:105A900005910691CDE9075018680F4B12681B68F5
:105AA000CDE90301CDE901232078009000230B4AC2
:105AB0000BA11048FEF7E6FBE7E70000E00000203E
:105AC000E8000020F0000020D47B0008DC7B000808
:105AD000C87B0008D07B0008D87B0008F15900087B
